:020000040800F2
:100000000000032001050008FD080008FF080008A3
:1000100001090008030900080509000800000000A4
:10002000000000000000000000000000511E000859
:100030000709000800000000F11E0008551F000815
:100040005105000851050008510500085105000838
:100050005105000851050008510500085105000828
:100060005105000851050008510500085105000818
:100070005105000851050008510500085105000808
:1000800051050008510500085105000851050008F8
:1000900051050008510500085105000851050008E8
:1000A00051050008510500085105000851050008D8
:1000B00051050008510500085105000851050008C8
:1000C00051050008510500085105000851050008B8
:1000D00051050008510500085105000851050008A8
:1000E0005105000851050008510500085105000898
:1000F0005105000851050008510500085105000888
:100100005105000851050008510500085105000877
:1001100051050008510500080909000851050008AB
:100120005105000851050008510500085105000857
:100130005105000851050008510500085105000847
:100140005105000851050008510500085105000837
:100150005105000851050008510500085105000827
:100160005105000851050008510500085105000817
:100170005105000851050008510500080000000065
:1001800051050008510500085105000851050008F7
:1001900051050008510500085105000851050008E7
:0C01A00051050008510500085105000839
:1001B00010B5054C237833B9044B13B10448AFF3A1
:1001C00000800123237010BD0C00002000000000FF
:1001D0009428000808B5034B1BB103490348AFF34B
:1001E000008008BD000000001000002094280008D6
:1001F00053B94AB9002908BF00281CBF4FF0FF318E
:100200004FF0FF3000F07AB9ADF1080C6DE904CE83
:1002100000F006F8DDF804E0DDE9022304B07047E1
:100220002DE9F0478C460D460446089E002B51D11F
:100230008A4217466DD9B2FA82FEBEF1000F0BD08A
:10024000CEF1200C01FA0EF520FA0CFC02FA0EF7A2
:100250004CEA050C00FA0EF44FEA174A250CBCFBD9
:10026000FAF81FFA87F90AFB18CC45EA0C4508FB97
:1002700009F3AB420AD9ED1908F1FF3280F023816E
:10028000AB4240F22081A8F102083D44ED1AA4B22D
:10029000B5FBFAF00AFB105544EA054400FB09F9E6
:1002A000A14509D9E41900F1FF3380F00A81A14585
:1002B00040F2078102383C44A4EB090440EA0840BC
:1002C0000021002E61D024FA0EF400233460736004
:1002D000BDE8F0878B4207D9002E54D0002186E874
:1002E00021000846BDE8F087B3FA83F1002940F009
:1002F0008E80AB4202D3824200F2FA80841A65EB10
:1003000003050120AC46002E3FD086E81010BDE862
:10031000F08712B90127B7FBF2F7B7FA87FEBEF1F3
:10032000000F34D1EB1B3A0C1FFA87FC0121B3FB01
:10033000F2F8250C02FB183345EA03450CFB08F3E1
:10034000AB4207D9ED1908F1FF3002D2AB4200F2FF
:10035000D1808046ED1AA3B2B5FBF2F002FB105536
:1003600043EA05440CFB00FCA44507D9E41900F15D
:10037000FF3302D2A44500F2B8801846A4EB0C0467
:1003800040EA08409DE731463046BDE8F087CEF1AF
:10039000200405FA0EF307FA0EF720FA04F83A0CD7
:1003A00025FA04F448EA0308B4FBF2F14FEA1845D1
:1003B00002FB11441FFA87FC45EA044501FB0CF3DC
:1003C000AB4200FA0EF409D9ED1901F1FF3080F0CB
:1003D0008A80AB4240F2878002393D44EB1A1FFA13
:1003E00088F5B3FBF2F002FB103345EA034500FB4E
:1003F0000CF3AB4207D9ED1900F1FF386FD2AB42D5
:100400006DD902383D44EB1A40EA01418FE7C1F152
:10041000200722FA07F88B4005FA01F448EA0303A3
:1004200020FA07FE4FEA134CFD404EEA040EB5FBDE
:10043000FCF94FEA1E440CFB19551FFA83F844EAF5
:10044000054509FB08F4AC4202FA01F200FA01FA90
:1004500008D9ED1809F1FF3043D2AC4241D9A9F1D6
:1004600002091D442D1B1FFA8EFEB5FBFCF00CFB90
:1004700010554EEA054400FB08F8A04507D9E418DA
:1004800000F1FF3529D2A04527D902381C4440EAA3
:100490000940A4EB0804A0FB02894C45C6464D4622
:1004A00015D312D056B1BAEB0E0364EB050404FA6F
:1004B00007F7CB401F43CC40376074600021BDE894
:1004C000F0871846F8E69046E0E6C245EAD2B8EB77
:1004D000020E69EB03050138E4E72846D7E74046FA
:1004E00091E78146BEE7014678E702383C4445E79C
:1004F000084608E7A8F102083D442BE7704700BF13
:10050000DFF834D0002103E00C4B5B58435004313A
:100510000B480C4B42189A42F6D30B4A02E00023D8
:1005200042F8043B094B9A42F9D300F0F5F902F086
:1005300085F900F001F97047000003203C2900080C
:10054000000000200C0000200C0000204C40002087
:10055000FEE70000034B0360034B0B608023136036
:10056000704700BF280200202800002030B58BB063
:1005700000240594069407940894099401941E4B52
:100580001A6B42F080021A631A6B02F08002019229
:10059000019A02941A6B42F001021A631A6B02F07C
:1005A00001020292029A03941A6B42F040021A630B
:1005B0001A6B02F040020392039A04941A6B42F001
:1005C00002021A631B6B03F002030493049B0B4D9E
:1005D00022464FF4C041284600F034FB4FF4C0439C
:1005E0000593012306930794089405A9284600F073
:1005F00037FA0BB030BD00BF00380240001802408F
:1006000008B50848084B03604FF4E133436000230A
:100610008360C36003610C2242618361C36101F0A6
:1006200071F908BDC83F00200010014000B583B03B
:1006300006E0019B01330193019BB3F5487FF8D39A
:100640004FF0FF3313220649064801F08AF94FF4B0
:100650000051054800F0FCFA00230193ECE700BFCD
:10066000E4280008C83F00200018024000B583B00D
:1006700006E0019B01330193019BB3F5487FF8D35A
:100680004FF0FF3313220649064801F06AF94FF490
:100690008041054800F0DCFA00230193ECE700BF3D
:1006A000F8280008C83F00200018024008B50120C3
:1006B00001F008FAFBE7000010B594B030220021E9
:1006C00008A802F0DFF8002403940494059406942B
:1006D00007940194164B1A6C42F080521A641B6CFA
:1006E00003F080530193019B0294124A136823F490
:1006F000404343F480431360136803F44043029380
:10070000029B0223089301230B9310230C930E9456
:1007100008A800F0A7FA0F23039304940594069405
:100720000794214603A800F0D3FC14B010BD00BF0D
:10073000003802400070004000B58BB000F012F9A4
:10074000FFF7BAFFFFF712FFFFF75AFF03AC124D96
:100750000FCD0FC495E8070084E80700002103A827
:1007600001F07BF90D4B18600024019401250095E0
:1007700023464FF47A720A490A4801F064FE019454
:10078000009523464FF47A720749084801F05BFE52
:1007900001F05EF9FEE700BFAC280008C43F00206E
:1007A000C82800082D060008D02800086D0600089B
:1007B00008B50268034B9A4200D008BD00F0ECF87F
:1007C000FBE700BF0010004000B583B0002200929C
:1007D0000D4B596C41F480415964596C01F48041CE
:1007E000009100990192196C41F0805119641B6CC1
:1007F00003F080530193019B0F216FF0010000F083
:10080000EFF803B05DF804FB0038024000B589B092
:10081000002303930493059306930793026803F15F
:10082000804303F588339A4202D009B05DF804FB97
:100830000021019103F594335A6C42F010025A647E
:100840005A6C02F010020192019A02911A6B42F066
:1008500001021A631B6B03F001030293029B4FF426
:10086000C063039302230493012305930323069398
:100870000723079303A9024800F0F2F8D5E700BF69
:100880000000024010B588B000220146362000F07A
:10089000A7F8362000F0D6F800240194134B1A6C08
:1008A00042F010021A641B6C03F010030193019BC9
:1008B00002A903A800F0DEFC00F0BCFC0C4BA3FB7B
:1008C00000239B0C013B0B480B4A026040F2E732CD
:1008D000C26043600461846000F024FE10B1012016
:1008E00008B010BD034800F0E4FCF9E7003802400E
:1008F00083DE1B4308400020001000407047FEE7E5
:10090000FEE7FEE7FEE7704708B5024800F0E6FCA8
:1009100008BD00BF084000200F49D1F8883043F4DB
:100920007003C1F888300D4B1A6842F001021A605A
:10093000002098601A6822F0847222F480321A60D3
:10094000074A5A601A6822F480221A60D8604FF071
:1009500000638B60704700BF00ED00E0003802408C
:100960001030002408B50B4B1A6842F400721A606C
:100970001A6842F480621A601A6842F480721A603F
:10098000032000F01BF80020FFF77CFFFFF71CFF9F
:10099000002008BD003C0240034A1168034B1B784D
:1009A0000B441360704700BF484000200400002043
:1009B000014B1868704700BF48400020074AD368C1
:1009C00023F4E0631B041B0C000200F4E0601843F6
:1009D00040F0BF6040F40030D060704700ED00E0B0
:1009E00030B4164BDB68C3F30223C3F10704042CB5
:1009F00028BF04241D1D062D17D9033B012505FA28
:100A000004F4013C2140994005FA03F3013B1340F3
:100A1000194300280BDB0901C9B200F1604000F561
:100A2000614080F8001330BC70470023E6E700F017
:100A30000F000901C9B2024B1954F4E700ED00E0C0
:100A400014ED00E0002808DB420900F01F0001233C
:100A500003FA00F0014B43F82200704700E100E088
:100A6000F0B583B000244BE04FEAD40E0EF1080E2F
:100A700050F82E2004F00706B6000F27B74022EAF0
:100A800007020F6907FA06F6324340F82E2046E0C7
:100A9000092600E0002606FA0EF632430233644EC1
:100AA00046F82320634B1A68EB4302EA03064F68BB
:100AB00017F4803F01D045EA02065E4A166052688C
:100AC00003EA02064F6817F4003F01D045EA020628
:100AD000584A5660926803EA02064F6817F4801F6E
:100AE00001D045EA0206534A9660D26813404E6828
:100AF00016F4001F01D045EA02034E4AD3600134C8
:100B00000F2C00F292800123A3400A6803EA020539
:100B1000AB42F4D14A68022AA6D0122AA4D00668B1
:100B20004FEA440E032202FA0EF2D24316404F68F7
:100B300007F0030707FA0EF73E4306604E68771E7C
:100B4000012F03D9112E01D0122E0FD18668164025
:100B5000CF6807FA0EF73E438660466826EA03032D
:100B60004E68C6F30016A64033434360C3681A407C
:100B70008B6803FA0EF31A43C2604B6813F0805F70
:100B8000BDD0002301932C4B5A6C42F480425A642E
:100B90005B6C03F480430193019BA3089E1C244AD1
:100BA00052F8262004F003064FEA860E0F2606FAB6
:100BB0000EF622EA0602214FB8423FF46BAF204EF8
:100BC000B04222D006F58066B04220D006F580669D
:100BD000B0421ED006F58066B0421CD006F5806695
:100BE000B0421AD006F58066B04218D006F580668D
:100BF000B04216D006F58066B04214D006F5806685
:100C0000B0423FF445AF0A2645E7012643E70226F6
:100C100041E703263FE704263DE705263BE7062696
:100C200039E7072637E7082635E703B0F0BD00BFF0
:100C300000380140003C0140003802400000024002
:100C40000004024012B90904816170478161704754
:100C5000436931EA030301D081617047090481616E
:100C600070470000002800F0BB8170B582B00446D8
:100C7000036813F0010F3BD0A74B9B6803F00C03F4
:100C8000042B2CD0A44B9B6803F00C03082B21D021
:100C90006368B3F5803F4FD0B3F5A02F52D09E4B81
:100CA0001A6822F480321A601A6822F480221A60CC
:100CB0006368002B50D0FFF77BFE0546964B1B6800
:100CC00013F4003F14D1FFF773FE401B6428F5D9DD
:100CD00003208AE1904B5B6813F4800FD8D08E4BD1
:100CE0001B6813F4003F03D06368002B00F07A8187
:100CF000236813F0020F55D0874B9B6813F00C0F3D
:100D00003ED0854B9B6803F00C03082B33D0E3687F
:100D1000002B68D00122814B1A60FFF749FE05467F
:100D20007D4B1B6813F0020F54D1FFF741FE401BAF
:100D30000228F5D9032058E1774A136843F4803339
:100D40001360B5E7744B1A6842F480221A601A687F
:100D500042F480321A60ABE7FFF72AFE05466E4B7D
:100D60001B6813F4003FC3D0FFF722FE401B64282A
:100D7000F5D9032039E1684B5B6813F4800FC6D1C5
:100D8000654B1B6813F0020F04D0E368012B01D000
:100D900001202AE1604A136823F0F803216943EA3D
:100DA000C1031360236813F0080F40D0636963B375
:100DB00001225B4B1A60FFF7FBFD0546564B5B6F4C
:100DC00013F0020F33D1FFF7F3FD401B0228F5D9D2
:100DD00003200AE1504A136823F0F803216943EA2B
:100DE000C1031360DEE700224C4B1A60FFF7E0FD01
:100DF0000546494B1B6813F0020FD3D0FFF7D8FD0F
:100E0000401B0228F5D90320EFE00022444B1A6072
:100E1000FFF7CEFD0546404B5B6F13F0020F06D087
:100E2000FFF7C6FD401B0228F5D90320DDE023684B
:100E300013F0040F79D0384B1B6C13F0805F33D163
:100E400000230193344B1A6C42F080521A641B6CDD
:100E500003F080530193019B0125324B1B6813F46F
:100E6000807F23D0A368012B34D0052B38D02A4BA8
:100E70001A6F22F001021A671A6F22F004021A6731
:100E8000A368002B36D0FFF793FD0646224B1B6F5D
:100E900013F0020F48D1FFF78BFD801B41F288331E
:100EA0009842F3D90320A0E00025D6E71D4A136835
:100EB00043F480731360FFF77BFD0646194B1B68F4
:100EC00013F4807FCED1FFF773FD801B0228F5D984
:100ED00003208AE0104A136F43F001031367CFE742
:100EE0000D4B1A6F42F004021A671A6F42F00102AA
:100EF0001A67C5E7FFF75CFD0646074B1B6F13F04B
:100F0000020F11D0FFF754FD801B41F28833984245
:100F1000F3D9032069E000BF0038024000004742D7
:100F2000800E474200700040E5B9A369002B5BD0FA
:100F3000304A926802F00C02082A58D0022B17D0CF
:100F400000222D4B1A60FFF733FD0446294B1B6826
:100F500013F0007F42D0FFF72BFD001B0228F5D9CC
:100F6000032042E0234A136C23F080531364DCE730
:100F70000022214B1A60FFF71BFD05461D4B1B6825
:100F800013F0007F06D0FFF713FD401B0228F5D9B0
:100F900003202AE0E369226A1343626A43EA821368
:100FA000A26A5208013A43EA0243E26A43EA026350
:100FB000104A53600122104B1A60FFF7F9FC0446F7
:100FC0000C4B1B6813F0007F06D1FFF7F1FC001BF0
:100FD0000228F5D9032008E0002006E0002004E004
:100FE00001207047012000E0002002B070BD012008
:100FF000FBE700BF0038024060004742F8B5314BC4
:101000009B6803F00C03042B59D0082B01D02E4809
:10101000F8BD2C4B5A6802F03F025B6813F4800F56
:101020002AD0284B5B68C3F388131E4600275C0157
:101030000025E41A65EB0705A90141EA9461A001C6
:10104000001B61EB0501CB0043EA5073C400A019FB
:1010500043EB07014B0243EAD053440220461946B2
:101060000023FFF7C5F8174B5B68C3F30143013357
:101070005B00B0FBF3F0F8BD124B5B68C3F3881361
:101080001E4600275C010025E41A65EB0705A9014F
:1010900041EA9461A001001B61EB0501CB0043EA2A
:1010A0005073C400A01943EB07018B0243EA90532D
:1010B0008402204619460023FFF79AF8D3E7034835
:1010C000F8BD00BF003802400024F40000127A008E
:1010D000002800F09D8070B504464F4B1B6803F05C
:1010E0000F038B4209D2CBB24B4A1370136803F043
:1010F0000F03994201D0012070BD236813F0020F45
:1011000017D013F0040F04D0444A936843F4E0531B
:101110009360236813F0080F04D0404A936843F4A7
:10112000604393603D4A936823F0F003A068034353
:1011300093600D46236813F0010F32D06368012BD2
:1011400021D09A1E012A25D9344A126812F0020FC2
:1011500060D032498A6822F0030213438B60FFF7A4
:1011600027FC06462D4B9B6803F00C036268B3EB2B
:10117000820F16D0FFF71CFC801B41F28833984287
:10118000F0D9032070BD254A126812F4003FE0D167
:10119000012070BD214A126812F0007FD9D10120D0
:1011A00070BD1D4B1B6803F00F039D4209D2EAB2CC
:1011B000194B1A701B6803F00F039D4201D00120E8
:1011C00070BD236813F0040F06D0144A936823F40B
:1011D000E053E1680B439360236813F0080F07D0D6
:1011E0000E4A936823F46043216943EAC103936084
:1011F000FFF704FF094B9B68C3F30313084AD35C52
:10120000D840084B18600020FFF73CFB002070BD61
:1012100001207047012070BD003C024000380240B0
:101220000C29000800000020014B1868704700BF1F
:101230000000002008B5FFF7F7FF044B9B68C3F3DD
:101240008223034AD35CD84008BD00BF0038024067
:101250001C29000808B5FFF7E7FF044B9B68C3F3A0
:101260004233034AD35CD84008BD00BF0038024077
:101270001C2900080F2303600B4B9A6802F003023D
:1012800042609A6802F0F00282609A6802F4E052CA
:10129000C2609B68DB0803F4E0530361034B1B68E7
:1012A00003F00F030B60704700380240003C02401F
:1012B00070470268D36843F00103D3600268936803
:1012C00003F00703062B03D0136843F001031360F8
:1012D00000207047704770477047704710B504464C
:1012E00003681A6912F0020F11D0DA6812F0020FC7
:1012F0000DD06FF002021A610123037703689B6926
:1013000013F0030F70D0FFF7E6FF00232377236865
:101310001A6912F0040F12D0DA6812F0040F0ED01E
:101320006FF004021A610223237723689B6913F488
:10133000407F5FD02046FFF7CEFF0023237723684E
:101340001A6912F0080F12D0DA6812F0080F0ED0E6
:101350006FF008021A61042323772368DB6913F016
:10136000030F4ED02046FFF7B6FF002323772368F4
:101370001A6912F0100F12D0DA6812F0100F0ED0A6
:101380006FF010021A61082323772368DB6913F4D6
:10139000407F3DD02046FFF79EFF00232377236840
:1013A0001A6912F0010F03D0DA6812F0010F36D17A
:1013B00023681A6912F0800F03D0DA6812F0800FE8
:1013C00034D123681A6912F0400F03D0DA6812F0A2
:1013D000400F32D123681A6912F0200F03D0DA6867
:1013E00012F0200F30D110BDFFF774FF2046FFF739
:1013F00073FF8AE72046FFF76DFF2046FFF76CFF7B
:101400009BE72046FFF766FF2046FFF765FFACE746
:101410002046FFF75FFF2046FFF75EFFBDE76FF056
:1014200001021A612046FFF7C3F9C1E76FF080029D
:101430001A61204600F090F8C3E76FF040021A618D
:101440002046FFF74AFFC5E76FF020021A612046E9
:1014500000F081F8C7E700000368314A904212D0DB
:10146000B0F1804F0FD0A2F57C4290420BD002F534
:101470008062904207D002F58062904203D002F56C
:101480007842904203D123F070034A681343244A00
:1014900090422AD0B0F1804F27D0A2F57C429042F2
:1014A00023D002F5806290421FD002F58062904204
:1014B0001BD002F57842904217D002F5705290424C
:1014C00013D002F5806290420FD002F58062904204
:1014D0000BD0A2F59832904207D002F5806290427C
:1014E00003D002F58062904203D123F44073CA68AE
:1014F000134323F080034A69134303608B68C3627C
:101500000B688362064B984206D003F580639842CD
:1015100002D00123436170470B690363F9E700BF01
:1015200000000140A8B110B5044690F83D305BB111
:10153000022384F83D30211D2068FFF78DFF012331
:1015400084F83D30002010BD80F83C30FFF7B0FE3D
:10155000EEE7012070477047704700002DE9F04723
:1015600004460268136923F44053C1680B431361B6
:1015700083680269134342691343C26913430168D4
:10158000CA6822F4164222F00C021343CB600268B0
:10159000536923F4407381690B435361C369B3F505
:1015A000004F62D0D0F80080BB4B984500F01B8103
:1015B00003F58063984500F01681FFF73BFE00EBD2
:1015C000800000EB80006568AD00B0FBF5F5B34F1F
:1015D000A7FB05356D092E01FFF72CFE00EB8000FF
:1015E00000EB80006568AD00B0FBF5FAFFF722FE66
:1015F00000EB800000EB80006568AD00B0FBF5F506
:10160000A7FB05356D094FF0640909FB15A52D01F0
:101610003235A7FB05356D0905F0F0053544FFF7B8
:1016200009FE00EB800000EB80006668B600B0FBAE
:10163000F6F6FFF7FFFD00EB800000EB800063682B
:101640009B00B0FBF3F0A7FB0030400909FB1069D9
:101650004FEA091909F13209A7FB0937C7F3431704
:101660002F44C8F80870BDE8F087D0F8008003F177
:10167000804303F5104398455CD003F5806398459B
:1016800058D0FFF7D7FD00EB800000EB80006568C5
:101690006D00B0FBF5F5814FA7FB05356D092E01F7
:1016A000FFF7C8FD00EB800000EB800065686D006F
:1016B000B0FBF5FAFFF7BEFD00EB800000EB800009
:1016C00065686D00B0FBF5F5A7FB05356D094FF0BA
:1016D000640909FB15A5ED003235A7FB05356D0939
:1016E0006D0005F4F8753544FFF7A4FD00EB8000AC
:1016F00000EB800066687600B0FBF6F6FFF79AFD17
:1017000000EB800000EB800063685B00B0FBF3F34C
:10171000A7FB03235B0909FB13694FEAC90909F118
:101720003209A7FB0937C7F342172F44C8F80870DE
:10173000BDE8F087FFF78EFD00EB800000EB800036
:1017400065686D00B0FBF5F5544FA7FB05356D09D5
:101750002E01FFF77FFD00EB800000EB8000656845
:101760006D00B0FBF5FAFFF775FD00EB800000EBB4
:10177000800065686D00B0FBF5F5A7FB05356D09C8
:101780004FF0640909FB15A5ED003235A7FB0535BF
:101790006D096D0005F4F8753544FFF75BFD00EB4E
:1017A000800000EB800066687600B0FBF6F6FFF77D
:1017B00051FD00EB800000EB800063685B00B0FB34
:1017C000F3F3A7FB03235B0909FB13694FEAC9097C
:1017D00009F13209A7FB0937C7F342172F44C8F8AC
:1017E0000870BDE8F087FFF735FD00EB800000EBE7
:1017F00080006568AD00B0FBF5F5284FA7FB053507
:101800006D092E01FFF726FD00EB800000EB800044
:101810006568AD00B0FBF5FAFFF71CFD00EB80003A
:1018200000EB80006568AD00B0FBF5F5A7FB053562
:101830006D094FF0640909FB15A52D013235A7FB91
:1018400005356D0905F0F0053544FFF703FD00EBA4
:10185000800000EB80006668B600B0FBF6F6FFF78C
:10186000F9FC00EB800000EB800063689B00B0FB9C
:10187000F3F3A7FB03235B0909FB13694FEA09197B
:1018800009F13209A7FB0937C7F343172F44C8F8FA
:101890000870BDE8F08700BF001001401F85EB51C4
:1018A0002DE9F04105460F4616469846069C2B68E2
:1018B0001B6837EA03030CBF01230023B3421ED188
:1018C000B4F1FF3FF3D02CB1FFF772F8A0EB0800A2
:1018D0008442ECD22A68D36823F4D073D3602A6898
:1018E000536923F001035361202385F8393085F8CB
:1018F0003A30002385F838300320BDE8F08100201D
:10190000BDE8F08158B310B5044690F839300BB3F8
:10191000242384F839302268D36823F40053D36039
:101920002046FFF71BFE2268136923F490431361DE
:101930002268536923F02A0353612268D36843F471
:101940000053D3600020E063202384F8393084F80A
:101950003A3010BD80F83830FEF758FFD8E7012044
:1019600070472DE9F04182B01E4690F83930DBB265
:10197000202B04D00223184602B0BDE8F0810446B3
:101980000D469046002955D0002A55D090F83830A1
:10199000012B01D10223EEE7012380F83830002328
:1019A000C363212380F83930FFF702F80746A4F813
:1019B0002480A4F8268010E000963B460022802177
:1019C0002046FFF76DFF002838D122682B88C3F32B
:1019D000080353602369CBB90235E38C9BB2BBB1DA
:1019E000E38C9BB2013B9BB2E384A368B3F5805FB9
:1019F000E2D000963B46002280212046FFF750FFB0
:101A0000F0B923682A785A600135E6E70135E4E742
:101A100000963B46002240212046FFF741FF034647
:101A200008B10323A7E7202284F83920002284F894
:101A30003820A0E701239EE701239CE703239AE7D0
:101A4000032398E7842801D00330704700207047B3
:101A500008B500F02BFD002008BD2DE9F04387B04C
:101A600004460F464569BDB18669AEB1D0F8048021
:101A7000D0F80090B0F90800FFF7E4FF2269029661
:101A8000019500903B464946404600F0A3FC059076
:101A9000059807B0BDE8F08365682668D4F8108023
:101AA000B4F90800FFF7CEFF05AB019300903B4669
:101AB0001FFA88F23146284600F0C5FC0128E7D01D
:101AC0000020E6E708B5034600B90123184600F0F8
:101AD0003FFE002008BD0000124A12F0070F1ED082
:101AE000D11D21F00701C1F5705313440A460E4879
:101AF0000260002141601344083B23F007030B48B8
:101B0000036059601960991A51601360084B19609D
:101B1000084B19604FF00042074B1A6070474FF4B2
:101B20007053E4E7800200208C3E00207C020020FD
:101B3000883E0020843E0020803E002010B4134BDD
:101B40001A6882421BD359685C18A04203D14068CE
:101B500001445960184641684418A24213D10C4C04
:101B60002468A2420DD05268114441601A6812687C
:101B70000260984200D018605DF8044B704713462D
:101B8000DEE70460F5E70260F3E700BF8C3E00206B
:101B90007C02002070B5044600F0C4FC3A4B1B6880
:101BA000BBB13A4B1B681C4263D1ACB1083414F092
:101BB000070F11D024F00704083404F007035BB1C9
:101BC0004FF0500383F31188BFF36F8FBFF34F8F34
:101BD000FEE7FFF781FFE4E7002C4CD02C4B1B689D
:101BE0009C424AD82B4B1D6801E02B4615466A687B
:101BF000944202D92A68002AF7D1234A12689542F2
:101C00003DD01E6808362A681A606B681B1B102BB3
:101C100010D9281910F0070F08D04FF0500383F3A4
:101C20001188BFF36F8FBFF34F8FFEE743606C6087
:101C3000FFF784FF6A6816490B689B1A0B60164908
:101C400009688B4201D214490B60104B1B68134387
:101C50006B6000232B6000F0FDFC16F0070F10D026
:101C60004FF0500383F31188BFF36F8FBFF34F8F93
:101C7000FEE70026EFE70026EDE70026EBE700266B
:101C8000E9E7304670BD00BF7C020020803E0020A6
:101C9000843E00208C3E0020883E002080B338B572
:101CA0000446A0F1080550F8042C164909680A42B8
:101CB00008D14FF0500383F31188BFF36F8FBFF348
:101CC0004F8FFEE750F8080C40B14FF0500383F3FC
:101CD0001188BFF36F8FBFF34F8FFEE722EA010237
:101CE00044F8042C00F01EFC54F8041C064A136847
:101CF0000B4413602846FFF721FF00F0ABFC38BD12
:101D0000704700BF803E0020843E002000F10803A1
:101D100043604FF0FF328260C360036100230360C1
:101D2000704700230361704743684B609A688A607C
:101D30009A685160996008610368013303607047D5
:101D400030B40D68B5F1FF3F02D000F1080202E0A7
:101D5000026904E01A4653681C68A542FAD2536827
:101D60004B6099608A6051600861036801330360C9
:101D700030BC70470369426881689160826841683D
:101D800051605A68904206D0002202611A68013AF6
:101D90001A601868704782685A60F5E782B00023BD
:101DA00001930D4B1B68B3F1FF3F08D04FF0500378
:101DB00083F31188BFF36F8FBFF34F8FFEE74FF0B0
:101DC000500383F31188BFF36F8FBFF34F8F019BD5
:101DD000002BFCD002B070470800002008480068C3
:101DE000006880F308884FF0000080F3148862B622
:101DF00061B6BFF34F8FBFF36F8F00DF00BF0000EE
:101E000008ED00E0DFF80C00016841F470010160AA
:101E10007047000088ED00E04FF0807340F8043C0C
:101E200021F0010140F8081C054B40F80C3C40F83B
:101E3000202C6FF0020340F8243C4438704700BF68
:101E40009D1D0008000000000000000000000000D0
:101E5000074B19680868B0E8F04F80F30988BFF3B2
:101E60006F8F4FF0000080F311887047AFF3008050
:101E70009C3E00204FF0500383F31188BFF36F8F17
:101E8000BFF34F8F0A4A136801331360012B0DD142
:101E9000084B1B6813F0FF0F08D04FF0500383F37B
:101EA0001188BFF36F8FBFF34F8FFEE7704700BFFE
:101EB0000800002004ED00E0094B1B6843B94FF017
:101EC000500383F31188BFF36F8FBFF34F8FFEE78B
:101ED000013B034A13600BB983F31188704700BFBD
:101EE00008000020000000000000000000000000CA
:101EF000EFF30980BFF36F8F154B1A681EF0100FB8
:101F000008BF20ED108A20E9F04F10602DE909008C
:101F10004FF0500080F31188BFF34F8FBFF36F8FE6
:101F200000F03EFC4FF0000080F3118809BC1968F6
:101F30000868B0E8F04F1EF0100F08BFB0EC108A30
:101F400080F30988BFF36F8F704700BFAFF3008045
:101F50009C3E002008B54FF0500383F31188BFF377
:101F60006F8FBFF34F8F00F0E5FA18B14FF080523A
:101F7000024B1A60002383F3118808BD04ED00E0D2
:101F8000084A0023136008490B60084B1B68084986
:101F9000A1FB03139B09013B06490B600723136058
:101FA000704700BF10E000E018E000E000000020F3
:101FB000D34D621014E000E03A4B1A683A4B9A4253
:101FC00008D14FF0500383F31188BFF36F8FBFF335
:101FD0004F8FFEE7334B1A68344B9A4208D14FF0CB
:101FE000500383F31188BFF36F8FBFF34F8FFEE76A
:101FF00010B582B02E4B1A78D2B20192FF221A701D
:102000001B78DBB28DF803309DF8033003F05003EA
:10201000284A13700722284B1A6009E0264A1368E1
:10202000013B13609DF803305B00DBB28DF8033099
:102030009DF8033013F0800FF0D11F4B1B68032B6A
:1020400008D04FF0500383F31188BFF36F8FBFF3B5
:102050004F8FFEE71B0203F4E063174A1360019BF6
:10206000DBB2134A1370154B1A6842F470021A60FF
:102070001A6842F070421A60FFF782FF0024104B8A
:102080001C60FFF7BFFE0F4A136843F04043136024
:10209000FFF7A4FE00F084FBFFF780FE204602B0AD
:1020A00010BD00BF00ED00E071C20F4170C20F41D2
:1020B00000E400E0943E0020983E002020ED00E087
:1020C0000800002034EF00E00A4B1B681B684BB986
:1020D00001234BB9074B1B68DB68DB685A68064B6A
:1020E0001A6070470023F4E74FF0FF32024B1A608A
:1020F000704700BFA03E0020743F00202DE9F0474C
:1021000080469946089D099F0A9C266B02F18042F1
:10211000013A06EB820626F0070600230F2B07D8AC
:10212000C85CE21882F83400CA5C0AB10133F5E7F2
:10213000002384F84330062D00D90625E562656446
:102140004FF0000AC4F848A0201DFFF7EAFD04F193
:102150001800FFF7E6FD2461C5F10705A56164627B
:10216000C4F84CA084F850A04A4641463046FFF7D8
:1021700053FE206007B13C60BDE8F08738B500240D
:1021800007E004EB840293000E481844FFF7BEFDFD
:102190000134062CF5D90C4D2846FFF7B7FD0B4C42
:1021A0002046FFF7B3FD0A48FFF7B0FD0948FFF7E7
:1021B000ADFD0948FFF7AAFD084B1D60084B1C60E8
:1021C00038BD00BFA83E00204C3F0020603F0020EB
:1021D0007C3F0020A83F0020943F0020A03E00202C
:1021E000A43E002010B50446FFF744FE204A1368C1
:1021F000013313601F4B1B68002B31D01E4B1B6833
:102200003BB91C4B1B68DA6AE36A9A4201D8194B46
:102210001C601A4A136801331360E36A01229A4072
:102220001749086802430A6003EB83039A00211DE3
:1022300014481044FFF778FDFFF73EFE0E4B1B6875
:102240006BB10C4B1B68DA6AE36A9A4207D24FF013
:1022500080520D4B1A60BFF34F8FBFF36F8F10BDCD
:10226000044B1C601368012BD3D1FFF787FFD0E725
:10227000343F00209C3E0020903F0020443F00203F
:10228000483F0020A83E002004ED00E010B50446C1
:1022900090F8513063B1012B11D0022B12D04FF0C6
:1022A000500383F31188BFF36F8FBFF34F8FFEE7A7
:1022B000006BFFF7F3FC2046FFF7F0FC10BDFFF7C3
:1022C000EDFC10BD10BD00000F4B1B68D3B110B565
:1022D000FFF7D0FD0D4BDB68DC68201DFFF74AFDE2
:1022E0000B4A1368013B1360074A1368013B1360F4
:1022F000FFF7E2FD2046FFF7C9FF034B1B68002BE9
:10230000E6D110BD704700BF383F0020A83F002035
:10231000343F002008B5FFF7D7FF064B1B68012BA1
:10232000F9D94FF08052044B1A60BFF34F8FBFF3BF
:102330006F8FF0E7A83E002004ED00E070B5044682
:102340000E461D4B1D681D4B18680430FFF712FD2B
:1023500050B91A4B1B68DA6A012303FA02F21849D2
:102360000B6823EA02030B60B4F1FF3F13D02C4447
:10237000124B1B685C60A54216D8124B18680F4BB5
:1023800019680431FFF7DCFC0F4B1B689C4201D23B
:102390000D4B1C6070BD002EE9D0084B196804314C
:1023A0000A48FFF7C1FC70BD094B1868034B196858
:1023B0000431FFF7C5FC70BDBC3F00209C3E0020EF
:1023C000483F0020A03E0020743F0020943F0020A2
:1023D000A43E002070B586B00B9D0C9C75B1B4B1C5
:1023E00054260496049E542E1AD04FF0500383F3C3
:1023F0001188BFF36F8FBFF34F8FFEE74FF050038D
:1024000083F31188BFF36F8FBFF34F8FFEE74FF059
:10241000500383F31188BFF36F8FBFF34F8FFEE735
:102420002563022584F8515000250395029405ADDB
:1024300001950A9D0095FFF761FE2046FFF7D2FE49
:10244000059806B070BD2DE9F04385B006460F46ED
:10245000154698469000FFF79DFB10B38146542027
:10246000FFF798FB0446C0B1C0F83090DCB1002300
:1024700084F85130039302940D9B01930C9B0093BD
:1024800043462A4639463046FFF738FE2046FFF7D6
:10249000A9FE012005B0BDE8F0834846FFF7FEFB2A
:1024A000E4E70024E2E74FF0FF30F3E710B588B02F
:1024B00000240594069407AA06A905A8FEF74AF881
:1024C000059B0293069B019300942346079A1049AB
:1024D0001048FFF77FFF18B101231BB908B010BDEA
:1024E0000023FAE74FF0500383F31188BFF36F8F97
:1024F000BFF34F8F4FF0FF32074B1A600122074B9B
:102500001A600022064B1A60FFF756FDE6E700BF8F
:102510002429000815230008743F0020903F002064
:10252000BC3F0020024A136801331360704700BFAC
:10253000403F0020F8B53C4B1B68002B68D13B4B5B
:102540001D6801351D60C5B9394B1B681B6843B157
:102550004FF0500383F31188BFF36F8FBFF34F8F9A
:10256000FEE7334A1168334B186810601960324A2D
:10257000136801331360FFF7A7FD304B1B689D42C2
:102580003AD200242E4B1B68DB6A03EB83039A00CC
:102590002C4B9B58012B40D901243EE00124244BB5
:1025A0001B681B6853B3002353BB214B1B68DB68BC
:1025B000DE6873689D4228D3371D3846FFF7DAFB83
:1025C000B36A1BB106F11800FFF7D4FBF36A0122CE
:1025D0009A401D49086802430A6003EB83039A008E
:1025E000394618481044FFF79FFBF26A144B1B68EA
:1025F000DB6A9A42D2D2D2E70024D0E70123D3E7A4
:102600004FF0FF320D4B1A60BCE70C4A1360B9E77C
:102610000E4A13680133136000240D4B1B6803B18D
:1026200001242046F8BD00BF403F0020BC3F0020F1
:10263000A03E0020A43E0020783F0020743F0020F0
:102640009C3E0020A83E0020483F00203C3F002048
:10265000C03F002038B5354B1B6843B94FF05003DD
:1026600083F31188BFF36F8FBFF34F8FFEE7FFF740
:1026700001FC2E4B1A68013A1A601B68002B50D1DE
:102680002B4B1B6823B90024FFF716FC204638BDEE
:102690000024284B1B681BB3264BDB68DC6804F165
:1026A0001800FFF767FB251D2846FFF763FBE36A69
:1026B00001229A402049086802430A6003EB830321
:1026C0009A0029461D481044FFF72EFBE26A1C4B76
:1026D0001B68DB6A9A42DCD301221A4B1A60D8E7E6
:1026E0000CB1FFF7F1FC184B1C6874B9154B1B6853
:1026F000CBB14FF08052154B1A60BFF34F8FBFF331
:102700006F8F0124C0E7013C07D0FFF713FF0028BB
:10271000F9D001220B4B1A60F5E700220A4B1A6030
:10272000E4E70024B0E70024AEE700BF403F00200C
:10273000343F00207C3F0020483F0020A83E00207E
:102740009C3E0020C03F00203C3F002004ED00E004
:1027500010B5A8B10446104B1B6843B14FF05003AD
:1027600083F31188BFF36F8FBFF34F8FFEE7FFF73F
:10277000D9FE00212046FFF7E1FDFFF76BFF00E0E7
:10278000002038B94FF08052044B1A60BFF34F8FCE
:10279000BFF36F8F10BD00BF403F002004ED00E08D
:1027A000214B1B68C3B90022204B1A60204B1B68C9
:1027B000B3FA83F3DBB2C3F11F0303EB83018A0097
:1027C0001C498A5862B94FF0500383F31188BFF354
:1027D0006F8FBFF34F8FFEE70122144B1A607047D3
:1027E00010B414489A00D418A10001444C686468DD
:1027F0004C601A4491000831084484420BD003EB2A
:1028000083039A000B4B13445B68DA680A4B1A6027
:102810005DF8044B7047606803EB83029100054A42
:102820000A445060EBE700BF403F0020C03F00205B
:10283000483F0020A83E00209C3E002070B50D4E71
:102840000D4CA41BA4100025A54209D10B4E0C4C25
:1028500000F020F8A41BA4100025A54205D170BDEE
:1028600056F8253098470135EEE756F82530984759
:102870000135F2E73429000834290008342900081A
:102880003829000802440346934200D1704703F8F8
:10289000011BF9E7F8B500BFF8BC08BC9E467047BD
:0C28A000F8B500BFF8BC08BC9E467047AD
:1028AC00D8280008AD060008000000000000000059
:1028BC008000000000000000000000005461736BF9
:1028CC00310000005461736B320000006465666176
:1028DC00756C745461736B005461736B2031206997
:1028EC00732072756E6E696E670D0A005461736B9E
:1028FC0020322069732072756E6E696E670D0A0046
:10290C000000000000000000010203040607080993
:10291C00000000000102030449444C450000000083
:08292C00F4D8FF7F0100000058
:04293400D5010008C1
:04293800B1010008E1
:0C293C000024F40001000000AAAAAAAACE
:0400000508000501E9
:00000001FF
