:020000040800F2
:10000000005000204D180008E5160008E71600080B
:10001000E9160008EB160008ED16000800000000C5
:10002000000000000000000000000000EF160008C3
:10003000F116000800000000F3160008F51600088D
:1000400095180008951800089518000895180008DC
:1000500095180008951800089518000895180008CC
:1000600095180008951800089518000895180008BC
:1000700095180008951800089518000895180008AC
:10008000951800089518000895180008951800089C
:10009000951800089518000895180008951800088C
:1000A000951800089518000895180008951800087C
:1000B000951800089518000895180008951800086C
:1000C000951800089518000895180008951800085C
:1000D000951800089518000895180008951800084C
:1000E000F91600089518000895180008000000008F
:1000F0000000000000000000000000000000000000
:0C01000000000000000000005FF808F1A3
:10010C0010B5054C237833B9044B13B10448AFF345
:10011C0000800123237010BD70000020000000003F
:10012C000427000808B5034B1BB103490348AFF380
:10013C00008008BD000000007400002004270008A7
:10014C0038B50E4B054618784FF47A73B3FBF0F3C1
:10015C000B4A1068B0FBF3F000F0A0F8044658B955
:10016C000F2D09D8024629464FF0FF3000F054F805
:10017C00044B20461D6038BD012038BD0000002016
:10018C000800002004000020074A08B5136803206B
:10019C0043F01003136000F02DF80020FFF7D0FFA0
:1001AC0001F078FA002008BD00200240034A044BFD
:1001BC0011681B780B441360704700BF9800002037
:1001CC0000000020014B1868704700BF9800002009
:1001DC0038B50446FFF7F6FF0546631C1EBF044BFB
:1001EC001B78E418FFF7EEFF401B8442FAD838BDA9
:1001FC0000000020074A0002D36800F4E06023F4FA
:10020C00E0631B041B0C43F0BF6343F40033034354
:10021C00D360704700ED00E0174B30B5DC68C4F3D9
:10022C000224C4F10703251D042B28BF0423062D2B
:10023C004FF0010598BF002405FA03F303F1FF33D7
:10024C0088BF033C1940A14005FA04F4013C22404C
:10025C00002842EA01024FEA0212A9BF00F16040F5
:10026C00064BD2B200F56140BBBF00F00F00D2B21A
:10027C0080F800231A5430BD00ED00E014ED00E0CE
:10028C00002808DB0123420900F01F0003FA00F0EC
:10029C00014B43F82200704700E100E00138B0F157
:1002AC00807F0AD2F021064B064A586082F8231050
:1002BC000020072298601A6070470120704700BF29
:1002CC0010E000E000ED00E02DE9F74F0024264699
:1002DC00664BDFF8A8E1DFF8A8C10A6832FA06F528
:1002EC0002D103B0BDE8F08F4FF0010808FA06F810
:1002FC0002EA080290457FD14D68122D00F0AA80C9
:10030C0000F28380022D00F0A28077D8002D00F03F
:10031C008980012D00F099804FF00F09FF2A93BFBF
:10032C00824606F18045083DD0F800B092BFB5007A
:10033C00D0F804B0AD0009FA05F82BEA080804FA65
:10034C0005F588BF00F1040A48EA0505CAF8005013
:10035C00D1F804A01AF0805F4ED0454D444FAD69E2
:10036C0026F0030845F00105BD61BD6908F1804820
:10037C0005F00105019508F5803806F0030B019D89
:10038C004FEA8B0BD8F8085009FA0BF925EA090942
:10039C00384DA84263D005F58065A84261D005F5BB
:1003AC008065A8425FD005F58065A8420CBF032587
:1003BC00042505FA0BF545EA0905C8F808501D682F
:1003CC001AF4803F14BF154395431D605D681AF401
:1003DC00003F14BF154395435D609D681AF4801F60
:1003EC0014BF154395439D60DD681AF4001F14BFBC
:1003FC002A4325EA0202DA6001366EE7032D22D089
:10040C00112D89D1CC68043486E71B4FBD4209D02D
:10041C0012D8DFF870904D4504D009F580394D4560
:10042C007FF47AAF8C68C4B1012C0CBFC0F810807B
:10043C00C0F8148008246FE77545F3D06545F1D0FA
:10044C00DFF84490EBE7002466E7CC6864E7CC68FF
:10045C00083461E7CC680C345EE704245CE70025C3
:10046C00A7E70125A5E70225A3E700BF000401408B
:10047C000010024000080140000021100000311063
:10048C000000321000001110000022100AB10161AE
:10049C0070470904FBE7C3680B4214BF416101615B
:1004AC007047704708B5044B5969014202D0586136
:1004BC00FFF7F7FF08BD00BF0004014001680022F0
:1004CC004B6913F4806310D06FF480634B6120236D
:1004DC00026380F83D3080F83E20036C80F83C20AD
:1004EC0043F00403036401207047184670472DE95C
:1004FC00F843044617469946C1F307488EB225685F
:10050C00B8F1010F0CBF6B69AB6936EA030314BF7A
:10051C000120002008B9BDE8F8836B695A0516D58F
:10052C002B68202243F400732B606FF480636B61A3
:10053C000023236384F83D2084F83E30226C42F083
:10054C000402226484F83C300120BDE8F8837B1C53
:10055C00D5D0FFF737FEA0EB0900874201D3002F5F
:10056C00CDD100232022236384F83D2084F83E3033
:10057C00226C42F02002E4E770B504460D461646A4
:10058C0023685B695B0701D5002070BD2046FFF72F
:10059C0095FFA8B96A1CF3D0FFF714FE801B8542A7
:1005AC0001D3002DECD100232022236384F83D20BD
:1005BC0084F83E30226C84F83C3042F020022264F5
:1005CC00012070BD70B504460D461646206843697F
:1005DC0013F0400301D0002070BD4269D2060ED545
:1005EC006FF0100242612022236384F83D2084F8CE
:1005FC003E30226C226484F83C30012070BDFFF741
:10060C00E1FD801BA84201D8002DDFD10023202260
:10061C00236384F83D2084F83E30226C42F02002A3
:10062C00E8E72DE9F843044690461F46089EC1F3BF
:10063C0007498DB22368B9F1010F0CBF5B699B6947
:10064C0035EA03030CBF01230023434502D00020ED
:10065C00BDE8F8837B1CEDD0FFF7B4FD801B87420F
:10066C0001D3002FE6D100232022236384F83D2000
:10067C0084F83E30226C84F83C3042F02002226434
:10068C000120BDE8F88370B504460D461646236874
:10069C005B691B0601D5002070BD2046FFF70EFFDD
:1006AC00A8B96A1CF3D0FFF78DFD801B854201D3DE
:1006BC00002DECD100232022236384F83D2084F804
:1006CC003E30226C84F83C3042F02002226401203F
:1006DC0070BD00002DE9FF4115460268984613686D
:1006EC000B9E43F4807313600F4600960A9B002206
:1006FC004FF001110446FFF794FF18B1012004B02C
:10070C00BDE8F081236807F0FE071F610A9A3346A3
:10071C0016492046FFF7EBFE0028EFD12368039023
:10072C005A690A9903929B69324603932046039BAC
:10073C00FFF7A9FF40B1236C042B01BF226813689B
:10074C0043F400731360D9E7B8F1010F236802D1A9
:10075C00EDB21D61D3E72A0A1A610A993246204686
:10076C00FFF791FF0028E6D12368F1E702000100B2
:10077C002DE9FF419846036816461A680B9D42F412
:10078C0080621A601A680F4642F480721A604FF049
:10079C00011100950A9B00220446FFF742FF18B195
:1007AC00012004B0BDE8F0812368FFB207F0FE021F
:1007BC001A6129492B460A9A2046FFF798FE002811
:1007CC00EED1236803905A690A9903929B692A46D1
:1007DC0003932046039BFFF756FF40B1236C042B79
:1007EC0001BF2268136843F400731360D8E7B8F1B3
:1007FC00010F236825D1F6B21E612A460A992046BC
:10080C00FFF741FF02460028E8D1216820460B681B
:10081C0043F480730B6000950A9B4FF00111FFF7B6
:10082C0000FF0028BCD1236847F001071F610A9A1A
:10083C002B4609492046FFF75AFE003018BF01200D
:10084C00AFE7320A1A610A992A462046FFF71BFFC6
:10085C000028C3D12368CEE70200010070B504461E
:10086C0008B9012070BD90F83D3003F0FF021BB9B0
:10087C0080F83C2000F040FE2423226884F83D30B0
:10088C00136823F00103136000F0AEFC6568414B64
:10089C009D424DD8404B9842E3D940492268B0FB69
:1008AC00F1F1536823F03F030B435360136A23F0B9
:1008BC003F03013119431162D169364B21F44F4189
:1008CC009D4221F0FF0100F1FF3048D86D00B0FBD4
:1008DC00F5F00130C0F30B03042B38BF04230B439A
:1008EC00D3611168206AE36921F0C00103430B4313
:1008FC0013609168E068236921F40341034321F0FC
:10090C00FF010B439360D168A069636921F0FF017B
:10091C0003430B43D3601368002043F001031360BF
:10092C002023206484F83D30206384F83E0070BDA1
:10093C001B4B984295D9194E4FF49671B0FBF6F6B5
:10094C0022687143536823F03F0333434FF47A76A4
:10095C005360136AB1FBF6F123F03F03A9E7A368D8
:10096C0053B905EB4503B0FBF3F0431CC3F30B0386
:10097C006BB143F40043B2E719236B43B0FBF3F0C4
:10098C00431CC3F30B0313B143F44043A7E7012308
:10099C00A5E700BFA08601007F841E0040420F0027
:1009AC00FF083D002DE9F743044699460F46904653
:1009BC000C9EFFF707FC94F83D300546202B03D026
:1009CC00022003B0BDE8F0830090192301223B49BB
:1009DC002046FFF726FE0028F2D194F83C30012B7C
:1009EC00EED0012384F83C30236820461A68D107E6
:1009FC0058BF1A6839465CBF42F001021A601A6887
:100A0C0022F400621A60212384F83D30402384F8DC
:100A1C003E30002323640A9B01956362BDF82C30A1
:100A2C0000966385638D42462385254BE3624B46D6
:100A3C00FFF750FE00282AD00120C2E7FFF723FE63
:100A4C0040B1236C042B01BF2268136843F400737C
:100A5C001360F1E7636A27681A4612F8011B3961C3
:100A6C006262628D218D013A92B262857A69481E6A
:100A7C0080B2520720850AD548B15A7802333A61C0
:100A8C006362638D0239013B9BB221856385238DA3
:100A9C002A4631462046002BD0D1FFF76DFD0028A9
:100AAC00CFD12268136843F400731360202384F8B9
:100ABC003C0084F83D3084F83E0082E702001000D0
:100ACC000000FFFF2DE9F043044687B099460D4620
:100ADC009046109FFFF776FB94F83D300646202B8E
:100AEC0004D00225284607B0BDE8F08300901923F6
:100AFC0001227E492046FFF794FD0028F1D194F89D
:100B0C003C30012BEDD0012384F83C30236829467E
:100B1C001A68D00758BF1A6820465CBF42F0010221
:100B2C001A601A6822F400621A60222384F83D309D
:100B3C00402384F83E30002323640E9B01966362AD
:100B4C00BDF83C3000976385638D42462385684B26
:100B5C00E3624B46FFF70CFE054608B10125C1E7E1
:100B6C00228D236892B902905A6902929A69029274
:100B7C00029A1A6842F400721A60202384F83D30FD
:100B8C00002384F83E3084F83C30ABE7012A2FD1A7
:100B9C001A6822F480621A6072B6236803905A694C
:100BAC0003929A690392039A1A6842F400721A60CB
:100BBC0062B6DFF84081238D002BDED0032B77D873
:100BCC00012B31D1324639462046FFF7FBFC002879
:100BDC00C4D12268636A12691A70636A0133636252
:100BEC00238D013B2385638D013B9BB26385E2E73B
:100BFC00022A1A680ED142F400621A6072B6236897
:100C0C0004905A6904929A690492049A1A6822F41C
:100C1C008062CCE742F480621A6005905A690592B2
:100C2C009B690593059BC4E7022B00963B464FF04E
:100C3C0000024146204618D1FFF7F3FC00288DD165
:100C4C0072B623681A6842F400721A601B69626AF1
:100C5C001370636A01336362238D013B2385638DBB
:100C6C00013B9BB2638562B6B3E7FFF7DAFC024641
:100C7C0000287FF473AF21680B6823F480630B604A
:100C8C0072B62168636A096920461970636A009616
:100C9C0001336362238D4146013B2385638D013B08
:100CAC009BB263853B46FFF7BCFC0028C9D055E7D7
:100CBC00324639462046FFF785FC00287FF44EAFBC
:100CCC002268636A12691A70626A531C6362238D0C
:100CDC00013B2385638D013B9BB263852368596976
:100CEC0049077FF568AF1B69537076E70200100067
:100CFC000000FFFF040001002DE9F341054608B98F
:100D0C0001203CE00368DB0710D42B689F075DD4FF
:100D1C002B68190700F194802B685A0700F1BE80EC
:100D2C00E869002840F02C81002028E08F4C636893
:100D3C0003F00C03042B07D0636803F00C03082B9F
:100D4C0009D16368DE0306D523689C03DDD56B6887
:100D5C00002BDAD1D4E76B68B3F5803F12D123684E
:100D6C0043F480332360FFF72DFA0646236898037B
:100D7C00CBD4FFF727FA801B6428F7D9032002B0E5
:100D8C00BDE8F0819BB9236823F48033236023688A
:100D9C0023F480232360FFF715FA06462368990392
:100DAC00B3D5FFF70FFA801B6428F7D9E6E7B3F544
:100DBC00A02F236803D143F480232360CFE723F4CF
:100DCC0080332360236823F48023CBE7674C63686C
:100DDC0013F00C0F07D0636803F00C03082B10D131
:100DEC006368DA030DD423689B0702D52B69012BAA
:100DFC0086D123686A6923F0F80343EAC2032360AF
:100E0C0086E72A695A4B6AB101221A60FFF7DAF9B0
:100E1C00064623689F07ECD4FFF7D4F9801B022801
:100E2C00F7D9ABE71A60FFF7CDF9064623689807A8
:100E3C007FF56EAFFFF7C6F9801B0228F6D99DE748
:100E4C00AA694A4C4B4BDAB101221A60FFF7BAF986
:100E5C000646636A9B070DD54FF4FA52464B1B6846
:100E6C00B3FBF2F3019300BF019B5A1E0192002BBE
:100E7C00F9D151E7FFF7A6F9801B0228E9D97DE7E4
:100E8C001A60FFF79FF90646636A9F077FF544AF28
:100E9C00FFF798F9801B0228F6D96FE7334CE3690A
:100EAC00D80024D40127E36943F08053E361E3695C
:100EBC0003F080530093009B304E3368D90518D54E
:100ECC00EB68012B26D1236A43F001032362FFF761
:100EDC0079F941F288368046236A9B073FD5002F6B
:100EEC003FF41EAFE36923F08053E36118E700275A
:100EFC00E2E7336843F480733360FFF763F98046AD
:100F0C003368DA05DCD4FFF75DF9A0EB0800642840
:100F1C00F6D933E7ABB9236A41F2883823F00103E1
:100F2C002362236A23F004032362FFF74BF906467E
:100F3C00236A9807D3D5FFF745F9801B4045F7D9AD
:100F4C001CE7052B236A03D143F004032362BAE7A1
:100F5C0023F001032362236A23F00403B6E7FFF7AF
:100F6C0031F9A0EB0800B042B6D907E700100240F7
:100F7C000000424280044242080000200070004001
:100F8C002A4B5A681C4602F00C02082A3DD000235A
:100F9C00274E022833602BD1FFF714F9074623683C
:100FAC0099011FD42B6AB3F5803F05D16268A968FB
:100FBC0022F400320A436260696A62680B4322F4CD
:100FCC0074121343636001233360FFF7FBF805468B
:100FDC0023689A013FF5A8AEFFF7F4F8401B0228EE
:100FEC00F6D9CBE6FFF7EEF8C01B0228D7D9C5E639
:100FFC00FFF7E8F8054623689B017FF595AEFFF7F0
:10100C00E1F8401B0228F6D9B8E601283FF4B7AE48
:10101C0058682B6A00F480329A427FF471AE6B6A86
:10102C0000F47010C01A18BF0120A8E6001002408E
:10103C006000424230B5194B87B002AC03F1100589
:10104C00224618685968083303C2AB421446F7D1DC
:10105C0001238DF80430022311498DF805304B68BB
:10106C0003F00C02082A17D1C3F3834206A80244EA
:10107C00DB0312F8102C0CD54B680A48C3F3404321
:10108C00504306AA134413F8143CB0FBF3F007B01A
:10109C0030BD05485043FAE70248F8E71C27000822
:1010AC000010024000127A0000093D002DE9F041C9
:1010BC000D46044610B90120BDE8F081454A13687D
:1010CC0003F007038B4229D321688E0731D4CA075A
:1010DC0044D4404A136803F007039D4267D3226847
:1010EC003D4D12F0040F6ED1130706D56B682269C3
:1010FC0023F4605343EAC2036B60FFF79BFF6B68FA
:10110C00364AC3F30313D35CD840354B1860354BC8
:10111C001868FFF715F80020BDE8F081136823F07C
:10112C0007030B431360136803F007039942C2D102
:10113C00CAE7294B11F0040F1EBF5A6842F4E06253
:10114C005A60080742BF5A6842F460525A605A68A3
:10115C00A06822F0F00202435A60B8E762681E4EA3
:10116C00012A33681BD113F4003FA4D0736841F2F9
:10117C00883823F0030313437360FFF723F8074603
:10118C007368626803F00C03B3EB820FA1D0FFF716
:10119C0019F8C01B4045F3D90320BDE8F081022AA1
:1011AC0002D113F0007FE0E713F0020FDDE71368C4
:1011BC0023F007032B431360136803F007039D42CE
:1011CC007FF479AF8BE76B68E16823F4E0630B4342
:1011DC006B6089E70020024000100240562700088F
:1011EC000800002004000020044B054A5B68C3F390
:1011FC000223D35C034A1068D840704700100240A9
:10120C006627000808000020044B054A5B68C3F3FE
:10121C00C223D35C034A1068D840704700100240C8
:10122C00662700080800002038B505460368C16829
:10123C001A69192422F440520A431A61826800691F
:10124C00D9680243686921F4B05121F00C010243C2
:10125C000A43DA605A69A96922F440720A435A6156
:10126C000D4A934214D1FFF7CFFF60436C686422A0
:10127C00A400B0FBF4F0B0FBF2F402FB14031B016E
:10128C003233B3FBF2F3296803EB04138B6038BDE4
:10129C00FFF7AAFFE9E700BF00380140F8B50446A4
:1012AC000E4617461D4621680B6836EA030301D12A
:1012BC000020F8BD6B1CF7D095B923680320DA68C1
:1012CC0022F4D072DA605A6922F001025A612023AA
:1012DC0084F8393084F83A30002384F83830F8BD7B
:1012EC00FEF770FFC01B8542DDD2E6E710B5044661
:1012FC0040B390F8393003F0FF021BB980F8382066
:10130C0000F06EFA2423226884F83930D368204622
:10131C0023F40053D360FFF787FF236800201A697A
:10132C0022F490421A615A6922F02A025A61DA6850
:10133C0042F40052DA602023E06384F8393084F8F8
:10134C003A3010BD012010BD2DE9F0411F4690F838
:10135C0039300446202B0D4690464ED1002949D0F9
:10136C00002A47D090F83830012B46D0012380F862
:10137C0038300023C363212380F83930FEF722FF75
:10138C000646A4F82480A4F82680E38C9BB26BB9A3
:10139C003B46324640212046FFF780FFA8B9202368
:1013AC0084F8380084F83930BDE8F081E38C32469B
:1013BC00013B9BB2E384A3688021B3F5805F204698
:1013CC003B460ED1FFF76AFF10B10320BDE8F08158
:1013DC002B882268C3F308035360236943B9023591
:1013EC00D3E7FFF75BFF0028EFD123682A785A6018
:1013FC000135CAE70120BDE8F0810220BDE8F0818B
:10140C00102230B589B00DEB0200002100F068FA13
:10141C00254B264D9A69284642F010029A619A692A
:10142C00202102F010020092009A9A69002442F0E6
:10143C0020029A619A6902F020020192019A9A693B
:10144C0042F004029A619A6902F004020292029A32
:10145C009A6942F008029A619B69002203F0080322
:10146C000393039BFFF712F84FF400530493104BB4
:10147C0004A9104805930694FEF726FF2023049335
:10148C0001230593022304A9284607930694FEF72B
:10149C001BFF224621462820FEF7BEFE2820FEF721
:1014AC00EFFE09B030BD00BF001002400008014043
:1014BC00000011100010014008B50C480C4BDFF86F
:1014CC0034E04FF4804280E80840002302618360DE
:1014DC00C36043618361C3610362FFF7BFF918B155
:1014EC00BDE8084000F0D4B808BD00BF9C00002047
:1014FC0000540040A086010010B5044686B01022AE
:10150C00002102A800F0ECF92268154B9A4224D174
:10151C00144C02A9A369144843F00803A361A369FE
:10152C0003F008030093009B4FF4407302931223C3
:10153C00039303230593FEF7C7FE0C4A536843F04D
:10154C00E06343F002035360E36943F40013E36187
:10155C00E36903F400130193019B06B010BD00BFB7
:10156C000054004000100240000C014000000140FB
:10157C00F8B50E4615460024064FAC4201DB284652
:10158C00F8BD3119FF2301223846FFF7DDFE013487
:10159C00F3E700BFF000002010B590B02822002126
:1015AC0006A800F09DF91422002101A800F098F97A
:1015BC0001230A93102302240B934FF4601306A803
:1015CC000F9306940D94FFF797FB0F234FF4806253
:1015DC0001930023214601A80294039304920593DE
:1015EC00FFF764FD10B010BD70B58AB0FEF7CCFDEE
:1015FC00FFF7D2FFFFF704FF00F0D6F8FFF75CFF10
:10160C0005AA15461E4B03F11006144618685968B6
:10161C00083303C4B3422246F7D11868FF23206075
:10162C00029314230022019300950123A021154855
:10163C00FFF7B8F900231A46EA5401330A2BFBD101
:10164C00FF23029314230095019300220123A02170
:10165C000C48FFF737FA00240B4E2A5D2146304622
:10166C00013400F045F9142CF7D1084C2046202108
:10167C00FEF711FF4FF47A70FEF7AAFDF6E700BFF4
:10168C002C2700089C00002040270008000801407F
:10169C00704700000E4B82B09A6942F001029A61C9
:1016AC009A6902F001020092009ADA6942F08052C3
:1016BC00DA61DB69074A03F080530193019B53689D
:1016CC0023F0E06343F00073536002B0704700BF37
:1016DC0000100240000001407047FEE7FEE7FEE705
:1016EC00FEE7704770477047FEF760BD4FF400503F
:1016FC00FEF7D8BE70B50E4615460C46A31B9D4290
:10170C0001DC284670BDAFF3008004F8010BF5E74F
:10171C0008B50A4B0246196809B9094919606946A6
:10172C00186802448A4206D900F0B0F80C23036012
:10173C004FF0FF3008BD1A6008BD00BF8C000020C0
:10174C00340100204FF0FF3070474FF4005300205D
:10175C004B60704701207047002070470F4B1A6890
:10176C0042F001021A6059680D4A0A405A601A6820
:10177C0022F0847222F480321A601A6822F48022D9
:10178C001A605A6822F4FE025A604FF41F029A60E3
:10179C004FF00062034B9A60704700BF001002408C
:1017AC000000FFF800ED00E008B54FF4E13E0A48F8
:1017BC000A4B0C2280E80840002342618360C3601E
:1017CC0003618361C361FFF791FD18B1BDE8084067
:1017DC00FFF75EBF08BD00BFF000002000440040D2
:1017EC0010B5044686B01022002102A800F078F84B
:1017FC002268114B9A421CD103F5E633DA6902A92F
:10180C0042F40032DA61DA690C4802F400320092D8
:10181C00009A9A6942F004029A619B6903F00403EE
:10182C000193019B0C230293022303930593FEF770
:10183C004BFD06B010BD00BF004400400008014045
:10184C00002103E00B4B5B58435004310A480B4B0F
:10185C0042189A42F6D30A4A02E0002342F8043BAB
:10186C00084B9A42F9D3FFF779FF00F015F8FFF710
:10187C00BBFE7047102800080000002070000020FC
:10188C007000002034010020FEE70000014B1868B6
:10189C00704700BF0C00002070B500250C4E0D4C9D
:1018AC00A41BA410A54209D100F026FF00250A4E66
:1018BC000A4CA41BA410A54205D170BD56F82530C6
:1018CC0098470135EEE756F8253098470135F2E791
:1018DC000828000808280008082800080C28000818
:1018EC0003460244934200D1704703F8011BF9E709
:1018FC000FB40A4B13B51C6824B1A36913B9204665
:10190C0000F04EF805AB049AA1682046019300F054
:10191C0057F902B0BDE8104004B070470C0000202D
:10192C00014900F0A9B800BFA5240008002310B598
:10193C00044603604360836081814366C281036116
:10194C0043618361194608225C30FFF7C9FF054BE0
:10195C0024626362044BA362044BE362044B236373
:10196C0010BD00BF492100086B210008A32100080D
:10197C00C721000870B568254A1E55430E4605F16F
:10198C00740100F097F8044640B1002180E8420051
:10199C000C30A06005F16802FFF7A2FF204670BD75
:1019AC00836910B5044633BB8364C3640365124B6F
:1019BC00124A1B688262984204BF0123836100F0C3
:1019CC001FF86060204600F01BF8A060204600F075
:1019DC0017F80022E06004216068FFF7A7FF0122DE
:1019EC000921A068FFF7A2FF02221221E068FFF78D
:1019FC009DFF0123A36110BD702700082D1900085D
:101A0C00F8B51C4B07461E68B36913B93046FFF78F
:101A1C00C7FF4836B4687368013B03D5336833B1EC
:101A2C003668F7E7B4F90C506DB16834F4E704216B
:101A3C003846FFF79FFF30600028F1D10C23044695
:101A4C003B602046F8BD4FF6FF73E38101236566CA
:101A5C00A3812560A560656025616561A56108228B
:101A6C00294604F15C00FFF73BFF6563A563A564A1
:101A7C00E564E6E7702700082DE9F84380468946BF
:101A8C00002600F1480414B93046BDE8F883A56877
:101A9C006768013F01D52468F5E7AB89012B07D9AD
:101AAC00B5F90E30013303D029464046C8470643EA
:101ABC006835EEE770B5CD1C25F0030508350C2D07
:101ACC0038BF0C25002D064601DBA94203D90C2397
:101ADC003360002070BD00F08DFD234A1468214650
:101AEC0091B9224C23681BB9304600F017FB2060DB
:101AFC002946304600F012FB431C26D10C233046FD
:101B0C00336000F078FDE4E70B685B1B1AD40B2BF9
:101B1C000FD90B60CC18CD50304600F06CFD04F1A1
:101B2C000B00231D20F00700C31A1BD05A42E250B1
:101B3C0070BD8C420BBF63684B681360636018BF49
:101B4C000C46E9E70C464968CAE7C41C24F00304B8
:101B5C00A04205D0211A304600F0E0FA0130CDD079
:101B6C002560D9E770BD00BF9000002094000020D4
:101B7C00936810B4013B002B936008DA9469A3427C
:101B8C0002DBCBB20A2B02D110BC00F01BBB1368DA
:101B9C00581C10601970C8B210BC7047F8B50646D6
:101BAC000F461446D518AC4201D1002007E03A4646
:101BBC0014F8011B3046FFF7DBFF431CF3D1F8BDD3
:101BCC002DE9F04F9DB00C4617460393064618B10D
:101BDC0083690BB9FFF7E4FE7C4B9C4257D17468C8
:101BEC00A38918075DD52369002B5AD000230993CC
:101BFC0020238DF8293030234FF0010B8DF82A303B
:101C0C00B846454615F8013B002B55D1B8EB070AF1
:101C1C000BD053463A4621463046FFF7BFFF013002
:101C2C0000F0C480099B5344099398F80030002BB2
:101C3C0000F0BC8000234FF0FF3204930793059211
:101C4C0006938DF853301A9305222978604800F0DA
:101C5C00C3FC05F10108049B002831D1D90644BF0F
:101C6C0020228DF853201A0744BF2B228DF85320C5
:101C7C002A782A2A2CD000210A20079AA84698F8FC
:101C8C0000300135303B092B6DD971B326E0514B37
:101C9C009C4201D1B468A3E74F4B9C4208BFF46847
:101CAC009EE72146304600F0F1FA00289ED04FF016
:101CBC00FF301DB0BDE8F08F252BA7D0A846A0E7BC
:101CCC00434A4546801A0BFA00F018430490BBE7D0
:101CDC00039A111D12680391002A01DB079204E09C
:101CEC00524243F002030792049398F800302E2BD3
:101CFC0010D198F8013008F101012A2B37D1039B40
:101D0C0008F102081A1D1B680392002BB8BF4FF094
:101D1C00FF330593314D032298F80010284600F04C
:101D2C005BFC40B14023401B03FA00F0049B08F11C
:101D3C0001080343049398F800100622284808F180
:101D4C0001078DF8281000F047FC002834D0254BF3
:101D5C0003BB039B073323F0070308330393099B4F
:101D6C004B4409934CE700FB0232012186E7002328
:101D7C000A2518460593884698F800200131303A18
:101D8C00092A03D9002BC5D00590C3E705FB002019
:101D9C000123F0E703AB00932246134B04A9304612
:101DAC00AFF30080B0F1FF3F8146D8D1A3895B0629
:101DBC003FF57DAF09987CE703AB009322460A4BB5
:101DCC0004A9304600F08AF8ECE700BF942700081D
:101DDC00D4270008B427000874270008DA27000865
:101DEC00DE27000800000000A91B00082DE9F047C1
:101DFC0091461F468A680B6906469342B8BF134644
:101E0C00C9F8003091F843200C46DDF8208012B15F
:101E1C000133C9F800302368990642BFD9F8003065
:101E2C000233C9F80030256815F0060507D104F116
:101E3C00190AE368D9F800209B1A9D422ADB94F812
:101E4C0043302268003318BF012392062FD404F1CB
:101E5C00430239463046C047013022D02368E5683A
:101E6C0003F00603042B18BF0025D9F800204FF00F
:101E7C00000908BFAD1AA368226908BF25EAE575F9
:101E8C009342C4BF9B1AED181A344D451BD1002048
:101E9C00BDE8F0870123524639463046C047013031
:101EAC0003D14FF0FF30BDE8F0870135C1E730209A
:101EBC00E11881F843005A1C94F84510224402336F
:101ECC0082F84310C3E70123224639463046C04707
:101EDC000130E6D009F10109D7E700002DE9F04304
:101EEC0017460A7E85B06E2A984606460C460C9B11
:101EFC0001F1430E00F0BC801AD8632A2ED00AD808
:101F0C00002A00F0C880582A00F08A8004F14205AB
:101F1C0084F842202AE0642A01D0692AF6D121688B
:101F2C001A6811F0800F23D0111D1960136827E077
:101F3C00732A00F0B48008D86F2A2AD0702AE5D111
:101F4C000A6842F020020A6003E0752A21D0782A40
:101F5C00DCD178226F4984F8452064E01A6801F1DD
:101F6C004205111D1960136884F842300123A3E067
:101F7C0011F0400F02F104011960D7D0B2F9003012
:101F8C00002B03DA2D225B4284F8432062490A229B
:101F9C0017E02068196810F0800F03D0081D186036
:101FAC000B6806E010F0400F01F104001860F7D048
:101FBC000B886F2A14BF0A2208225749002084F884
:101FCC0043006568002DA560C0F29C80206820F05D
:101FDC0004002060002B3FD1002D40F09580754609
:101FEC00082A0BD12368DA0708D5236962689A425C
:101FFC00DEBF302305F8013C05F1FF35AEEB0503E0
:10200C002361CDF800803B4603AA21463046FFF7FA
:10201C00EDFE013055D14FF0FF3005B0BDE8F08337
:10202C0081F845203C492268186812F0800F00F1B5
:10203C0004051D6001D0036802E05506FBD503883A
:10204C00D00744BF42F0200222601BB9226822F064
:10205C00200222601022B1E77546B3FBF2F002FBBE
:10206C001033CB5C05F8013D03460028F5D1B7E7EA
:10207C0008681A6810F0800F496904D0101D1860A8
:10208C001368196007E010F0400F02F104001860AB
:10209C001368F6D01980002375462361B1E71A68DE
:1020AC00111D1960156800216268284600F094FA29
:1020BC0008B1401B606063682361002384F84330DF
:1020CC009FE723692A4639463046C0470130A2D0E3
:1020DC0023689B0707D5002504F11909E368039AC7
:1020EC009B1A9D4205DBE068039B9842B8BF1846DB
:1020FC0093E701234A4639463046C04701308AD01F
:10210C000135EBE7002BA7D10B7804F1420584F8DD
:10211C00423065E7F6270008E527000838B50023AC
:10212C00054C054608462360FFF7F2FA431C02D122
:10213C00236803B12B6038BD3001002010B50C466C
:10214C00B1F90E1000F0A4FA0028ABBF636DA3899F
:10215C001B1823F48053ACBF6365A38110BD2DE91C
:10216C00F0411F468B890546DB050C46164605D506
:10217C0002230022B1F90E1000F0B8F9A3893246FF
:10218C0023F48053A381B4F90E103B462846BDE8D6
:10219C00F04100F069B810B50C46B1F90E1000F022
:1021AC00A5F9431CA38915BF606523F4805343F440
:1021BC008053A38118BFA38110BDB1F90E1000F09C
:1021CC00D3B80000F8B50E461446054618B183691D
:1021DC000BB9FFF7E5FB214B9C422AD16C68A36934
:1021EC00A360A3891A072ED5236963B323692068DA
:1021FC00F6B2C01A63693746984204DB214628467A
:10220C0000F04AF928BBA3680130013BA3602368A6
:10221C005A1C22601E706369984204D0A389DB07A4
:10222C0019D50A2E17D12146284600F035F990B160
:10223C000FE00B4B9C4201D1AC68D0E7094B9C42A0
:10224C0008BFEC68CBE72146284600F01FF80028B1
:10225C00CCD04FF0FF373846F8BD00BF94270008AC
:10226C00B42700087427000838B5054608461146FF
:10227C000022054C22601A46FFF77AF9431C02D162
:10228C00236803B12B6038BD30010020324B70B590
:10229C001D6806460C4625B1AB6913B92846FFF7F5
:1022AC007FFB2E4B9C420FD16C68B4F90C309AB268
:1022BC0015072CD4D00611D40922326043F0400308
:1022CC00A3814FF0FF3070BD254B9C4201D1AC680F
:1022DC00EBE7244B9C4208BFEC68E6E7510712D5AC
:1022EC00616B41B104F14403994202D0304600F0D5
:1022FC0083F900236363A38923F02403A3810023C0
:10230C00636023692360A38943F00803A3812369D5
:10231C004BB9A38903F42073B3F5007F03D0214696
:10232C00304600F019F9A28912F001030CD00023F9
:10233C00A36063695B42A361236953B9B4F90C30A0
:10234C0013F08000BAD170BD920758BF6369A360C7
:10235C00F2E70020F7E700BF0C00002094270008EC
:10236C00B42700087427000838B50023054C05462F
:10237C0008462360FFF7E6F9431C02D1236803B13A
:10238C002B6038BD300100208A892DE9F0410546CB
:10239C0010070C465AD44B68002B05DC0B6C002B39
:1023AC0002DC0020BDE8F081E66A002EF9D00023A3
:1023BC0012F480522F682B6033D0606DA3895A07BA
:1023CC0005D56368C01A636B0BB1236CC01A00236C
:1023DC000246E66A216A2846B047431CA38906D107
:1023EC0029681D294BD82B4ACA40D60747D500224D
:1023FC0062602269D904226004D5421C01D12B6889
:10240C0003B96065616B2F600029CAD004F14403E5
:10241C00994202D0284600F0EFF800206063BDE836
:10242C00F081216A01232846B047411CC6D12B6894
:10243C00002BC3D01D2B01D0162B01D12F60B0E780
:10244C00A38943F04003A381BDE8F0810F69002FFD
:10245C00A7D0930718BF00230E6808BF4B69A6EBE3
:10246C0007080F608B60B8F1000F9ADD43463A46BF
:10247C00216A2846A66AB047002807DCA38943F0E6
:10248C004003A3814FF0FF30BDE8F0810744A8EB77
:10249C000008E8E70100402038B50B6905460C46FA
:1024AC00DBB118B183690BB9FFF77AFA0C4B9C427C
:1024BC0009D16C68B4F90C307BB121462846BDE8D3
:1024CC003840FFF761BF074B9C4201D1AC68F1E784
:1024DC00054B9C4208BFEC68ECE7002038BD00BF00
:1024EC0094270008B42700087427000838B505465F
:1024FC00084611460022054C22601A46FFF72CF9BB
:10250C00431C02D1236803B12B6038BD300100207D
:10251C0070B50E46B1F90E1090B0002914461D4648
:10252C0007DA00232B60B3891A0610D44FF48063AA
:10253C000EE001AA00F0BEF80028F2DB029A02F4C9
:10254C007042A2F500535A425A412A60EEE74023EA
:10255C000020236010B070BD8B8973B59D070646B3
:10256C000C4607D504F14703236023610123636103
:10257C0002B070BD01AB6A46FFF7CAFF0099054671
:10258C003046FFF797FA48B9B4F90C309A05EFD4F6
:10259C0023F0030343F00203A381E3E70D4BB36283
:1025AC00A389206043F08003A381009B20616361B9
:1025BC00019B5BB1B4F90E10304600F08DF828B1D8
:1025CC00A38923F0030343F00103A381A3891D43D3
:1025DC00A581CDE72D19000810B5C9B2024490426F
:1025EC00034601D1002010BD1C7801308C42F6D17D
:1025FC00184610BD7047704738B50546002943D0C2
:10260C0051F8043C0C1F002BB8BFE418FFF7F2FF85
:10261C001E4A1368104633B9636014602846BDE83F
:10262C003840FFF7E8BFA3420BD9216862189342E8
:10263C0001BF1A685B685218226063600460EDE7A2
:10264C0013465A680AB1A242FAD919685818A0421E
:10265C000BD120680144581882421960DED11068F1
:10266C005268014419605A60D8E702D90C232B60D8
:10267C00D4E7206821188A4201BF116852680918F2
:10268C00216062605C60C9E738BD00BF900000202B
:10269C0038B50546084611460022054C22601A46FC
:1026AC00FFF728F8431C02D1236803B12B6038BD17
:1026BC003001002038B50023064C0546084611466B
:1026CC002360FFF742F8431C02D1236803B12B604F
:1026DC0038BD00BF3001002038B50023054C05463D
:1026EC0008462360FFF736F8431C02D1236803B178
:1026FC002B6038BD30010020F8B500BFF8BC08BC19
:10270C009E467047F8B500BFF8BC08BC9E467047A3
:10271C0002030405060708090A0B0C0D0E0F101016
:10272C00112131415161718191B0B1B2B3B4B5B6DF
:10273C00B7B8B9BA454550524F4D202530326420B8
:10274C003A2025303258200D0A000000000000000D
:10275C000000010203040607080900000000010242
:10276C000304000010000020000000000000000026
:10277C00000000000000000000000000000000004D
:10278C00000000000000000000000000000000003D
:10279C00000000000000000000000000000000002D
:1027AC00000000000000000000000000000000001D
:1027BC00000000000000000000000000000000000D
:1027CC000000000000000000232D302B2000686C5E
:1027DC004C00656667454647003031323334353638
:1027EC003738394142434445460030313233343571
:0C27FC003637383961626364656600009E
:042808003101000892
:04280C000D010008B2
:1028100001000000100000000024F400100000205F
:102820000000000094270008B4270008742700085F
:102830000000000000000000000000000000000098
:102840000000000000000000000000000000000088
:102850000000000000000000000000000000000078
:102860000000000000000000000000000000000068
:102870000000000000000000000000000000000058
:040000050800184D8A
:00000001FF
