:020000040800F2
:1000000000000320552A0008F1290008F329000800
:10001000F5290008F7290008F92900080000000068
:100020000000000000000000000000003114000883
:10003000FB29000800000000C11400082515000875
:10004000A52A0008A52A0008A52A0008A52A000854
:10005000A52A0008A52A0008A52A0008A52A000844
:10006000A52A0008A52A0008A52A0008A52A000834
:10007000A52A0008A52A0008A52A0008A52A000824
:10008000A52A0008A52A0008A52A0008A52A000814
:10009000A52A0008A52A0008A52A0008A52A000804
:1000A000A52A0008A52A0008A52A0008A52A0008F4
:1000B000A52A0008A52A0008A52A0008A52A0008E4
:1000C000A52A0008A52A0008A52A0008A52A0008D4
:1000D000A52A0008A52A0008A52A0008A52A0008C4
:1000E000A52A0008A52A0008A52A0008A52A0008B4
:1000F000A52A0008A52A0008A52A0008A52A0008A4
:10010000A52A0008A52A0008A52A0008A52A000893
:10011000A52A0008A52A0008FD290008A52A00082C
:10012000A52A0008A52A0008A52A0008A52A000873
:10013000A52A0008A52A0008A52A0008A52A000863
:10014000A52A0008A52A0008A52A0008A52A000853
:10015000A52A0008A52A0008A52A0008A52A000843
:10016000A52A0008A52A0008A52A0008A52A000833
:10017000A52A0008A52A0008A52A000800000000FA
:10018000A52A0008A52A0008A52A0008A52A000813
:10019000A52A0008A52A0008A52A0008A52A000803
:0C01A000A52A0008A52A0008A52A0008CE
:1001B00010B5054C237833B9044B13B10448AFF3A1
:1001C00000800123237010BD0C00002000000000FF
:1001D000182B000808B5034B1BB103490348AFF3C4
:1001E000008008BD0000000010000020182B00084F
:1001F00053B94AB9002908BF00281CBF4FF0FF318E
:100200004FF0FF3000F07AB9ADF1080C6DE904CE83
:1002100000F006F8DDF804E0DDE9022304B07047E1
:100220002DE9F0478C460D460446089E002B51D11F
:100230008A4217466DD9B2FA82FEBEF1000F0BD08A
:10024000CEF1200C01FA0EF520FA0CFC02FA0EF7A2
:100250004CEA050C00FA0EF44FEA174A250CBCFBD9
:10026000FAF81FFA87F90AFB18CC45EA0C4508FB97
:1002700009F3AB420AD9ED1908F1FF3280F023816E
:10028000AB4240F22081A8F102083D44ED1AA4B22D
:10029000B5FBFAF00AFB105544EA054400FB09F9E6
:1002A000A14509D9E41900F1FF3380F00A81A14585
:1002B00040F2078102383C44A4EB090440EA0840BC
:1002C0000021002E61D024FA0EF400233460736004
:1002D000BDE8F0878B4207D9002E54D0002186E874
:1002E00021000846BDE8F087B3FA83F1002940F009
:1002F0008E80AB4202D3824200F2FA80841A65EB10
:1003000003050120AC46002E3FD086E81010BDE862
:10031000F08712B90127B7FBF2F7B7FA87FEBEF1F3
:10032000000F34D1EB1B3A0C1FFA87FC0121B3FB01
:10033000F2F8250C02FB183345EA03450CFB08F3E1
:10034000AB4207D9ED1908F1FF3002D2AB4200F2FF
:10035000D1808046ED1AA3B2B5FBF2F002FB105536
:1003600043EA05440CFB00FCA44507D9E41900F15D
:10037000FF3302D2A44500F2B8801846A4EB0C0467
:1003800040EA08409DE731463046BDE8F087CEF1AF
:10039000200405FA0EF307FA0EF720FA04F83A0CD7
:1003A00025FA04F448EA0308B4FBF2F14FEA1845D1
:1003B00002FB11441FFA87FC45EA044501FB0CF3DC
:1003C000AB4200FA0EF409D9ED1901F1FF3080F0CB
:1003D0008A80AB4240F2878002393D44EB1A1FFA13
:1003E00088F5B3FBF2F002FB103345EA034500FB4E
:1003F0000CF3AB4207D9ED1900F1FF386FD2AB42D5
:100400006DD902383D44EB1A40EA01418FE7C1F152
:10041000200722FA07F88B4005FA01F448EA0303A3
:1004200020FA07FE4FEA134CFD404EEA040EB5FBDE
:10043000FCF94FEA1E440CFB19551FFA83F844EAF5
:10044000054509FB08F4AC4202FA01F200FA01FA90
:1004500008D9ED1809F1FF3043D2AC4241D9A9F1D6
:1004600002091D442D1B1FFA8EFEB5FBFCF00CFB90
:1004700010554EEA054400FB08F8A04507D9E418DA
:1004800000F1FF3529D2A04527D902381C4440EAA3
:100490000940A4EB0804A0FB02894C45C6464D4622
:1004A00015D312D056B1BAEB0E0364EB050404FA6F
:1004B00007F7CB401F43CC40376074600021BDE894
:1004C000F0871846F8E69046E0E6C245EAD2B8EB77
:1004D000020E69EB03050138E4E72846D7E74046FA
:1004E00091E78146BEE7014678E702383C4445E79C
:1004F000084608E7A8F102083D442BE7704700BF13
:1005000008B50B4B1A6842F400721A601A6842F47C
:1005100080621A601A6842F480721A60032000F048
:100520001BF8002002F026FA02F002FA002008BDB3
:10053000003C0240034A044B11681B780B441360D3
:10054000704700BF743D002000000020014B186878
:10055000704700BF743D0020074AD36823F4E0636E
:100560001B041B0C43F0BF63000243F4003300F490
:10057000E0600343D360704700ED00E0174B30B5F7
:10058000DC68C4F30224C4F10703251D042B28BF33
:100590000423062D4FF0010505FA03F303F1FF33A1
:1005A0008CBF033C00241940A14005FA04F4013C2F
:1005B0002240002842EA01024FEA0212AFBF00F1D6
:1005C000604000F00F00064BD2B2A5BF00F56140BD
:1005D000D2B21A5480F8002330BD00BF00ED00E015
:1005E00014ED00E04209012300F01F0003FA00F0BF
:1005F000014B43F82200704700E100E02DE9F04F85
:1006000085B00B68DFF8C4816E4ADFF8C4910193AE
:1006100000234FF0010E019C0EFA03FE0EEA0406C1
:10062000B64540F0B6804C6824F01007022F16D172
:100630004FEAD30A00EB8A0A03F0070BDAF82050DE
:100640004FEA8B0B4FF00F0C0CFA0BFC25EA0C0C4D
:100650000D6905FA0BF545EA0C05CAF820504FEA7A
:10066000430A0325D0F800B005FA0AF5ED4304F07B
:10067000030C0BEA050B0CFA0AFC013F4CEA0B0CCD
:10068000012FC0F800C011D8876807EA050BCF68B2
:1006900007FA0AFC4CEA0B078760476827EA0E0E48
:1006A000C4F300179F4047EA0E074760C7683D4004
:1006B0008F6807FA0AF73D43C560E50069D54FF03A
:1006C000000BCDF80CB0D8F844703F4D47F480478C
:1006D000C8F84470D8F8447007F480470397039F24
:1006E00023F0030707F1804707F59C3703F0030C5D
:1006F000D7F808A04FEA8C0C4FF00F0E0EFA0CFE44
:10070000A8422AEA0E0E4BD005F58065A84249D0D2
:1007100005F58065A84247D005F58065A84245D01B
:1007200005F58065A84243D0484543D005F50065EE
:10073000A84241D005F58065A8423FD005F5806507
:10074000A8423DD005F58065A84214BF0A250925B9
:1007500005FA0CF545EA0E05BD601568F74314F47B
:10076000803F0CBF3D4035431560556814F4003F91
:100770000CBF3D4035435560956814F4801F0CBF95
:100780003D4035439560D568A40254BF3D40354394
:10079000D5600133102B7FF43CAF05B0BDE8F08F7E
:1007A0005D46D5E70125D3E70225D1E70325CFE74D
:1007B0000425CDE70525CBE70625C9E70725C7E7CB
:1007C0000825C5E7003C0140000002400038024017
:1007D000001402400AB1816170470904FBE7000080
:1007E00037B500230193184B184C1A6C42F0805215
:1007F0001A641B6C03F080530193019B144B01227C
:100800001A60FFF7A3FE05466368DA030BD5114BA8
:100810000E4C01221A60FFF799FE054663689B03A0
:100820000AD5002006E0FFF791FE401BB0F57A7F65
:10083000EAD9032003B030BDFFF788FE401BB0F5B6
:100840007A7FEBD9F5E700BF003802400070004026
:1008500040000E4244000E422DE9F341044618B90F
:10086000012002B0BDE8F0810368DD0710D42368E1
:10087000980758D423681A0700F19A8023685B0709
:1008800000F1B880A269002A40F019810020E8E751
:10089000A64B9A6802F00C02042A07D09A6802F06C
:1008A0000C02082A0AD15B68590207D59F4B1B68C6
:1008B0009A03DCD56368002BD9D1D1E763689B4DDF
:1008C000B3F5803F11D12B6843F480332B60FFF7E1
:1008D0003DFE964D06462B689B03C8D4FFF736FEB7
:1008E000801B6428F7D90320BBE7B3F5A02F04D100
:1008F0002B6843F480232B60E5E72A6822F48032DA
:100900002A602A6822F480222A60002BDFD1FFF7B8
:100910001DFE06462B689F03A9D5FFF717FE801B17
:100920006428F7D9DFE7814B9A6812F00C0F07D0E3
:100930009A6802F00C02082A11D15B685E020ED49C
:100940007A4B1A68950702D5E268012A88D11A689D
:10095000216922F0F80242EAC1021A608AE7E268DD
:10096000734BB2B101221A60FFF7F0FD6F4D0646DE
:100970002B68980707D52B68226923F0F80343EA10
:10098000C2032B6076E7FFF7E1FD801B0228EFD959
:10099000A9E71A60FFF7DAFD644D06462B68990750
:1009A0007FF568AFFFF7D2FD801B0228F6D99AE7E2
:1009B0006269604B7AB101221A60FFF7C7FD5B4D97
:1009C00006466B6F9F073FF559AFFFF7BFFD801BD2
:1009D0000228F6D987E71A60FFF7B8FD534D06469F
:1009E0006B6F98077FF54AAFFFF7B0FD801B0228B9
:1009F000F6D978E74D4B1A6C12F0805228D101924B
:100A00001A6C42F080521A641B6C03F080530193FD
:100A1000019B0126484D2B68D9051BD5A368434D82
:100A2000012B27D12B6F43F001032B67FFF78EFDBE
:100A30003E4D074641F288382B6F9B0739D5002E73
:100A40003FF420AF394A136C23F08053136419E745
:100A50000026DFE72B6843F480732B60FFF776FDF9
:100A600007462B68DA05D9D4FFF770FDC01B0228B2
:100A7000F7D938E7052B04D12B6F43F004032B671C
:100A8000D0E72A6F22F001022A672A6F22F00402BF
:100A90002A67002BCAD1FFF759FD41F28838074673
:100AA0002B6F9807CBD5FFF751FDC01B4045F7D9F9
:100AB00019E7FFF74BFDC01B4045BDD913E71B4DA0
:100AC000AB6803F00C03082B3FF4CAAE1B4E0023A7
:100AD000022A336034D1FFF739FD07462B689901AC
:100AE0001ED4226AE3691343626A43EA8213E26A0C
:100AF00043EA0263A26A0D4C5208013A43EA0243F8
:100B00006B6001233360FFF721FD054623689A01DE
:100B10003FF5BCAEFFF71AFD401B0228F6D9E2E60E
:100B2000FFF714FDC01B0228D8D9DCE600380240CC
:100B300000004742800E474200700040600047427C
:100B4000FFF704FD04462B689B017FF59FAEFFF77E
:100B5000FDFC001B0228F6D9C5E600BF134908B505
:100B60008B6803F00C03042B03D0082B03D0104830
:100B700008BD104808BD4A684B68496813F48003F3
:100B800014BF0C480A48C1F3881118BF002302F0B3
:100B90003F02A1FB0001FFF72BFB044B5B68C3F393
:100BA000014301335B00B0FBF3F008BD00380240A5
:100BB0000024F40000127A002DE9F0410D460446AD
:100BC00010B90120BDE8F081444B1A6802F00F0211
:100BD0008A4228D321688F072DD4C80740D43F4BC1
:100BE0001A6802F00F02954266D3226851076CD44E
:100BF000130707D53A4A2169936823F4604343EA0F
:100C0000C1039360FFF7AAFF354B364A9B68C3F3D5
:100C10000313D35CD840344B1860002001F0AAFEC7
:100C20000020BDE8F081CAB21A701B6803F00F0300
:100C30009942C6D1CEE72A4B11F0040F1EBF9A6825
:100C400042F4E0529A600E0742BF9A6842F4604252
:100C50009A609A68A06822F0F00202439A60BCE7AA
:100C600062681F4B012A1DD11B6813F4003FA8D0F6
:100C70001B4EB36823F003031343B360FFF766FC16
:100C800041F288380746B368626803F00C03B3EB9F
:100C9000820FA4D0FFF75AFCC01B4045F3D90320B4
:100CA000BDE8F081911E01291B6802D813F0007F76
:100CB000DDE713F0020FDAE7EAB21A701B6803F0FF
:100CC0000F039D427FF47DAF8FE70549E0688B6895
:100CD00023F4E05303438B608AE700BF003C0240EB
:100CE00000380240D72B000808000020044B054ABA
:100CF0009B68C3F38223D35C034A1068D8407047D3
:100D000000380240E72B0008080000200F23036092
:100D10000B4B9A6802F0030242609A6802F0F002FC
:100D200082609A6802F4E052C2609B68DB0803F4B8
:100D3000E0530361034B1B6803F00F030B60704724
:100D400000380240003C024070470368DA6842F015
:100D50000102DA601A6842F001021A60002070474E
:100D6000704770477047704703681A69910710B55C
:100D700004460ED5DA6892070BD56FF002021A61AD
:100D80009B6901229B07027677D0FFF7EAFF0023D9
:100D9000237623681A69500710D5DA6851070DD5F4
:100DA0006FF004021A619B69022213F4407F2276DD
:100DB000204668D0FFF7D5FF0023237623681A6901
:100DC00012070FD5DA6810070CD56FF008021A6108
:100DD000DB6904229907227620465AD0FFF7C1FF2B
:100DE0000023237623681A69D20610D5DA68D00664
:100DF0000DD56FF010021A61DB69082213F4407FF1
:100E0000227620464BD0FFF7ACFF002323762368E1
:100E10001A69D10708D5DA68D20705D56FF0010243
:100E20001A61204601F07AFD23681A69100608D578
:100E3000DA68110605D56FF080021A61204600F0CD
:100E4000B4F823681A69520608D5DA68500605D541
:100E50006FF040021A612046FFF785FF23681A6988
:100E6000910622D5DA6892061FD56FF0200220463F
:100E70001A61BDE8104000F097B8FFF771FF2046F7
:100E8000FFF770FF83E7FFF76BFF2046FFF76AFF6E
:100E900092E7FFF765FF2046FFF764FFA0E7FFF743
:100EA0005FFF2046FFF75EFFAFE710BD2E4A0368E5
:100EB000904212D0B0F1804F0FD0A2F57C42904208
:100EC0000BD002F58062904207D002F5806290421A
:100ED00003D002F5784290421DD14A6823F0700396
:100EE0001343214A904204D1CA6823F44073134348
:100EF00028E0B0F1804FF7D01C4A9042F4D002F5C0
:100F000080629042F0D002F580629042ECD002F50F
:100F100078429042E8D0164A9042E5D002F58062CD
:100F20009042E1D002F580629042DDD0A2F5983285
:100F30009042D9D002F580629042D5D002F580620D
:100F40009042D1D003608B68C3620B688362064B0A
:100F5000984206D003F58063984202D00123436192
:100F600070470B690363F9E700000140000400408B
:100F70000040014010B50446A0B190F8393003F0AC
:100F8000FF021BB980F83820FFF7DEFE022384F849
:100F900039302068211DFFF789FF012384F839309B
:100FA000002010BD012010BD704770472DE9F043AF
:100FB0000A6892FAA2F44FF0010EB4FA84F4032501
:100FC0000F2732FA04F30DD14B68013B012B06D8F1
:100FD0004368C96823EA02034A431A434260012076
:100FE000BDE8F0830EFA04F3134069D0D1F8048011
:100FF000D0F8009093FAA3FCBCFA8CFC93FAA3F609
:10100000B6FA86F64FEA4C0C05FA0CFC760029EA93
:101010000C0C08FA06F64CEA0606066008F1FF36E4
:10102000012E16D8866893FAA3FCBCFA8CFC93FABE
:10103000A3F94FEA4C0C05FA0CFC26EA0C0CB9FAA1
:1010400089F98E684FEA490906FA09F64CEA06065C
:101050008660C66893FAA3FCBCFA8CFC93FAA3F9E9
:101060004FEA4C0C05FA0CFC26EA0C0CB9FA89F98B
:101070000E694FEA490906FA09F64CEA0606B8F184
:10108000020FC6601CD193FAA3F6B6FA86F6072EB5
:10109000D1F814C016DCD0F8208093FAA3F6B6FA83
:1010A00086F693FAA3F3B3FA83F3B60007FA06F6CB
:1010B0009B0028EA06060CFA03FC46EA0C060662C8
:1010C00001347EE7D0F824801B0A93FAA3F6B6FA1F
:1010D00086F693FAA3F3B3FA83F3B60007FA06F69B
:1010E0009B0028EA06060CFA03F333434362E7E762
:1010F000034B044A9B68C3F30313D35CD840704787
:1011000000380240D72B0008034B044A9B68C3F306
:101110008223D35CD840704700380240E72B000898
:10112000034B044A9B68C3F34233D35CD8407047F7
:1011300000380240E72B00080F4B104A596810B5E1
:101140000F4C01F48001002908BF2246082810D165
:10115000596858685B68C3F30143C0F388100133D2
:1011600001F03F015B00B2FBF1F25043B0FBF3F042
:1011700010BD002010BD00BF0038024000127A00F0
:101180000024F400064B986800F00C00042803D0FB
:10119000082803D00348704703487047FFF7CCBFC7
:1011A000003802400024F40000127A0010B5044612
:1011B000FFF7E8FF2060FFF79BFF6060FFF7A4FFE9
:1011C000A0606068FFF7ACFFE06010BD30B5C36899
:1011D0009B0485B004460D4602D5002005B030BD05
:1011E0004B68C968C2680B4329690B43A96922F49B
:1011F00016420B4322F00C021343C3600369AA6832
:1012000023F440531343036143696A6923F4407331
:10121000134343616846FFF7C9FF2B4B9C4225D11E
:10122000039B002BD9D029680029D6D0AA69B2F532
:10123000004F4FF0190236D15A434900B2FBF1F288
:101240006421B2FBF1F001FB1023DB003233B3FB6E
:10125000F1F39BB203F007025B0002EB001203F410
:10126000F87313449BB2A3600120B7E7174B9C426D
:1012700001D1029BD5E7164B9C42FAD003F54C43B3
:101280009C42CDD0A3F548439C42F2D003F5806345
:101290009C42EED003F520539C42EAD003F58063D4
:1012A0009C429AD1E5E7534364228900B3FBF1F3F2
:1012B000B3FBF2F102FB11331B013233B3FBF2F348
:1012C00003EB0113CEE700BF0010014000440040D3
:1012D0000048004008B500F051FE002008BD30B5C0
:1012E000B0F90840028A0B4690E8220085B0842CB1
:1012F00014BF0334002403A801900094284600F092
:101300006DFD01280CBF0398002005B030BD08B565
:10131000002808BF012000F07FFF002008BD00F179
:10132000080343604FF0FF32C36003610023826013
:101330000360704700230361704743684B609A68FD
:101340008A609A685160996003680861013303609C
:1013500070470A68531C30B50AD103695A684A605D
:1013600091608B605960036808610133036030BD90
:1013700000F108035C682568AA42EFD32346F9E729
:101380004168826803698A6082685160596888424E
:1013900008BF5A600022026118680138186070475F
:1013A0000A4B1B68013308D04FF0500383F31188B8
:1013B000BFF36F8FBFF34F8FFEE74FF0500383F300
:1013C0001188BFF36F8FBFF34F8FFEE7040000203B
:1013D00006480068006880F3088862B661B6BFF30B
:1013E0004F8FBFF36F8F00DF00BF000008ED00E0FC
:1013F000DFF80C00016841F47001016070470000E3
:1014000088ED00E04FF0807340F8043C074B40F853
:101410000C3C21F001016FF0020340F8081C40F879
:10142000202C40F8243C4438704700BFA11300082A
:10143000074B19680868B0E8F04F80F30988BFF3DC
:101440006F8F4FF0000080F311887047AFF300807A
:10145000483C00204FF0500383F31188BFF36F8F97
:10146000BFF34F8F0A4A13680133012B13600DD16C
:10147000084B1B6813F0FF0F08D04FF0500383F3A5
:101480001188BFF36F8FBFF34F8FFEE7704700BF28
:101490000400002004ED00E0084A136843B94FF04F
:1014A000500383F31188BFF36F8FBFF34F8FFEE7B5
:1014B000013B13600BB983F31188704704000020CF
:1014C000EFF30980BFF36F8F154B1A681EF0100FF2
:1014D00008BF20ED108A20E9F04F10604DF8043D60
:1014E0004FF0500080F31188BFF34F8FBFF36F8F21
:1014F00000F0F0FE4FF0000080F3118808BC19687E
:101500000868B0E8F04F1EF0100F08BFB0EC108A6A
:1015100080F30988BFF36F8F704700BFAFF300807F
:10152000483C002008B54FF0500383F31188BFF307
:101530006F8FBFF34F8F00F065FD18B1034B4FF075
:1015400080521A60002383F3118808BD04ED00E087
:10155000064B4FF47A721B68B3FBF2F3044A013B6B
:101560001360044B07221A60704700BF0800002078
:1015700014E000E010E000E0314B324A13B5196886
:10158000914208D14FF0500383F31188BFF36F8F5E
:10159000BFF34F8FFEE71A682B4B9A4208D14FF0EA
:1015A000500383F31188BFF36F8FBFF34F8FFEE7B4
:1015B000264B1A78D2B20192FF221A701B78244A65
:1015C000DBB28DF803309DF8033003F05003137045
:1015D000204B07221A6000219DF80300000602F14B
:1015E000FF3423D401B11A601A68120202F4E062D7
:1015F0001A60019B154ADBB21370174B1A6842F44C
:1016000070021A601A6842F070421A60FFF7A0FF79
:10161000124B00221A60FFF7EBFE114A136843F0E9
:1016200040431360FFF7D4FEFFF7BAFE9DF8032096
:101630005200D2B28DF8032001212246CCE700BF30
:1016400000ED00E071C20F4170C20F4100E400E004
:10165000280000202C00002020ED00E004000020E5
:1016600034EF00E010B50F4B1A68824218D35C6863
:101670001919884201BF4168184609195960446820
:1016800001198A4207D1084909688A421FBF516877
:101690001268091941609842026018BF186010BDB5
:1016A0001346E1E7403C0020300000202DE9F041E6
:1016B000044600F09FFC3E493E4D0B680BBB3E4A82
:1016C00056071FBFD01D20F0070002F570531B1AEC
:1016D00014BF02464FF470531344083B23F0070332
:1016E000364E0B6000207060326058601860981AA7
:1016F0001360334B50601860324B18604FF000435A
:101700002B602F68274216D1002C41D004F108032A
:1017100058071CBF23F00703083363B1294A166832
:10172000B342904607D8254A15686868834204D8B2
:1017300009688D4207D100242AE02C68002CF7D0DC
:101740002A462546F1E7296814681160C21A102A52
:101750000FD9E818410708D04FF0500383F31188E0
:10176000BFF36F8FBFF34F8FFEE742606B60FFF7F1
:1017700079FF13496B680868F61A1F4386424FF0D9
:101780000003C8F8006038BF0E6008346F602B603B
:1017900000F0CAFC630708D04FF0500383F31188B0
:1017A000BFF36F8FBFF34F8FFEE72046BDE8F08198
:1017B00030000020343C002034000020403C002059
:1017C0003C3C0020383C002010B5044670B3184A59
:1017D00050F8043C1268134208D14FF0500383F3D1
:1017E0001188BFF36F8FBFF34F8FFEE750F8081CCF
:1017F00041B14FF0500383F31188BFF36F8FBFF3F4
:101800004F8FFEE723EA020340F8043C00F0F2FBAE
:10181000084A54F8043C1168A4F108000B44136012
:10182000FFF720FFBDE8104000F07EBC10BD00BFF8
:10183000343C0020383C002070B51546026C866BA5
:10184000044642B905689DB9406800F07FFE6560B6
:101850000136A66370BD6DB9806801F049F9A368CF
:10186000226C13446268A360934201D32368A3608F
:101870000020EDE7C06801F03BF9236CE2682168C5
:101880005B421A448A42E2603EBF62689B18E36092
:10189000022DEDD10EB1013EEAE73046D8E703460E
:1018A00010B41A6C084662B1D9685C681144A14250
:1018B000D96024BF1968D960D9685DF8044B01F07C
:1018C00017B95DF8044B704770B50446FFF7C2FDC9
:1018D00094F8455004F124066DB2002D14DCFF236A
:1018E00084F84530FFF7D8FDFFF7B4FD94F8445075
:1018F00004F110066DB2002D12DCFF2384F8443091
:10190000BDE87040FFF7C8BD636A002BE7D03046E2
:1019100000F034FD08B100F0BDFD013D6DB2DCE723
:101920002369002BE9D0304600F028FD08B100F013
:10193000B1FD013D6DB2DEE738B50D46044640B954
:101940004FF0500383F31188BFF36F8FBFF34F8FB6
:10195000FEE7FFF77FFD206CE36B2268A260434344
:10196000D1181B1A13446160E3600021FF23A163B7
:1019700084F8443084F8453095B9236963B104F1A3
:10198000100000F0FBFC38B10A4B4FF080521A6097
:10199000BFF34F8FBFF36F8FFFF77EFD012038BD80
:1019A00004F11000FFF7BBFC04F12400FFF7B7FCC3
:1019B000F2E700BF04ED00E070B50D46064640B901
:1019C0004FF0500383F31188BFF36F8FBFF34F8F36
:1019D000FEE748434830FFF769FE044638B145B991
:1019E0002060E663256401212046FFF7A5FF20461D
:1019F00070BD00F148030360F3E700002DE9FF47E5
:101A0000894601921F46044640B94FF0500383F3C4
:101A10001188BFF36F8FBFF34F8FFEE7002940F0AF
:101A20008880036C002B00F084804FF0500383F318
:101A30001188BFF36F8FBFF34F8FFEE7019E002E1B
:101A400000F082804FF0500383F31188BFF36F8F53
:101A5000BFF34F8FFEE7019D1DB9FFF71DFD00206D
:101A600058E016B902A800F0CBFCFFF715FD00F016
:101A7000C1FAFFF7EFFC94F84430FF2B08BF84F85D
:101A8000448094F84530FF2B08BF84F84580FFF769
:101A900003FD01A902A800F0C3FC002843D1FFF711
:101AA000D9FCA66BE56BFFF7F7FCAE4235D1019987
:101AB00004F1100000F048FC2046FFF705FF00F09D
:101AC00033FB38B94FF08053CAF80030BFF34F8F63
:101AD000BFF36F8F0126FFF7BDFCA26BE36B9A4249
:101AE00001D3022FB7D13A4649462046FFF7A4FE5C
:101AF000636A1BB104F1240000F040FC38B1194BBB
:101B00004FF080521A60BFF34F8FBFF36F8FFFF714
:101B1000C3FC012004B0BDE8F0872046FFF7D4FEE7
:101B200000F002FBD6E72046FFF7CEFE00F0FCFAFD
:101B300095E7022F02D1E36B012B0AD100F0B0FC34
:101B400000283FF47BAF00264FF00008DFF814A018
:101B5000C1E74FF0500383F31188BFF36F8FBFF3DA
:101B60004F8FFEE704ED00E02DE9FF478846019224
:101B70009946044640B94FF0500383F31188BFF3F0
:101B80006F8FBFF34F8FFEE7002940F0A580036CF5
:101B9000002B00F0A1804FF0500383F31188BFF3B6
:101BA0006F8FBFF34F8FFEE7019E002E00F09A80EB
:101BB0004FF0500383F31188BFF36F8FBFF34F8F44
:101BC000FEE7636AE660002B6DD004F124005FE05D
:101BD000019D1DB9FFF760FC284667E016B902A811
:101BE00000F00EFCFFF758FC00F004FAFFF732FC9F
:101BF00094F84430FF2B08BF84F8447094F84530C3
:101C0000FF2B08BF84F84570FFF746FC01A902A826
:101C100000F006FC002852D1FFF71CFCA56BFFF773
:101C20003BFC002D45D1236833B9FFF713FC6068F6
:101C300000F046FCFFF730FC019904F1240000F0AD
:101C400083FB2046FFF740FE00F06EFA38B94FF0F4
:101C50008053CAF80030BFF34F8FBFF36F8F012658
:101C6000FFF7F8FBA56B002DB2D041462046E66891
:101C7000FFF715FEB9F1000FA3D12368013DA5635D
:101C800013B900F0B3FC6060236963B104F1100084
:101C900000F074FB38B1154B4FF080521A60BFF35F
:101CA0004F8FBFF36F8FFFF7F7FB012004B0BDE844
:101CB000F0872046FFF708FE00F036FACFE720460F
:101CC000FFF702FE00F030FAFFF7C4FBA56BFFF749
:101CD000E3FB002DC3D17FE700F0E2FB00283FF4D7
:101CE00063AF00260027DFF804A0B9E704ED00E0A9
:101CF00010B5044640B94FF0500383F31188BFF389
:101D00006F8FBFF34F8FFEE7FFF7A4FBA46BFFF7C6
:101D1000C3FB204610BD0000064A13681968064B35
:101D200019B94FF0FF321A6070471268D268D26852
:101D30005268F8E74C3C0020243D0020F8B51B4BCE
:101D40001B4E1D680446306804300F46FFF718FB31
:101D5000334640B93168174EC96A3268012088405D
:101D600022EA00023260621C07D137B119681248BA
:101D70000431BDE8F840FFF7E0BA2C441A68A542E8
:101D8000546007D90D4A10681968BDE8F84004315D
:101D9000FFF7DFBA0A4A106819680431FFF7D9FA69
:101DA000084B1A68944238BF1C60F8BD6C3D002097
:101DB000483C0020F43C0020443D0020503C0020E2
:101DC0004C3C0020243D00204FF0500383F3118849
:101DD000BFF36F8FBFF34F8FFEE700002DE9F84F81
:101DE0004FEA820A804650460F4699460B9EFFF7FF
:101DF0005DFC0546002800F096805420FFF756FC55
:101E00000446002800F08C80AAF1040A05635544BA
:101E10007B1E25F0070A00F134020F37597802F8CB
:101E2000011B13F8011F09B1BB42F7D10A9D062D12
:101E300028BF06254FF0000B271DE5626564384674
:101E400084F843B0C4F848B0FFF774FAC5F1070549
:101E500004F11800FFF76EFAC4F84CB02461A561D4
:101E6000646284F850B04A4641465046FFF7CAFAC9
:101E7000206006B13460FFF7EDFA324B324E1A683B
:101E8000DFF8F08001321A603568002D4ED13460E1
:101E90001B68012B1DD108EB05001435FFF73FFA35
:101EA0008C2DF8D1DFF8D090284D4846FFF737FA4F
:101EB0002846FFF734FA2648FFF731FA2548FFF79E
:101EC0002EFA2548FFF72BFA244BC3F80090244B39
:101ED0001D60244A24491368086801331360E26ACC
:101EE000012505FA02F3034314200B6000FB028076
:101EF0003946FFF722FAFFF7CFFA1C4B1B6863B194
:101F00003368DA6AE36A9A4207D2194B4FF080527B
:101F10001A60BFF34F8FBFF36F8F2846BDE8F88F6D
:101F20002846FFF751FC4FF0FF35F6E70F4B1B68D3
:101F3000002BCED13368DA6AE36A9A4298BF3460E4
:101F4000C7E700BFE03C0020483C00200C3D0020DB
:101F50002C3D0020583D0020443D00204C3C0020FA
:101F6000503C0020F03C0020F43C0020403D00208C
:101F700004ED00E0543C0020F83C002013B5174B62
:101F80000193002400942346802215491548FFF749
:101F900025FF012814D14FF0500383F31188BFF3BC
:101FA0006F8FBFF34F8F104B4FF0FF321A600F4B04
:101FB00018600F4B1C6002B0BDE81040FFF7DCBAA0
:101FC000013008D14FF0500383F31188BFF36F8FB6
:101FD000BFF34F8FFEE702B010BD00BF203D0020D1
:101FE000442B000861220008243D0020403D0020D1
:101FF0006C3D0020024A136801331360704700BF34
:10200000EC3C00202DE9F84F3C4B1B68002B53D1D2
:102010003B4B1C6801341C60BCB93A4B1A6812680F
:1020200042B14FF0500383F31188BFF36F8FBFF3BA
:102030004F8FFEE7344A1968106818601160334A00
:10204000136801331360FFF767FE314D314F2B6882
:102050009C424FF0000B3ED3DFF8A880DFF8C4901D
:10206000D8F80020126872BB4FF0FF322A6032E0CD
:1020700006F1040A5046FFF783F9B16A19B106F177
:102080001800FFF77DF9F06AD9F80030012202FA52
:1020900000F11943204BC9F800104FF0140E5146BF
:1020A0000EFB0030FFF749F93868F16AC26A9142C5
:1020B00028BF4FF0010BD3E7184A136801331360B0
:1020C0004FF0000B11E0D8F80020D268D668716894
:1020D0008C42CDD229603A680F4BD16A14224A4310
:1020E0009A58022A28BF4FF0010B0D4A1268002AA5
:1020F00018BF4FF0010B5846BDE8F88FEC3C0020AC
:102100006C3D00204C3C0020503C0020283D00202D
:10211000243D0020483C0020543C0020E83C0020A6
:10212000703D0020F43C00202DE9F843314C236839
:1021300043B94FF0500383F31188BFF36F8FBFF3A0
:102140004F8FFEE7FFF786F92368013B2360246881
:102150002CB10024FFF7A0F92046BDE8F883264BF8
:102160001B68002BF5D0DFF8A890244FDFF8A4807F
:10217000D9F80030E3B90CB1FFF7CEFD204D2C6843
:1021800044B1204E0127FFF73DFF00B13760013C0D
:10219000F9D12C601B4B1B68002BDAD01A4B4FF087
:1021A00080521A60BFF34F8FBFF36F8F0124D1E7C6
:1021B000D9F80C30DC68261D04F11800FFF7E0F8B0
:1021C0003046FFF7DDF8E26A3968012505FA02F3C7
:1021D00014200B4300FB028031463B60FFF7ADF853
:1021E0000A4BE26A1B68DB6A9A4224BF054B1D60FA
:1021F000BEE700BFEC3C0020E03C0020F43C0020A7
:10220000E83C0020703D002004ED00E0483C002048
:102210002C3D0020543C002008B540B90E4B4FF037
:1022200080521A60BFF34F8FBFF36F8F08BD0B4B07
:10223000196841B14FF0500383F31188BFF36F8FDA
:10224000BFF34F8FFEE7FFF7D5FEFFF777FDFFF7F0
:102250006BFF0028E2D008BD04ED00E0EC3C00205C
:1022600008B5174E174C236863B9174B1B68012B31
:10227000F8D9164B4FF080521A60BFF34F8FBFF35F
:102280006F8FEFE7FFF7B6FE3568FFF74DFF002DC4
:10229000E9D0FFF7DFF8F368DD68281DFFF770F875
:1022A0000B4A1368013B13602368013B2360FFF76F
:1022B000F3F8286BFFF788FA2846FFF785FAD2E78C
:1022C000583D0020E43C0020543C002004ED00E098
:1022D000E03C0020174B1A68174B10B512B10122D1
:1022E0001A6010BD1A60154B1B68B3FA83F3DBB29A
:1022F000C3F11F03142212495A4388188C5844B959
:102300004FF0500383F31188BFF36F8FBFF34F8FEC
:10231000FEE744680832646844600A44944204BF9B
:1023200062684260142202FB03135B68DA68054BA3
:10233000D6E700BFEC3C0020703D0020F43C0020BC
:10234000543C0020483C002010B50C4640B94FF0EA
:10235000500383F31188BFF36F8FBFF34F8FFEE7F6
:10236000054B19681831FEF7F4FF20460121BDE83E
:102370001040FFF7E3BC00BF483C002038B5C368FD
:10238000DC6844B94FF0500383F31188BFF36F8FBB
:10239000BFF34F8FFEE704F118052846FEF7F0FF64
:1023A000114B1B68E3B9251D2846FEF7E9FF0F49CD
:1023B000E26A08680123934003430B600C4B14202E
:1023C000294600FB0230FEF7B8FF0A4BE26A1B68A1
:1023D000DB6A9A4283BF084B01201860002038BD99
:1023E00029460648EFE700BFEC3C0020F43C002003
:1023F000543C0020483C0020703D00202C3D002033
:1024000008B508B9FFF7E0FC034B1B680360034BFA
:102410001B68436008BD00BF283D00206C3D0020C4
:1024200038B50D46044640B94FF0500383F3118888
:10243000BFF36F8FBFF34F8FFEE741B94FF05003EB
:1024400083F31188BFF36F8FBFF34F8FFEE7FFF762
:1024500001F80E4B19682B685A1C10D00C4A2068E2
:1024600012689042626801D091420DD2881A83426C
:102470000AD95B1A13442B602046FFF7C1FF0024E2
:10248000FFF70AF8204638BD0124F9E76C3D00202B
:10249000283D0020014B01221A607047703D00204A
:1024A000054B1B6833B1054B1B68002B0CBF02208A
:1024B0000020704701207047403D0020EC3C002088
:1024C0002DE9F0410446002838D01D4DC36A2A6822
:1024D000D26A934232D282691A4E002AA1BF2A6878
:1024E000D26AC2F1070282611427426907FB0363C3
:1024F0009A4220D100F104084046FEF741FF124AFB
:1025000048B9E06A4743F3592BB913680121814068
:1025100023EA010313602B681168D86AE062012383
:1025200083400B4313601423414603FB0060BDE866
:10253000F041FEF702BF2B68DB6AC362BDE8F081A1
:10254000483C0020543C0020F43C0020F8B50446F0
:1025500008B90020F8BD224B1B68984208D04FF004
:10256000500383F31188BFF36F8FBFF34F8FFEE7E4
:10257000836C43B94FF0500383F31188BFF36F8F1F
:10258000BFF34F8FFEE7C16A426C013B9142836407
:10259000DFD0002BDDD1051D2846FEF7F1FE114EE0
:1025A000114A50B9E76A1421794373582BB913685B
:1025B0000120B84023EA00031360636CE362C3F1B7
:1025C0000701A1611168012404FA03F008431060B7
:1025D000142000FB03602946FEF7AFFE2046F8BD3D
:1025E000483C0020543C0020F43C0020044B1A6876
:1025F0001AB119688A6C01328A641868704700BF82
:10260000483C002008B50120FEF781FEFBE70000F2
:1026100030B595B03022002108A800F074FA0021EE
:10262000142203A800F06FFA00241D4B01941A6CC9
:1026300042F080521A641B6C03F080530193019B9B
:10264000184B02941A6842F440421A601B6803F463
:1026500040430293029B012308934FF48033099374
:102660004FF48003B42202250F9308A8042310938B
:10267000119213930E951295FEF7EEF8FEF7B0F84F
:102680000F2303934FF4A053069305214FF4805377
:1026900003A8049505940793FEF78EFA15B030BD94
:1026A000003802400070004080B594B00024584DBE
:1026B000584EFDF725FFFFF7ABFF142200210DA8B0
:1026C00000F021FA02942B6B534843F080032B63F4
:1026D0002B6B03F080030293029B03942B6B43F05C
:1026E00001032B632B6B03F001030393039B0494FF
:1026F0002B6B43F040032B632B6B03F0400322460C
:1027000004934FF4C0410127049BFEF763F84FF494
:10271000C0430DA940480D930E970F941094FDF7F8
:102720006DFF1C2221460DA800F0EDF9182221466C
:1027300007A800F0E8F96B6C384843F010036B64AD
:102740006B6C03F010030693069B2B6B3B432B63D0
:102750002B6B0B973B400593059B4FF4C06307938E
:1027600003234FF00208099307A90723A5F5943521
:102770000C93CDF82080FEF719FC4FF4E1330D9354
:102780000DA90C23284611930E940F9410941294C3
:102790001394FEF71BFD2B6923F490432B616B69A7
:1027A00023F02A036B61EB6843F40053EB600FCE18
:1027B0000DAD0FC533682B6021460DA8FEF78FFDC8
:1027C000174B184918604FF47A723B4601940097F2
:1027D0001548FFF703FB43464FF47A7213490194FF
:1027E00000971148FFF7FAFA23464FF47A7210491E
:1027F0000194CDF800800F48FFF7F0FA224604213B
:102800006420FFF7D9F80C4B1860FEF763FDFEE774
:1028100000380240302B000800180240000002403F
:10282000783D0020492B000859280008512B00084A
:10283000592B0008B12800087C3D0020054A0138CA
:1028400010F8013F03B9704711680906FCD55360C1
:10285000F6E700BF0010014037B5114C114D019053
:1028600001224FF400512046FDF7B4FF0E4800232B
:102870001A4601A90068FFF7C1F8012802D00B48E9
:10288000FFF7DCFF4FF080532B60BFF34F8FBFF398
:102890006F8F00224FF400512046FDF79BFFDFE7CA
:1028A0000018024004ED00E07C3D0020B62B00083B
:1028B00073B5154D154C2E46204601224FF480412C
:1028C000FDF788FF2868FFF713FA10B11048FFF7EB
:1028D000B5FF0023642201A93068FFF745F90128FC
:1028E0000FD1019B01A830330193FFF7A7FF0948DF
:1028F000FFF7A4FF00224FF480412046FDF76AFF56
:10290000DAE70548F4E700BF7C3D002000180240EC
:102910006E2B0008B22B0008902B00080268034BB6
:102920009A4201D1FDF706BE704700BF001000407B
:1029300007B50F4B00220092596C41F48041596455
:10294000596C01F48041009100990192196C41F099
:10295000805119641B6C03F0805301930F216FF0B9
:102960000100019BFDF70AFE03B05DF804FB00BF08
:102970000038024030B5014689B000223620FDF70C
:10298000FDFD3620FDF72EFE0025154B02951A6C35
:10299000144C42F010021A641B6C03F010030293F3
:1029A00001A903A8029BFEF7B1F9FEF79FF90E4BB0
:1029B000236040F2E733E36040000C4BB0FBF3F0E0
:1029C0000138606020462561A560FEF7D3FA20B982
:1029D0002046FEF7BAF909B030BD0120FBE700BF81
:1029E00000380240803D00200010004040420F00AF
:1029F0007047FEE7FEE7FEE7FEE770470148FEF797
:102A0000B3B900BF803D00200F49D1F8883043F4AE
:102A10007003C1F888300D4B1A68002042F00102A3
:102A20001A6098601A6822F0847222F480321A6068
:102A3000074A5A601A6822F480221A60D8604FF060
:102A400000638B60704700BF00ED00E0003802407B
:102A500010300024DFF834D0002103E00C4B5B5829
:102A6000435004310B480C4B42189A42F6D30B4AA0
:102A700002E0002342F8043B094B9A42F9D3FFF7E6
:102A8000C3FF00F011F8FFF70FFE704700000320AE
:102A9000002C0008000000200C0000200C0000208A
:102AA000BC3D0020FEE7000070B50D4E0D4CA41B90
:102AB000A4100025A54209D10B4E0C4C00F02CF8B7
:102AC000A41BA4100025A54205D170BD56F82530E1
:102AD00098470135EEE756F8253098470135F2E77B
:102AE000F82B0008F82B0008F82B0008FC2B000836
:102AF00010B5431E0A44914200D110BD11F8014B9C
:102B000003F8014FF7E702440346934200D17047B0
:102B100003F8011BF9E70000F8B500BFF8BC08BCDA
:102B20009E467047F8B500BFF8BC08BC9E4670478B
:102B3000622B0008052600080000000000000000CD
:102B40008000000049444C450053656E6465723155
:102B50000053656E6465723200526563656976651F
:102B6000720064656661756C745461736B005175B5
:102B70006575652073686F756C6420686176652083
:102B80006265656E20656D7074792E200D200A00D7
:102B9000636F756C64206E6F74207265636569760F
:102BA000652066726F6D2074686520717565756546
:102BB0002E200D200A00636F756C64206E6F7420E8
:102BC00073656E6420746F20746865207175657517
:102BD000652E200D200A000000000000000000010A
:102BE00002030406070809000000000102030400B4
:082BF00030D6FF7F0100000058
:042BF800D5010008FB
:042BFC00B10100081B
:0C2C000001000000AAAAAAAA0024F40007
:0400000508002A5570
:00000001FF
