:020000040800F2
:100000000080002079190008311900083319000810
:1000100000000000000000000000000000000000E0
:10002000000000000000000000000000351900087A
:10003000000000000000000037190008391900080E
:10004000C9190008C9190008C9190008C919000808
:10005000C9190008C9190008C9190008C9190008F8
:10006000C9190008C9190008C9190008C9190008E8
:10007000C9190008C9190008C9190008C9190008D8
:10008000C9190008C9190008C9190008C9190008C8
:10009000C9190008C9190008C9190008C9190008B8
:1000A000C9190008C9190008C9190008C9190008A8
:0C00B000C9190008C9190008C919000886
:1000BC0010B5064C2378002B07D1054B002B02D032
:1000CC00044800E000BF0123237010BD880000200D
:1000DC000000000084220008044B10B5002B03D054
:1000EC000349044800E000BF10BDC04600000000FA
:1000FC008C0000208422000802B471464908490093
:10010C00095C49008E4402BC7047C04603B471467A
:10011C00490840004900095E49008E4403BC704701
:10012C00002243088B4274D303098B425FD3030A2A
:10013C008B4244D3030B8B4228D3030C8B420DD33D
:10014C00FF22090212BA030C8B4202D312120902CB
:10015C0065D0030B8B4219D300E0090AC30B8B4209
:10016C0001D3CB03C01A5241830B8B4201D38B03B7
:10017C00C01A5241430B8B4201D34B03C01A52415C
:10018C00030B8B4201D30B03C01A5241C30A8B429F
:10019C0001D3CB02C01A5241830A8B4201D38B028A
:1001AC00C01A5241430A8B4201D34B02C01A52412E
:1001BC00030A8B4201D30B02C01A5241CDD2C309A0
:1001CC008B4201D3CB01C01A524183098B4201D31C
:1001DC008B01C01A524143098B4201D34B01C01A07
:1001EC00524103098B4201D30B01C01A5241C3087F
:1001FC008B4201D3CB00C01A524183088B4201D3EE
:10020C008B00C01A524143088B4201D34B00C01AD9
:10021C005241411A00D20146524110467047FFE745
:10022C0001B5002000F006F802BDC0460029F7D049
:10023C0076E770477047C046FA210E4B70B51C68C4
:10024C000D4B89001E680D4B30009D68FFF768FF51
:10025C000B49451B3000FFF763FF013D01002800EF
:10026C00FFF75EFFFA23A4029B00A40A5C4300196B
:10027C0070BDC046BC0000202000002010E000E053
:10028C0040420F0070B50400FFF7D6FF0026012591
:10029C000419A04200D370BD074B1B689B0201D010
:1002AC00002E06D0FFF7C8FFFA231B06C0182E003D
:1002BC00EFE7FFF7C1FFECE7BC00002070B50600CC
:1002CC000024012532002241124B610058681B6842
:1002DC00095AA0002A40C058013400F04FFB042CEE
:1002EC00F0D1002280210C4800F048FB0120FFF7E0
:1002FC00C9FF01228021084800F040FB0120FFF7D4
:10030C00C1FF00228021044800F038FB6420FFF775
:10031C00B9FF70BDB00000200008004810B50A00FD
:10032C000400802190208900C00500F027FB2009E3
:10033C00FFF7C4FF2000FFF7C1FF10BD10B500216F
:10034C00FFF7ECFF10BD000007B5002201AB1A70DF
:10035C0040325A702C3A9A704032DA70074AD27A8C
:10036C008A4201D2013AD1B25B5CC3188020404270
:10037C001843C0B2FFF7E2FF07BDC046B000002033
:10038C0004230C2010B504494A7A134310434B72D2
:10039C00FFF7D4FF10BDC046B000002010B5254BB0
:1003AC00254C2360254B63600023012900D90823C9
:1003BC0032202372E17200F0A1F8802190200022FB
:1003CC008900C00500F0DAFA002280211C4800F0F8
:1003DC00D5FA0320FFF772FF1A48FFF753FF0320EB
:1003EC00FFF76CFF6420FFF74DFF0320FFF766FF5C
:1003FC006420FFF747FF0220FFF760FF6420FFF740
:10040C0041FF2020237A1843FFF798FF0023082090
:10041C006372FFF793FF0120FFF790FF032000F0BA
:10042C006DF802230620A372FFF788FFFFF7A8FFE1
:10043C0010BDC04608000020B000002000000020C5
:10044C00000800489411000010B504002078002822
:10045C0000D110BD01210134FFF760FFF6E710B5A4
:10046C001400FFF771FF2000FFF7EEFF10BD000036
:10047C0070B50500FA200D4B80001978FFF750FE7F
:10048C000B4B01001868FFF74BFE00F0A1F90400BC
:10049C000120002C09D1032D07D802382200290095
:1004AC0000F066F92000034B1D6070BD18000020A1
:1004BC00200000201C0000201023064A10B51168F3
:1004CC0000200B431360FFF7D3FF01F0B5F90020B8
:1004DC0010BDC04600200240034A044B11681B7833
:1004EC005B1813607047C046BC0000201800002049
:1004FC00014B18687047C046BC00002070B5040062
:10050C00FFF7F6FF0500631C02D0044B1B78E418C0
:10051C00FFF7EEFF401B8442FAD870BD1800002094
:10052C00F8B504000120002C73D0A36B002B06D16E
:10053C0022003432E3632000137001F095F9A36BB1
:10054C00DB0600D57AE0042223689868104000D0BE
:10055C0074E0A26B4349114002220A430321A263B7
:10056C009A680A40012A00D06EE01968114202D143
:10057C00DA68120468D5DA683B490A40DA60257EED
:10058C00627EAD03D2031543A26AA17E013A561EC8
:10059C00B2411603E2684F03154322692F43022A26
:1005AC0000D10420621DD27F52003A4332430243F1
:1005BC00E07E012804D100292CD1802149020A4374
:1005CC00C220E169FF30814202D0206A01430A4314
:1005DC008020D96840051143D960E16A814202D07C
:1005EC00481E062807D8072558692940A843586192
:1005FC00586901435961DB681C490B409A4211D17F
:10060C0000200322E063A36B93431A0001231343DE
:10061C00A363F8BD2021A56B2943A163E16B0843BB
:10062C00E063CDE71222A36B012093431A00102341
:10063C001343A363E36B0343E363EAE71023A26B67
:10064C0001201343A363E4E71821DA688A43A16805
:10065C000A43DA60196962688900890811431961D3
:10066C0089E7C046FDFEFFFF1902FEFFE7FF3F834F
:10067C00F7B50023040001933434237805000220DD
:10068C00012B2BD001232A68EE6A90682370400757
:10069C005AD430484F680D6887423FD0AB401800A1
:1006AC008023976A5B05384390629E420FD0013ECF
:1006BC00062E0CD98B68072150690840834206D05E
:1006CC0050690B40884350615069034353612B00C0
:1006DC00103B022B03D9002000232370FEBD1E4AC1
:1006EC0080231168102D15D0112D15D05B040B43F0
:1006FC001360102DEFD1194B19491868FFF710FD35
:10070C000A2358430190019B002BE4D0019B013B31
:10071C000193F8E71B04EAE7DB03E8E7AB40916AD7
:10072C0099432B00103B9162022BD4D80A4B1A68C8
:10073C00102D05D0112D05D00A490A401A60CAE7C0
:10074C000949FAE70949F8E72022A96B18000A437E
:10075C00AA63C1E701100000082701402000002017
:10076C0040420F00FFFFFFFEFFFF7FFFFFFFBFFFB9
:10077C0070B58901002812DB8308134A03249B00FF
:10078C009B18FF222040A0401400C025844011403B
:10079C008140AD005E59A6433143595170BD0324CD
:1007AC000F23C0B203402040A040FC342500214060
:1007BC0085408140083B054A9B089B009B18DA69E1
:1007CC00AA431143D961E9E700E100E000ED00E044
:1007DC00094A431E012093420DD8C021074A0848FC
:1007EC005360036A09061B021B0A0B4303620020B9
:1007FC000723906013607047FFFFFF0010E000E0DC
:10080C0000ED00E0F0B5564A0B688218541EA24168
:10081C0089B00393002304320592039ADA4001D184
:10082C0009B0F0BD01229A4094466446039A2240D6
:10083C00029200D192E04A6801921022019E9643E6
:10084C00022E0DD107240F271C40A400A740DA0864
:10085C0092008218156ABD430F69A7403D4315628B
:10086C00032214005D00AC40E4430768013E2740BE
:10087C000497019F3A40AA40049F3A430260012E1C
:10088C000ED8CA688668AA40264032438260624607
:10089C0046689643019AD206D20F9A403243426080
:1008AC00C26814408A68AA401443019AC460D200FA
:1008BC0054D501262B4A1D009469344394619269E6
:1008CC009C0832400792079A274AA400A418A268F1
:1008DC00944603221540AD000C32AA40674697435C
:1008EC009022D2059446002260450DD01F4A9446B2
:1008FC003200604508D01E4E9218B04204D01D4EF6
:10090C000132B04200D0059AAA403A43A2601A4A7A
:10091C00029C1668029D019FE4433543FF0301D4FA
:10092C003500254015605668029D019F3543BF0375
:10093C0001D43500254055609668029D019F3543D2
:10094C00FF0201D4350025409560D568029E019FB9
:10095C002E43BF0201D425402E00D66001335CE744
:10096C0000F0FFB7001002400000014000040048F6
:10097C0000080048000C004800040140002A01D087
:10098C00816170478162FCE7F0B5040085B00028F6
:10099C0002D1012005B0F0BD0368DB0733D4236816
:1009AC009B0700D587E023681B0700D5C8E02368A8
:1009BC005B0700D5EBE02368DB061AD56269BC4DFA
:1009CC000423012A00D057E1696B02260B436B63A9
:1009DC006B6B1A436A63FFF78BFD07006B6B33423B
:1009EC0000D142E1F8216A6BA3698A43DB0013430F
:1009FC006B6323689B0600D566E1626A002A00D00F
:100A0C00A3E10020C6E70C21A94D6A680A40042A1C
:100A1C000BD06B680B40082B0ED1C0226B685202B6
:100A2C00134080225202934206D12B689B03B6D509
:100A3C006368002BB3D1ACE76368012B13D180231F
:100A4C002A685B0213432B60FFF752FD80260700D8
:100A5C00B6022B683342A2D1FFF74AFDC01B6428B3
:100A6C00F7D9032096E7002B15D12B68914A8026E5
:100A7C0013402B602B68904AB60213402B60FFF793
:100A8C0037FD07002B68334289D0FFF731FDC01BBF
:100A9C006428F7D9E5E7052B05D180232A68DB020A
:100AAC0013432B60CBE72B68824A13402B602B68D7
:100ABC00814A1340C7E70C227D4D6B6813420BD063
:100ACC006B681340082B16D1C0226B68520213407E
:100ADC008022120293420ED12B689B0703D5E36848
:100AEC00012B00D055E7F8212A6823698A43DB00E3
:100AFC0013432B6057E7E2680123002A0FD02A68C2
:100B0C00022613432B60FFF7F3FC07002B683342DC
:100B1C00E9D1FFF7EDFCC01B0228F7D9A1E72A6841
:100B2C0002269A432A60FFF7E3FC07002B68334246
:100B3C0000D138E7FFF7DCFCC01B0228F6D990E7A0
:100B4C00E26901235A4D002A10D06A6A0226134327
:100B5C006B62FFF7CDFC07006B6A334200D026E7CF
:100B6C00FFF7C6FCC01B0228F6D97AE76A6A022690
:100B7C009A436A62FFF7BCFC07006B6A334200D1F0
:100B8C0015E7FFF7B5FCC01B0228F6D969E78022F0
:100B9C000021474D5205EB690091134208D1EB69D6
:100BAC001343EB61EB6913400393039B0123009305
:100BBC008027424E7F0033683B4206D0A368012B4E
:100BCC0013D12A6A13432B6230E033683B43336002
:100BDC00FFF78EFC019033683B42EFD1FFF788FCA6
:100BEC00019BC01A6428F6D93BE70122002B14D1D3
:100BFC002B6A022793432B622B6A033293432B629B
:100C0C00FFF776FC06002B6A3B4225D0FFF770FC01
:100C1C002B4B801B9842F6D923E7052B0BD1296A65
:100C2C00013B0B432B622B6A1A432A62FFF760FCD1
:100C3C00022706000DE02B6A934304222B622B6AD9
:100C4C009343C0E7FFF754FC1D4B801B984200D91F
:100C5C0007E72B6A3B42F5D0009B012B00D0AAE69C
:100C6C00EB69184A1340EB61A5E6FFF741FCC01B8A
:100C7C00022800D8B2E6F4E6053203D16A6B9A4337
:100C8C006A63AFE66A6B0226134301226B636B6BDC
:100C9C0093436B63FFF72CFC07006B6B334200D163
:100CAC00A7E6FFF725FCC01B0228F6D9D9E6C046FB
:100CBC0000100240FFFFFEFFFFFFFBFF0070004033
:100CCC0088130000FFFFFFEF0C21534D6A680A40A8
:100CDC008A4209D06B680B40082B0ED1C0226B687E
:100CEC0052021340934208D16B6BDB0300D484E6B1
:100CFC00236A012B00D04CE67FE6236A002B11D02F
:100D0C0080266B6B760233436B63FFF7F1FB0700B6
:100D1C006B6B334200D070E6FFF7EAFBC01B022876
:100D2C00F6D99EE66B6B3D4A802613406B63FFF74A
:100D3C00DFFB070076026B6B334200D15DE6FFF7F9
:100D4C00D7FBC01B0228F6D98BE60C20324B596816
:100D5C001D000140082944D01B6831490B402B6011
:100D6C00022A2FD1FFF7C4FB80260700B6042B689C
:100D7C00334221D10F22EB6A9343226B1343EB6274
:100D8C00A16AE36A6A680B43264980240A4013432C
:100D9C006B6080232A685B0413432B60FFF7A8FB6E
:100DAC000600A4042B68234200D02AE6FFF7A0FB20
:100DBC00801B0228F6D954E6FFF79AFBC01B0228C9
:100DCC00D5D94EE6FFF794FB80240600A4042B68CB
:100DDC00234200D115E6FFF78BFB801B0228F6D9C6
:100DEC003FE6012A00D1D4E5C0225868A16A52021C
:100DFC00DB6A02408A4200D0CBE50F221340226B03
:100E0C00934200D0C5E5F0239B031840E36AC01A57
:100E1C00431E9841C0B2BDE500100240FFFFFEFF2B
:100E2C00FFFFFFFEFF7FC2FF70B5194C88B0102288
:100E3C002100684600F0EEFD210004AD10221031B7
:100E4C00280000F0E7FD0C22124E73681A40082AA5
:100E5C0004D00C2A1AD1104808B070BD0F206A4675
:100E6C00990C0140545CF26A0240A95CC0228020BB
:100E7C00520213404002834201D1084802E09342DF
:100E8C00FBD10548FFF74CF96043E5E70348E3E77E
:100E9C009C22000800100240006CDC0200127A0058
:100EAC00F7B505000F00002801D10120FEBD01227D
:100EBC003B4C236813408B421CD329688B0722D4EC
:100ECC00CB072FD4012322681A40974259D32B68A1
:100EDC00344C5B075DD4FFF7A7FF6368324A1B06EF
:100EEC001B0FD35CD840314B18600020FFF7C0FAC1
:100EFC000020DBE7236893430B43236023681340F4
:100F0C009942D2D1D9E7274A4B0704D5E023506840
:100F1C00DB0003435360F02053688343A86803430A
:100F2C005360CDE76A681F4E012A1AD133689B03C0
:100F3C00BBD5032173688B4313437360FFF7D8FA57
:100F4C0001900C2372681A406B689B009A42B9D0CE
:100F5C00FFF7CEFA019BC01A154B9842F1D903202A
:100F6C00A4E7022A03D133689B01E2D49DE7032A4C
:100F7C0003D1736BDB03DCD497E733689B07D8D4BE
:100F8C0093E722689A43226022681A4200D08CE7C9
:100F9C009DE76368074A1340EA68134363609AE766
:100FAC000020024000100240EF2200082000002028
:100FBC0088130000FFF8FFFF044B054A5B685B05D4
:100FCC005B0FD35C034A1068D84070470010024096
:100FDC00FF22000820000020F0B5036885B0050052
:100FEC00DB0328D580220021444C5205E369009193
:100FFC00134208D1E3691343E361E369134003939C
:10100C00039B0123009380273D4E7F0033683B42B6
:10101C0041D0C022236A920013403A4E4DD1236A2C
:10102C001E406B681E43009B2662012B03D1E369B3
:10103C00354A1340E3612B68DA0706D503202F49A4
:10104C000A6B8243A86802430A639A0706D52B49A8
:10105C002E480A6B0240E86802430A635A0306D51D
:10106C0026492B480A6B0240286902430A639A06F8
:10107C0006D5102021490A6B8243686902430A6332
:10108C0000205B0517D540211C4A136B8B43A969C3
:10109C000B4313630FE033683B433360FFF728FACD
:1010AC00019033683B42B4D1FFF722FA019BC01A7E
:1010BC006428F6D9032005B0F0BD69680A40934254
:1010CC00ADD08023226A206A11005B0203432362A5
:1010DC00236A10483140034023622162D3079ED516
:1010EC00FFF706FA07000222236A134297D1FFF793
:1010FC00FFF9094BC01B9842F5D9DBE70010024001
:10110C0000700040FFFCFFFFFFFFFFEFFFFFFCFF45
:10111C00FFFFF3FFFFFFFEFF8813000070B5040014
:10112C002569A26803682A436569C1692A4318685E
:10113C00654D0A43284002431A605A686348256A81
:10114C000240E06802435A60A26998682A43604DE5
:10115C00284002439A605F4A934213D103225E4BAC
:10116C001B6B13405D4AD05C80231B02994200D15B
:10117C009CE0082861D8FEF7BFFF6260676077606B
:10118C0060607A00564A934238D1C0228020524B7C
:10119C0092021B6B40021340834200D17FE008D8BF
:1011AC00002B00D171E0802301201B02994244D115
:1011BC0020E08020800283425ED09342F3D18023D2
:1011CC001B02994240D163685808464BC0186168AD
:1011DC00FEF7A6FF80B20300434A103B93422CD883
:1011EC000F2302009A43130000072268400F184394
:1011FC00D060002000232366636670BD3B4A934297
:10120C000CD1C0228020344B12031B6BC002134044
:10121C00834244D0C4D980200003CCE7344A9342A3
:10122C0033D0344A934230D0334A93422DD0334A90
:10123C0093422AD0324A934227D00120DAE7FFF7B3
:10124C00BBFE63685B0802E0636858082D4BC0184E
:10125C006168FEF765FF80B20300234A103B93429E
:10126C00EBD82368D860C4E7FFF7DEFDE9E76368D5
:10127C00580880231B02EAE780231B029942F6D10F
:10128C006368580880235B02A0E780231B02994205
:10129C00D5D1FFF791FE636840005B0896E7802389
:1012AC001B029942E0D1FFF7BFFDF4E70828C4D830
:1012BC00FEF72CFFEFFFC3FF89FFC3FFF9FFC3FF4E
:1012CC00C3FFC3FFE6FFC046F369FFEFFFCFFFFF8D
:1012DC00FFF4FFFF0038014000100240BC22000860
:1012EC00004400400024F400EFFF000000480040E0
:1012FC00004C004000500040001401400018014018
:10130C00001C014000127A00436A30B5DA0706D59A
:10131C000168284C4A682240846A22434A609A0732
:10132C0006D50168244C4A682240C46A22434A60AC
:10133C005A0706D50168214C4A682240046B2243A7
:10134C004A601A0706D501681D4C4A682240446B56
:10135C0022434A60DA0606D501681A4C8A68224094
:10136C00846B22438A609A0606D50168164C8A68FB
:10137C002240C46B22438A605A0610D50168134D73
:10138C004A68046C2A4022434A60802252039442E9
:10139C0005D14A680E4C2240446C22434A601B061D
:1013AC0006D502680B4953680B40816C0B435360A4
:1013BC0030BDC046FFFFFDFFFFFFFEFFFFFFFBFF41
:1013CC00FF7FFFFFFFEFFFFFFFDFFFFFFFFFEFFFE1
:1013DC00FFFF9FFFFFFFF7FFF7B5802704000E000C
:1013EC00150001933F012268D36933409B1B59427E
:1013FC004B41AB4201D000201CE0089B0133F3D0E1
:10140C00FFF776F8019B089AC01A2368824201D331
:10141C00002A10D11A6813490A401A609A68A3313D
:10142C00FF318A439A6020236367A367002303205C
:10143C0070342370FEBD04211A680A42D3D0DA69D5
:10144C003A42D0D01F621A6806490A401A609A685C
:10145C00A331FF318A439A6020236367A367E36754
:10146C00E4E7C0465FFEFFFFF0B587B00593436F1E
:10147C0004000D0017000220202B49D1013800294F
:10148C0046D0002A44D08023A2685B019A4204D142
:10149C002369002B01D101423AD1230070331A7811
:1014AC000220012A34D0012200261A702123E6677B
:1014BC006367FFF71DF8230050331F80023303933B
:1014CC001F808023A26804905B019A4204D1236997
:1014DC00B34201D12E001D00230052331A88059B04
:1014EC0092B20093049B002A0AD140212000FFF7FE
:1014FC0073FF00280BD1202370346360207007E049
:10150C00002280212000FFF767FF002802D0032073
:10151C0007B0F0BD2268002D0BD133880236DB05F5
:10152C00DB0D1385039B039A1B88013B9BB2138035
:10153C00D2E72B7801351385F4E7000073B500264C
:10154C000400C667FEF7D4FF236805001B681B0761
:10155C0015D423681B685B070AD580210E4B00222B
:10156C000093C9032B002000FFF736FF002811D190
:10157C00202300206367A367703420700BE0802168
:10158C00054B32000093890303002000FFF724FF72
:10159C000028DED0032076BDFFFFFF0110B5041E2E
:1015AC0001D1012010BD436F002B04D10200703219
:1015BC00137000F087F924230121226863671368F4
:1015CC0020008B431360FFF7A9FD0128E9D0636A63
:1015DC00002B02D02000FFF797FE236807495A68BA
:1015EC0020000A402A215A609A688A439A60012294
:1015FC0019680A431A60FFF7A1FFD3E7FFB7FFFF93
:10160C0030B5102499B0342200210BA800F00BFA4D
:10161C0022000021684600F006FA1C22002104A8D2
:10162C0000F001FA012530230BA80B9311941395AC
:10163C001095FFF7A9F90723002400932900043B18
:10164C006846019302940394FFF72AFC022304A832
:10165C0004930794FFF7C0FC19B030BDF0B593B0FC
:10166C0010226B4909A800F0D5F9FEF725FFFFF70A
:10167C00C7FF142200210DA800F0D5F98020654B7E
:10168C00000359698E24014359615A69E4000240F0
:10169C0080200292029A596980020143596180218B
:1016AC005A69C90202400392039A5A695A480A437A
:1016BC005A615B6900220B4004932100049BC025F6
:1016CC00FFF75CF9002280215448FFF757F990206E
:1016DC00AD0000222900C005FFF750F901270D9439
:1016EC0000240DA94C480E970F941094FFF78AF81C
:1016FC0080230DA949480D930E970F941094FFF772
:10170C0081F890200DA9C0050D950E970F9410949B
:10171C00FFF778F812230DA90E933F480F3B0D9558
:10172C000F9710931197FFF76DF83D483D4B0C2622
:10173C000360E1235B0243608460C4600461466122
:10174C008461C46104624462FFF728FF3200210007
:10175C000DA800F068F9344D344B28002B6004239D
:10176C006B61C223FF33EB616B1D2F61AF626C6049
:10177C00AC60EC602C766C76AC76EC762C62DC771C
:10178C00FEF7CEFE80235B010E9380230DA95B0533
:10179C0028000F930D94FEF76BFF02211020FEF72B
:1017AC00FDFD3A0040211C48FA27FFF7E7F8250019
:1017BC00BF006423102209A91948FFF755FE1C49E4
:1017CC0005A800F05BF9002105AA0800FEF747FE0A
:1017DC00009401342B00320016490DA8E4B200F03D
:1017EC002BF93B2C0AD90135EDB200243B2D05D940
:1017FC000136F6B22500172E00D926000DAA0121BC
:10180C000020FEF72CFE3800FEF778FED1E7C0462C
:10181C00DF220008001002400004004800080048C5
:10182C00C000002000440040400100200024014082
:10183C00C0220008D022000801200A4B82B099690E
:10184C000143996180219A69490502400092009AEE
:10185C00DA690A43DA61DB690B400193019B02B040
:10186C007047C0460010024010B5040088B0142226
:10187C00002103A800F0D7F8104B22689A421BD124
:10188C0080200F4B800099690143996180219A69EE
:10189C00890202400192019A5A6990200A435A61C6
:1018AC005B69C0050B400293029B012303A90393C0
:1018BC0002330493FEF7A6FF08B010BD00240140CC
:1018CC000010024010B5040088B01422002103A8B7
:1018DC0000F0A9F8114B22689A421DD18022104BBE
:1018EC009202D96990201143D961D969C005114080
:1018FC00019101995969114359615B6903A91A4016
:10190C000292029B0C2303930A3B0493013306932C
:10191C00023B0793FEF776FF08B010BD0044004071
:10192C00001002407047FEE77047704710B5FEF795
:10193C00D3FD10BD0A4B10B519680200002901D166
:10194C00084919606946186882188A4206D900F05D
:10195C0037F80C2303600120404210BD1A60FCE7ED
:10196C00A400002084010020704700000D4885462B
:10197C000D480E490E4A002302E0D458C4500433DB
:10198C00C4188C42F9D30B4A0B4C002301E01360B2
:10199C000432A242FBD3FFF7E7FF00F017F8FFF782
:1019AC005DFEFEE700800020000000208800002083
:1019BC00442300088800002084010020FEE700007A
:1019CC00014B18687047C0462400002070B50026F3
:1019DC000C4D0D4C641BA410A64209D1002600F03E
:1019EC004BFC0A4D0A4C641BA410A64205D170BDD9
:1019FC00B300EB5898470136EEE7B300EB58984725
:101A0C000136F2E73C2300083C2300083C23000885
:101A1C0040230008002310B59A4200D110BDCC5CC5
:101A2C00C4540133F8E703008218934200D1704785
:101A3C0019700133F9E700000EB410B59DB002A97E
:101A4C00029008610B488224886048610120404262
:101A5C001FABC881084804CBA400006801938C819B
:101A6C0000F076F80023029A13701DB010BC08BC6D
:101A7C0003B01847FFFFFF7F24000020031C0A78E7
:101A8C0001311A700133002AF9D17047F0B58E6814
:101A9C0085B007000C00039201939E4239D8902325
:101AAC008A89DB001A4234D00325096923685B1A42
:101ABC000293636902985D43EB0F5D19019B6D10F6
:101ACC0001331B18AB4200D91D00530532D5290038
:101ADC00380000F031FB061E09D10C233B6040237B
:101AEC000120A28940421343A38105B0F0BD029AA4
:101AFC002169FFF78FFFA389144A1A4080231343EF
:101B0C00A381029B2661F61826606561019EED1A81
:101B1C00A560019BB34200D21E00320003992068DD
:101B2C0000F0ADFAA36800209B1BA36023689E19EC
:101B3C002660DAE72A00380000F05CFB061EE0D1D4
:101B4C002169380000F0AEFAC7E7C0467FFBFFFF03
:101B5C00F0B59FB0029005938B890F0016001B0601
:101B6C0011D50B69002B0ED1402100F0E5FA38603D
:101B7C003861002805D10C23029A013813601FB07C
:101B8C00F0BD40237B61002306AD6B6120336B7687
:101B9C001033AB7634002378002B47D1A31B04936E
:101BAC000DD0A31B320039000298FFF76FFF431CC6
:101BBC0000D1B5E06A69049B944663446B61237859
:101BCC00002B00D1ACE00122002352426A6002A932
:101BDC005432521801342B60EB60AB601370AB6560
:101BEC00584E05222178300000F03EFA621C002885
:101BFC0020D12968CB0604D5532302AE20309B1983
:101C0C0018700B0704D553232B2002AE9B191870A8
:101C1C0023782A2B16D000200A21099B2278303AEF
:101C2C00092A55D9002815D0099313E0252BB5D0D6
:101C3C000134B0E70123801B8340296814000B4357
:101C4C002B60CDE7059B181D1B680590002B39DB1D
:101C5C000993140023782E2B0BD16378621C2A2B4A
:101C6C003ED1059B02341A1D1B680592002B34DBF8
:101C7C000793354E21780322300000F0F5F9002847
:101C8C0006D04023801B83402A68013413432B6009
:101C9C00217806222D48661C297600F0E5F90028EB
:101CAC0046D02B4B002B2FD12968059B0722C90549
:101CBC0028D59B189343083305936B69039A9B189B
:101CCC006B6167E75B42EB6002230B432B60C0E761
:101CDC004B4301349B180120A0E701235B42C7E76B
:101CEC00002314000A201A006B602178303909296E
:101CFC0003D9002BBDD00792BBE7424301345218E5
:101D0C000123F2E70733D5E705AB00933A00114BFB
:101D1C002900029800E000BF0390039B0133CCD153
:101D2C00BB890B985B0600D429E70120404226E7CB
:101D3C0005AB00933A00074B2900029800F07AF8A3
:101D4C00EAE7C046072300080D230008112300080A
:101D5C0000000000991A0008F7B5150001938A6875
:101D6C000B6900900C00934200DA130022002B60E8
:101D7C0043321278002A01D001332B6023689B0672
:101D8C0002D52B6802332B60062723681F4027D00F
:101D9C00230043331B785A1E93412268920630D499
:101DAC002200019943320098089EB047431C25D06D
:101DBC00062320682A68E16803400025042B03D120
:101DCC008D1AEB43DB171D40A3682269934201DD9A
:101DDC009B1AED180027BD4220D1002010E00137DE
:101DEC00E3682A689B1A9F42D2DA22000123193237
:101DFC0001990098089EB047431CF0D10120404245
:101E0C00FEBD3020E1184331087021005A1C4531C9
:101E1C000978A218433202331170C1E72200012362
:101E2C001A3201990098089EB047431CE6D001373E
:101E3C00D1E70000F0B58BB006920A00433207934D
:101E4C00059004920A7E0C00109B6E2A00D18FE044
:101E5C0017D8632A2CD008D8002A00D199E0582A28
:101E6C0054D026004236327029E0642A01D0692A07
:101E7C00F7D121681A68080623D5111D1960156859
:101E8C0025E0732A00D188E008D86F2A29D0702A5F
:101E9C00E7D1202209680A43226003E0752A20D08A
:101EAC00782ADED122007821453211706C4A30E05C
:101EBC000E001A684236111D196013683370012325
:101ECC0079E04906D9D5111D19600023D55E002D86
:101EDC0003DA2D23049A6D421370624B0A27039385
:101EEC002FE020681968050603D5081D18600D68D9
:101EFC0005E04006F9D50D68081D1860ADB2594BC8
:101F0C00082703936F2A18D00A2716E045310A7068
:101F1C00544A03921A682168101D18601568080647
:101F2C0022D5CB0702D52023194321601027002D81
:101F3C0003D1202322689A432260230000224333DA
:101F4C001A706368A360002B5CDB04222168914348
:101F5C002160002D58D1049E002B64D02600039BD9
:101F6C0042361B7833705EE04806DAD5ADB2D8E75E
:101F7C0009681A68080605D5111D1960136862698D
:101F8C001A6006E04906F7D5111D19601368A28A7C
:101F9C001A800023049E236154E01A68111D1960F5
:101FAC00166800216268300000F05EF8002801D04D
:101FBC00801B6060636823610023049A137041E006
:101FCC002369320006990598079DA847431C43D006
:101FDC00236800259B070FD4099BE06898423DDAE3
:101FEC0018003BE022000123193206990598079E40
:101FFC00B047431C30D00135E368099A9B1A9D42C7
:10200C00F0DBE9E7002DA9D0049E28003900FEF78B
:10201C000DF9039B013E5B5C280033703900FEF721
:10202C007FF8051EF1D1082F09D12368DB0706D5EF
:10203C0063682269934202DC3023013E3370049BB7
:10204C009B1B2361079B09AA00932100069B059803
:10205C00FFF782FE431CB3D1012040420BB0F0BD10
:10206C002923000818230008C9B28218904201D114
:10207C000020704703788B42FBD00130F6E710B597
:10208C00884202D98B18984208D300239A4207D071
:10209C00CC5CC4540133F9E78B5C8354013AFBD21A
:1020AC0010BD000070B50500002910D00C1F23686E
:1020BC00002B00DAE418280000F0D4F81D4A13684D
:1020CC00002B05D163601460280000F0CCF870BDC3
:1020DC00A34209D9216860188342F3D118685B6860
:1020EC0041182160EEE713005A68002A01D0A24281
:1020FC00F9D919685818A0420BD12068091858183A
:10210C0019608242E0D110685268411819605A6017
:10211C00DAE7A04202D90C232B60D5E721686018BE
:10212C00824203D1106852684118216062605C6081
:10213C00CAE7C046A8000020032370B5CD1C9D4300
:10214C00083506000C2D1ED20C25A9421DD83000D6
:10215C0000F088F8254A14682100002919D1244C74
:10216C002368002B03D1300000F06AF820602900AE
:10217C00300000F065F8431C2CD10C233000336088
:10218C0000F071F803E0002DDFDA0C23336000203F
:10219C0070BD0B685B1B1AD40B2B03D90B60CC18CE
:1021AC00256003E08C420ED163681360300000F0B0
:1021BC005AF8200007220B30231D9043C31AE7D096
:1021CC005A42E250E4E74B6863600C00EEE70C0007
:1021DC004968C2E70323C41C9C43A042E0D0211AE7
:1021EC00300000F02DF8431CDAD1C6E7A80000201F
:1021FC00AC000020F8B507000D001600002905D131
:10220C001100FFF799FF04002000F8BD002A03D14C
:10221C00FFF748FF3400F7E700F026F82C00864261
:10222C00F2D931003800FFF787FF041EECD02900EB
:10223C003200FFF7EFFB29003800FFF733FFE3E72D
:10224C00002370B5064C050008002360FFF772FBF5
:10225C00431C03D12368002B00D02B6070BDC046FB
:10226C0080010020704770470B1F1B68181F002B44
:10227C0001DA0B58C0187047F8B5C046F8BC08BC5A
:10228C009E467047F8B5C046F8BC08BC9E467047E1
:10229C0002030405060708090A0B0C0D0E0F10109B
:1022AC000102030405060708090A0B0C0D0E0F109A
:1022BC0000040802323032302F30352F31365B5368
:1022CC0041545D00253032643A253032643A253071
:1022DC0032640053544D333220776F726C64212179
:1022EC000A0D0000000000000000000102030406BB
:1022FC000708090000000001020304232D302B20E5
:10230C0000686C4C006566674546470030313233D7
:10231C003435363738394142434445460030313242
:10232C0033343536373839616263646566000000D2
:04233C00E5000008B0
:04234000BD000008D4
:1023440020001000000400010004004800040048BC
:1023540000040048000000480100000004000000E0
:1023640000127A0028000020000000000000000095
:102374000000000000000000000000000000000059
:102384000000000000000000000000000000000049
:102394000000000000000000000000000000000039
:1023A4000000000000000000000000000000000029
:1023B4000000000000000000000000000000000019
:0823C400000000000000000011
:04000005080019795D
:00000001FF
