:020000040800F2
:10000000000003208D370008DD370008DD370008C9
:10001000DD370008DD370008DD370008000000008C
:10002000000000000000000000000000DD370008B4
:10003000DD37000800000000DD3700083D3700080C
:10004000DD370008DD370008DD370008DD37000840
:10005000DD370008DD370008DD370008DD37000830
:10006000DD370008DD370008DD370008DD37000820
:10007000DD370008DD370008DD370008DD37000810
:10008000DD370008DD370008DD370008DD37000800
:10009000DD370008DD370008DD370008DD370008F0
:1000A000DD370008DD370008DD370008DD370008E0
:1000B000DD370008DD370008DD370008DD370008D0
:1000C000DD370008DD370008DD370008DD370008C0
:1000D000DD370008DD370008DD370008DD370008B0
:1000E000DD370008DD370008DD370008DD370008A0
:1000F000DD370008DD370008DD370008DD37000890
:10010000DD370008DD370008DD370008DD3700087F
:10011000DD370008DD370008DD370008DD3700086F
:10012000DD370008DD370008DD370008DD3700085F
:10013000DD370008DD370008DD370008DD3700084F
:10014000DD370008DD370008DD370008DD3700083F
:10015000DD370008DD370008DD370008DD3700082F
:10016000DD370008DD370008DD370008DD3700081F
:10017000DD370008DD370008DD370008000000002B
:10018000DD370008DD370008DD370008DD370008FF
:10019000DD370008DD370008DD370008DD370008EF
:0C01A000DD370008DD370008DD370008FF
:1001AC0010B5054C237833B9044B13B10448AFF3A5
:1001BC0000800123237010BD5000002000000000BF
:1001CC003838000808B5034B1BB103490348AFF39B
:1001DC00008008BD000000005400002038380008E2
:1001EC0053B94AB9002908BF00281CBF4FF0FF3192
:1001FC004FF0FF3000F07AB9ADF1080C6DE904CE88
:10020C0000F006F8DDF804E0DDE9022304B07047E5
:10021C002DE9F0478C460D460446089E002B51D123
:10022C008A4217466DD9B2FA82FEBEF1000F0BD08E
:10023C00CEF1200C01FA0EF520FA0CFC02FA0EF7A6
:10024C004CEA050C00FA0EF44FEA174A250CBCFBDD
:10025C00FAF81FFA87F90AFB18CC45EA0C4508FB9B
:10026C0009F3AB420AD9ED1908F1FF3280F0238172
:10027C00AB4240F22081A8F102083D44ED1AA4B231
:10028C00B5FBFAF00AFB105544EA054400FB09F9EA
:10029C00A14509D9E41900F1FF3380F00A81A14589
:1002AC0040F2078102383C44A4EB090440EA0840C0
:1002BC000021002E61D024FA0EF400233460736008
:1002CC00BDE8F0878B4207D9002E54D0002186E878
:1002DC0021000846BDE8F087B3FA83F1002940F00D
:1002EC008E80AB4202D3824200F2FA80841A65EB14
:1002FC0003050120AC46002E3FD086E81010BDE867
:10030C00F08712B90127B7FBF2F7B7FA87FEBEF1F7
:10031C00000F34D1EB1B3A0C1FFA87FC0121B3FB05
:10032C00F2F8250C02FB183345EA03450CFB08F3E5
:10033C00AB4207D9ED1908F1FF3002D2AB4200F203
:10034C00D1808046ED1AA3B2B5FBF2F002FB10553A
:10035C0043EA05440CFB00FCA44507D9E41900F161
:10036C00FF3302D2A44500F2B8801846A4EB0C046B
:10037C0040EA08409DE731463046BDE8F087CEF1B3
:10038C00200405FA0EF307FA0EF720FA04F83A0CDB
:10039C0025FA04F448EA0308B4FBF2F14FEA1845D5
:1003AC0002FB11441FFA87FC45EA044501FB0CF3E0
:1003BC00AB4200FA0EF409D9ED1901F1FF3080F0CF
:1003CC008A80AB4240F2878002393D44EB1A1FFA17
:1003DC0088F5B3FBF2F002FB103345EA034500FB52
:1003EC000CF3AB4207D9ED1900F1FF386FD2AB42D9
:1003FC006DD902383D44EB1A40EA01418FE7C1F157
:10040C00200722FA07F88B4005FA01F448EA0303A7
:10041C0020FA07FE4FEA134CFD404EEA040EB5FBE2
:10042C00FCF94FEA1E440CFB19551FFA83F844EAF9
:10043C00054509FB08F4AC4202FA01F200FA01FA94
:10044C0008D9ED1809F1FF3043D2AC4241D9A9F1DA
:10045C0002091D442D1B1FFA8EFEB5FBFCF00CFB94
:10046C0010554EEA054400FB08F8A04507D9E418DE
:10047C0000F1FF3529D2A04527D902381C4440EAA7
:10048C000940A4EB0804A0FB02894C45C6464D4626
:10049C0015D312D056B1BAEB0E0364EB050404FA73
:1004AC0007F7CB401F43CC40376074600021BDE898
:1004BC00F0871846F8E69046E0E6C245EAD2B8EB7B
:1004CC00020E69EB03050138E4E72846D7E74046FE
:1004DC0091E78146BEE7014678E702383C4445E7A0
:1004EC00084608E7A8F102083D442BE7704700BF17
:1004FC00F02070474FF4A0707047292000F032BAFA
:10050C00282000F02FBA08B500F0B4F9CA2000F08A
:10051C0029FAC32000F00AFA082000F007FA50204C
:10052C0000F004FACF2000F01DFA002000F0FEF9D4
:10053C00C12000F0FBF9302000F0F8F9ED2000F0BC
:10054C0011FA642000F0F2F9032000F0EFF9122008
:10055C0000F0ECF9812000F0E9F9E82000F002FA53
:10056C00852000F0E3F9002000F0E0F9782000F09D
:10057C00DDF9CB2000F0F6F9392000F0D7F92C206A
:10058C0000F0D4F9002000F0D1F9342000F0CEF9BD
:10059C00022000F0CBF9F72000F0E4F9202000F065
:1005AC00C5F9EA2000F0DEF9002000F0BFF90020C8
:1005BC0000F0BCF9B12000F0D5F9002000F0B6F93C
:1005CC001B2000F0B3F9B62000F0CCF90A2000F0A3
:1005DC00ADF9A22000F0AAF9C02000F0C3F9102058
:1005EC0000F0A4F9C12000F0BDF9102000F09EF934
:1005FC00C52000F0B7F9452000F098F9152000F05F
:10060C0095F9C72000F0AEF9902000F08FF9362054
:10061C0000F0A8F9C82000F089F9F22000F0A2F946
:10062C00002000F083F9B02000F09CF9C22000F00B
:10063C007DF9B62000F096F90A2000F077F9A72092
:10064C0000F074F9272000F071F9042000F06EF925
:10065C002A2000F087F9002000F068F9002000F053
:10066C0065F9002000F062F9EF2000F05FF92B2013
:10067C0000F078F9002000F059F9002000F056F94C
:10068C00012000F053F93F2000F050F9F62000F063
:10069C0069F9012000F04AF9002000F047F9062022
:1006AC0000F044F92C2000F05DF9C82000F0ACF902
:1006BC00262000F057F9012000F038F9E02000F076
:1006CC0051F90F2000F032F9292000F02FF92420E5
:1006DC0000F02CF90C2000F029F90E2000F026F97E
:1006EC00092000F023F94E2000F020F9782000F0CA
:1006FC001DF93C2000F01AF9092000F017F913201D
:10070C0000F014F9052000F011F9172000F00EF993
:10071C00112000F00BF9002000F008F9E12000F0A6
:10072C0021F9002000F002F9162000F0FFF81B2040
:10073C0000F0FCF8042000F0F9F8112000F0F6F8B5
:10074C00072000F0F3F8312000F0F0F8332000F02F
:10075C00EDF8422000F0EAF8052000F0E7F80C2054
:10076C0000F0E4F80A2000F0E1F8282000F0DEF8B0
:10077C002F2000F0DBF80F2000F0D8F8112000F04B
:10078C00F1F8C82000F040F9292000F0EBF82C20FB
:10079C00BDE8084000F0E6B808B500F06BF803219E
:1007AC00D32000F0FBF880B208BD000010B5214C3E
:1007BC0088B0204602F0B2FA002838D11E4B2360D4
:1007CC001823E3610723E3624FF40073A3614FF432
:1007DC0082736360194B0190A06060612061A0621C
:1007EC00E060206260625A6C42F480125A645A6C67
:1007FC0002F480120192019A02901A6B104842F096
:10080C0020021A631B6B03F020030293029B4FF42C
:10081C00607303930223049305930123069303A9A6
:10082C000523079300F0CCFF204601F0F5FF08B03C
:10083C0010BD00BF70000020005001400038024085
:10084C000014024007B5094B02A91B6821F8020DE0
:10085C000122074802F033F820B1054802F019F8DC
:10086C00FFF7A4FF03B05DF804FB00BF38000020C5
:10087C0070000020F0B5294B1D7889B0002D4AD1AD
:10088C00274C009501261E70236B264843F0080365
:10089C002363236B049603F0080300930227009B49
:1008AC0005954FF4005303A90393069700F088FFB6
:1008BC000195236B1B4843F008032363236B0496B9
:1008CC0003F008030193019B05954FF4805303A992
:1008DC000393069700F074FF0295236B124843F0C4
:1008EC0004032363236B049603F004030424029390
:1008FC0003A9029B03940595069700F061FF2A4615
:10090C002146094801F0E2F832462146064801F03A
:10091C00DDF8FFF74BFF09B0F0BD00BF6C00002005
:10092C0000380240000C02400008024038B50B4C65
:10093C00054601224FF40051094801F0C7F8002286
:10094C000421204601F0C2F82846FFF77BFF204621
:10095C0001220421BDE8384001F0B8B8000802407B
:10096C00000C024038B50B4C054600224FF40051E8
:10097C00094801F0ABF800220421204601F0A6F84A
:10098C002846FFF75FFF204601220421BDE83840CE
:10099C0001F09CB800080240000C024037B5054637
:1009AC000C4600220421144801F090F800224FF468
:1009BC000051124801F08AF82846FFF743FF104B0C
:1009CC0010481B68224601A902F011F920B10D480C
:1009DC0001F05FFFFFF7EAFE01224FF400510748D8
:1009EC00019C01F073F801220421034801F06EF818
:1009FC00204603B030BD00BF00080240000C02408E
:100A0C00380000207000002000F04ABC2DE9F743AC
:100A1C00154C0B9D98464FF4403363600023A36044
:100A2C000A9BE3608146114B236020460E46174615
:100A3C0000F0B4FDA0B94946204600F077FE78B925
:100A4C00CDF800803B4632462946204600F0D2FDC8
:100A5C0030B90A21204603B0BDE8F04300F0E4BDF4
:100A6C0003B0BDE8F08300BFCC00002000B0024012
:100A7C0008B5024B1B689B6A984708BDC002002052
:100A8C0008B5024B1B68DB6A984708BDC002002002
:100A9C0070B58EB000240E4605460194FFF7E8FFB2
:100AAC0003940290FFF7ECFFFF2306934FF4C0630F
:100ABC00089307230993059407948DF834408DF817
:100ACC0035408DF8364004900A96FFF7D1FF0B9015
:100ADC00FFF7D6FF0B4C0C902A4601A9204601F0DB
:100AEC00CFF9094B0C2068431A184FF0FF315160B5
:100AFC00064991604FF07F421A50204601F0EAF906
:100B0C000EB070BD180200200C0100203C0000202B
:100B1C00014B1860704700BFC8000020034B1A68D7
:100B2C000C235343024AD050704700BFC80000202A
:100B3C000C0100200C4BF7B51C680C4A342303FB4A
:100B4C0004230746DD6DFFF793FF0646FFF798FF7A
:100B5C000023009301970346324629462046FFF7AF
:100B6C0055FF03B0F0BD00BFC800002018020020E4
:100B7C00024B1B689B6803B118477047C0020020EA
:100B8C0030B58FB0494B4A4D4A484B4C002201922C
:100B9C00596C41F080615964596C01F0806101918C
:100BAC0001990292196B41F400011963196B01F45C
:100BBC000001029102990392196B41F00101196332
:100BCC00196B01F00101039103990492196B41F027
:100BDC0002011963196B01F0020104910499059249
:100BEC00196B41F004011963196B01F004010591B3
:100BFC0005990692196B41F008011963196B01F004
:100C0C000801069106990792196B41F020011963AE
:100C1C00196B01F02001079107990892196B41F0AB
:100C2C00400119631B6B0B9203F040030893089B64
:100C3C0041F65803099302230A930C9309A90E2336
:100C4C000D9300F0BDFD4FF4706309A9284609937C
:100C5C0000F0B6FD4FF4986309A91848099300F009
:100C6C00AFFD482309A91648099300F0A9FD4FF4DC
:100C7C00806309A91348099300F0A2FD4FF40C639B
:100C8C0009A92046099300F09BFD0323099309A9A8
:100C9C00092328460D9300F093FD4FF4A05309A9A6
:100CAC002046099300F08CFD0FB030BD0038024097
:100CBC0000040240000002400018024000080240FC
:100CCC00000C02400014024038B5224C224B236029
:100CDC00092363610123A3611D23E36103232362C1
:100CEC0040F20D13636240F24313A36240F21713F8
:100CFC001A48E36240F24713236308230360C023BE
:100D0C0003610423002583614FF40033436284F8AC
:100D1C00365084F8345084F8355001F089FB656006
:100D2C00A560E5602561FFF72BFF204601F03CF83C
:100D3C000B4A0C4B13601B68984700F023FA0A4BC4
:100D4C000A4A1B680C2101FB0323094A9A602846B6
:100D5C0038BD00BF180200200068014024010020AB
:100D6C00C002002000000020C80000200C01002060
:100D7C003C000020F8B5084B16461B68074A0C4689
:100D8C00342101FB03230746DD6DFFF771FE00FBE9
:100D9C00047045F82060F8BDC8000020180200203F
:100DAC002DE9F04F2F4B85B01B6802912E49019015
:100DBC000C2000FB0313A2F120049968B1F804A0E5
:100DCC00B1F806B00A680AF10706F6100BFB04F43A
:100DDC00CAEBC60006FB04240AF1FF3252FA80F378
:100DEC004FF000080393029BD84503EB08091FFA48
:100DFC0089F902D305B0BDE8F08F012E09D0022E7F
:100E0C000FD0657822782D0245EA0245A278154369
:100E1C0000E025780027BA4508D808F101083444C9
:100E2C00E1E72278657845EA0225F3E7039B012286
:100E3C00D91B8A400B492A4209684FF00C020AD090
:100E4C00019B4A43D819084B9A58494680B2FFF780
:100E5C0091FF0137DFE7044B02FB0132019B526823
:100E6C00D819F2E7C80000200C0100202DE9F74F3B
:100E7C009A4604460F4616461346A3EB060913F88A
:100E8C00012B002AF9D1FFF7F3FD254B254D1A68EC
:100E9C000C2101FB0252BAF1010F9268984692881C
:100EAC00B0FBF2F021D0BAF1020F25D0B3464FF0CF
:100EBC000C0A9BF80020003218BF01220192FFF7A8
:100ECC00D7FDD8F800300AFB0353ABEB06099B683F
:100EDC009B881FFA89F903FB190080B2984201D351
:100EEC00019A72B903B0BDE8F08FA0EB0900504332
:100EFC0004EB500084B2D9E7A0EB090010FB0240D0
:100F0C00F8E720461BF8012B3946FFF749FFD8F8C4
:100F1C0000300AFB03539B689888204484B2C8E7CE
:100F2C00C80000200C010020094B0A4A1B6810B4B1
:100F3C000C2404FB03230A469B685DF8044BDB88F6
:100F4C0013FB00F081B203230020FFF78FBF00BF1B
:100F5C00C80000200C0100202DE9F347234C244D40
:100F6C0001264FF000080827214682464FF6FF72F3
:100F7C002846CDF8048084E8C000A660C4F80C8034
:100F8C0001F08EFB304600F08BF9022321464FF620
:100F9C00FF72284684E888004FF00409A660C4F864
:100FAC000C8001F07DFB032321464FF6FF7228468F
:100FBC0084E88800C4F80890C4F80C8001F070FB39
:100FCC004FF40C730193019BE3604FF6FF722146C3
:100FDC002846C4F800906760A66001F061FB51469A
:100FEC00284601F074FB02B0BDE8F08754010020E4
:100FFC006401002070B506468EB0002800F0AD806C
:10100C00574B5848002501959A6B42F001029A63A0
:10101C009A6B02F001020192019A02951A6B42F44A
:10102C0080021A631A6B02F480020292029A0395F0
:10103C001A6B42F002021A631A6B02F0020203925C
:10104C00039A04951A6B42F004021A631A6B02F0AD
:10105C0004020492049A05951A6B42F008021A6372
:10106C001A6B02F008020592059A06951A6B42F06B
:10107C0010021A631A6B02F010020692069A079578
:10108C001A6B42F020021A631A6B02F020020792CC
:10109C00079A08951A6B42F040021A631B6B0B956A
:1010AC0003F040030893089B02230EAC0A930C93A5
:1010BC000C230D93602344F8143D214600F080FB73
:1010CC00012321462848099300F07AFB4CF2037364
:1010DC0021462648099300F073FB4FF68373214693
:1010EC002348099300F06CFB4FF63F03214621483F
:1010FC00099300F065FB214648F233131E4C1F4840
:10110C00099300F05DFB8023A3604FF40073E36050
:10111C004FF4806323614FF4805363614FF4804339
:10112C00A3614FF4003323620323A3622563144BA2
:10113C003463204623606560E5616562E562A66301
:10114C0000F0C0F9204600F03FF938202A460F2164
:10115C0000F0CCF8382000F0FDF80EB070BD00BFE8
:10116C00003802400004024000080240000C02401B
:10117C000010024000140240B4010020001802408C
:10118C001064024070B51A4C1A4D1B4B236002239D
:10119C002B602B616B61AB61102323614023636176
:1011AC004FF4C0730721A3614FF4006304226960FC
:1011BC00E96001260021236220464FF40053E260CF
:1011CC00A362AA606660A160E1616162FFF712FF31
:1011DC002946204601F044FA084C002814BF30463A
:1011EC000020207040F26A50FFF7B6FE207870BDE8
:1011FC006401002098010020400100A04400002060
:10120C0038B50E4A0E4B054618784FF47A73B3FB7B
:10121C00F0F31068B0FBF3F000F0AAF8044658B9EC
:10122C000F2D09D8024629464FF0FF3000F05EF82A
:10123C00044B20461D6038BD012038BD4C000020F9
:10124C00450000204800002008B50B4B1A6842F4FA
:10125C0000721A601A6842F480621A601A6842F4CA
:10126C0080721A60032000F02FF80020FFF7C8FFEF
:10127C0002F05AF8002008BD003C0240034A044B1F
:10128C0011681B780B441360704700BFC402002028
:10129C0045000020014B1868704700BFC4020020B5
:1012AC0038B50446FFF7F6FF631C1CBF054B1B78D3
:1012BC00054618BFE418FFF7EDFF401B8442FAD82F
:1012CC0038BD00BF45000020074AD36823F4E06313
:1012DC001B041B0C43F0BF63000243F4003300F407
:1012EC00E0600343D360704700ED00E0174B30B56E
:1012FC00DC68C4F30224C4F10703251D042B28BFAA
:10130C000423062D4FF0010505FA03F303F1FF3317
:10131C008CBF033C00241940A14005FA04F4013CA5
:10132C002240002842EA01024FEA0212ADBF00F14E
:10133C00604000F00F00064B00F56140B5BFD2B223
:10134C00D2B21A5480F8002330BD00BF00ED00E08B
:10135C0014ED00E0002808DB4209012300F01F0017
:10136C0003FA00F0014B43F82200704700E100E063
:10137C000138B0F1807F0AD2064B074A5860F02141
:10138C0082F823100020072298601A607047012011
:10139C00704700BF10E000E000ED00E00368DAB237
:1013AC0023F47F7323F003031821103AB2FBF1F2FC
:1013BC000449032A88BF0433895C8365C165806D49
:1013CC00704700BF0853000870B50446FFF762FF72
:1013DC000546002C71D0002384F834302268022397
:1013EC0084F83530136823F00103136021680B680F
:1013FC00D8073CD40B68324D6268A0691D40A368C5
:10140C001343E26813432269134362691343E2698D
:10141C0003431343226A1343626A042A43EA050313
:10142C0001BF266BE56A35432B430B604B69042ADD
:10143C0023F0070343EA02030BD1A26AE56A1343C4
:10144C003DB1F8B9012A2DD001D3022A01D1EA010C
:10145C002BD44B612046FFF7A1FFE26D3F23934055
:10146C00836000200123606584F8353070BDFFF780
:10147C0011FF401B0528B9D920236365032084F88C
:10148C00350070BDB0F5005F13D1032AE1D801A07F
:10149C0050F822F0B71400085B140008B7140008C9
:1014AC00B1140008B5F1C07FD3D14023636501208E
:1014BC00E5E7022AF9D9032AC8E7012070BD00BF6D
:1014CC003F8010F038B5054620B390F83540E4B2B3
:1014DC00022C1DD003681A6822F0010200241A6045
:1014EC0021221C605C609C60DC601C615A61FFF70F
:1014FC0055FFEA6DEC633F2393402C646C64AC6441
:10150C00EC642C6583606C6585F8344085F8354057
:10151C00204638BD012038BD70B50468049D666C4A
:10152C0045EA034306F04046334363644368E26391
:10153C00B3F5403F30D186681EB1012E03D121F0A6
:10154C007F41A16370BD022E01F47F0301F47F453E
:10155C00C8B207D1D90CAD0AC90241EA451141EA1A
:10156C00D001EEE7032E01F07F420AD1DB0CED0A2D
:10157C009B0243EA451343EAD003D10F43EAC1313E
:10158C00DFE7190D2D0B090241EA051141EA101193
:10159C00130F41EA0331D4E7E16070BD10B5044686
:1015AC0030B390F8393003F0FF021BB980F83820C3
:1015BC0001F0DAFE22686168022384F8393013687E
:1015CC0023F440330B431360536BA16823F00703E0
:1015DC000B435363136CE16823F47F5323F03F03F5
:1015EC000B43136400200123E06384F8393010BDF1
:1015FC00012010BD73B590F83840012C05464FF012
:10160C0002040FD080F839400126069C80F838601F
:10161C000094FFF781FF2A6813683343136000209E
:10162C0002B070BD2046FBE773B50023019303683D
:10163C001B68DB0704460D4617D42268D369526A2F
:10164C0013439E0606D5FFF725FE064623685A6807
:10165C00D20643D5236812229A600020012384F815
:10166C00393084F8380002B070BDFFF713FE06461F
:10167C0023685A689207E0D45A680192019A12F0D2
:10168C00210F17D0019A950642BFE26B42F002027D
:10169C00E263019AD00742BFE26B42F00102E263BF
:1016AC0021229A60042384F83930002384F83830DE
:1016BC000120D8E7691CDCD0FFF7ECFD801B8542CC
:1016CC0001D3002DD4D1E36B43F02003E36303205B
:1016DC00002384F8390084F83830C4E75A68019242
:1016EC00019A12F0290F16D0019A160742BFE26B2D
:1016FC0042F00402E263019A950642BFE26B42F0AB
:10170C000202E263019AD00742BFE26B42F001028F
:10171C00E2632922C5E7691C99D0FFF7BBFD801B4A
:10172C008542D0D3002D91D1CDE7000090F8383010
:10173C00012BF0B54FF0020336D00E0180F8393092
:10174C0083190122DD6980F838201A6A5C6A1B4F04
:10175C00036845EA0242093D012D0FD804F07F4E83
:10176C004EEA020269B9596A39400A435A628269DF
:10177C009A61426A22F07F429A620FE042EA046266
:10178C00A1B1D969064439400A43012DDA6198BFE9
:10179C0024F07F44B2691A6198BF1C62012380F85F
:1017AC003930002380F838301846F0BD596A39407A
:1017BC000A435A6282699A61F0E700BFF0FFFC00AD
:1017CC002DE9F04F85B00B68DFF8C4816E4ADFF865
:1017DC00C491019300234FF0010E019C0EFA03FEFD
:1017EC000EEA0406B64540F0B6804C6824F01007AB
:1017FC00022F16D14FEAD30A00EB8A0A03F0070B2B
:10180C00DAF820504FEA8B0B4FF00F0C0CFA0BFC54
:10181C0025EA0C0C0D6905FA0BF545EA0C05CAF81E
:10182C0020504FEA430A0325D0F800B005FA0AF518
:10183C00ED4304F0030C0BEA050B0CFA0AFC013F18
:10184C004CEA0B0C012FC0F800C011D8876807EACE
:10185C00050BCF6807FA0AFC4CEA0B078760476850
:10186C0027EA0E0EC4F300179F4047EA0E074760A5
:10187C00C7683D408F6807FA0AF73D43C560E5002D
:10188C0069D54FF0000BCDF80CB0D8F844703F4D33
:10189C0047F48047C8F84470D8F8447007F4804780
:1018AC000397039F23F0030707F1804707F59C3745
:1018BC0003F0030CD7F808A04FEA8C0C4FF00F0E76
:1018CC000EFA0CFEA8422AEA0E0E4BD005F58065E6
:1018DC00A84249D005F58065A84247D005F580653A
:1018EC00A84245D005F58065A84243D0484543D071
:1018FC0005F50065A84241D005F58065A8423FD0AA
:10190C0005F58065A8423DD005F58065A84214BF59
:10191C000A25092505FA0CF545EA0E05BD60156882
:10192C00F74314F4803F0CBF3D40354315605568B8
:10193C0014F4003F0CBF3D4035435560956814F4DA
:10194C00801F0CBF3D4035439560D568A40254BF41
:10195C003D403543D5600133102B7FF43CAF05B0CF
:10196C00BDE8F08F5D46D5E70125D3E70225D1E729
:10197C000325CFE70425CDE70525CBE70625C9E7E9
:10198C000725C7E70825C5E7003C014000000240D9
:10199C0000380240001402402DE9F04F464DDFF8AC
:1019AC002091DFF820A1DFF820B10022012303FAF7
:1019BC0002FC0CEA0104A44567D122F0030606F1EF
:1019CC00804606F59C3602F0030E3C4BD6F8088098
:1019DC004FEA8E0E0F2707FA0EF7984208EA07080F
:1019EC0058D003F58063984256D003F58063984233
:1019FC0054D003F58063984252D003F5806398422B
:101A0C0050D0484550D0504550D0584550D003F593
:101A1C00805398424ED003F5806398420CBF092343
:101A2C000A2303FA0EF3984510D1B36823EA07078B
:101A3C00B7602B68E44323402B606B6823406B60DA
:101A4C00AB682340AB60EB681C40EC605600032392
:101A5C000468B340DB431C400460D40800EB8404EE
:101A6C0002F0070E266A4FEA8E0E0F2707FA0EF7C2
:101A7C0026EA0707276284681C408460446824EACD
:101A8C000C044460C4682340C3600132102A8DD119
:101A9C00BDE8F08F0023C4E70123C2E70223C0E7AF
:101AAC000323BEE70423BCE70523BAE70623B8E704
:101ABC000723B6E70823B4E7003C014000000240CE
:101ACC000014024000180240001C02400AB181615F
:101ADC0070470904FBE7000070B5044608B9012003
:101AEC0070BD90F83D3003F0FF021BB980F83C202C
:101AFC0001F052FC2268242384F83D30136823F053
:101B0C000103136000F084FC6568414B9D424DD885
:101B1C00404B9842E3D922683F495368B0FBF1F13E
:101B2C0023F03F030B435360136A23F03F0301314F
:101B3C0019431162D169364B21F44F419D4221F07A
:101B4C00FF0100F1FF3048D86D00B0FBF5F001301B
:101B5C00C0F30B03042B38BF04230B43D361116870
:101B6C00206AE36921F0C00103430B4313609168C1
:101B7C00E068236921F40341034321F0FF010B4387
:101B8C009360D168A069636921F0FF0103430B43A3
:101B9C00D360136843F001031360002020232064FA
:101BAC0084F83D30206384F83E0070BD1B4B984296
:101BBC0095D92268184E5368B0FBF6F623F03F0314
:101BCC0033435360136A4FF49671714323F03F0310
:101BDC004FF47A76B1FBF6F1A9E7A36853B905EB9C
:101BEC004503B0FBF3F0431CC3F30B036BB143F49D
:101BFC000043B2E719236B43B0FBF3F0431CC3F370
:101C0C000B0313B143F44043A7E70123A5E700BF3F
:101C1C00A08601007F841E0040420F00FF083D009B
:101C2C0090F83D20D2B2202A10B516D1242380F88A
:101C3C003D3003681C6824F001041C605C6A24F0CD
:101C4C0010045C625C6A21435962196841F001011D
:101C5C00196080F83D20002010BD022010BD30B569
:101C6C0090F83D40E4B2202C16D10268242380F871
:101C7C003D30156825F001051560556A4FF6F07377
:101C8C002B400B439BB25362136843F00103136068
:101C9C0080F83D40002030BD022030BD2DE9F043DE
:101CAC00D20104684F68E568D1F800E0D1F81890CB
:101CBC008432A3180EF10106586800F47040586085
:101CCC00E068C5F30B45C0F30B403D44304440EA9B
:101CDC0005405860E068CD68C0F30A000544986878
:101CEC0000F470409860E6688868C6F30A06013014
:101CFC00304440EA0540986018690E6920F00700EE
:101D0C0018614FF0000C1E619D6991F8320091F83A
:101D1C003180C3F818C091F8305045EA096545EA9E
:101D2C00082545EA00459D61586920F0FF0058617F
:101D3C0048695861D86920F4E06020F00700D86148
:101D4C00086ACD690543DD61986A486AC3F828C002
:101D5C0098621EB3012E23D0B01E022822D9072E62
:101D6C000CBF02200120DD6A05F0E025DD628D6AE2
:101D7C00C96AA7EB0E0745437843033040EA054098
:101D8C00D862186B20F4FF6020F007001863196309
:101D9C00A35843F00103A350BDE8F0830420E2E70D
:101DAC000320E0E70220DEE738B50446002863D0C4
:101DBC0090F8A13003F0FF021BB980F8A02001F0CD
:101DCC003FFB022384F8A1302368A0689A6922F0B3
:101DDC0070429A61626899690243E0680243206923
:101DEC0002430A439A619A68244960690A409A60DE
:101DFC009A6842EA0042A06902439A60DA68E06994
:101E0C000A40DA60DA6842EA0042206A0243DA6089
:101E1C001A69606A0A401A611A6942EA0042A06AA9
:101E2C0002431A615A69114059615A69E16A42EADE
:101E3C000142216B0A435A61D96A94F8360094F82E
:101E4C00355001F07F41D962D96A94F834200A43A5
:101E5C0042EA052242EA0042DA625A6B42F006027A
:101E6C005A639A6942F001029A6100200123C4F876
:101E7C00A40084F8A13038BD012038BD00F800F072
:101E8C00F8B590F8A030012B06468E4694464FF0DC
:101E9C0002001DD034240D4686F8A10004FB026418
:101EAC000FCD0127383486F8A0700FC40FCD0FC4A6
:101EBC000FCD0FC42B682360304662467146FFF786
:101ECC00EDFE336800205F6286F8A17086F8A000F2
:101EDC00F8BD000090F8A030012B4FF002030CD09D
:101EEC00074A80F8A130936943F48033936101234E
:101EFC0080F8A130002380F8A0301846704700BF4E
:101F0C000068014037B500230193184B184C1A6C2C
:101F1C0042F080521A641B6C03F080530193019BB6
:101F2C00144B01221A60FFF7B5F905466368DA0312
:101F3C000BD5114B0E4C01221A60FFF7ABF905467D
:101F4C0063689B030AD5002006E0FFF7A3F9401B4A
:101F5C00B0F57A7FEAD9032003B030BDFFF79AF9C8
:101F6C00401BB0F57A7FEBD9F5E700BF0038024093
:101F7C000070004040000E4244000E422DE9F34137
:101F8C00044618B9012002B0BDE8F0810368DD07F2
:101F9C0010D42368980758D423681A0700F19A8044
:101FAC0023685B0700F1B880A269002A40F0198110
:101FBC000020E8E7A64B9A6802F00C02042A07D02E
:101FCC009A6802F00C02082A0AD15B68590207D5FC
:101FDC009F4B1B689A03DCD56368002BD9D1D1E7E2
:101FEC0063689B4DB3F5803F11D12B6843F480336C
:101FFC002B60FFF74FF9964D06462B689B03C8D410
:10200C00FFF748F9801B6428F7D90320BBE7B3F529
:10201C00A02F04D12B6843F480232B60E5E72A68BA
:10202C0022F480322A602A6822F480222A60002B53
:10203C00DFD1FFF72FF906462B689F03A9D5FFF7D1
:10204C0029F9801B6428F7D9DFE7814B9A6812F0D5
:10205C000C0F07D09A6802F00C02082A11D15B68A9
:10206C005E020ED47A4B1A68950702D5E268012AF3
:10207C0088D11A68216922F0F80242EAC1021A607A
:10208C008AE7E268734BB2B101221A60FFF702F9DA
:10209C006F4D06462B68980707D52B68226923F0ED
:1020AC00F80343EAC2032B6076E7FFF7F3F8801BD3
:1020BC000228EFD9A9E71A60FFF7ECF8644D064641
:1020CC002B6899077FF568AFFFF7E4F8801B0228AF
:1020DC00F6D99AE76269604B7AB101221A60FFF770
:1020EC00D9F85B4D06466B6F9F073FF559AFFFF76D
:1020FC00D1F8801B0228F6D987E71A60FFF7CAF8D7
:10210C00534D06466B6F98077FF54AAFFFF7C2F841
:10211C00801B0228F6D978E74D4B1A6C12F08052CE
:10212C0028D101921A6C42F080521A641B6C03F095
:10213C0080530193019B0126484D2B68D9051BD573
:10214C00A368434D012B27D12B6F43F001032B6761
:10215C00FFF7A0F83E4D074641F288382B6F9B07DE
:10216C0039D5002E3FF420AF394A136C23F080533D
:10217C00136419E70026DFE72B6843F480732B60A8
:10218C00FFF788F807462B68DA05D9D4FFF782F8F1
:10219C00C01B0228F7D938E7052B04D12B6F43F06D
:1021AC0004032B67D0E72A6F22F001022A672A6FFB
:1021BC0022F004022A67002BCAD1FFF76BF841F218
:1021CC00883807462B6F9807CBD5FFF763F8C01BF1
:1021DC004045F7D919E7FFF75DF8C01B4045BDD95D
:1021EC0013E71B4DAB6803F00C03082B3FF4CAAE8E
:1021FC001B4E0023022A336034D1FFF74BF80746FD
:10220C002B6899011ED4226AE3691343626A43EA7C
:10221C008213E26A43EA0263A26A0D4C5208013A45
:10222C0043EA02436B6001233360FFF733F8054642
:10223C0023689A013FF5BCAEFFF72CF8401B02282F
:10224C00F6D9E2E6FFF726F8C01B0228D8D9DCE65F
:10225C000038024000004742800E474200700040A8
:10226C0060004742FFF716F804462B689B017FF588
:10227C009FAEFFF70FF8001B0228F6D9C5E600BF8A
:10228C00134908B58B6803F00C03042B03D0082BFF
:10229C0003D0104808BD104808BD4A684B6849680F
:1022AC0013F4800314BF0C480A48C1F3881118BFFB
:1022BC00002302F03F02A1FB0001FDF791FF044B4C
:1022CC005B68C3F3014301335B00B0FBF3F008BD63
:1022DC00003802400024F40000127A002DE9F0418D
:1022EC000D46044610B90120BDE8F081444B1A6834
:1022FC0002F00F028A4228D321688F072DD4C80719
:10230C0040D43F4B1A6802F00F02954266D3226804
:10231C0051076CD4130707D53A4A2169936823F403
:10232C00604343EAC1039360FFF7AAFF354B364A7B
:10233C009B68C3F30313D35CD840344B1860002064
:10234C00FEF75EFF0020BDE8F081CAB21A701B6870
:10235C0003F00F039942C6D1CEE72A4B11F0040FBC
:10236C001EBF9A6842F4E0529A600E0742BF9A6808
:10237C0042F460429A609A68A06822F0F00202432C
:10238C009A60BCE762681F4B012A1DD11B6813F4CD
:10239C00003FA8D01B4EB36823F003031343B36074
:1023AC00FEF778FF41F288380746B368626803F09D
:1023BC000C03B3EB820FA4D0FEF76CFFC01B40459F
:1023CC00F3D90320BDE8F081911E01291B6802D8C6
:1023DC0013F0007FDDE713F0020FDAE7EAB21A70B0
:1023EC001B6803F00F039D427FF47DAF8FE7054917
:1023FC00E0688B6823F4E05303438B608AE700BFEB
:10240C00003C0240003802404C5300084C000020B5
:10241C00044B054A9B68C3F38223D35C034A1068C0
:10242C00D8407047003802405C5300084C00002034
:10243C000368F7B59A07044640F08880236813F0C8
:10244C000C0F44D0804D814E00232B60FEF722FFF1
:10245C00074633689B0000F1BD8021684F0715D5F6
:10246C006369D6F8882020691B0602F0E04243EA33
:10247C0080131343C6F88830D6F88C30226A23F4C4
:10248C00F853013A43EA0223C6F88C300E0714D5F0
:10249C006E4AA369D2F8881020691B0701F070619D
:1024AC0043EA80130B43C2F88830D2F88C30616A4F
:1024BC0023F440330B43C2F88C3001232B60FEF71E
:1024CC00E9FE624D06462B68980040F18A8023682D
:1024DC009A0631D5002301935C4B5D4D1A6C42F08A
:1024EC0080521A641B6C03F080530193019B2B6880
:1024FC0043F480732B60FEF7CDFE06462B68D9059E
:10250C0076D5524D2B6F13F4407377D1A36A03F435
:10251C004072B2F5407F4D4A40F09180916823F0B3
:10252C00704021F4F81120F4407001439160116F58
:10253C00C3F30B030B431367206810F010001FBF8D
:10254C00444B94F82C201A60002041E0424D3F4E41
:10255C0000232B60FEF79EFE074633681B0131D427
:10256C002268D70706D5A36861681B0743EA811365
:10257C00C6F88430900715D5344AE368D2F8841035
:10258C0060681B0601F0E04143EA80130B43C2F87C
:10259C008430D2F88C10E36921F01F01013B0B430E
:1025AC00C2F88C3001232B60FEF774FE274D0646D3
:1025BC002B6819013FF542AFFEF76CFE801B022819
:1025CC00F6D904E0FEF766FEC01B0228C5D903202D
:1025DC0003B0F0BDFEF75EFEC01B02287FF639AFDC
:1025EC00F5E7FEF757FE801B02287FF66CAFEEE78F
:1025FC00FEF750FE801B022880D9E8E7A26A02F49D
:10260C004072934282D02B6F144A0121116023F443
:10261C004073002111602B672B6FDA077FF576AFC3
:10262C00FEF738FE41F2883706462B6F9B073FF5C5
:10263C006DAFFEF72FFE801BB842F6D9C7E7916845
:10264C0021F4F81172E700BF7000474200380240D5
:10265C0000700040E011474268004742400E47427C
:10266C0038B50D460446C8B190F82C3003F0FF0283
:10267C001BB980F82D2000F0EBFF022384F82C30DE
:10268C00211D206800F04DFB62682068294600F08F
:10269C0087FB012384F82C30002038BD012038BD85
:1026AC0038B5044690F82C00C0B202280D460DD067
:1026BC00022384F82C30206800F0BAFB2B68022B24
:1026CC000CBF0523012384F82C30002038BD10B535
:1026DC00044690F82C00C0B2022809D0022384F8DA
:1026EC002C30206800F0C9FB012384F82C3000202A
:1026FC0010BDF8B504460E4615461F4621688A687B
:10270C0036EA020301D00020F8BD6B1CF7D0FEF7AF
:10271C00C1FDC01B8542F1D823685A6822F0E00243
:10272C005A606268B2F5827F0AD1A268B2F5004F96
:10273C0002D0B2F5806F03D11A6822F040021A6001
:10274C00A26AB2F5005F07D11A6822F400521A602F
:10275C001A6842F400521A60012384F851300023A5
:10276C0084F850300320F8BD38B513464268B2F5F2
:10277C00827F04461FD18268B2F5004F02D0B2F5B9
:10278C00806F07D125682868B2F5806F20F0400073
:10279C00286007D00A4680212046FFF7AAFF20B9FF
:1027AC00002038BD0A460121F6E7636D43F0200393
:1027BC006365032038BD0A460121EEE773B5134665
:1027CC00134A144E15684268B5FBF6F64FF47A7549
:1027DC007543B2F5827F044601950DD10A468021DE
:1027EC00FFF787FF10B9002002B070BD636D43F096
:1027FC00200363650320F7E7019B002BF3D0019BBB
:10280C00013B019323689B681B06F5D4EBE700BFE3
:10281C004C00002000366E0110B50446002836D05E
:10282C000023836290F8513003F0FF021BB980F84B
:10283C00502000F0C3FE2168A068A269022384F82E
:10284C0051300B6823F040030B6063680343E0686E
:10285C0003432069034360690343E0690343206A2F
:10286C000343A06A034302F4007003430B60120C91
:10287C00636A02F004021A434A60CB6923F40063D2
:10288C00CB6100200123606584F8513010BD01201C
:10289C0010BD10B5044680B10268022380F8513097
:1028AC00136823F04003136000F0BCFE0020606549
:1028BC0084F8500084F8510010BD012010BD2DE9A2
:1028CC00F3411E4690F85030012B04460D469046BD
:1028DC0000F09B80012380F85030FEF7DBFC0746AC
:1028EC0094F85100C0B2012840F08D80002D5DD0CD
:1028FC00B8F1000F5AD0032384F851300020A3689C
:10290C006065A063A4F83680A087E08760642064CB
:10291C0020682563B3F5004F08BF0368A4F8348022
:10292C0004BF43F48043036003685B065EBF036827
:10293C0043F040030360E368B3F5006F63683ED176
:10294C0013B1B8F1010F07D135F8023BC360256311
:10295C00E38E013B9BB2E386E38E9BB2A3B93A466E
:10296C0031462046FFF72AFF002849D1A36833B926
:10297C0001932368DA6801929B680193019B606D57
:10298C00003018BF012011E022689368980705D524
:10299C00236B33F8021BD1602363D9E7FEF77AFC73
:1029AC00C01BB042D8D3711CD6D00320012384F8AD
:1029BC005130002384F8503002B0BDE8F08113B1DF
:1029CC00B8F1010F08D12B780373236B0133236308
:1029DC00E38E013B9BB2E386E38E9BB2002BBED011
:1029EC0023689A68920703D5226B12781A73ECE766
:1029FC00FEF750FCC01B8642EED8731CECD0D4E71B
:102A0C0020236365B2E70220D0E70220D4E72DE94A
:102A1C00F7431E4690F850300A9F012B04460D4692
:102A2C00914600F0E280012380F85030FEF732FC32
:102A3C0094F851306168DBB2012B80460AD0B1F5B5
:102A4C00827F40F0D080A068002840F0CC80042B1E
:102A5C0040F0C980002D00F0C480B9F1000F00F0E7
:102A6C00C080002E00F0BD8094F85130C4F838902E
:102A7C00042B1CBF052384F85130002363652364A9
:102A8C0063642368E687E6861A68A687500658BFF3
:102A9C001A68256358BF42F04002A68658BF1A60D8
:102AAC00E268B2F5006F58D109B1012E07D135F8A3
:102ABC00022BDA60E38E2563013B9BB2E386012592
:102ACC00E38E9BB2ABB9E38F9BB293B942463946C6
:102ADC002046FFF773FE002840F08180A368002B8E
:102AEC0032D123680190DA6801929B680193019BB3
:102AFC002AE02268936899070DD5E38E9BB253B1F7
:102B0C004DB1236B33F8021BD1602363E38E013B81
:102B1C009BB2E38600259368DB070CD5E38F9BB251
:102B2C004BB1A36BD26823F8022BA363E38F013B59
:102B3C009BB2E3870125FEF7ADFBA0EB08008742B3
:102B4C00BED87E1CBCD00320012384F85130002356
:102B5C0084F8503003B0BDE8F08309B1012E08D1E0
:102B6C002A781A73236B01332363E38E013B9BB2E8
:102B7C00E3860125E38E9BB21BB9E38F9BB2002B3E
:102B8C00A4D02268936898070ED5E38E9BB25BB1F4
:102B9C0055B1236B1B781373236B01332363E38EC3
:102BAC00013B9BB2E386002522689368D9070DD5BB
:102BBC00E38F9BB253B1A36BD2681A70A36B013332
:102BCC00A363E38F013B9BB2E3870125FEF762FB16
:102BDC00A0EB08008742CDD87B1CCBD0B3E72023D9
:102BEC0063650120B0E70220AEE70220B2E72DE9D1
:102BFC00F3411D464368B3F5827F04468846174669
:102C0C000CD1836853B9042380F8513013460095D6
:102C1C000A46FFF7FCFE02B0BDE8F08194F8503094
:102C2C00012B79D0012384F85030FEF733FB064694
:102C3C0094F85100C0B201286CD1B8F1000F57D0F4
:102C4C00002F55D0042384F851300023636523638F
:102C5C00E787A386E38623646364A368A787B3F539
:102C6C00004F2368C4F8388002BF1A6822F48042EF
:102C7C001A601A6857065EBF1A6842F040021A6062
:102C8C00E368F3B1E38F9BB2FBB123689A68D20778
:102C9C0035D5DA68A36B23F8022BA363E38F013BD2
:102CAC009BB2E387EEE723689A68D00718D5A26B2E
:102CBC001B7B1370A36B0133A363E38F013B9BB2AC
:102CCC00E387E38F9BB2002BEDD132462946204699
:102CDC00FFF74AFDD8B9606D003018BF012007E03E
:102CEC00FEF7D8FA801B8542EBD8691CE9D003208B
:102CFC00012384F85130002384F850308BE7FEF721
:102D0C00C9FA801B8542BDD86B1CBBD0EFE72023D2
:102D1C006365E0E70220EBE702207CE790F85100C6
:102D2C0070470B684A68D1F810C0012B2DE9F043AD
:102D3C000368D1F80890D1F80C804D698C69D1F8F2
:102D4C001CE00F6A4E6A14D023F4FF4323F07F0378
:102D5C001A4342EA090242EA080242EA0C032B43F4
:102D6C00234343EA0E033B43334303600020BDE897
:102D7C00F083416821F4FF4121F07F0123F4F843F3
:102D8C000A4343EA0E0342EA09023B4342EA0802C1
:102D9C001E4342EA0C032B43234306604360E5E7E2
:102DAC00012AF0B5D1F80CC08F680D694E6991E815
:102DBC00084089691BD082680EF1FF3E02F0704218
:102DCC00013B42EA0E121A437B1E42EA03230CF12A
:102DDC00FF3C43EA0C33013D43EA0543013E43EA21
:102DEC000653013943EA016383600020F0BD846817
:102DFC00C2680EF1FF3E02F07042013B42EA0E1235
:102E0C001A4324F470047B1E42EA03220CF1FF3CAB
:102E1C0024F470446B1E44EA0C34013E42EA034332
:102E2C00013944EA065643EA01638660C360DCE775
:102E3C0073B500230193154691E80C001343CA683F
:102E4C0043EA42238A68013A43EA42130193019B05
:102E5C0003610446FEF71EFA0646A06910F0200036
:102E6C0003D06B1CF9D015B9032002B070BDFEF76E
:102E7C0011FA801B8542F0D2F6E7436943EA41011F
:102E8C00416100207047000070B53024A0B022468C
:102E9C00002108A800F0C2FC1422002103A800F0B5
:102EAC00BDFC0021224614A800F0B8FC0024224BE3
:102EBC0001941A6C42F080521A641B6C03F080531C
:102ECC000193019B1D4B02941A6842F440421A6014
:102EDC001B6803F440430293029B012308934FF4B5
:102EEC00803309934FF48003022508260F9308A81A
:102EFC004FF4B47311930E95109612951396FFF729
:102F0C003DF8FEF7FFFF0F2303934FF4A0530693F6
:102F1C0005214FF4805303A8079304950594FFF7FC
:102F2C00DDF94FF4D87314A8149618931A951D94C0
:102F3C00FFF77EFA20B070BD0038024000700040F0
:102F4C0080B5A2B0FEF780F9FFF79EFF1422002196
:102F5C0015A8002400F062FCA94B00941A6BA94838
:102F6C00A94D42F004021A631A6B02F0040200929B
:102F7C00009A01941A6B42F020021A631A6B02F049
:102F8C0020020192019A02941A6B42F080021A6399
:102F9C001A6B02F080020292029A03941A6B42F0AE
:102FAC0001021A631A6B02F001020392039A049451
:102FBC001A6B42F002021A631A6B02F002020492BC
:102FCC00049A05941A6B42F040021A631A6B02F0D1
:102FDC0040020592059A06941A6B42F010021A638D
:102FEC001A6B02F010020692069A07941A6B42F0C2
:102FFC0008021A631B6B03F0080322460793162181
:10300C00079BFEF763FD224680218048FEF75EFD9C
:10301C0022464FF440517E48FEF758FD22464FF4AD
:10302C00C0417C48FEF752FD0126162315A97548B0
:10303C001593169617941894FEF7C2FB48F20703E3
:10304C0015A9724815934FF0800816951794FEF742
:10305C00B7FB15A96D48CDF85480169617941894A3
:10306C00FEF7AEFB202315A9664815931695179409
:10307C004FF00409FEF7A4FB15A9674816941794A2
:10308C00CDF85490FEF79CFB4FF450430227159358
:10309C0015A90C2360481697179418941993FEF7EA
:1030AC008FFB4FF4005315A95B4815931694179496
:1030BC00FEF786FB4FF4006315A95548159316943B
:1030CC001794FEF77DFB4FF4405315A95048534D10
:1030DC001593169617941894FEF772FB4FF4C04391
:1030EC0015A94C481593169617941894FEF768FB7F
:1030FC004B4BAC62EF622C636C63284685E89800FE
:10310C00EC60FEF74BFA31462846FEF70FFB2146E2
:10311C001C2215A800F082FB4248434B434D8460AF
:10312C0080E848004022102315A903614261C0F8D1
:10313C001880C461046244628462159316931793D9
:10314C00189319931A931B93C0F80C90FFF788FAF5
:10315C00374A384BAC6085E80C0028464FF4804366
:10316C002B61EC606C61AC61EC612C62FEF7B4FC21
:10317C0021462846FEF754FD21462846FEF76FFDF2
:10318C002146342208A800F049FB2146342215A818
:10319C0000F044FB284D294BAC6085E81800072350
:1031AC006B610323AB610E23EB614FF4A7736B626E
:1031BC00F523AB624FF4AA730527EB622846F7237D
:1031CC002B63EC602C6185F8344085F8354085F82C
:1031DC0036402F624FF48068FEF7E6FD224608A9C0
:1031EC002846089409940A940B940C940D940E940C
:1031FC001194129413948DF850408DF851401FE0A7
:10320C00003802400008024000001210000002408A
:10321C00000C024000180240000402401C04002074
:10322C0000B002405C040020400100A0C802002055
:10323C00005C0040A086010074030020006801407F
:10324C008DF85240CDF83C801097FEF719FE3246AF
:10325C0015A92846159416941794189419941A9431
:10326C001B941E941F9420948DF884408DF88540F7
:10327C008DF88640CDF870801D97FEF701FE224830
:10328C00224984604FF4827380E80A004FF4007383
:10329C0083610A23C362C46004614461C461046233
:1032AC0044628462FFF7B8FAFDF70EFD20464FF03A
:1032BC005041FDF7EDFB4FF050413046FDF7E8FB78
:1032CC003046FDF725FCFDF753FC4FF0FF30FDF7C2
:1032DC0031FC0F4E0F4D104C3046FDF71FFC2946AC
:1032EC000120FDF721FE21460220FDF71DFE0B49B2
:1032FC000320FDF719FE0A490420FDF715FE0949C4
:10330C000520FDF711FEE7E71C03002000500140EB
:10331C00404040FF105300081C530008285300087D
:10332C00345300084053000807B50E4B00210091A0
:10333C005A6C42F480425A645A6C02F480420092F5
:10334C00009A01911A6C42F080521A641B6C03F0C3
:10335C00805301930720019BFDF7B6FF03B05DF886
:10336C0004FB00BF003802400268094B9A4282B04D
:10337C000BD100230193074B1A6B42F400021A6322
:10338C001B6B03F400030193019B02B0704700BF59
:10339C0000B00240003802402DE9F041044688B0EC
:1033AC001422002103A800F039FA2268204B9A421B
:1033BC003AD1204C204800250095236B43F00403A0
:1033CC002363236B03F004030093009B0195236B91
:1033DC0043F001032363236B03F001030193019B6F
:1033EC004FF012084FF400730127042603A903932E
:1033FC00CDF8108005970796FEF7E2F94FF480732D
:10340C0003A90E480393CDF81080059706950796EF
:10341C00FEF7D6F90295236C43F400032364236C66
:10342C0003F400030293029B08B0BDE8F08100BFD7
:10343C00005C0040003802400008024000000240DE
:10344C00F0B504468DB01422002107A800F0E6F96F
:10345C002268534B9A4240F0A080002403F550435D
:10346C0000945A6C4F4842F080625A645A6C02F0D5
:10347C0080620092009A01941A6B42F020021A6347
:10348C001A6B02F020020192019A02941A6B42F01C
:10349C0001021A631A6B02F001020292029A03945F
:1034AC001A6B42F002021A631A6B02F002020392C8
:1034BC00039A04941A6B42F040021A631A6B02F0DE
:1034CC0040020492049A05941A6B42F004021A63A7
:1034DC001A6B02F004020592059A06941A6B42F0DC
:1034EC0008021A631B6B03F00803069302250E26D1
:1034FC00069B08954FF4806307A907930B96FEF77C
:10350C005FF941F6580307A927480793092708953F
:10351C0009940A940B96FEF753F9032307A9234841
:10352C000793089509940A940B97FEF749F94FF401
:10353C00706307A91D480793089509940A940B9684
:10354C00FEF73EF94FF40C6307A919480793089549
:10355C0009940A940B96FEF733F94FF4986307A974
:10356C0014480793089509940A940B96FEF728F9CA
:10357C00482307A910480793089509940A940B96B9
:10358C00FEF71EF94FF4A05307A9094807930895B5
:10359C0009940A940B97FEF713F90DB0F0BD00BF18
:1035AC000068014000140240000002400004024088
:1035BC000018024000080240000C024010B50446FE
:1035CC0088B01422002103A800F028F92268134BBC
:1035DC009A4221D103F56843002101915A6C10489D
:1035EC0042F480125A645A6C02F480120192019ACD
:1035FC0002911A6B42F020021A631B6B03F020033A
:10360C000293029B4FF4607303930223049303A968
:10361C0005230793FEF7D4F808B010BD0050014005
:10362C00001402400268074B9A4209D1064A074827
:10363C00536C23F4801353644FF46071FEF7ACB9F0
:10364C00704700BF00500140003802400014024097
:10365C002DE9F04186B01422002101A800F0DEF81B
:10366C002B4B1C68002C50D14FF00108C3F8008084
:10367C00284B00949A6B284842EA08029A639B6B89
:10368C0003EA08030093022703260C25009B0297EC
:10369C004FF63F0301A9019304960595FEF790F8A8
:1036AC0001A91E48CDF80480029703940496059551
:1036BC00FEF786F848F2331301A9194801930297D3
:1036CC00039404960595FEF77BF84FF6837301A9D6
:1036DC00144801930297039404960595FEF770F82D
:1036EC004CF2037301A910480193029703940496BA
:1036FC000595FEF765F8602301A90C480193029724
:10370C00039404960595FEF75BF806B0BDE8F081CE
:10371C00140200200038024000140240000802404D
:10372C000018024000100240000C0240000402404D
:10373C00FDF7A4BD0F49D1F8883043F47003C1F8EC
:10374C0088300D4B1A68002042F001021A60986014
:10375C001A6822F0847222F480321A60074A5A6086
:10376C001A6822F480221A60D8604FF000638B60D4
:10377C00704700BF00ED00E000380240103000241C
:10378C00DFF834D0002103E00C4B5B58435004317C
:10379C000B480C4B42189A42F6D30B4A02E000231A
:1037AC0042F8043B094B9A42F9D3FFF7C3FF00F0F0
:1037BC0011F8FFF7C5FB7047000003207453000895
:1037CC000000002050000020500000209004002039
:1037DC00FEE7000070B50D4E0D4CA41BA410002587
:1037EC00A54209D10B4E0C4C00F020F8A41BA410E0
:1037FC000025A54205D170BD56F8253098470135F6
:10380C00EEE756F8253098470135F2E76C5300087F
:10381C006C5300086C5300087053000802440346B4
:10382C00934200D1704703F8011BF9E7F8B500BFCC
:10383C00F8BC08BC9E467047F8B500BFF8BC08BC85
:04384C009E467047DD
:103850000000000000000000000000000000000068
:103860000000000000000000000000000000000058
:103870000000000000000000000000000000000048
:103880000000000000000000000000000000000038
:1038900000000000000000000000000000000380A5
:1038A0000003800003800003800003800003800089
:1038B000038000038000038000010000010000007D
:1038C00000000000000380000380000000000000F2
:1038D00000000000000000000000000000000000E8
:1038E0000000000000000000000E70000E70000ECE
:1038F00070000420000420000420000420000000C8
:1039000000000000000000000000000000000000B7
:1039100000000000000000000000000000000000A7
:103920000000000000000000000000000000066031
:10393000000660000660000660000660003FF800B8
:103940003FF8000660000CC0003FF8003FF8000C94
:10395000C0000CC0000CC0000CC0000CC000000077
:103960000000000000000000000000000000000057
:1039700000000001800001800007B0000FF0001877
:1039800070001870001C00000F800007E00000F0BD
:10399000001830001C30001C70001FE0001BC0002D
:1039A0000180000180000180000180000000000013
:1039B0000000000000000000000000000000078080
:1039C000000FC0001CE0001860001860001CE00040
:1039D0000FF80007E0001FF0000738000618000687
:1039E000180007380003F00001E0000000000000AC
:1039F00000000000000000000000000000000000C7
:103A000000000000000000000000000003F00007BC
:103A1000F0000C60000C00000C0000060000070025
:103A2000000F9C001DFC0018F0001870000FFC0037
:103A300007DC0000000000000000000000000000A3
:103A40000000000000000000000000000000000076
:103A500000038000038000038000010000010000DB
:103A60000100000100000000000000000000000054
:103A70000000000000000000000000000000000046
:103A80000000000000000000000000000000000036
:103A90000000000000000018000038000070000066
:103AA000F00000E00000E00001C00001C00001C023
:103AB0000001C00001C00001C00000E00000E00003
:103AC00000700000700000380000180000000000C6
:103AD00000000000000000000000000000001800CE
:103AE000001C00000E00000E000007000007000090
:103AF0000380000380000380000380000380000334
:103B000080000700000700000F00000E00001C00EE
:103B1000001800000000000000000000000000008D
:103B20000000000000000180000180000180001DF5
:103B3000B8001FF80007E00003C00003C0000660E3
:103B4000000660000000000000000000000000000F
:103B50000000000000000000000000000000000065
:103B60000000000000000000000000000000000055
:103B70000000000001800001800001800001800041
:103B80000180003FFC003FFC00018000018000013B
:103B900080000180000180000000000000000000A3
:103BA0000000000000000000000000000000000015
:103BB0000000000000000000000000000000000005
:103BC00000000000000000000000000000000000F5
:103BD0000000000000000000000000E00000C00045
:103BE00001C000018000018000030000030000000C
:103BF00000000000000000000000000000000000C5
:103C000000000000000000000000000000000000B4
:103C10000000001FF8001FF8000000000000000076
:103C20000000000000000000000000000000000094
:103C30000000000000000000000000000000000084
:103C40000000000000000000000000000000000074
:103C50000000000000000000000000000000000064
:103C60000000000000000000000003C00003C000CE
:103C700003C0000000000000000000000000000081
:103C800000000000000000000018000018000038CC
:103C90000000300000700000600000600000C00004
:103CA00000C0000180000180000300000300000646
:103CB00000000600000E00000C00001C00001800B0
:103CC00000180000000000000000000000000000DC
:103CD00000000000000003C00007E0000C30000CF2
:103CE00030001818001818001818001818001818B4
:103CF000001818001818000C30000C300007E00005
:103D000003C00000000000000000000000000000F0
:103D10000000000000000000000000000000008023
:103D2000000780001F80001D8000018000018000CE
:103D300001800001800001800001800001800001FD
:103D400080000180001FF8001FF800000000000044
:103D50000000000000000000000000000000000063
:103D600000000000000007C0001FF00038300030E5
:103D7000180030180000180000300000600001C07A
:103D8000000380000600000C00001800003FF8004F
:103D90003FF80000000000000000000000000000EC
:103DA000000000000000000000000000000003C050
:103DB000000FE0000C7000003000003000006000D8
:103DC00003C00003E00000700000180000180000AD
:103DD00018001838001FF0000FC00000000000009D
:103DE00000000000000000000000000000000000D3
:103DF00000000000000000E00001E00001E000031E
:103E000060000660000660000C60000C6000186036
:103E1000003060003FF8003FF80000600003F80049
:103E200003F8000000000000000000000000000097
:103E300000000000000000000000000000001FF073
:103E4000001FF0001800001800001800001BC00040
:103E50001FF0001C300000180000180000180000BF
:103E600018003030003FF0000FC0000000000000DC
:103E70000000000000000000000000000000000042
:103E800000000000000000F80003F8000700000E2A
:103E900000000C00001800001BC0001FF0001C30C8
:103EA000001818001818001818000C38000FF0003F
:103EB00003E000000000000000000000000000001F
:103EC00000000000000000000000000000001FF8DB
:103ED000001FF800181800183800003000003000EB
:103EE00000700000600000600000E00000C0000002
:103EF000C00001C00001800001800000000000003F
:103F000000000000000000000000000000000000B1
:103F100000000000000007E0000FF0001C3800184F
:103F200018001818000C300007E00007E0000C3003
:103F3000001818001818001818001C38000FF0009E
:103F400007E000000000000000000000000000008A
:103F5000000000000000000000000000000007C09A
:103F6000000FF0001C300018180018180018180076
:103F70000C38000FF80003D80000180000300000D3
:103F8000700000E0001FC0001F00000000000000E3
:103F90000000000000000000000000000000000021
:103FA0000000000000000000000000000000000011
:103FB000000003C00003C00003C0000000000000B8
:103FC0000000000000000000000003C00003C0006B
:103FD00003C000000000000000000000000000001E
:103FE00000000000000000000000000000000000D1
:103FF0000000000000000000000000F00000F000E1
:1040000000F00000000000000000000000000000C0
:10401000E00001C0000180000180000300000200F8
:104020000000000000000000000000000000000090
:10403000000000000000000000000000001C000064
:104040003C0000F00003C0000F00003C0000F00046
:10405000003C00000F000003C00000F000003C0026
:10406000001C000000000000000000000000000034
:104070000000000000000000000000000000000040
:10408000000000000000000000000000007FFC00B5
:104090007FFC000000000000007FFC007FFC0000AF
:1040A0000000000000000000000000000000000010
:1040B0000000000000000000000000000000000000
:1040C0000000000000000000000000007000007808
:1040D00000001E000007800001E000007800001EC4
:1040E0000000780001E0000780001E00007800005A
:1040F0007000000000000000000000000000000050
:1041000000000000000000000000000000000000AF
:104110000007C0000FE000187000183000183000D1
:1041200000700000E00003C00003800003000000F6
:104130000000000000070000070000000000000071
:10414000000000000000000000000000000000006F
:1041500000000000000003E00007F0000E38000C33
:10416000180018780018F80019D800199800199844
:104170000019980018F8001878001800000C0000CA
:104180000E180007F80003E0000000000000000027
:10419000000000000000000000000000000000001F
:1041A000001F80001FC00001C0000360000360000A
:1041B0000630000630000C30000FF8001FF8001821
:1041C0000C00300C00FC7F00FC7F000000000000B1
:1041D00000000000000000000000000000000000DF
:1041E0000000000000000000007FE0007FF00018E9
:1041F00038001818001818001838001FF0001FF8B1
:1042000000181C00180C00180C00180C007FF80097
:104210007FF000000000000000000000000000002F
:10422000000000000000000000000000000000008E
:104230000003EC000FFC001C1C00180C00300C00EC
:104240003000003000003000003000003000001866
:104250000C001C1C000FF80003F000000000000020
:10426000000000000000000000000000000000004E
:104270000000000000000000007FC0007FF0001878
:104280003800181800180C00180C00180C00180C36
:1042900000180C00180C001818001838007FF000E7
:1042A0007FE00000000000000000000000000000AF
:1042B00000000000000000000000000000000000FE
:1042C000007FF8007FF800181800181800199800EF
:1042D0001980001F80001F800019800019980018A5
:1042E00018001818007FF8007FF800000000000098
:1042F00000000000000000000000000000000000BE
:104300000000000000000000003FFC003FFC000C2B
:104310000C000C0C000CCC000CC0000FC0000FC037
:10432000000CC0000CC0000C00000C00003FC000DE
:104330003FC000000000000000000000000000007E
:10434000000000000000000000000000000000006D
:104350000003EC000FFC001C1C00180C00300C00CB
:1043600030000030000030FE0030FE00300C00381D
:104370000C001C1C000FFC0003F0000000000000FB
:10438000000000000000000000000000000000002D
:104390000000000000000000007E7E007E7E00180D
:1043A00018001818001818001818001FF8001FF837
:1043B000001818001818001818001818007E7E0041
:1043C0007E7E0000000000000000000000000000F1
:1043D00000000000000000000000000000000000DD
:1043E000001FF8001FF8000180000180000180001C
:1043F0000180000180000180000180000180000137
:1044000080000180001FF8001FF80000000000007D
:10441000000000000000000000000000000000009C
:1044200000000000000000000007FE0007FE000082
:10443000300000300000300000300000300030302C
:10444000003030003030003030003060003FE0009D
:104450000F800000000000000000000000000000CD
:10446000000000000000000000000000000000004C
:10447000007F3E007F3E0018300018600018C0002A
:104480001980001B80001FC0001CE000187000187D
:1044900030001838007F1F007F1F00000000000060
:1044A000000000000000000000000000000000000C
:1044B0000000000000000000007F80007F80000CF2
:1044C00000000C00000C00000C00000C00000C00B0
:1044D000000C0C000C0C000C0C000C0C007FFC0001
:1044E0007FFC000000000000000000000000000051
:1044F00000000000000000000000000000000000BC
:1045000000F00F00F81F00381C003C3C003C3C0051
:10451000366C00366C0033CC0033CC00318C00306C
:104520000C00300C00FE7F00FE7F00000000000049
:10453000000000000000000000000000000000007B
:1045400000000000000000000078FE0078FE001C63
:1045500018001E18001F18001B18001B980019D8FF
:104560000018D80018F8001878001838007F1800D4
:104570007F180000000000000000000000000000A4
:10458000000000000000000000000000000000002B
:104590000003C0000FF0001C3800181800381C0081
:1045A000300C00300C00300C00300C00381C0018AF
:1045B00018001C38000FF00003C0000000000000CD
:1045C00000000000000000000000000000000000EB
:1045D0000000000000000000003FF0003FF8000C69
:1045E0001C000C0C000C0C000C0C000C18000FF83C
:1045F000000FE0000C00000C00000C00003FC000A9
:104600003FC00000000000000000000000000000AB
:10461000000000000000000000000000000000009A
:104620000003C0000FF0001C3800181800381C00F0
:10463000300C00300C00300C00300C00381C00181E
:1046400018001C38000FF00007C00007CC000FFC5A
:10465000000C380000000000000000000000000016
:104660000000000000000000007FE0007FF0001864
:1046700038001818001818001838001FF0001FC064
:104680000018E0001870001830001838007F1E0075
:104690007F0E00000000000000000000000000008D
:1046A000000000000000000000000000000000000A
:1046B0000007D8000FF8001C380018180018180060
:1046C0001E00000FC00003F000007800181800184A
:1046D00018001C38001FF0001BE000000000000064
:1046E00000000000000000000000000000000000CA
:1046F0000000000000000000003FFC003FFC003113
:104700008C00318C00318C00318C000180000180E4
:10471000000180000180000180000180000FF00096
:104720000FF000000000000000000000000000008A
:104730000000000000000000000000000000000079
:10474000007E7E007E7E00181800181800181800E1
:104750001818001818001818001818001818001851
:1047600018000C30000FF00003C000000000000033
:104770000000000000000000000000000000000039
:104780000000000000000000007F7F007F7F001815
:104790000C000C18000C18000C1800063000063035
:1047A0000003600003600003600001C00001C0005E
:1047B0000080000000000000000000000000000079
:1047C00000000000000000000000000000000000E9
:1047D00000FE3F80FE3F803006003006003086003D
:1047E00019CC0019CC001B6C001B6C001E7C000E49
:1047F00038000E38000C18000C18000000000000F3
:1048000000000000000000000000000000000000A8
:104810000000000000000000007E7E007E7E001888
:1048200018000C300006600003C000018000018009
:104830000003C0000660000C30001818007E7E00E7
:104840007E7E00000000000000000000000000006C
:104850000000000000000000000000000000000058
:10486000007C7E007C7E001818000C300006600082
:1048700006600003C000018000018000018000018B
:1048800080000180000FF0000FF000000000000029
:104890000000000000000000000000000000000018
:1048A0000000000000000000001FF8001FF80018C2
:1048B000180018300018600018C0000180000300C4
:1048C000000618000C18001818003018003FF800F7
:1048D0003FF80000000000000000000000000000A1
:1048E000000000000000000000000000000001F0D7
:1048F0000001F000018000018000018000018000C3
:104900000180000180000180000180000180000121
:10491000800001800001800001800001800001F022
:104920000001F00000000000000000000000000096
:104930001800001800001C00000C00000E0000060B
:104940000000060000030000030000018000018059
:104950000000C00000C000006000006000007000A7
:1049600000300000380000180000180000000000AF
:1049700000000000000000000000000000000F80A8
:10498000000F800001800001800001800001800094
:104990000180000180000180000180000180000191
:1049A00080000180000180000180000180000F80F4
:1049B000000F800000000000000000000000000068
:1049C00000000000800001C00003E0000770000646
:1049D00030000C1800180C0010040000000000004B
:1049E00000000000000000000000000000000000C7
:1049F00000000000000000000000000000000000B7
:104A000000000000000000000000000000000000A6
:104A10000000000000000000000000000000000096
:104A20000000000000000000000000000000000086
:104A30000000000000000000000000000000000076
:104A400000000000000000000000FFFF00FFFF006A
:104A500000000003000003800000E0000060000090
:104A60000000000000000000000000000000000046
:104A70000000000000000000000000000000000036
:104A80000000000000000000000000000000000026
:104A90000000000000000000000000000000000016
:104AA000000000000000000000000FC0001FE00038
:104AB00000300000300007F0001FF00038300030F8
:104AC00030003070001FFC000FBC00000000000030
:104AD00000000000000000000000000000000000D6
:104AE00000000000000078000078000018000018A6
:104AF00000001BE0001FF8001C1800180C00180C28
:104B000000180C00180C00180C001C18007FF8008E
:104B10007BE000000000000000000000000000003A
:104B20000000000000000000000000000000000085
:104B30000000000000000000000003EC000FFC007B
:104B40001C1C00380C00300C003000003000003815
:104B50000C001C1C000FF80003F000000000000017
:104B60000000000000000000000000000000000045
:104B7000000000000000007800007800001800002D
:104B8000180007D8001FF800183800301800301837
:104B9000003018003018003018001838001FFE00D0
:104BA00007DE000000000000000000000000000020
:104BB00000000000000000000000000000000000F5
:104BC0000000000000000000000007E0001FF800E7
:104BD000181800300C003FFC003FFC003000003093
:104BE0000000180C001FFC0007F00000000000008F
:104BF00000000000000000000000000000000000B5
:104C000000000000000001FC0003FC00060000069C
:104C100000003FF8003FF800060000060000060014
:104C2000000600000600000600000600003FF0003D
:104C30003FF0000000000000000000000000000045
:104C40000000000000000000000000000000000064
:104C50000000000000000000000007DE001FFE0052
:104C600018380030180030180030180030180030A4
:104C700018001838001FF80007D8000018000018A6
:104C8000000038000FF0000FC0000000000000001E
:104C900000000000000078000078000018000018F4
:104CA00000001BE0001FF0001C3800181800181846
:104CB000001818001818001818001818007E7E0038
:104CC0007E7E0000000000000000000000000000E8
:104CD0000000000000000000000000000000018053
:104CE000000180000000000000001F80001F800005
:104CF000018000018000018000018000018000012E
:104D000080000180003FFC003FFC0000000000002C
:104D10000000000000000000000000000000000093
:104D200000000000000000C00000C0000000000003
:104D300000001FF0001FF0000030000030000030C5
:104D40000000300000300000300000300000300073
:104D50000030000030000030000070001FE0001F35
:104D600080000000000000000000000000003C0087
:104D7000003C00000C00000C00000CF8000CF800D7
:104D80000CC0000D80000F80000F00000F80000D90
:104D9000C0000CE0003C7C003C7C000000000000F7
:104DA0000000000000000000000000000000000003
:104DB0000000000000001F80001F80000180000133
:104DC00080000180000180000180000180000180DE
:104DD000000180000180000180000180003FFC0094
:104DE0003FFC000000000000000000000000000088
:104DF00000000000000000000000000000000000B3
:104E000000000000000000000000F77800FFFC0038
:104E100039CC00318C00318C00318C00318C003168
:104E20008C00318C00FDEF00FDEF00000000000061
:104E30000000000000000000000000000000000072
:104E40000000000000000000000000000000000062
:104E500000007BE0007FF0001C38001818001818D4
:104E6000001818001818001818001818007E7E0086
:104E70007E7E000000000000000000000000000036
:104E80000000000000000000000000000000000022
:104E90000000000000000000000003C0000FF00050
:104EA0001C3800381C00300C00300C00300C00386E
:104EB0001C001C38000FF00003C0000000000000C0
:104EC00000000000000000000000000000000000E2
:104ED00000000000000000000000000000000000D2
:104EE00000007BE0007FF8001C1800180C00180C74
:104EF00000180C00180C00180C001C18001FF800FB
:104F00001BE0001800001800001800007F00007F60
:104F10000000000000000000000000000000000091
:104F20000000000000000000000007DE001FFE007F
:104F300018380030180030180030180030180030D1
:104F400018001838001FF80007D8000018000018D3
:104F50000000180000FE0000FE000000000000003D
:104F60000000000000000000000000000000000041
:104F700000003E78003EFC0007CC00070000060061
:104F8000000600000600000600000600003FF000DA
:104F90003FF00000000000000000000000000000E2
:104FA0000000000000000000000000000000000001
:104FB0000000000000000000000007F8000FF800EB
:104FC0001818001818001F80000FF00000F80018D3
:104FD00018001838001FF0001FE00000000000005B
:104FE00000000000000000000000000000000000C1
:104FF0000000000000000C00000C00000C00000C81
:1050000000003FF0003FF0000C00000C00000C001E
:10501000000C00000C00000C00000C1C0007FC0041
:1050200003F000000000000000000000000000008D
:105030000000000000000000000000000000000070
:105040000000000000000000000078780078780080
:105050001818001818001818001818001818001848
:1050600018001838000FFE0007DE000000000000E6
:105070000000000000000000000000000000000030
:105080000000000000000000000000000000000020
:1050900000007C3E007C3E001818001818000C3000
:1050A000000C300006600006600007E00003C0004E
:1050B00003C000000000000000000000000000002D
:1050C00000000000000000000000000000000000E0
:1050D00000000000000000000000783C00783C0068
:1050E0003118003398003398001AB0001EF0001EEB
:1050F000F0001C60000C60000C600000000000006C
:10510000000000000000000000000000000000009F
:10511000000000000000000000000000000000008F
:1051200000003E7C003E7C000C300006600003C0A6
:105130000001800003C0000660000C30003E7C00CF
:105140003E7C0000000000000000000000000000A5
:10515000000000000000000000000000000000004F
:10516000000000000000000000007E1F007E1F0005
:10517000180C000C18000C18000630000630000354
:10518000600003E00001C00000C000018000018059
:10519000000300003FC0003FC0000000000000000E
:1051A00000000000000000000000000000000000FF
:1051B00000001FF8001FF80018300018600000C041
:1051C000000180000300000618000C18001FF80002
:1051D0001FF80000000000000000000000000000B8
:1051E000000000000000000000000000000000E0DF
:1051F0000001E000018000018000018000018000CA
:10520000018000018000038000070000038000018E
:10521000800001800001800001800001800001E029
:105220000000E0000000000000000000000000009E
:1052300000000000000001800001800001800001EA
:105240008000018000018000018000018000018059
:1052500000018000018000018000018000018000C9
:10526000018000018000018000018000000000003A
:105270000000000000000000000000000000070027
:105280000007800001800001800001800001800093
:1052900001800001800001C00000E00001C00001A9
:1052A00080000180000180000180000180000780F3
:1052B00000070000000000000000000000000000E7
:1052C00000000000000000000000000000000000DE
:1052D00000000000000000000E00001F18003BB896
:1052E0000031F00000E000000000000000000000BD
:1052F00000000000000000000000000000000000AE
:105300000000000000000000000610160006101645
:1053100054455354204C494E452031005445535474
:10532000204C494E4520320054455354204C494EA0
:105330004520330054455354204C494E45203400F9
:1053400054455354204C494E452035000000000080
:105350000000000001020304060708090000000025
:04536000010203043F
:08536400B8AEFF7F010000005C
:04536C00D101000863
:04537000AD01000883
:1053740013050008A5070008070500080D05000827
:105384000000000000000000000000000000000019
:105394000000000000000000FD04000801050008F2
:1053A4000000000000000000001000005038000859
:1053B4001100180001010000100000000024F40096
:040000050800378D2B
:00000001FF
