:020000040800F2
:1000000000000120E1360008B9330008C5330008BC
:10001000CB330008D1330008D733000800000000BC
:10002000000000000000000000000000DD330008B8
:10003000E933000800000000F5330008013400082F
:100040002937000829370008293700082937000810
:100050002937000829370008293700082937000800
:1000600029370008293700082937000829370008F0
:1000700029370008293700082937000829370008E0
:1000800029370008293700082937000829370008D0
:1000900029370008293700082937000829370008C0
:1000A00029370008293700082937000829370008B0
:1000B00029370008293700082937000829370008A0
:1000C0002937000829370008293700082937000890
:1000D0002937000829370008293700082937000880
:1000E0002937000829370008293700082937000870
:1000F0002937000829370008293700082937000860
:10010000293700082937000829370008293700084F
:10011000293700082937000829370008293700083F
:10012000293700082937000829370008293700082F
:1001300000000000000000000000000000000000BF
:1001400000000000000000000000000000000000AF
:10015000000000000000000000000000000000009F
:10016000000000000000000000000000000000008F
:10017000000000000000000000000000000000007F
:10018000000000000000000000000000000000006F
:10019000000000000000000000000000000000005F
:1001A000000000000000000000000000000000004F
:1001B000000000000000000000000000000000003F
:1001C000000000000000000000000000000000002F
:1001D000000000000000000000000000000000001F
:0401E0005FF8E0F1F3
:1001E40010B5054C237833B9044B13B10448AFF36D
:1001F40000800123237010BDB40000200000000023
:100204006046000808B5034B1BB103490348AFF32C
:10021400008008BD00000000B8000020604600080F
:1002240080B500AF084A084B1B6843F01003136005
:10023400032000F027F9002000F008F802F0F4FF92
:100244000023184680BD00BF0020024080B582B064
:1002540000AF7860124B1A68124B1B7819464FF4A2
:100264007A73B3FBF1F3B2FBF3F3184600F031F900
:100274000346002B01D001230EE07B680F2B0AD824
:10028400002279684FF0FF3000F007F9064A7B68D6
:100294001360002300E0012318460837BD4680BDE3
:1002A4004C000020040000200000002080B400AFB7
:1002B400054B1B781A46054B1B681344034A13600D
:1002C40000BFBD4680BC704704000020040100202C
:1002D40080B400AF024B1B681846BD4680BC704713
:1002E4000401002080B584B000AF7860FFF7F0FF10
:1002F400B8607B68FB60FB68B3F1FF3F05D0094B36
:100304001B781A46FB681344FB6000BFFFF7E0FF4D
:100314000246BB68D21AFB689A42F7D300BF103773
:10032400BD4680BD0400002080B485B000AF786075
:100334007B6803F00703FB600C4BDB68BB60BA68A7
:100344004FF6FF031340BB60FB681A02BB681343FC
:1003540043F0BF6343F40033BB60044ABB68D3601B
:1003640000BF1437BD4680BC704700BF00ED00E0FD
:1003740080B400AF044BDB681B0A03F00703184684
:10038400BD4680BC704700BF00ED00E080B483B080
:1003940000AF03463960FB7197F90730002B0BDA85
:1003A4000D49FB7903F00F03043B3A68D2B2120102
:1003B400D2B20B441A7609E0084997F907303A6833
:1003C400D2B21201D2B20B4483F8002300BF0C371F
:1003D400BD4680BC704700BF00ED00E000E100E0D6
:1003E40080B489B000AFF860B9607A60FB6803F04C
:1003F4000703FB61FB69C3F10703042B28BF042334
:10040400BB61FB690433062B02D9FB69033B00E0A3
:1004140000237B610122BB6902FA03F35A1EBB6805
:100424001A407B699A4001217B6901FA03F3591E42
:100434007B680B40134318462437BD4680BC704785
:1004440080B582B000AF78607B68013BB3F1807FF8
:1004540001D301230FE00A4A7B68013B53600F215B
:100464004FF0FF30FFF792FF054B00229A60044BD8
:1004740007221A60002318460837BD4680BD00BF16
:1004840010E000E080B582B000AF78607868FFF7D4
:100494004BFF00BF0837BD4680BD80B586B000AFB6
:1004A4000346B9607A60FB7300237B61FFF760FF4A
:1004B40078617A68B9687869FFF792FF024697F91C
:1004C4000F3011461846FFF761FF00BF1837BD46CD
:1004D40080BD80B582B000AF78607868FFF7B0FF68
:1004E400034618460837BD4680BD000080B48BB073
:1004F40000AF786039600023FB610023BB610023F7
:100504007B6100233B6200233B6100237B6233E178
:1005140001227B6A02FA03F3FB613B681A68FB69F8
:100524001340BB61BA69FB699A4240F022813B687F
:100534005B68122B34D0122B0DD8022B2BD0022B3C
:1005440004D8002B31D0012B1CD048E0032B43D01E
:10055400112B1BD043E08D4A934226D08B4A934201
:1005640006D88B4A934220D08A4A93421DD036E063
:10057400894A934219D0894A934216D0884A9342B1
:1005840013D02CE03B68DB683B6228E03B68DB6807
:1005940004333B6223E03B68DB6808333B621EE0C4
:1005A4003B68DB680C333B6219E03B689B68002BBB
:1005B40002D104233B6212E03B689B68012B05D106
:1005C40008233B627B68FA691A6108E008233B62EE
:1005D4007B68FA695A6102E000233B6200BFBB6991
:1005E400FF2B01D87B6801E07B680433FB60BB69A7
:1005F400FF2B02D87B6A9B0002E07B6A083B9B00CE
:100604003B61FB681A680F213B6901FA03F3DB4382
:100614001A40396A3B6901FA03F31A43FB681A600A
:100624003B685B6803F08053002B00F0A2805D4AB6
:100634005C4B9B6943F0010393615A4B9B6903F044
:100644000103BB60BB68584A7B6A9B08023352F8BB
:1006540023307B617B6A03F003039B000F2202FAC1
:1006640003F3DB437A6913407B617B684F4A93420F
:100674001FD07B684E4A934219D07B684D4A9342FF
:1006840013D07B684C4A93420DD07B684B4A93420B
:1006940007D07B684A4A934201D105230AE0062326
:1006A40008E0042306E0032304E0022302E001231C
:1006B40000E000237A6A02F00302920093407A6910
:1006C40013437B6138497B6A9B0802337A6941F89A
:1006D40023203B685B6803F48033002B06D0394940
:1006E400384B1A68BB6913430B6006E03549354B38
:1006F4001A68BB69DB4313400B603B685B6803F417
:100704000033002B06D02F492E4B5A68BB69134384
:100714004B6006E02B492B4B5A68BB69DB43134003
:100724004B603B685B6803F48013002B06D02549BB
:10073400244B9A68BB6913438B6006E02149214B23
:100744009A68BB69DB4313408B603B685B6803F4C6
:100754000013002B06D01B491A4BDA68BB691343FC
:10076400CB6006E01749174BDA68BB69DB431340DB
:10077400CB607B6A01337B627B6A0F2B7FF6C8AE4A
:1007840000BF2C37BD4680BC704700BF000021105D
:10079400000011100000121000003110000032108F
:1007A4000000221000100240000001400008014037
:1007B400000C0140001001400014014000180140E9
:1007C400001C01400004014080B483B000AF786095
:1007D4000B467B8013467B707B78002B03D07A8892
:1007E4007B681A6103E07B881A047B681A6100BF86
:1007F4000C37BD4680BC704780B483B000AF7860CE
:100804000B467B807B68DA687B885A407B68DA60B9
:1008140000BF0C37BD4680BC7047000080B586B071
:1008240000AF786000233B617B681B6803F0010321
:10083400002B00F08780924B5B6803F00C03042BC1
:100844000CD08F4B5B6803F00C03082B12D18C4B3C
:100854005B6803F48033B3F5803F0BD1884B1B688E
:1008640003F40033002B6CD07B685B68002B68D1E9
:1008740001232DE27B685B68B3F5803F06D1804A93
:100884007F4B1B6843F4803313602EE07B685B6806
:10089400002B0CD17A4A7A4B1B6823F48033136003
:1008A400774A774B1B6823F4802313601DE07B6831
:1008B4005B68B3F5A02F0CD1714A714B1B6843F4EC
:1008C400802313606E4A6E4B1B6843F480331360BD
:1008D4000BE06B4A6A4B1B6823F480331360684A4D
:1008E400674B1B6823F4802313607B685B68002BD1
:1008F40013D0FFF7EDFC386108E0FFF7E9FC02468E
:100904003B69D31A642B01D90323E1E15C4B1B68D7
:1009140003F40033002BF0D014E0FFF7D9FC386166
:1009240008E0FFF7D5FC02463B69D31A642B01D9D2
:100934000323CDE1524B1B6803F40033002BF0D1A9
:1009440000E000BF7B681B6803F00203002B63D048
:100954004B4B5B6803F00C03002B0BD0484B5B68DC
:1009640003F00C03082B1CD1454B5B6803F4803364
:10097400002B16D1424B1B6803F00203002B05D059
:100984007B681B69012B01D00123A1E13C493C4B4D
:100994001B6823F0F8027B685B69DB0013430B6080
:1009A4003AE07B681B69002B20D0364B01221A6089
:1009B400FFF78EFC386108E0FFF78AFC02463B69CA
:1009C400D31A022B01D9032382E12D4B1B6803F0B8
:1009D4000203002BF0D02A49294B1B6823F0F802AC
:1009E4007B685B69DB0013430B6015E0254B002239
:1009F4001A60FFF76DFC386108E0FFF769FC0246F6
:100A04003B69D31A022B01D9032361E11C4B1B68F8
:100A140003F00203002BF0D17B681B6803F008038A
:100A2400002B39D07B689B69002B19D0164B01220F
:100A34001A60FFF74DFC386108E0FFF749FC0246F5
:100A44003B69D31A022B01D9032341E10C4B5B6AA6
:100A540003F00203002BF0D0012000F0E3FA1BE0C6
:100A6400094B00221A60FFF733FC38610EE0FFF7F0
:100A74002FFC02463B69D31A022B07D9032327E133
:100A8400001002400000424280044242924B5B6AE2
:100A940003F00203002BEAD17B681B6803F0040314
:100AA400002B00F0A6800023FB758B4BDB6903F061
:100AB4008053002B0DD1884A874BDB6943F0805368
:100AC400D361854BDB6903F08053FB60FB68012332
:100AD400FB75824B1B6803F48073002B18D17F4A8B
:100AE4007E4B1B6843F480731360FFF7F1FB38619E
:100AF40008E0FFF7EDFB02463B69D31A642B01D9EA
:100B04000323E5E0754B1B6803F48073002BF0D0DE
:100B14007B68DB68012B06D16F4A6F4B1B6A43F07D
:100B2400010313622DE07B68DB68002B0CD16A4A59
:100B3400694B1B6A23F001031362674A664B1B6A05
:100B440023F0040313621CE07B68DB68052B0CD1E3
:100B5400614A614B1B6A43F0040313625E4A5E4BB5
:100B64001B6A43F0010313620BE05B4A5A4B1B6A96
:100B740023F001031362584A574B1B6A23F0040302
:100B840013627B68DB68002B15D0FFF7A1FB38618B
:100B94000AE0FFF79DFB02463B69D31A41F2883213
:100BA400934201D9032393E04B4B1B6A03F00203E6
:100BB400002BEED014E0FFF78BFB38610AE0FFF75F
:100BC40087FB02463B69D31A41F28832934201D92A
:100BD40003237DE0404B1B6A03F00203002BEED19C
:100BE400FB7D012B05D13C4A3B4BDB6923F0805351
:100BF400D3617B68DB69002B69D0374B5B6803F0FA
:100C04000C03082B61D07B68DB69022B46D1344B83
:100C140000221A60FFF75CFB386108E0FFF758FB1D
:100C240002463B69D31A022B01D9032350E02A4B15
:100C34001B6803F00073002BF0D17B681B6AB3F5CB
:100C4400803F08D12449244B5B6823F400327B683D
:100C54009B6813434B6020481F4B5B6823F474125A
:100C64007B68196A7B685B6A0B43134343601C4BC4
:100C740001221A60FFF72CFB386108E0FFF728FB1C
:100C840002463B69D31A022B01D9032320E0124BFD
:100C94001B6803F00073002BF0D018E0104B002207
:100CA4001A60FFF715FB386108E0FFF711FB0246F5
:100CB4003B69D31A022B01D9032309E0064B1B68B5
:100CC40003F00073002BF0D101E0012300E00023C6
:100CD40018461837BD4680BD001002400070004021
:100CE4006000424280B584B000AF78603960002370
:100CF400FB607E4B1B6803F007023B689A4210D2EC
:100D04007A497A4B1B6823F007023B6813430B6054
:100D1400764B1B6803F007023B689A4201D001231B
:100D2400E0E07B681B6803F00203002B20D07B68A3
:100D34001B6803F00403002B05D06D4A6C4B5B6801
:100D440043F4E06353607B681B6803F00803002BE3
:100D540005D0674A664B5B6843F46053536064494B
:100D6400634B5B6823F0F0027B689B6813434B6022
:100D74007B681B6803F00103002B6AD07B685B6807
:100D8400012B07D15A4B1B6803F40033002B15D1F8
:100D94000123A7E07B685B68022B07D1544B1B68D7
:100DA40003F00073002B09D101239BE0504B1B6817
:100DB40003F00203002B01D1012393E04C494C4B77
:100DC4005B6823F003027B685B6813434B60FFF7A7
:100DD4007FFAF8607B685B68012B12D10AE0FFF7A9
:100DE40077FA0246FB68D31A41F28832934201D95A
:100DF400032377E03E4B5B6803F00C03042BEED136
:100E040027E07B685B68022B1DD10AE0FFF760FADC
:100E14000246FB68D31A41F28832934201D9032374
:100E240060E0334B5B6803F00C03082BEED110E059
:100E3400FFF74EFA0246FB68D31A41F28832934216
:100E440001D903234EE02A4B5B6803F00C03002B0B
:100E5400EED1264B1B6803F007023B689A4210D977
:100E64002249224B1B6823F007023B6813430B60A3
:100E74001E4B1B6803F007023B689A4201D0012312
:100E840030E07B681B6803F00403002B08D018498A
:100E9400174B5B6823F4E0627B68DB6813434B60A9
:100EA4007B681B6803F00803002B09D01049104B22
:100EB4005B6823F460527B681B69DB0013434B605F
:100EC40000F01CF801460A4B5B681B0903F00F0392
:100ED400084AD35C21FA03F3074A13600020FFF7A2
:100EE400B5F9002318461037BD4680BD00200240E6
:100EF40000100240084700084C00002090B48AB05B
:100F040000AF2A4B3C1D0FCB84E80F00284B1B88F5
:100F14003B800023FB610023BB6100237B62002331
:100F24007B6100233B62234B5B68FB61FB6903F03D
:100F34000C03042B02D0082B03D02DE01E4B3B6284
:100F44002DE0FB699B0C03F00F0307F12802134407
:100F540013F8243C7B61FB6903F48033002B13D02A
:100F6400144B5B685B0C03F0010307F12802134484
:100F740013F8283CBB617B690F4A02FB03F2BB698F
:100F8400B2FBF3F37B6204E07B690C4A02FB03F3DC
:100F94007B627B6A3B6202E0074B3B6200BF3B6AB9
:100FA40018462837BD4690BC704700BF78460008F5
:100FB400884600080010024000127A0000093D0033
:100FC40080B400AF024B1B681846BD4680BC704716
:100FD4004C00002080B500AFFFF7F2FF0146054B3F
:100FE4005B681B0A03F00703034AD35C21FA03F38B
:100FF400184680BD001002401847000880B500AFB5
:10100400FFF7DEFF0146054B5B68DB0A03F00703CD
:10101400034AD35C21FA03F3184680BD0010024052
:101024001847000880B485B000AF78600A4B1B688D
:101034000A4AA2FB03235B0A7A6802FB03F3FB6000
:1010440000BFFB685A1EFA60002BF9D100BF1437A9
:10105400BD4680BC704700BF4C000020D34D6210D9
:1010640080B58AB002AFF860B9603B601346FB807C
:101074000023BB610023FB77FB6893F85030012BFE
:1010840001D1022323E1FB68012283F85020FFF7FA
:101094001FF9B861FB6893F85130DBB2012B02D021
:1010A4000223FB770AE1BB68002B02D0FB88002BEC
:1010B40002D10123FB7701E1FB68032283F851206D
:1010C400FB6800225A65FB68BA681A63FB68FA88F1
:1010D4009A86FB68FA88DA86FB6800229A63FB68C2
:1010E40000229A87FB680022DA87FB6800225A6490
:1010F400FB6800221A64FB689B68B3F5004F07D1B4
:10110400FB681B68FA681268126842F480421A602D
:10111400FB681B681B6803F04003402B07D0FB6887
:101124001B68FA681268126842F040021A60FB6891
:10113400DB68B3F5006F47D1FB685B68002B04D014
:10114400FB68DB8E9BB2012B38D1FB681B68BA6845
:101154001288DA60BB680233BB60FB68DB8E9BB22B
:10116400013B9AB2FB68DA8628E0FB681B689B683F
:1011740003F00203022B0FD1FB681B68BA681288C4
:10118400DA60BB680233BB60FB68DB8E9BB2013B59
:101194009AB2FB68DA8611E03B68002B0BD03B68FF
:1011A400B3F1FF3F0AD0FFF793F80246BB69D21AA6
:1011B4003B689A4202D30323FB777FE0FB68DB8E14
:1011C4009BB2002BD1D148E0FB685B68002B04D0B4
:1011D400FB68DB8E9BB2012B3AD1FB681B680C3396
:1011E400BA6812781A70BB680133BB60FB68DB8E87
:1011F4009BB2013B9AB2FB68DA8629E0FB681B6864
:101204009B6803F00203022B10D1FB681B680C33AC
:10121400BA6812781A70BB680133BB60FB68DB8E56
:101224009BB2013B9AB2FB68DA8611E03B68002B63
:101234000BD03B68B3F1FF3F0AD0FFF749F80246F1
:10124400BB69D21A3B689A4202D30323FB7735E089
:10125400FB68DB8E9BB2002BD0D1BB6900933B684B
:1012640001220221F86800F0E2F90346002B02D0C3
:101274000323FB7722E0BA693968F86800F040FA82
:101284000346002B05D00123FB77FB6820225A6517
:1012940014E0FB689B68002B0AD100237B61FB6888
:1012A4001B68DB687B61FB681B689B687B617B69EF
:1012B400FB685B6D002B01D00123FB77FB680122E7
:1012C40083F85120FB68002283F85020FB7F1846E6
:1012D4002037BD4680BD80B58CB002AFF860B960E0
:1012E4007A607B800023FB610023BB6100237B6168
:1012F40001237B62002387F82330FB6893F8503086
:10130400012B01D1022381E1FB68012283F85020E3
:10131400FEF7DEFF7861FB6893F85130DBB2FB61C6
:10132400FB685B68BB61FB69012B0ED0BB69B3F53D
:10133400827F06D1FB689B68002B02D1FB69042BDA
:1013440003D0022387F8233056E1BB68002B05D075
:101354007B68002B02D07B88002B03D1012387F804
:10136400233049E1FB6893F85130DBB2012B03D100
:10137400FB68052283F85120FB6800225A65FB684C
:101384007A689A63FB687A88DA87FB687A889A872E
:10139400FB68BA681A63FB687A88DA86FB687A881D
:1013A4009A86FB6800221A64FB6800225A64FB6870
:1013B4001B681B6803F04003402B07D0FB681B68C5
:1013C400FA681268126842F040021A60FB68DB682F
:1013D400B3F5006F71D1FB685B68002B04D0FB6828
:1013E400DB8E9BB2012B5DD1FB681B68BA68128847
:1013F400DA60BB680233BB60FB68DB8E9BB2013BE7
:101404009AB2FB68DA864DE07B6A002B1CD0FB683D
:10141400DB8E9BB2002B17D0FB681B689B6803F024
:101424000203022B10D1FB681B68BA681288DA60C9
:10143400BB680233BB60FB68DB8E9BB2013B9AB294
:10144400FB68DA8600237B62FB68DB8F9BB2002B90
:1014540018D0FB681B689B6803F00103012B11D1B2
:10146400FB681B68DB689AB27B681A807B6802336E
:101474007B60FB68DB8F9BB2013B9AB2FB68DA8727
:1014840001237B623B6BB3F1FF3F0BD0FEF720FFE0
:1014940002467B69D21A3B6B9A4203D3032387F833
:1014A4002330A9E0FB68DB8E9BB2002BACD1FB6838
:1014B400DB8F9BB2002BA7D171E0FB685B68002B2C
:1014C40004D0FB68DB8E9BB2012B5ED1FB681B68EA
:1014D4000C33BA6812781A70BB680133BB60FB68BE
:1014E400DB8E9BB2013B9AB2FB68DA864DE07B6AE5
:1014F400002B1DD0FB68DB8E9BB2002B18D0FB6841
:101504001B689B6803F00203022B11D1FB681B6864
:1015140003F10C02BB68591CB9601B781370FB689B
:10152400DB8E9BB2013B9AB2FB68DA8600237B62B6
:10153400FB68DB8F9BB2002B17D0FB681B689B6892
:1015440003F00103012B10D17B685A1C7A60FA68FE
:101554001268D268D2B21A70FB68DB8F9BB2013B6F
:101564009AB2FB68DA8701237B623B6BB3F1FF3FDE
:101574000BD0FEF7ADFE02467B69D21A3B6B9A4252
:1015840003D3032387F8233036E0FB68DB8E9BB25A
:10159400002BACD1FB68DB8F9BB2002BA7D17B69FE
:1015A40000933B6B01220221F86800F040F80346E7
:1015B400002B03D0032387F823301DE07A69396BAD
:1015C400F86800F09DF80346002B06D0012387F845
:1015D4002330FB6820225A650EE0FB689B68002BD1
:1015E4000AD100233B61FB681B68DB683B61FB6835
:1015F4001B689B683B613B69FB68012283F85120AF
:10160400FB68002283F8502097F8233018462837C7
:10161400BD4680BD80B483B000AF78607B6893F82A
:101624005130DBB218460C37BD4680BC704780B5DC
:1016340084B000AFF860B9607A603B604DE03B680D
:10164400B3F1FF3F49D03B68002B07D0FEF740FEC3
:101654000246BB69D21A3B689A423ED3FB681B68B8
:10166400FA681268526822F0E0025A60FB685B680C
:10167400B3F5827F11D1FB689B68B3F5004F04D0AA
:10168400FB689B68B3F5806F07D1FB681B68FA6839
:101694001268126822F040021A60FB689B6AB3F574
:1016A400005F10D1FB681A68FB681B6819684DF667
:1016B400FF730B401360FB681B68FA6812681268BA
:1016C40042F400521A60FB68012283F85120FB683F
:1016D400002283F8502003230EE0FB681B689A68FD
:1016E400BB681A40BB689A4201D1012200E0002283
:1016F4007B689A42A3D1002318461037BD4680BDAB
:1017040080B586B002AFF860B9607A607B680093F8
:10171400BB6800228021F868FFF789FF0346002B8D
:1017240007D0FB685B6D43F02002FB685A65032316
:1017340000E0002318461037BD4680BD80B582B056
:1017440000AF78607B68002B01D1012356E07B68F1
:1017540000229A627B6893F85130DBB2002B02D1ED
:10176400786801F093FD7B68022283F851207B683E
:101774001B687A681268126822F040021A607B685B
:101784001B687A6851687A68926811437A68D268EB
:1017940011437A68126911437A68526911437A686D
:1017A400926902F4007211437A68D26911437A682B
:1017B400126A11437A68926A0A431A607B681B684A
:1017C4007A689269120C02F004017A68526A0A4338
:1017D4005A607B681B687A68D26A1A617B681B68E6
:1017E4007A681268D26922F40062DA617B680022A6
:1017F4005A657B68012283F8512000231846083774
:10180400BD4680BD80B582B000AF78607B68002B98
:1018140001D101233FE07B6893F83930DBB2002B20
:1018240006D17B68002283F83820786801F078FDBF
:101834007B68242283F839207B681B687A681268E5
:10184400D26822F40052DA60786800F00BF97B6801
:101854001B687A681268126922F490421A617B68E4
:101864001B687A681268526922F02A025A617B68FE
:101874001B687A681268D26842F40052DA607B68A6
:101884000022DA637B68202283F839207B682022D7
:1018940083F83A20002318460837BD4680BD80B53A
:1018A40088B002AFF860B9603B601346FB80002348
:1018B4007B61FB6893F83930DBB2202B40F08280E7
:1018C400BB68002B02D0FB88002B01D101237AE0F6
:1018D400FB6893F83830012B01D1022373E0FB68D5
:1018E400012283F83820FB680022DA63FB68212296
:1018F40083F83920FEF7ECFC7861FB68FA889A8457
:10190400FB68FA88DA8441E0FB68DB8C9BB2013B1C
:101914009AB2FB68DA84FB689B68B3F5805F21D1D7
:101924003B6800937B6900228021F86800F04FF83F
:101934000346002B01D0032345E0BB683B61FB68F1
:101944001B683A691288C2F308025A60FB681B6973
:10195400002B03D1BB680233BB6017E0BB680133C3
:10196400BB6013E03B6800937B6900228021F86828
:1019740000F02DF80346002B01D0032323E0FB687D
:101984001A68BB68591CB9601B785360FB68DB8C10
:101994009BB2002BB8D13B6800937B6900224021A5
:1019A400F86800F014F80346002B01D003230AE082
:1019B400FB68202283F83920FB68002283F8382052
:1019C400002300E0022318461837BD4680BD80B5C9
:1019D40084B000AFF860B9603B601346FB712CE043
:1019E400BB69B3F1FF3F28D0BB69002B07D0FEF7DA
:1019F4006FFC02463B68D21ABB699A421DD9FB6848
:101A04001B68FA681268D26822F4D072DA60FB6844
:101A14001B68FA681268526922F001025A61FB6875
:101A2400202283F83920FB68202283F83A20FB68BF
:101A3400002283F8382003230FE0FB681B681A6830
:101A4400BB681A40BB689A420CBF01230023DBB277
:101A54001A46FB799A42C3D0002318461037BD4674
:101A640080BD0000F0B585B000AF78600023FB6056
:101A74007B681B687A681268126922F440517A689C
:101A8400D2680A431A617B689A687B681B691A43A7
:101A94007B685B691343FA681343FB607B681A68CD
:101AA4007B681B68DB6823F4B05323F00C03F968EC
:101AB4000B43D3607B681B687A681268526922F40E
:101AC40040717A6892690A435A617B681B686F4A5D
:101AD40093426BD17B681C68FFF790FA0246134669
:101AE4009B0013449A001A447B685B689B00B2FB1A
:101AF400F3F3674AA2FB03235B091D01FFF77EFA98
:101B0400024613469B0013449A001A447B685B68A0
:101B14009B00B2FBF3F6FFF771FA024613469B00F3
:101B240013449A001A447B685B689B00B2FBF3F38E
:101B3400574AA2FB03235B09642202FB03F3F31A53
:101B44001B013233524AA2FB03235B0903F0F00367
:101B54001D44FFF753FA024613469B0013449A00B0
:101B64001A447B685B689B00B2FBF3F6FFF746FA06
:101B7400024613469B0013449A001A447B685B6830
:101B84009B00B2FBF3F3424AA2FB03235B096422EA
:101B940002FB03F3F31A1B0132333D4AA2FB032376
:101BA4005B0903F00F032B44A3606AE07B681C68A5
:101BB400FFF710FA024613469B0013449A001A4496
:101BC4007B685B689B00B2FBF3F3314AA2FB0323FF
:101BD4005B091D01FFF7FEF9024613469B001344FF
:101BE4009A001A447B685B689B00B2FBF3F6FFF72C
:101BF400F1F9024613469B0013449A001A447B6889
:101C04005B689B00B2FBF3F3214AA2FB03235B094D
:101C1400642202FB03F3F31A1B0132331C4AA2FBB6
:101C240003235B0903F0F0031D44FFF7D3F90246D5
:101C340013469B0013449A001A447B685B689B001C
:101C4400B2FBF3F6FFF7C6F9024613469B001344B2
:101C54009A001A447B685B689B00B2FBF3F30C4A5E
:101C6400A2FB03235B09642202FB03F3F31A1B01A7
:101C74003233074AA2FB03235B0903F00F032B440F
:101C8400A36000BF1437BD46F0BD00BF003801405B
:101C94001F85EB5180B584B000AF7860224BDB68C0
:101CA4009847214B5B6998471F4B5B6A002B03D015
:101CB4001D4B9B6A002B14D11B4B1B6A7A68120CB8
:101CC400D2B210469847184B1B6A7A68120AD2B2ED
:101CD40010469847144B1B6A7A68D2B2104698474C
:101CE40011E07B681B0CDBB23B737B681B0ADBB225
:101CF4007B737B68DBB2BB730B4B9B6A07F10C02F3
:101D0400032110469847084BDB6998470346FB7349
:101D1400054B9B699847044B1B699847FB7B184606
:101D24001037BD4680BD00BF0800002080B584B0D8
:101D340000AF78600B46FB70224BDB689847214B61
:101D44005B6998477B6843F004037B601D4B9B6A87
:101D5400002B19D11B4B1B6A7A68120CD2B21046A5
:101D64009847184B1B6A7A68120AD2B210469847F1
:101D7400144B1B6A7A68D2B210469847114B1B6AFF
:101D8400FA781046984713E07B681B0CDBB23B7370
:101D94007B681B0ADBB27B737B68DBB2BB73FB78AB
:101DA400FB73084B9B6A07F10C0204211046984709
:101DB400044B9B699847034B1B69984700BF103736
:101DC400BD4680BD0800002090B587B000AFF86024
:101DD400B9601346FB802B4BDB689847294B5B6942
:101DE4009847284B5B6A002B03D0264B9B6A002B39
:101DF40026D1244B1B6AFA68120CD2B210469847BB
:101E0400204B1B6AFA68120AD2B2104698471D4B3F
:101E14001B6AFA68D2B2104698470023FB820AE094
:101E2400FB8ABA68D418174BDB69984703462370BA
:101E3400FB8A0133FB82FA8AFB889A42F0D317E0CB
:101E4400FB681B0CDBB23B74FB681B0ADBB27B74C4
:101E5400FB68DBB2BB740B4B9B6A07F110020321D6
:101E640010469847074B5B6AFA881146B86898474A
:101E7400044B9B699847034B1B69984700BF1C3769
:101E8400BD4690BD0800002080B586B000AFF86064
:101E9400B9601346FB802B4BDB689847294B5B6981
:101EA4009847FB6843F00403FB60264B9B6A002BB6
:101EB40026D1244B1B6AFA68120CD2B210469847FA
:101EC400204B1B6AFA68120AD2B2104698471D4B7F
:101ED4001B6AFA68D2B2104698470023FB820AE0D4
:101EE400184B1B6AFA8AB9680A4412781046984754
:101EF400FB8A0133FB82FA8AFB889A42F0D317E00B
:101F0400FB681B0CDBB23B74FB681B0ADBB27B7403
:101F1400FB68DBB2BB740B4B9B6A07F11002032115
:101F240010469847074B9B6AFA881146B868984749
:101F3400044B9B699847034B1B69984700BF1837AC
:101F4400BD4680BD0800002090B585B000AF0346B3
:101F5400FB710023FB810023BB81FB799B000133D0
:101F6400DB0003F500531846FFF794FE0346BB81DC
:101F7400BB891B029CB2FB799B000133DB0003F598
:101F840004531846FFF786FE03469BB22344BB81E5
:101F9400BB89002B1AD0FB799B000133DB0003F5CE
:101FA40000531846FFF776FE0346FB81FB891B02AC
:101FB4009CB2FB799B000133DB0003F50453184604
:101FC400FFF768FE03469BB22344FB81FA89BB8971
:101FD4009A42C2D1FB8918461437BD4690BD90B5CC
:101FE40085B000AF03463960FB711346BB80002304
:101FF400FB810023BB60BB88002B48D0FB799B008E
:102004000133DB0003F510531846FFF743FE034684
:102014009BB21B029CB2FB799B000133DB0003F5EE
:1020240014531846FFF736FE03469BB22344FB8144
:10203400FB891B02FA7992000232D2001344BB607E
:10204400BB881A463968B868FFF71EFFFA89BB884F
:102054001344FB81FB799B000133DB0003F5105330
:102064001A46FB891B0A9BB2DBB219461046FFF7DE
:102074005DFEFB799B000133DB0003F514531A4624
:10208400FB89DBB219461046FFF750FE00E000BFA3
:102094001437BD4690BD000090B585B000AF04462E
:1020A400084611461A462346FB710346BB710B468C
:1020B400BB801346FB70FB79082B02D94FF0FF332A
:1020C400EFE0BB79012B04D0012B10DB042B0EDCD9
:1020D40010E007F10C03042219464FF47060FFF777
:1020E40073FEFB68002B05D16FF00203D9E06FF09B
:1020F4000403D6E000BFFB7803F00403002B02D0F6
:102104006FF00503CDE0FB78002B28D0BB79012BC1
:1021140002D0022B08D022E0FB7803F02103002B2D
:102124001AD16FF00503BCE0FB7803F02003002B09
:1021340006D097F90330002B02DB6FF00503B0E003
:10214400FB7803F01003002B08D097F90330002B21
:1021540004DB6FF00503A4E000BF00E000BFFB79DF
:10216400184600F0ADF8FB799B000133DB001846FC
:1021740097F9033023F00F035AB297F9063013434B
:102184005BB2DBB21946FFF7D1FDBB88002B10D13F
:10219400464B1B885A1C91B2444A1180BB80434B66
:1021A4001B884FF6F072934203D1404B4FF44042E8
:1021B4001A80FB799B000133DB0003F580631A4628
:1021C400BB881B0A9BB2DBB219461046FFF7AEFD73
:1021D400FB799B000133DB0003F5A0631A46BB883F
:1021E400DBB219461046FFF7A1FDFB799B000133D2
:1021F400DB0003F5807301211846FFF797FD00BF4C
:10220400FB799B000133DB0003F580731846FFF76D
:1022140041FD0346002BF3D1FB79012202FA03F3BB
:102224001BB2DB431AB2224B1B881BB213401BB2F6
:102234009AB21F4B1A80FB7803F00102FB7902FA71
:1022440003F31AB21A4B1B881BB213431BB29AB284
:10225400174B1A80FB79012202FA03F31BB2DB430A
:102264001AB2144B1B881BB213401BB29AB2114B07
:102274001A80FB79104A002122F81310FB790F4AC7
:102284000021D15400BFFB799B000133DB0003F52F
:1022940040731846FFF7FEFC0346002BF3D097F972
:1022A400073018461437BD4690BD00BF0600002015
:1022B400D0000020D2000020D4000020E400002040
:1022C40080B582B000AF0346FB71FB79082B02D9BD
:1022D4004FF0FF3355E0FB799B000133DB0003F53E
:1022E400807310211846FFF721FD00BFFB799B0086
:1022F4000133DB0003F580731846FFF7CBFC03467C
:10230400002BF3D1FB799B000133DB0003F5007351
:102314001F211846FFF70AFDFB79012202FA03F395
:102324001BB2DB431AB2194B1B881BB213401BB2FE
:102334009AB2164B1A80FB79012202FA03F31BB2FC
:10234400DB431AB2124B1B881BB213401BB29AB266
:102354000F4B1A80FB790F4A002122F81310FB79E6
:102364000D4A0021D15400BFFB799B000133DB00EF
:1023740003F540731846FFF78DFC0346002BF3D199
:10238400012318460837BD4680BD00BFD000002099
:10239400D2000020D4000020E400002080B582B0E8
:1023A40000AF0346FB71FB79082B02D94FF0FF33D2
:1023B40049E0FB799B000133DB001846FFF76AFC18
:1023C400034603F00F03012B02D06FF004033AE03D
:1023D400FB799B000133DB0003F540731846FFF7DC
:1023E40059FC0346132B02D06FF002032BE0FB7958
:1023F4009B000133DB0003F5807302211846FFF7CD
:1024040095FC00BFFB799B000133DB0003F580736F
:102414001846FFF73FFC0346002BF3D106E0FB7997
:102424001846FFF74DFF6FF003030CE0FB799B00A8
:102434000133DB0003F540731846FFF72BFC03461A
:10244400142BECD1012318460837BD4680BD00008B
:1024540080B584B000AF03463960FB711346BB807E
:102464000023FB730023BB81FB79082B02D94FF0B7
:10247400FF33DEE0FB799B000133DB001846FFF7F6
:1024840009FC034603F00F03012B02D06FF0040391
:10249400CFE0BB88002B02D16FF00D03C9E0FB79BC
:1024A4009B000133DB0003F540731846FFF7F2FB92
:1024B4000346FB73FB7B172B05D0FB7B1C2B02D045
:1024C4006FF00603B5E05D4B1B881A46FB7942FAB0
:1024D40003F303F00103002B39D0FB799B00013394
:1024E400DB0003F500731846FFF7D4FB034603F043
:1024F4001F03FB73FB7B03F01003002B19D0FB7944
:102504009B000133DB0003F5007310211846FFF72D
:102514000DFCFB79012202FA03F31BB2DB431AB26E
:10252400464B1B881BB213401BB29AB2434B1A8012
:102534000DE0FB7B03F00803002B06D0FB79184663
:10254400FFF7BEFE6FF00C0373E0002371E0FB792C
:102554009B000133DB0003F5F8531846FFF79AFBA1
:1025640003469BB29B02BB81BA88BB899A4201D9BC
:10257400BB89BB80FB791846FFF7E6FC0346BB81A9
:10258400FB799B000133DB0003F540731846FFF72A
:1025940081FB0346FB73FB7B172B09D0FB7B1C2BB6
:1025A40006D0FB791846FFF78BFE6FF0060340E078
:1025B400234B1B881A46FB7942FA03F303F0010309
:1025C400002B05D0BA88BB899A4201D9002330E098
:1025D400BA88BB899A4200D9CCE700BFBA88FB7994
:1025E40039681846FFF7FBFCFB799B000133DB00DD
:1025F40003F5807320211846FFF798FB00BFFB7991
:102604009B000133DB0003F580731846FFF742FBA0
:102614000346002BF3D1FB79012202FA03F31AB229
:10262400064B1B881BB213431BB29AB2034B1A808E
:10263400BB8818461037BD4680BD00BFD2000020BD
:10264400D000002080B400AF00BFBD4680BC7047FE
:1026540080B400AF00BFBD4680BC704780B400AFFB
:1026640000BFBD4680BC704780B400AF00BFBD460C
:1026740080BC704780B483B000AF78607B681B78FF
:10268400DBB218460C37BD4680BC704780B483B0BB
:1026940000AF78600B46FB707B68FA781A7000BF55
:1026A4000C37BD4680BC704780B400AF0023184689
:1026B400BD4680BC704780B483B000AF0346FB7155
:1026C40000BF0C37BD4680BC7047000080B483B0A7
:1026D40000AF786039607B68002B02D03B68002B28
:1026E40006D1094B094A5A61074B094A9A6105E028
:1026F400054A7B685361044A3B68936100BF0C3709
:10270400BD4680BC704700BF080000206126000859
:102714006D26000880B483B000AF7860396000BFD4
:102724000E4B1B8803F40073002BF9D07B68002B3D
:1027340002D03B68002B06D1084B094ADA61074BEB
:10274400084A1A6205E0054A7B68D361034A3B687C
:10275400136200BF0C37BD4680BC704708000020E0
:10276400AD260008BB26000890B587B000AF03462D
:102774003960FB710023FB750023FB6000233B6180
:10278400FB790F2B00F2C28001A252F823F000BFA4
:10279400D5270008DB27000807280008FB270008C6
:1027A40015280008212800082F28000855280008AB
:1027B4007B280008B5280008BB280008C3280008A7
:1027C40017290008CB280008D9280008F528000894
:1027D40000F0A8F89EE03B68002B04D03B68FB6047
:1027E400FB6808333B61FB683A691146184600F000
:1027F400E5F803468FE03B681B88184600F06AF949
:1028040088E000F085F903461A463B681A8081E0A7
:102814003B681B88184600F0A0F97BE000F0B8F98B
:1028240003461A463B681A8074E03B681B881B0AFF
:102834009BB2DBB219464FF49850FFF777FA3B6826
:102844001B88DBB219464FF4A050FFF76FFA61E022
:102854004FF49850FFF71EFA03469BB21B029CB23A
:102864004FF4A050FFF716FA03469BB223449AB2E2
:102874003B681A804EE02A4B9A783B681A703B6892
:102884000133274AD2781A703B680233244A1279FA
:102894001A703B680333224A52791A703B68043336
:1028A4001F4A92791A703B68053300221A7031E08E
:1028B40000F0C0F92EE0386800F0E3F92AE0386847
:1028C40000F021FA26E03B681B78184600F067FA0E
:1028D400034620E000F095F90346FB75FB7DFF2BD2
:1028E40002D14FF0FF3316E03B68FA7D1A7011E015
:1028F40000F071F90346FB75FB7DFF2B02D14FF00D
:10290400FF3308E03B68FA7D1A7003E04FF0FF33B1
:1029140001E000BF002318461C37BD4690BD00BF30
:102924000800002080B586B000AF3B1D0622194682
:102934004FF41060FFF748FA07F114030422194614
:102944004FF48070FFF740FA07F110030422194690
:102954004FF4A060FFF738FA07F10C03042219467C
:102964004FF47060FFF730FA80210020FFF7DEF9A2
:102974000020FFF78FF93B1D062219464FF4106023
:10298400FFF782FA07F11403042219464FF480700A
:10299400FFF77AFA07F11003042219464FF4A060F6
:1029A400FFF772FA07F10C03042219464FF4706022
:1029B400FFF76AFA00BF1837BD4680BD80B584B002
:1029C40000AF786039600023BB73FFF7ABFF7B680F
:1029D400002B3BD00023BB730023FB7315E097F956
:1029E4000F307A6813441A78BB7B1344DBB2BB7391
:1029F40097F90E30102B02DD4FF0FF3366E097F9A4
:102A04000F30DBB20133DBB2FB7397F90F30072BC6
:102A1400E5DD0023FB7315E097F90F309B000133CC
:102A2400DB0003F5F853184697F90F307A6813441E
:102A34001B781946FFF77AF997F90F30DBB20133A7
:102A4400DBB2FB7397F90F30072BE5DD3B68002BF6
:102A54003BD00023BB730023FB7315E097F90F30C1
:102A64003A6813441A78BB7B1344DBB2BB7397F9FF
:102A74000E30102B02DD4FF0FF3327E097F90F30B3
:102A8400DBB20133DBB2FB7397F90F30072BE5DDC3
:102A94000023FB7315E097F90F309B000133DB0033
:102AA40003F5F053184697F90F303A6813441B782E
:102AB4001946FFF73BF997F90F30DBB20133DBB26C
:102AC400FB7397F90F30072BE5DD00231846103709
:102AD400BD4680BD80B584B000AF0346FB80FB8853
:102AE400FB73FB881B0A9BB2BB73FB7B23F00F03B6
:102AF400DBB219464FF4A850FFF718F9BB7B19460F
:102B04004FF4B850FFF712F900BF1037BD4680BD2F
:102B140080B582B000AF0023FB710023BB7100239A
:102B2400BB804FF4A850FFF7B5F8034623F00F031A
:102B3400FB714FF4B850FFF7ADF80346BB71BB7996
:102B4400BB80BB881B029AB2FB799BB21344BB8047
:102B5400BB8818460837BD4680BD80B584B000AF39
:102B64000346FB80FB88FB73FB881B0A9BB2BB7389
:102B7400FB7B19464FF4B050FFF7D8F8BB7B1946DE
:102B84004FF4C050FFF7D2F800BF1037BD4680BDE8
:102B940080B582B000AF0023FB710023BB7100231A
:102BA400BB804FF4B050FFF775F80346FB714FF448
:102BB400C050FFF76FF80346BB71BB79BB80BB887D
:102BC4001B029AB2FB799BB21344BB80BB881846A4
:102BD4000837BD4680BD80B582B000AF0023FB71CD
:102BE4004FF43850FFF756F8034603F00103002B67
:102BF40001D00123FB7197F9073018460837BD4609
:102C040080BD80B582B000AF0023FB714FF4385013
:102C1400FFF740F8034603F03803302B02D10123B9
:102C2400FB7101E00023FB7197F907301846083760
:102C3400BD4680BD80B582B000AF4FF43850FFF779
:102C440029F80346FB71FB7903F07F03FB71FB79E1
:102C540019464FF43850FFF769F84FF43850FFF72E
:102C640019F80346FB71FB7963F07F03FB71FB7971
:102C740019464FF43850FFF759F800BF0837BD46DE
:102C840080BD80B584B000AF78600023FB737B689F
:102C94001B78012B04D1FB7B43F04003FB7303E05F
:102CA400FB7B23F04003FB737B685B78012B04D12F
:102CB400FB7B43F03803FB7319E07B68DB78012B63
:102CC4000DD17B689B78012B04D1FB7B43F0180367
:102CD400FB730CE0FB7B43F00803FB7307E07B68AA
:102CE4009B78012B03D1FB7B43F01003FB73FB7B2D
:102CF40019464FF43850FFF719F8FFF79BFF00BF50
:102D04001037BD4680BD80B584B000AF7860002325
:102D1400FB734FF43850FEF7BDFF0346FB73FB7B98
:102D240003F04003002B14BF01230023DBB21A4637
:102D34007B681A70FB7B03F03803202B01D0382BFF
:102D440003D17B6801225A7003E07B6800225A7029
:102D540000BFFB7B03F03803182B03D0202B01D0DA
:102D6400102B03D17B6801229A7003E07B68002258
:102D74009A7000BFFB7B03F03803182B03D0202B81
:102D840001D0082B03D17B680122DA7003E07B6851
:102D94000022DA7000BF00BF1037BD4680BD80B589
:102DA40084B000AF0346FB710023FB734FF438502B
:102DB400FEF770FF0346FB73FB7B03F04003002B1D
:102DC40002D14FF0FF3330E0FB7B23F03803FB7379
:102DD400FB79012B04D1FB7B43F03003FB7303E04D
:102DE400FB7B43F03803FB73FB7B19464FF43850ED
:102DF400FEF79CFFFFF71EFF4FF43850FEF74AFF23
:102E04000346FB73FB79012B06D1FB7B03F03003F4
:102E1400002B08D0002308E0FB7B03F03803002BD1
:102E240001D0002301E04FF0FF3318461037BD46B0
:102E340080BD000080B582B000AF78607B68062258
:102E440019464FF41060FFF71FF87B680E33042215
:102E540019464FF48070FFF717F87B680A33042291
:102E640019464FF4A060FFF70FF87B68063304227D
:102E740019464FF47060FFF707F87B689A7C0B4B98
:102E84001A707B68DA7C094B5A707B681A7D074B91
:102E94009A707B685A7D054BDA707B689A7D044B87
:102EA4001A7000BF0837BD4680BD00BFEC0000208B
:102EB400F000002080B584B000AFF860B9607A609B
:102EC4007B689AB20A23B9680348FEF7E8FC7B687A
:102ED40018461037BD4680BD60010020B0B58AB0E9
:102EE40000AF102387F82730102387F826302B4BA8
:102EF40007F108041D460FCD0FC495E80F0007C461
:102F04002370274B1B687B60002387F82530FDF76F
:102F140087F900F04DF800F0EDF800F08BF800F0C0
:102F2400BFF800F077FB00F08FFB202341F28832DA
:102F340001210020FFF7B0F80020FFF72FFA082145
:102F44001848FDF759FC4FF4FA70FDF7CBF94FF42C
:102F54004270FEF79FFE034687F827304FF44A700D
:102F6400FEF798FE034687F8263097F82730172B8C
:102F74000AD10D4800F028FD07F108031D22194667
:102F84000020FFF765FADAE797F8273097F826204C
:102F94001946064800F0A4FCD1E700BFD446000857
:102FA400F4460008001401408C460008A0460008BE
:102FB40080B590B000AF07F118032822002118460D
:102FC40000F0DCFB3B1D00221A605A609A60DA6054
:102FD4001A610223BB610123BB621023FB6202233B
:102FE4007B630023BB634FF42013FB6307F11803D7
:102FF4001846FDF713FC0346002B01D000F00EF930
:103004000F237B600223BB600023FB604FF48063CB
:103014003B6100237B613B1D01211846FDF762FEE5
:103024000346002B01D000F0F9F800BF4037BD463D
:1030340080BD000080B500AF174B184A1A60164BCC
:103044004FF482725A60144B00229A60124B002291
:10305400DA60114B02221A610F4B01225A610E4BA6
:103064004FF400729A610C4B0822DA610A4B002279
:103074001A62094B00225A62074B00229A62064BDD
:103084000A22DA620448FEF759FB0346002B01D0FA
:1030940000F0C4F800BF80BD0801002000300140EA
:1030A40080B500AF114B124A1A60104B4FF4E13255
:1030B4005A600E4B00229A600C4B0022DA600B4BD4
:1030C40000221A61094B0C225A61084B00229A61B2
:1030D400064B0022DA610548FEF794FB0346002BF9
:1030E40001D000F09BF800BF80BD00BF600100204C
:1030F4000044004080B588B000AF07F110030022FF
:103104001A605A609A60DA603F4A3F4B9B6943F009
:10311400400393613C4B9B6903F04003FB60FB68F5
:10312400394A394B9B6943F004039361364B9B69DD
:1031340003F00403BB60BB68334A334B9B6943F021
:1031440010039361304B9B6903F010037B607B6831
:103154002D4A2D4B9B6943F0200393612A4B9B69B5
:1031640003F020033B603B68002204212748FDF75D
:103174002BFB002210212648FDF726FB00221021FC
:103184002448FDF721FB002208212348FDF71CFBFE
:1031940004233B6101237B610023BB610223FB61A8
:1031A40007F1100319461948FDF7A0F910233B61F4
:1031B40001237B610023BB610223FB6107F1100340
:1031C40019461348FDF792F910233B6101237B61F3
:1031D4000023BB610223FB6107F1100319460D486C
:1031E400FDF784F908233B6101237B610023BB6164
:1031F4000223FB6107F1100319460748FDF776F92E
:1032040000BF2037BD4680BD0010024000180140B9
:1032140000080140001001400014014080B400AFD8
:1032240000BFBD4680BC704780B485B000AF154A6E
:10323400144B9B6943F001039361124B9B6903F0A8
:103244000103BB60BB680F4A0E4BDB6943F080533C
:10325400D3610C4BDB6903F080537B607B680A4BC2
:103264005B68FB60FB6823F0E063FB60FB6843F092
:103274000073FB60044AFB68536000BF1437BD460B
:1032840080BC7047001002400000014080B588B047
:1032940000AF786007F1100300221A605A609A6048
:1032A400DA607B681B681B4A93422FD11A4A1A4B77
:1032B4009B6943F480539361174B9B6903F48053D8
:1032C400FB60FB68144A144B9B6943F0040393614D
:1032D400114B9B6903F00403BB60BB68A0233B61F3
:1032E40002237B610323FB6107F1100319460B489A
:1032F400FDF7FCF840233B6100237B610023BB61A5
:1033040007F1100319460548FDF7F0F800BF203710
:10331400BD4680BD0030014000100240000801405D
:1033240080B588B000AF786007F1100300221A60FE
:103334005A609A60DA607B681B681B4A93422FD1FB
:103344001A4A1A4BDB6943F40033D361174BDB6928
:1033540003F40033FB60FB68144A144B9B6943F08D
:1033640004039361114B9B6903F00403BB60BB68C6
:1033740004233B6102237B610323FB6107F11003F8
:1033840019460B48FDF7B2F808233B6100237B6123
:103394000023BB6107F1100319460548FDF7A6F8A1
:1033A40000BF2037BD4680BD0044004000100240ED
:1033B4000008014080B400AF00BFBD4680BC704728
:1033C40080B400AFFEE780B400AFFEE780B400AF86
:1033D400FEE780B400AFFEE780B400AF00BFBD4697
:1033E40080BC704780B400AF00BFBD4680BC70474E
:1033F40080B400AF00BFBD4680BC704780B500AF4D
:10340400FCF754FF00BF80BD90B587B000AFF860F3
:10341400B9607A6000237B610AE0BC68631CBB600E
:10342400AFF300800346DBB223707B6901337B6119
:103434007A697B689A42F0DB7B6818461C37BD4684
:1034440090BD000080B584B000AF7860114B1B685C
:10345400002B02D10F4B104A1A600E4B1B68FB6005
:103464000C4B1A687B6813446A46934207D900F0F0
:103474005BF902460C2313604FF0FF3306E0054B63
:103484001A687B681344034A1360FB6818461037B4
:10349400BD4680BDF4000020A401002080B483B0A8
:1034A40000AF78604FF0FF3318460C37BD4680BC40
:1034B400704780B483B000AF786039603B684FF4E4
:1034C40000525A60002318460C37BD4680BC704732
:1034D40080B483B000AF7860012318460C37BD4632
:1034E40080BC704780B485B000AFF860B9607A6082
:1034F400002318461437BD4680BC704780B400AF23
:10350400154A154B1B6843F0010313601249124B13
:103514005A68124B13404B600F4A0F4B1B6823F041
:10352400847323F4803313600B4A0B4B1B6823F41E
:1035340080231360084A084B5B6823F4FE0353603E
:10354400054B4FF41F029A60054B4FF000629A60DE
:1035540000BFBD4680BC7047001002400000FFF869
:1035640000ED00E080B584B002AFFF23FB7100BF23
:103574000948FEF74FF80346012BF9D1BA1DF91D8E
:103584000A23009301230448FDF7A5FEBB791846DE
:103594000837BD4680BD00BF0801002080B582B059
:1035A40000AF0346FB7100BF0748FEF733F803463C
:1035B400012BF9D1F91D0A2301220348FDF750FD1F
:1035C40000BF0837BD4680BD0801002080B400AFAD
:1035D400034B10225A6100BFBD4680BC704700BF38
:1035E4000008014080B400AF034B10221A6100BFF1
:1035F400BD4680BC704700BF0008014080B500AFE5
:103604004FF43850FEF746FB034603F00103184617
:1036140080BD000080B582B000AF0A4B10225A6111
:10362400FCF756FE786000BFFCF752FE02467B684A
:103634009A42F9D0034B10221A6100BF0837BD46E5
:1036440080BD00BF0010014090B587B000AF1C4B97
:103654003C1D0FCB84E80F001A491B48FFF75AF8AA
:103664001A491B48FFF732F83B1D19460120FFF7A2
:103674007BF80346B3F1FF3F01D1FF231BE015485C
:10368400FFF7D8FBFCF724FE7861134B1B6801336A
:10369400114A1360FCF71CFE02467B69D31A40F6FC
:1036A400B832934201D9FF2305E0FFF7A7FF034691
:1036B400002BEAD0012318461C37BD4690BD00BF3D
:1036C400F8460008A135000869350008E935000806
:1036D400D135000834000020F8000020002103E068
:1036E4000B4B5B58435004310A480B4B42189A4227
:1036F400F6D30A4A02E0002342F8043B084B9A42FC
:10370400F9D3FFF7FBFE00F015F8FFF7E7FB70476E
:10371400C047000800000020B4000020B4000020CE
:10372400A4010020FEE70000014B1868704700BFA9
:103734005000002070B500250C4E0D4CA41BA410A5
:10374400A54209D100F08AFF00250A4E0A4CA41BA9
:10375400A410A54205D170BD56F82530984701350F
:10376400EEE756F8253098470135F2E7B8470008E8
:10377400B8470008B8470008BC470008034602449D
:10378400934200D1704703F8011BF9E738B50546A9
:10379400002943D051F8043C0C1F002BB8BFE41897
:1037A40000F042FC1E4A1368104633B9636014608B
:1037B4002846BDE8384000F038BCA3420BD9216844
:1037C4006218934201BF1A685B68521822606360F2
:1037D4000460EDE713465A680AB1A242FAD919689F
:1037E4005818A0420BD1206801445818824219602D
:1037F400DED110685268014419605A60D8E702D9D2
:103804000C232B60D4E7206821188A4201BF116879
:1038140052680918216062605C60C9E738BD00BF66
:10382400FC00002070B5CD1C25F0030508350C2DD7
:1038340038BF0C25002D064601DBA94203D90C2311
:103844003360002070BD00F0EFFB234A146821466A
:1038540091B9224C23681BB9304600F0BDF82060B2
:103864002946304600F0B8F8431C26D10C233046D4
:10387400336000F0DAFBE4E70B685B1B1AD40B2B14
:103884000FD90B60CC18CD50304600F0CEFB04F1BC
:103894000B00231D20F00700C31A1BD05A42E2502C
:1038A40070BD8C420BBF63684B681360636018BFC4
:1038B4000C46E9E70C464968CAE7C41C24F0030433
:1038C400A04205D0211A304600F086F80130CDD050
:1038D4002560D9E770BD00BFFC0000200001002076
:1038E4000FB40A4B13B51C6824B1A36913B920465D
:1038F40000F09AFA05AB049AA1682046019300F0FF
:10390400BDFB02B0BDE8104004B070475000002079
:1039140070B50E46054618B183690BB900F084FAF8
:10392400AB69AC6813B9284600F07EFA234B9C427D
:1039340017D16C68A3891B071DD52369DBB1013E30
:10394400A36816F8011F013BA360E9B9002B2EDA26
:1039540022460A21284600F093F8013011D00A20AB
:1039640070BD174B9C4201D1AC68E3E7154B9C42F8
:1039740008BFEC68DEE72146284600F0E5F8002899
:10398400DDD04FF0FF3070BD002B04DAA269934202
:1039940006DB0A2904D023685A1C22601970CFE779
:1039A4002246284600F06CF80130C9D1E9E70A2024
:1039B40023685A1C2260187070BD00BF4447000879
:1039C4006447000824470008024B01461868FFF7C3
:1039D4009FBF00BF5000002038B50023054C0546AA
:1039E40008462360FFF72EFD431C02D1236803B170
:1039F4002B6038BDA001002010B50C46B1F90E10A3
:103A040000F0EAFD0028ABBF636DA3891B1823F403
:103A14008053ACBF6365A38110BD2DE9F0411F46FF
:103A24008B890546DB050C46164605D50223002284
:103A3400B1F90E1000F082FAA389324623F48053C0
:103A4400A381B4F90E103B462846BDE8F04100F0CE
:103A540069B810B50C46B1F90E1000F06FFA431CAA
:103A6400A38915BF606523F4805343F48053A38175
:103A740018BFA38110BDB1F90E1000F0D3B8000037
:103A8400F8B50E461446054618B183690BB900F023
:103A9400CBF9214B9C422AD16C68A369A360A3890A
:103AA4001A072ED5236963B323692068F6B2C01AB6
:103AB40063693746984204DB2146284600F04AF9F8
:103AC40028BBA3680130013BA36023685A1C226011
:103AD4001E706369984204D0A389DB0719D50A2EA6
:103AE40017D12146284600F035F990B10FE00B4B71
:103AF4009C4201D1AC68D0E7094B9C4208BFEC68FA
:103B0400CBE72146284600F01FF80028CCD04FF020
:103B1400FF373846F8BD00BF444700086447000833
:103B24002447000838B50546084611460022054CCE
:103B340022601A46FFF7BEF9431C02D1236803B181
:103B44002B6038BDA0010020324B70B51D680646BD
:103B54000C4625B1AB6913B9284600F065F92E4B24
:103B64009C420FD16C68B4F90C309AB215072CD46E
:103B7400D00611D40922326043F04003A3814FF0F0
:103B8400FF3070BD254B9C4201D1AC68EBE7244B60
:103B94009C4208BFEC68E6E7510712D5616B41B15E
:103BA40004F14403994202D03046FFF7EFFD0023AD
:103BB4006363A38923F02403A3810023636023693F
:103BC4002360A38943F00803A38123694BB9A38924
:103BD40003F42073B3F5007F03D02146304600F090
:103BE400E3F9A28912F001030CD00023A3606369F6
:103BF4005B42A361236953B9B4F90C3013F080001C
:103C0400BAD170BD920758BF6369A360F2E7002080
:103C1400F7E700BF5000002044470008644700084D
:103C24002447000838B50023054C054608462360A0
:103C3400FFF734FC431C02D1236803B12B6038BD69
:103C4400A00100208A892DE9F041054610070C46A1
:103C54005AD44B68002B05DC0B6C002B02DC0020D3
:103C6400BDE8F081E66A002EF9D0002312F48052F8
:103C74002F682B6033D0606DA3895A0705D563681C
:103C8400C01A636B0BB1236CC01A00230246E66AA8
:103C9400216A2846B047431CA38906D129681D29F7
:103CA4004BD82B4ACA40D60747D500226260226906
:103CB400D904226004D5421C01D12B6803B9606584
:103CC400616B2F600029CAD004F14403994202D0E9
:103CD4002846FFF75BFD00206063BDE8F081216AA0
:103CE40001232846B047411CC6D12B68002BC3D002
:103CF4001D2B01D0162B01D12F60B0E7A38943F00F
:103D04004003A381BDE8F0810F69002FA7D093077A
:103D140018BF00230E6808BF4B69A6EB07080F60A5
:103D24008B60B8F1000F9ADD43463A46216A284673
:103D3400A66AB047002807DCA38943F04003A381A7
:103D44004FF0FF30BDE8F0810744A8EB0008E8E736
:103D54000100402038B50B6905460C46DBB118B1AB
:103D640083690BB900F060F80C4B9C4209D16C6874
:103D7400B4F90C307BB121462846BDE83840FFF742
:103D840061BF074B9C4201D1AC68F1E7054B9C42F3
:103D940008BFEC68ECE7002038BD00BF44470008CA
:103DA4006447000824470008014900F0A9B800BF8F
:103DB400593D0008002310B5044603604360836046
:103DC40081814366C281036143618361194608228C
:103DD4005C30FFF7D3FC054B24626362044BA3629F
:103DE400044BE362044B236310BD00BFFD3900089C
:103DF4001F3A0008573A00087B3A000870B5682556
:103E04004A1E55430E4605F17401FFF70BFD0446A7
:103E140040B1002180E842000C30A06005F1680246
:103E2400FFF7ACFC204670BD836910B5044633BB74
:103E34008364C3640365124B124A1B68826298420E
:103E440004BF0123836100F01FF86060204600F086
:103E54001BF8A060204600F017F80022E06004215F
:103E64006068FFF7A7FF01220921A068FFF7A2FFFE
:103E740002221221E068FFF79DFF0123A36110BD18
:103E840020470008AD3D0008F8B51C4B07461E68E6
:103E9400B36913B93046FFF7C7FF4836B46873688F
:103EA400013B03D5336833B13668F7E7B4F90C50F6
:103EB4006DB16834F4E704213846FFF79FFF3060A2
:103EC4000028F1D10C2304463B602046F8BD4FF690
:103ED400FF73E38101236566A3812560A5606560A6
:103EE40025616561A5610822294604F15C00FFF79C
:103EF40045FC6563A563A564E564E6E7204700081F
:103F04002DE9F84380468946002600F1480414B997
:103F14003046BDE8F883A5686768013F01D5246889
:103F2400F5E7AB89012B07D9B5F90E30013303D07E
:103F340029464046C84706436835EEE738B5054686
:103F4400084611460022054C22601A46FFF7CAFAB9
:103F5400431C02D1236803B12B6038BDA0010020AB
:103F640070B50E46B1F90E1090B0002914461D46E6
:103F740007DA00232B60B3891A0610D44FF4806348
:103F84000EE001AA00F03AFB0028F2DB029A02F4E8
:103F94007042A2F500535A425A412A60EEE7402388
:103FA4000020236010B070BD8B8973B59D07064651
:103FB4000C4607D504F147032360236101236361A1
:103FC40002B070BD01AB6A46FFF7CAFF009905460F
:103FD4003046FFF727FC48B9B4F90C309A05EFD402
:103FE40023F0030343F00203A381E3E70D4BB36221
:103FF400A389206043F08003A381009B2061636157
:10400400019B5BB1B4F90E10304600F009FB28B1F6
:10401400A38923F0030343F00103A381A3891D4370
:10402400A581CDE7AD3D000870477047936810B493
:10403400013B002B936008DA9469A34202DBCBB204
:104044000A2B02D110BCFFF71BBD1368581C10606B
:104054001970C8B210BC7047F8B506460F4614462E
:10406400D518AC4201D1002007E03A4614F8011BF0
:104074003046FFF7DBFF431CF3D1F8BD2DE9F04FC9
:104084009DB00C4617460393064618B183690BB9D5
:10409400FFF7CAFE7C4B9C4257D17468A38918076A
:1040A4005DD52369002B5AD00023099320238DF872
:1040B400293030234FF0010B8DF82A30B84645469D
:1040C40015F8013B002B55D1B8EB070A0BD053462A
:1040D4003A4621463046FFF7BFFF013000F0C48066
:1040E400099B5344099398F80030002B00F0BC80DE
:1040F40000234FF0FF3204930793059206938DF843
:1041040053301A9305222978604800F099FA05F192
:104114000108049B002831D1D90644BF20228DF820
:1041240053201A0744BF2B228DF853202A782A2AB9
:104134002CD000210A20079AA84698F800300135AF
:10414400303B092B6DD971B326E0514B9C4201D110
:10415400B468A3E74F4B9C4208BFF4689EE721462E
:104164003046FFF7F1FC00289ED04FF0FF301DB021
:10417400BDE8F08F252BA7D0A846A0E7434A4546C3
:10418400801A0BFA00F018430490BBE7039A111D40
:1041940012680391002A01DB079204E0524243F0C3
:1041A40002030792049398F800302E2B10D198F84C
:1041B400013008F101012A2B37D1039B08F10208D1
:1041C4001A1D1B680392002BB8BF4FF0FF330593F1
:1041D400314D032298F80010284600F031FA40B11E
:1041E4004023401B03FA00F0049B08F10108034339
:1041F400049398F800100622284808F101078DF866
:10420400281000F01DFA002834D0254B03BB039B73
:10421400073323F0070308330393099B4B440993A3
:104224004CE700FB0232012186E700230A251846E9
:104234000593884698F800200131303A092A03D9B9
:10424400002BC5D00590C3E705FB00200123F0E750
:1042540003AB00932246134B04A93046AFF300800E
:10426400B0F1FF3F8146D8D1A3895B063FF57DAF0E
:1042740009987CE703AB009322460A4B04A9304615
:1042840000F08AF8ECE700BF4447000884470008C0
:1042940064470008244700088A4700088E4700083E
:1042A400000000005D4000082DE9F04791461F46DC
:1042B4008A680B6906469342B8BF1346C9F80030B2
:1042C40091F843200C46DDF8208012B10133C9F87F
:1042D40000302368990642BFD9F800300233C9F888
:1042E4000030256815F0060507D104F1190AE368C2
:1042F400D9F800209B1A9D422ADB94F843302268A7
:10430400003318BF012392062FD404F14302394627
:104314003046C047013022D02368E56803F0060325
:10432400042B18BF0025D9F800204FF0000908BF5E
:10433400AD1AA368226908BF25EAE5759342C4BF94
:104344009B1AED181A344D451BD10020BDE8F087A7
:104354000123524639463046C047013003D14FF05D
:10436400FF30BDE8F0870135C1E73020E11881F85E
:1043740043005A1C94F845102244023382F8431037
:10438400C3E70123224639463046C0470130E6D010
:1043940009F10109D7E700002DE9F04317460A7E29
:1043A40085B06E2A984606460C460C9B01F1430ED6
:1043B40000F0BC801AD8632A2ED00AD8002A00F054
:1043C400C880582A00F08A8004F1420584F842200B
:1043D4002AE0642A01D0692AF6D121681A6811F00A
:1043E400800F23D0111D1960136827E0732A00F091
:1043F400B48008D86F2A2AD0702AE5D10A6842F01E
:1044040020020A6003E0752A21D0782ADCD17822C0
:104414006F4984F8452064E01A6801F14205111DD2
:104424001960136884F842300123A3E011F0400FAF
:1044340002F104011960D7D0B2F90030002B03DA7D
:104444002D225B4284F8432062490A2217E0206847
:10445400196810F0800F03D0081D18600B6806E07F
:1044640010F0400F01F104001860F7D00B886F2A98
:1044740014BF0A2208225749002084F843006568C3
:10448400002DA560C0F29C80206820F0040020600C
:10449400002B3FD1002D40F095807546082A0BD1A2
:1044A4002368DA0708D5236962689A42DEBF30239D
:1044B40005F8013C05F1FF35AEEB05032361CDF8AA
:1044C40000803B4603AA21463046FFF7EDFE01304B
:1044D40055D14FF0FF3005B0BDE8F08381F8452099
:1044E4003C492268186812F0800F00F104051D6031
:1044F40001D0036802E05506FBD50388D00744BF0A
:1045040042F0200222601BB9226822F020022260BD
:104514001022B1E77546B3FBF2F002FB1033CB5C1B
:1045240005F8013D03460028F5D1B7E708681A6885
:1045340010F0800F496904D0101D186013681960C9
:1045440007E010F0400F02F1040018601368F6D081
:104554001980002375462361B1E71A68111D19609B
:10456400156800216268284600F06AF808B1401B0B
:10457400606063682361002384F843309FE7236904
:104584002A4639463046C0470130A2D023689B07EB
:1045940007D5002504F11909E368039A9B1A9D4283
:1045A40005DBE068039B9842B8BF184693E70123F4
:1045B4004A4639463046C04701308AD00135EBE7D8
:1045C400002BA7D10B7804F1420584F8423065E74B
:1045D400A64700089547000838B505460846114621
:1045E4000022054C22601A46FEF70EFF431C02D13E
:1045F400236803B12B6038BDA001002038B5002327
:10460400064C0546084611462360FEF752FF431C3C
:1046140002D1236803B12B6038BD00BFA001002084
:1046240038B50023054C054608462360FEF750FFC5
:10463400431C02D1236803B12B6038BDA0010020C4
:1046440010B5C9B202449042034601D1002010BD06
:104654001C7801308C42F6D1184610BDF8B500BF65
:10466400F8BC08BC9E467047F8B500BFF8BC08BC4F
:044674009E467047A7
:1046780002030405060708090A0B0C0D0E0F10109B
:104688000102000057656C636F6D6520746F2057D9
:1046980035353030200D20005735353030205374F3
:1046A8006174757320536F636B657430203D3D20D2
:1046B8003078255820536F636B657431203D3D2059
:1046C80030782558200D200A0000000054686973CE
:1046D800206973204454552D333030302075736968
:1046E8006E6720573535303000000000C0A80B65D4
:1046F8000202020202020202020202020202020292
:104708000000000000000000010203040607080979
:104718000000000001020304540000200000000013
:104728000000000000000000000000000000000081
:104738000000000000000000000000000000000071
:104748000000000000000000000000000000000061
:104758000000000000000000000000000000000051
:104768000000000000000000000000000000000041
:10477800000000000000000000000000232D302B86
:104788002000686C4C00656667454647003031324A
:1047980033343536373839414243444546003031A1
:1047A8003233343536373839616263646566000000
:0447B80009020008EA
:0447BC00E50100080B
:1047C00010000000010000C00102573535303000F4
:1047D0000000000049260008552600086126000850
:1047E0006D260008792600089126000800000000C8
:1047F000000000000008DCABCD49C0A80B16FFFF8D
:10480000FF00C0A80B0108080808010000A24A0424
:1048100054000020000000004447000864470008DE
:104820002447000800000000000000000000000015
:104830000000000000000000000000000000000078
:104840000000000000000000000000000000000068
:104850000000000000000000000000000000000058
:104860000000000000000000000000000000000048
:044870000000000044
:04000005080036E1D8
:00000001FF
