:020000040800F2
:100000000050002069200008511A0008531A000807
:10001000551A0008571A0008591A00080000000075
:100020000000000000000000000000005B1A000853
:100030005D1A0008000000005F1A0008611A00083D
:10004000B1200008B1200008B1200008B12000084C
:10005000B1200008B1200008B1200008B12000083C
:10006000B1200008B1200008B1200008B12000082C
:10007000B1200008B1200008B1200008B12000081C
:10008000B1200008B1200008B1200008B12000080C
:10009000B1200008B1200008B1200008B1200008FC
:1000A000B1200008B1200008B1200008B1200008EC
:1000B000B1200008B1200008B1200008B1200008DC
:1000C000B1200008B1200008B1200008B1200008CC
:1000D000B1200008B1200008B1200008B1200008BC
:1000E000651A0008B1200008B120000800000000D7
:1000F0000000000000000000000000000000000000
:0C01000000000000000000005FF808F1A3
:10010C0010B5054C237833B9044B13B10448AFF345
:10011C0000800123237010BD70000020000000003F
:10012C00F029000808B5034B1BB103490348AFF392
:10013C00008008BD0000000074000020F0290008B9
:10014C00D0400B1CD1409C46203AD340184352421D
:10015C00634693401843704738B50E4B05461878E4
:10016C004FF47A73B3FBF0F30B4A1068B0FBF3F067
:10017C0000F0B0F8044658B90F2D09D802462946AC
:10018C004FF0FF3000F054F8044B20461D6038BD92
:10019C00012038BD000000200800002004000020D1
:1001AC00074A08B51368032043F01003136000F0EE
:1001BC002DF80020FFF7D0FF01F0C6FB002008BD92
:1001CC0000200240034A044B11681B780B44136057
:1001DC00704700BF9C00002000000020014B1868F5
:1001EC00704700BF9C00002038B50446FFF7F6FFAF
:1001FC000546631C1EBF044B1B78E418FFF7EEFF8B
:10020C00401B8442FAD838BD00000020074A000287
:10021C00D36800F4E06023F4E0631B041B0C43F090
:10022C00BF6343F400330343D360704700ED00E039
:10023C00174B30B5DC68C4F30224C4F10703251D49
:10024C00042B28BF0423062D4FF0010598BF002472
:10025C0005FA03F303F1FF3388BF033C1940A140B7
:10026C0005FA04F4013C2240002842EA01024FEA5C
:10027C000212AFBF00F16040064B00F00F00D2B28B
:10028C00A5BFD2B200F561401A5480F8002330BDEE
:10029C0000ED00E014ED00E00123420900F01F0026
:1002AC0003FA00F0014B43F82200704700E100E034
:1002BC00BFF34F8F0549064BCA6802F4E062134343
:1002CC00CB60BFF34F8F00BFFDE700BF00ED00E038
:1002DC000400FA050138B0F1807F0AD2F021064BF8
:1002EC00064A586082F823100020072298601A6092
:1002FC0070470120704700BF10E000E000ED00E007
:10030C00114AD36813F0100305D01049CB6943F0A0
:10031C000203CB611023D268500706D50B4943F07A
:10032C000403CA6942F00102CA61074AD169C907CC
:10033C0008D50648C16941F00401C161D16921F0B9
:10034C000101D161D360704700200240A000002061
:10035C00064B186910F0800007D0054A5A6002F16C
:10036C0088325A601869C0F3C010704700200240F0
:10037C0023016745034A0020136943F0800313618E
:10038C00704700BF00200240064B186910F4007043
:10039C0009BF054A01209A6002F1883208BF9A60B1
:1003AC00704700BF0020024023016745FFF780BF64
:1003BC00F8B50646FFF712FF114C07462546E368D1
:1003CC00D80712D4E368990644BF2023E360EB6896
:1003DC00DA0606D4EB69DB0703D4E86810F00400F6
:1003EC0002D0FFF78DFF0120F8BD731CE7D00EB9CA
:1003FC000320F8BDFFF7F2FEC01B8642DFD2F7E701
:10040C00002002402DE9F84F1F4C9946237E0546EB
:10041C00012B0F46904633D001234CF250302376FB
:10042C00FFF7C6FF40BB012D03D0022D0CBF0225E8
:10043C0004250026B246DFF854B032014046494646
:10044C00FFF77EFEC4F81CA0DBF8103080B243F03E
:10045C000103CBF8103027F816004CF25030FFF7A0
:10046C00A7FFDBF8103023F00103CBF8103018B9DC
:10047C000136F3B29D42E0D800232376BDE8F88F15
:10048C000220BDE8F88F00BFA00000200020024031
:10049C000022064BDA61064B1A6942F004021A611B
:1004AC001A6942F040021A61704700BFA000002098
:1004BC000020024038B505464CF25030FFF778FF6B
:1004CC0010BB124B124CD86123694CF2503043F0E4
:1004DC0020032361236943F040032361FFF768FF86
:1004EC00236923F02003236170B92369ADB243F073
:1004FC0010032361074B4CF250301D80FFF758FF5F
:10050C00236923F01003236138BD00BFA000002035
:10051C000020024000F8FF1F38B5124C4CF250304E
:10052C00E36913F0020F14BF0025A525FFF740FF68
:10053C00B8B90D4AD06123694CF2503043F0200316
:10054C002361236943F040032361FFF731FF2369E3
:10055C0023F02003236120B92846BDE83840FFF77B
:10056C00A9BF38BD00200240A00000202DE9F041B9
:10057C007A4D06462B7E012B00F0EC80012033686F
:10058C002876DC0740F1A1807368754F8342B4680C
:10059C00D7F820804CF2503050D1FFF709FF50BBF8
:1005AC00E861FFF7B9FF30BB3A6928EA0404E3B20B
:1005BC0042F01002FF2B3A610CD1C4F30723FF2B3E
:1005CC001DD1C4F30743FF2B24D1240EFF2C2CD1B7
:1005DC00002009E0634A4CF2503011890B40138122
:1005EC00FFF7E6FE0028E8D05D4A136923F01003FC
:1005FC001361002869D000232B76BDE8F081594A9D
:10060C004CF2503051890B405381FFF7D1FE00283A
:10061C00D7D0E9E7534A4CF2503091890B40938183
:10062C00FFF7C6FE0028D0D0DEE74E4BDA89144027
:10063C00DC814CF25030FFF7BBFED5E7FFF7B8FE7C
:10064C000028D8D1E861FFF767FF0028D3D13A69B9
:10065C0044EA0804E3B242F01002FF2B3A6110D1D5
:10066C00C4F30723FF2B18D1C4F30743FF2B20D16E
:10067C00240EFF2CACD03B4AD3899BB21C43D481B3
:10068C00D7E738494CF250300A8992B213430B81A8
:10069C00FFF78EFE0028A7D1E2E732494CF250302A
:1006AC004A8992B213434B81FFF782FE0028DBD0BC
:1006BC009AE72C494CF250308A8992B213438B81C1
:1006CC00FFF776FE0028D3D08EE73368990704D560
:1006DC00307CFFF7EFFE00288DD133685A071BD50D
:1006EC004CF25030777CFFF763FE002883D11C4C12
:1006FC00E861236947F0880743F010032361194B25
:10070C004CF250305F80FFF753FE236923F0100347
:10071C00236100287FF46FAF33681B077FF56BAF45
:10072C004CF250307769367EFFF742FE00287FF49A
:10073C0062AF0B4CE8612369B6B243F0100323613E
:10074C004CF250303E80FFF733FE236923F0100348
:10075C00236150E70220BDE8F08100BFA00000201B
:10076C000020024000F8FF1F07230360074B1A6AA2
:10077C008260DA6912F0020F14BF0022A522027403
:10078C00DB69C3F382034374704700BF002002404F
:10079C000022064BDA61064B1A6942F002021A611A
:1007AC0058611A6942F040021A617047A00000209B
:1007BC00002002402DE9F041234D07462B7E884650
:1007CC00012B3DD0012403682C76022B4CF25030C7
:1007DC0013D1FFF7EDFD20B1012000232B76BDE8EE
:1007EC00F081FFF755FE4CF25030FFF7E1FD174A50
:1007FC00136923F004031361EFE7FFF7D9FD002819
:10080C00EAD14FF0FF33C8F800302046BE680F4CD9
:10081C00FA68BB6803EB82239E42DED23046FFF7B8
:10082C00B7FF4CF25030FFF7C3FD236923F00203EE
:10083C00236110B1C8F80060CFE706F58066E7E7E2
:10084C000220BDE8F08100BFA00000200020024083
:10085C002DE9F74F00221646654BDFF8A4E1DFF8CF
:10086C00A4C14FF001080C6808FA06F808EA040461
:10087C00A0457FD14D68122D00F0AF8000F288802A
:10088C00022D00F0A7807CD8002D00F08E80012D69
:10089C0000F09E804FF00F09FF2C93BF824606F1AB
:1008AC008045083DD0F800B092BFB500D0F804B038
:1008BC00AD0009FA05F82BEA080802FA05F588BF1D
:1008CC0000F1040A48EA0505CAF80050D1F804A062
:1008DC001AF0805F4ED0474D464FAD6926F00308A5
:1008EC0045F00105BD61BD6908F1804805F00105C1
:1008FC00019508F5803806F0030B019D4FEA8B0B30
:10090C00D8F8085009FA0BF925EA09093A4DA8421A
:10091C0068D005F58065A84266D005F58065A842CB
:10092C0064D005F58065A8420CBF0325042505FAA3
:10093C000BF545EA0905C8F808501D681AF4803F04
:10094C0014BF2543A5431D605D681AF4003F14BF16
:10095C002543A5435D609D681AF4801F14BF254391
:10096C00A5439D60DD681AF4001F14BF2C4325EAD3
:10097C000404DC600136102E7FF473AF03B0BDE8C5
:10098C00F08F032D22D0112D84D1CA68043281E757
:10099C001A4FBD4209D012D8DFF86C904D4504D0E7
:1009AC0009F580394D457FF475AF8A68C2B1012ACB
:1009BC000CBFC0F81080C0F8148008226AE7754597
:1009CC00F3D06545F1D0DFF84490EBE7002261E706
:1009DC00CA685FE7CA6808325CE7CA680C3259E734
:1009EC00042257E70025A2E70125A0E702259EE790
:1009FC0000040140001002400008014000002110DA
:100A0C000000311000003210000011100000221004
:100A1C008368194214BF0120002070470AB101619C
:100A2C0070470904FBE7704708B5044B596901424C
:100A3C0002D05861FFF7F7FF08BD00BF000401406A
:100A4C0003682DE9F341DB07054610D42B689F079B
:100A5C005ED42B68190700F195802B685A0700F1BA
:100A6C00BF80EA69002A40F02D81002014E0904CF0
:100A7C00636803F00C03042B07D0636803F00C03CA
:100A8C00082B0CD16368DE0309D523689C03DDD5E4
:100A9C006B68002BDAD1012002B0BDE8F0816B68E5
:100AAC00B3F5803F10D1236843F480332360FFF704
:100ABC0095FB064623689803C8D4FFF78FFB801B71
:100ACC006428F7D90320E7E79BB9236823F4803324
:100ADC002360236823F480232360FFF77FFB064603
:100AEC0023689903B2D5FFF779FB801B6428F7D9EB
:100AFC00E8E7B3F5A02F236803D143F480232360E8
:100B0C00D1E723F480332360236823F48023CDE7DB
:100B1C00674C636813F00C0F07D0636803F00C0389
:100B2C00082B10D16368DA030DD423689B0702D518
:100B3C002B69012BAFD123686A6923F0F80343EAD0
:100B4C00C203236085E72A695A4B6AB101221A60F5
:100B5C00FFF744FB064623689F07ECD4FFF73EFBE8
:100B6C00801B0228F7D9ADE71A60FFF737FB064662
:100B7C00236898077FF56DAFFFF730FB801B0228C9
:100B8C00F6D99FE7AA694A4C4B4BDAB101221A609D
:100B9C00FFF724FB0646636A9B070DD54FF4FA5208
:100BAC00464B1B68B3FBF2F3019300BF019B5A1E2B
:100BBC000192002BF9D150E7FFF710FB801B0228A4
:100BCC00E9D97FE71A60FFF709FB0646636A9F07BE
:100BDC007FF543AFFFF702FB801B0228F6D971E7C4
:100BEC00334CE369D80024D40127E36943F08053E4
:100BFC00E361E36903F080530093009B304E33684C
:100C0C00D90518D5EB68012B26D1236A43F00103D3
:100C1C002362FFF7E3FA41F288368046236A9B078A
:100C2C003FD5002F3FF41DAFE36923F08053E36100
:100C3C0017E70027E2E7336843F480733360FFF76C
:100C4C00CDFA80463368DA05DCD4FFF7C7FAA0EB9F
:100C5C0008006428F6D935E7ABB9236A41F2883825
:100C6C0023F001032362236A23F004032362FFF7BA
:100C7C00B5FA0646236A9807D3D5FFF7AFFA801B5F
:100C8C004045F7D91EE7052B236A03D143F0040333
:100C9C002362BAE723F001032362236A23F00403DF
:100CAC00B6E7FFF79BFAA0EB0800B042B6D909E70C
:100CBC000010024000004242800442420800002022
:100CCC0000700040224C636803F00C03082B3FF4C7
:100CDC00E2AE00231F4E022A33602BD1FFF77EFABF
:100CEC000746236899011FD42B6AB3F5803F05D1C1
:100CFC006268A96822F400320A436260696A626819
:100D0C000B4322F474121343636001233360FFF727
:100D1C0065FA054623689A013FF5A7AEFFF75EFA20
:100D2C00401B0228F6D9CDE6FFF758FAC01B022863
:100D3C00D7D9C7E6FFF752FA054623689B017FF522
:100D4C0094AEFFF74BFA401B0228F6D9BAE600BF67
:100D5C00001002406000424230B5194B87B002AC23
:100D6C0003F11005224618685968083303C2AB42D8
:100D7C001446F7D101238DF80430022311498DF864
:100D8C0005304B6803F00C02082A17D1C3F38342D9
:100D9C0006A80244DB0312F8102C0CD54B680A4849
:100DAC00C3F34043504306AA134413F8143CB0FB5E
:100DBC00F3F007B030BD05485043FAE70248F8E7B6
:100DCC00082A00080010024000127A0000093D00B9
:100DDC00544A2DE9F0411368054603F007038B4292
:100DEC000E462AD329688C0734D4CA0747D44D4AF7
:100DFC00136803F007039E42C0F082802A684A4CB5
:100E0C0012F0040F40F08780130706D563682A6937
:100E1C0023F4605343EAC2036360FFF79DFF6368EA
:100E2C00424AC3F30313D35CD840414B18600020F3
:100E3C00FFF792F90020BDE8F081136823F0070357
:100E4C000B431360136803F007039942CAD00120C7
:100E5C00BDE8F081344B11F0040F1EBF5A6842F408
:100E6C00E0625A60080742BF5A6842F460525A6006
:100E7C005A68A86822F0F00202435A60B5E76A6823
:100E8C00294C012A23681CD113F4003FDFD063687E
:100E9C0041F2883823F0030313436360FFF79EF994
:100EAC006B680746012B14D1636803F00C03042B09
:100EBC009DD0FFF793F9C01B4045F5D90320BDE841
:100ECC00F081022A02D113F0007FDFE713F0020F4A
:100EDC00DCE7022B0FD1636803F00C03082B86D0E0
:100EEC00FFF77CF9C01B4045F5D9E7E7FFF776F92A
:100EFC00C01B4045E2D8636813F00C0FF6D176E7BF
:100F0C00136823F0070333431360136803F00703DC
:100F1C009E429CD172E76368E96823F4E0630B435B
:100F2C00636071E70020024000100240243000088A
:100F3C0008000020044B054A5B68C3F30223D35C12
:100F4C00034A1068D8407047001002403430000843
:100F5C0008000020044B054A5B68C3F3C223D35C32
:100F6C00034A1068D8407047001002403430000823
:100F7C00080000202DE9F0470568C2682B6901695B
:100F8C0023F4405313432B618368EA680B43416994
:100F9C0022F4B05222F00C020B431343EB606B694A
:100FAC00826923F4407313436B61404B81469D422D
:100FBC004FF0190446D1FFF7CDFF04FB00F3D9F82D
:100FCC0004604FF06408B600B3FBF6F3B3FBF8F320
:100FDC001E01FFF7BFFF6043D9F804309B00B0FB44
:100FEC00F3F7FFF7B7FF6043D9F804309B00B0FB71
:100FFC00F3F3B3FBF8F308FB13731B013233B3FBAE
:10100C00F8F303F0F007FFF7A5FF6043D9F80420CD
:10101C009200B0FBF2FAFFF79DFF6043D9F8043061
:10102C009B00B0FBF3F3B3FBF8F308FB13A31B011A
:10103C003233B3FBF8F303F00F033B433344AB60A1
:10104C00BDE8F087FFF776FF04FB00F3D9F80460E6
:10105C004FF06408B600B3FBF6F3B3FBF8F31E01D4
:10106C00FFF768FF6043D9F804309B00B0FBF3F73F
:10107C00FFF760FF6043D9F804309B00B0FBF3F33B
:10108C00B3FBF8F308FB13731B013233B3FBF8F318
:10109C0003F0F007FFF74EFF6043D9F804209200ED
:1010AC00B0FBF2FAFFF746FFB7E700BF003801408C
:1010BC00F8B504460E4617461D4621680B6836EAFD
:1010CC00030301D10020F8BD6B1CF7D095B9236840
:1010DC000320DA6822F4D072DA605A6922F0010235
:1010EC005A61202384F8393084F83A30002384F88C
:1010FC003830F8BDFFF772F8C01B8542DDD2E6E749
:10110C0010B5044640B390F8393003F0FF021BB918
:10111C0080F8382000F03AFC2423226884F8393017
:10112C00D368204623F40053D360FFF723FF2368D2
:10113C0000201A6922F490421A615A6922F02A029C
:10114C005A61DA6842F40052DA602023E06384F8D2
:10115C00393084F83A3010BD012010BD2DE9F04132
:10116C001F4690F839300446202B0D4690464ED140
:10117C00002949D0002A47D090F83830012B46D0AE
:10118C00012380F838300023C363212380F83930E1
:10119C00FFF724F80646A4F82480A4F82680E38CF4
:1011AC009BB26BB93B46324640212046FFF780FF8D
:1011BC00A8B9202384F8380084F83930BDE8F081D0
:1011CC00E38C3246013B9BB2E384A3688021B3F5E8
:1011DC00805F20463B460ED1FFF76AFF10B103201B
:1011EC00BDE8F0812B882268C3F3080353602369A0
:1011FC0043B90235D3E7FFF75BFF0028EFD1236833
:10120C002A785A600135CAE70120BDE8F081022036
:10121C00BDE8F0812DE9F0411F4690F83A300446C4
:10122C00202B0D46904651D100294CD0002A4AD093
:10123C0090F83830012B49D0012380F83830002346
:10124C00C363222380F83A30FEF7C8FF0646A4F8A1
:10125C002C80A4F82E80E08D80B230B9202384F845
:10126C00380084F83A30BDE8F081E38D3246013B1A
:10127C009BB2E385A3682021B3F5805F20463B46F3
:10128C0012D1FFF715FF10B10320BDE8F0812368E0
:10129C0022695B6822B9C3F3080325F8023BDAE73D
:1012AC00DBB225F8013BD6E7FFF702FF0028EBD1B4
:1012BC00236821696A1C5B6811B92B701546CAE753
:1012CC0003F07F03F9E70120BDE8F0810220BDE8BF
:1012DC00F08100000A220023F0B51C4696460B4D07
:1012EC00B1FBF5F707F13006F6B2302E05FB1711FE
:1012FC000655B5FBFEF500D123B101340133013A9B
:10130C00EED1F0BD00231C46F9E700BF00CA9A3BA2
:10131C0070B50378302B04D1437803F0DF03582BDE
:10132C000CD000230A261C46025D72BB01220B6006
:10133C0001340B2C24D0002AF6D021E00024022505
:10134C00425DD2B122F02003413B052BA2F13003C8
:10135C0002D9DEB2092E10D8DEB2092E4FEA0414DF
:10136C0007D9A2F14103052B94BFA2F13703A2F1D7
:10137C00570301350B2D1C44E2D1435D13B1002200
:10138C00104670BD0C600122FAE702F0DF054B2D10
:10139C000BD144B9A2F13005092DF0D806FB03237B
:1013AC000022303BC4E79B02C0E74D2DF2D1002C4C
:1013BC00E5D01B05BAE70000014600239AB2885C11
:1013CC0001330028FAD164230148FFF7C7BE00BFE0
:1013DC00C000002007B502A901F8010D6423012209
:1013EC000248FFF7BBFE03B05DF804FBC000002011
:1013FC0008B5FEF7ADFF3422024BDA60BDE80840B9
:10140C00FEF7B8BF0020024030B50025044687B077
:10141C000195FEF79DFF0123C4F1006000F500303B
:10142C00800A059001A902A8049403930295FFF782
:10143C00C1F90446FEF79EFF601B18BF012007B0E0
:10144C0030BD00002DE9F0410D46044690460026C3
:10145C00FEF77EFF0F4F043D464501D0BC4204D938
:10146C00FEF788FF0020BDE8F08155F8042F00231B
:10147C0021460220FEF7C6FF30B954F8042B2B6826
:10148C009A4204D10136E7E70320BDE8F08102203F
:10149C00BDE8F081FCFF010800B589B0FEF758FFEC
:1014AC0001A8FFF761F9FEF765FF0398C04310F040
:1014BC00700018BF022009B05DF804FB10B58EB0A7
:1014CC00044607A8FFF750F901230093A523B4FAAB
:1014DC0084F48DF810309DF82D3064098DF811309E
:1014EC000194099CFEF734FFFEF74EFFFFF714F84A
:1014FC0030B944F0700468460294FFF737F800B135
:10150C0004200EB010BD000010B514460A2392B290
:10151C000248FFF723FE204610BD00BFC00000208C
:10152C0010B590B02822002106A800F0E7FD00219C
:10153C00142201A800F0E2FD012306930A934FF454
:10154C00803302244FF4A0220E934FF4E01306A82C
:10155C0007920F930D94FFF773FA0F234FF48062E9
:10156C0001930023214601A802940393049205934E
:10157C00FFF72EFC10B010BD80B588B000AFFEF7A1
:10158C000FFEFFF7CDFF10220021B81800F0B6FDBA
:10159C004A4B00259A694FF4005842F010029A61A8
:1015AC009A69202102F010023A603A689A6944481C
:1015BC0042F020029A619A690C2602F020027A60AD
:1015CC007A689A693F4C42F004029A619A6902F077
:1015DC000402BA60BA689A6942F008029A619B697F
:1015EC00002203F00803FB60FB68FFF717FA364B89
:1015FC0007F1100135487B61BD61C7F81080FFF71A
:10160C0027F920233B6101237B61022307F11001A1
:10161C002B48FB61BD61FFF71BF929462A462820A0
:10162C00FEF706FE2820FEF737FE4FF4E13328487C
:10163C00284A856080E80C00C56005618561C5613C
:10164C004661FFF75DFD4FF4E1332349204684E802
:10165C000A00A560E5602561A561E5616661FFF79B
:10166C004FFD41461948FFF7D3F90546A0B9FFF7DE
:10167C00BFFE4FF4E133A5606360E5602561A561B1
:10168C00666100F0B1F8154C204600F09BFD4FF45C
:10169C007A70FEF7A9FDF7E7114A124B11680B405F
:1016AC00B3F1005FEFD1104B10491B680B60104970
:1016BC0012680B6082F308889847E4E70010024038
:1016CC0000080140C0000020000011100010014073
:1016DC00000100200038014000440040182A000896
:1016EC00004000080000FE2F0440000840010020CC
:1016FC00440100201FB5002304AC44F8103D1848E9
:10170C0002930193CDF80B30FFF756FE204600F004
:10171C0025FAB8B91348FFF74FFE1348FFF74CFEF4
:10172C00009901A8FFF7D6FD1048FFF745FE01A868
:10173C00FFF742FE0E48FFF73FFE0E48FFF73CFE58
:10174C0004B010BD052801D10B48F7E7042801D1DE
:10175C000A48F3E702280CBF09480A48EEE700BF25
:10176C00662E0008A12E000848010020F42E000867
:10177C00FE2E0008072F00081C2F0008592F000808
:10178C00732F0008892F0008002313B502AC04F84E
:10179C00013D0F48FFF710FE4FF0FF3301222146A9
:1017AC000C48FFF737FD9DF80730432B0BD14FF456
:1017BC0040520949094800F0E9FA8DF8070020B1B8
:1017CC000748FFF7F9FD02B010BD0648F9E700BF66
:1017DC00A92F0008C0000020C22F000800400008FC
:1017EC00D92F000804300008002380B582B03C4893
:1017FC0000AFFB71FFF7E0FD3A48FFF7DDFD3A481B
:10180C00FFF7DAFD3948FFF7D7FD3748FFF7D4FD6E
:10181C003748FFF7D1FD3248FFF7CEFD3548FFF7CB
:10182C00CBFDFFF739FE344C344D354E2060284645
:10183C00FFF7C2FD3046FFF7BFFD3248FFF7BCFD96
:10184C003148FFF7B9FD2368B3B13048FFF7B4FD59
:10185C002F48FFF7B1FD2F4801220368F91D5B6883
:10186C004FF0FF33FFF7D6FCFB79313B032B34D819
:10187C00DFE803F004070A192748E7E7FFF73AFF08
:10188C00D5E7FFF781FFD2E72448FFF795FD244BFE
:10189C00244A1B681360244A1360244A126882F39A
:1018AC0008889847C3E7206880B10120FFF706FE3F
:1018BC0040B91F48FFF780FD1E48FFF77DFDFEF77E
:1018CC0075FDB4E71C48FFF777FDB0E7FFF7F6FDB1
:1018DC0008B91A48EEE71A48F5E71A48F3E700BFCB
:1018EC002F2A0008782A0008C12A00080A2B0008B1
:1018FC00532B00089C2B00088C000020A12B000807
:10190C00E12B00081F2C00085D2C00089B2C000804
:10191C00172D0008C0000020D92C0008552D0008F8
:10192C000440000840010020440100200040000851
:10193C00762D0008952D0008B22D0008DF2D00082B
:10194C00FD2D0008272E00080E4B82B09A6942F03C
:10195C0001029A619A6902F001020092009ADA6916
:10196C0042F08052DA61DB69074A03F0805301933D
:10197C00019B536823F0E06343F00073536002B0A3
:10198C00704700BF0010024000000140102210B54B
:10199C00044688B00DEB0200002100F0AFFB236879
:1019AC00244A934229D1244B04A99A69234842F42E
:1019BC0080429A619A6902F480420092009A9A6974
:1019CC0042F004029A619B6903F004030193019BAA
:1019DC004FF4007304930223059303230793FEF73C
:1019EC0037FF4FF48063049300230593069304A9F7
:1019FC001248FEF72DFF08B010BD114A9342FAD1E0
:101A0C000D4BDA6942F40032DA61DA6902F4003221
:101A1C000292029A9A6942F004029A619B6903F05D
:101A2C0004030393039B0C23049302230593079352
:101A3C00DDE700BF00380140001002400008014003
:101A4C00004400407047FEE7FEE7FEE7FEE7704704
:101A5C0070477047FEF7B6BB4FF40050FEF7E4BF7B
:101A6C0070B50E4615460C46A31B9D4201DC28465C
:101A7C0070BDAFF3008004F8010BF5E708B50A4B15
:101A8C000246196809B9094919606946186802447F
:101A9C008A4206D900F008FB0C2303604FF0FF309C
:101AAC0008BD1A6008BD00BF9000002094050020FE
:101ABC004FF0FF3070474FF4005300204B607047DD
:101ACC0001207047002070470F4B1A6842F001024A
:101ADC001A6059680D4A0A405A601A6822F08472DA
:101AEC0022F480321A601A6822F480221A605A6832
:101AFC0022F4FE025A604FF41F029A604FF000620B
:101B0C00034B9A60704700BF001002400000FFF8C2
:101B1C0000ED00E041F2210341F4807149004000E6
:101B2C00CA0548BF0130C20348BF5840CA03F5D5A7
:101B3C0080B2704738B5044645180020AC4280B2DC
:101B4C0007D30021FFF7E6FFBDE838400021FFF77F
:101B5C00E1BF14F8011BFFF7DDFFEFE72DE9F04FB4
:101B6C0081464FF0000ADFF82082824F89B00025B1
:101B7C00814E2C46BCE0412B4CD0612B4AD0182B0B
:101B8C0040F0CD804FF47A7301220DF10B013046F9
:101B9C00FFF740FB002841D19DF80B30182B16BFE6
:101BAC004FF0000B4FF0020B012001E04FF0800BC7
:101BBC009DF80B30BBF17F0F3B7031D94FF47A732A
:101BCC000BF104026D493046FFF724FB50BBFB7848
:101BDC00BA78DB43DBB29A4227D169485946431C99
:101BEC001BF800201BF8033003EB02230193FFF7D3
:101BFC00A1FF019B834218D1BBF1000F23D0BBF195
:101C0C00020F24D10620FFF7E5FB022494E04FF4E9
:101C1C00806BCDE702204FF0000BC9E70120C7E72E
:101C2C000028E9D0022800F09E80BAF1000F00D005
:101C3C000134052C40F29C801820FFF7CBFB1820B8
:101C4C00FFF7C8FB54E00620FFF7C4FB8FE7BB7817
:101C5C00AB4204D01520FFF7BDFB002448E0002D5B
:101C6C006ED13B79002B63D02A46454945480B463B
:101C7C0013F8014B0CB1402A53D10023835404A810
:101C8C0011F8012F202A01D0102B4ED1002408AAC4
:101C9C00134403A903F8104CFFF73AFB43F201037A
:101CAC00D9F800209A4212D9182308AC04F8163D32
:101CBC0021464FF4801301223046FFF74FFA21469C
:101CCC004FF4801301223046FFF748FA05242E48C2
:101CDC00FFF79AFB039B0620C9F80030FFF77AFB4D
:101CEC004320FFF777FB0135EDB22CBB4FF0010A17
:101CFC004FF47A7301220DF10B013046FFF78AFA8B
:101D0C00834600288ED19DF80B30042B83D03FF6F0
:101D1C0032AF012B3FF44AAF022B3FF478AF0120D6
:101D2C0079E7845419460132A1E7C2540133A7E77D
:101D3C000620FFF74FFB2C46204609B0BDE8F08F7C
:101D4C004FEA9B020E494046FFF77CFB044610B954
:101D5C00D8440620C5E71820FFF73CFB1820FFF7F6
:101D6C0039FB0424BFE71820FFF734FB18204AE79F
:101D7C00432065E788010020C00000208A01002074
:101D8C008C010020480100200040000801232DE9AF
:101D9C00F04FAE4D00246B70FF230746164689B0FA
:101DAC00AC70EB700B5D0BB1402C53D10022A84BE7
:101DBC003146E25405A8FFF78DFA631D1A1B05A9DD
:101DCC000A4412F8052C002A48D1832B49D94FF02C
:101DDC000008DFF880A2DFF880924FF48013832292
:101DEC0049469C48FFF7BAF980219948FFF7A2FEB3
:101DFC000446C0F30720FFF7EDFAE0B2FFF7EAFA6A
:101E0C004FF48013012205A99248FFF703FA044608
:101E1C0050BB9DF81430062B00F00D81182B13D1FC
:101E2C004FF48013012205A95046FFF7F3F958B976
:101E3C009DF81430182B40F0048102240220FEF788
:101E4C00D3F9DAF800305B68B8F1040F10D8002C25
:101E5C00C3D00EE02A1913710134A3E7EA540133FD
:101E6C00ACE7EA540133B0E708F101080024EBE7D2
:101E7C0001244FF0010B6CE011F8010BA854013256
:101E8C0025E02A5401302AE0064662E008F10108F8
:101E9C00B8F1050F29D1012460E0002C60D1B6F512
:101EAC00806F2CBF4FF4806380239E42B64628BFC0
:101EBC009E46B3F5806F0CBF022201226A709DF81A
:101ECC0004203946AA709DF80820EA7004220EF10D
:101EDC0004008242D0D3734503D31A2204339842B0
:101EEC00CFD34FF000088DF81480B6F5806F2CBF5F
:101EFC004FF480694FF080094FF4801309F103020D
:101F0C0055495448FFF72AF949465148FFF712FE44
:101F1C000346C0F307200393FFF75CFA039BD8B288
:101F2C00FFF758FA4FF48013012205A94948FFF72F
:101F3C0071F90028AAD19DF81430062BA6D1B14511
:101F4C004F44A1D2BBF10C0FA6EB09067BD00BF1D1
:101F5C00010B5FFA8BF30193DB430293002E9CD1B0
:101F6C0000263C4F8DF8146074BB0420FFF732FA46
:101F7C004FF48013012205A93846FFF74BF9E0B95D
:101F8C009DF81430062B1AD0182B12D14FF4801355
:101F9C00012205A93846FFF73DF950B99DF81430D8
:101FAC00182B06D102240220FEF71EF9DAF80030B5
:101FBC005B68052E28BF0124D6E70136F9E7042E0D
:101FCC004FF0010304D91C46204609B0BDE8F08F40
:101FDC006B70FF2326462246AC70EB70AB190136B2
:101FEC00802E1A71FAD14FF4801383221A491948A2
:101FFC00FFF7B4F831461648FFF79CFD0546C0F3D1
:10200C000720FFF7E7F9E8B2FFF7E4F94FF4801384
:10201C00012205A90F48FFF7FDF80028D4D19DF83F
:10202C001430182BD0D10220FEF7DEF8DAF800308D
:10203C0002245B68C8E7B8F1040F94BF00240124A4
:10204C0017E7044600E7052483E700BF880100205A
:10205C008C010020C000002089010020002103E039
:10206C000B4B5B58435004310A480B4B42189A42B5
:10207C00F6D30A4A02E0002342F8043B084B9A428A
:10208C00F9D3FFF721FD00F015F8FFF775FA70474B
:10209C00A830000800000020700000207000002014
:1020AC0094050020FEE70000014B1868704700BF44
:1020BC000C00002070B500250C4E0D4CA41BA41078
:1020CC00A54209D100F08EFC00250A4E0A4CA41B37
:1020DC00A410A54205D170BD56F82530984701359E
:1020EC00EEE756F8253098470135F2E7A0300008A6
:1020FC00A0300008A0300008A430000803460244B9
:10210C00934200D1704703F8011BF9E770B50E46F6
:10211C00054618B183690BB900F00EFAAB69AC68CF
:10212C0013B9284600F008FA234B9C4217D16C686F
:10213C00A3891B071DD52369DBB1013EA36816F8E3
:10214C00011F013BA360E9B9002B2EDA22460A21BC
:10215C00284600F03FF8013011D00A2070BD174B13
:10216C009C4201D1AC68E3E7154B9C4208BFEC687C
:10217C00DEE72146284600F07FF80028DDD04FF03E
:10218C00FF3070BD002B04DAA269934206DB0A29EA
:10219C0004D023685A1C22601970CFE722462846C7
:1021AC0000F018F80130C9D1E9E70A2023685A1C5D
:1021BC002260187070BD00BF6030000880300008CD
:1021CC0040300008024B01461868FFF79FBF00BF64
:1021DC000C000020F8B50E461446054618B183696C
:1021EC000BB900F0A9F9214B9C422AD16C68A36968
:1021FC00A360A3891A072ED5236963B323692068CA
:10220C00F6B2C01A63693746984204DB2146284669
:10221C0000F028F928BBA3680130013BA3602368B8
:10222C005A1C22601E706369984204D0A389DB0794
:10223C0019D50A2E17D12146284600F013F990B172
:10224C000FE00B4B9C4201D1AC68D0E7094B9C4290
:10225C0008BFEC68CBE72146284600F00DF80028B3
:10226C00CCD04FF0FF373846F8BD00BF60300008C7
:10227C008030000840300008324B70B51D680646AF
:10228C000C4625B1AB6913B9284600F055F92E4B15
:10229C009C420FD16C68B4F90C309AB215072CD44F
:1022AC00D00611D40922326043F04003A3814FF0D1
:1022BC00FF3070BD254B9C4201D1AC68EBE7244B41
:1022CC009C4208BFEC68E6E7510712D5616B41B13F
:1022DC0004F14403994202D0304600F01BFA00236B
:1022EC006363A38923F02403A38100236360236920
:1022FC002360A38943F00803A38123694BB9A38905
:10230C0003F42073B3F5007F03D02146304600F070
:10231C00C1F9A28912F001030CD00023A3606369F8
:10232C005B42A361236953B9B4F90C3013F08000FC
:10233C00BAD170BD920758BF6369A360F2E7002061
:10234C00F7E700BF0C000020603000088030000868
:10235C00403000088A892DE9F041054610070C46EB
:10236C005AD44B68002B05DC0B6C002B02DC0020D4
:10237C00BDE8F081E66A002EF9D0002312F48052F9
:10238C002F682B6033D0606DA3895A0705D563681D
:10239C00C01A636B0BB1236CC01A00230246E66AA9
:1023AC00216A2846B047431CA38906D129681D29F8
:1023BC004BD82B4ACA40D60747D500226260226907
:1023CC00D904226004D5421C01D12B6803B9606585
:1023DC00616B2F600029CAD004F14403994202D0EA
:1023EC00284600F097F900206063BDE8F081216A6F
:1023FC0001232846B047411CC6D12B68002BC3D003
:10240C001D2B01D0162B01D12F60B0E7A38943F00F
:10241C004003A381BDE8F0810F69002FA7D093077B
:10242C0018BF00230E6808BF4B69A6EB07080F60A6
:10243C008B60B8F1000F9ADD43463A46216A284674
:10244C00A66AB047002807DCA38943F04003A381A8
:10245C004FF0FF30BDE8F0810744A8EB0008E8E737
:10246C000100402038B50B6905460C46DBB118B1AC
:10247C0083690BB900F060F80C4B9C4209D16C6875
:10248C00B4F90C307BB121462846BDE83840FFF743
:10249C0061BF074B9C4201D1AC68F1E7054B9C42F4
:1024AC0008BFEC68ECE7002038BD00BF60300008C6
:1024BC008030000840300008014900F0A9B800BF86
:1024CC0071240008002310B5044603604360836048
:1024DC0081814366C281036143618361194608228D
:1024EC005C30FFF70BFE054B24626362044BA36266
:1024FC00044BE362044B236310BD00BF9528000816
:10250C00B7280008EF2800081329000870B56825C3
:10251C004A1E55430E4605F1740100F047F9044676
:10252C0040B1002180E842000C30A06005F1680247
:10253C00FFF7E4FD204670BD836910B5044633BB3C
:10254C008364C3640365124B124A1B68826298420F
:10255C0004BF0123836100F01FF86060204600F087
:10256C001BF8A060204600F017F80022E060042160
:10257C006068FFF7A7FF01220921A068FFF7A2FFFF
:10258C0002221221E068FFF79DFF0123A36110BD19
:10259C003C300008C5240008F8B51C4B07461E68E3
:1025AC00B36913B93046FFF7C7FF4836B468736890
:1025BC00013B03D5336833B13668F7E7B4F90C50F7
:1025CC006DB16834F4E704213846FFF79FFF3060A3
:1025DC000028F1D10C2304463B602046F8BD4FF691
:1025EC00FF73E38101236566A3812560A5606560A7
:1025FC0025616561A5610822294604F15C00FFF79D
:10260C007DFD6563A563A564E564E6E73C300008E1
:10261C002DE9F84380468946002600F1480414B998
:10262C003046BDE8F883A5686768013F01D524688A
:10263C00F5E7AB89012B07D9B5F90E30013303D07F
:10264C0029464046C84706436835EEE770B50E4646
:10265C00B1F90E1090B0002914461D4607DA00237C
:10266C002B60B3891A0610D44FF480630EE001AAD4
:10267C0000F070F90028F2DB029A02F47042A2F525
:10268C0000535A425A412A60EEE74023002023604F
:10269C0010B070BD8B8973B59D0706460C4607D5E7
:1026AC0004F14703236023610123636102B070BD11
:1026BC0001AB6A46FFF7CAFF00990546304600F0A9
:1026CC0075F848B9B4F90C309A05EFD423F003032C
:1026DC0043F00203A381E3E70D4BB362A3892060AF
:1026EC0043F08003A381009B20616361019B5BB17C
:1026FC00B4F90E10304600F03FF928B1A38923F04D
:10270C00030343F00103A381A3891D43A581CDE7F6
:10271C00C524000838B50546002943D051F8043CBF
:10272C000C1F002BB8BFE41800F048F91E4A1368C0
:10273C00104633B9636014602846BDE8384000F099
:10274C003EB9A3420BD921686218934201BF1A68A3
:10275C005B685218226063600460EDE713465A68A8
:10276C000AB1A242FAD919685818A0420BD12068B4
:10277C000144581882421960DED110685268014435
:10278C0019605A60D8E702D90C232B60D4E7206873
:10279C0021188A4201BF11685268091821606260D1
:1027AC005C60C9E738BD00BF9400002070B5CD1C3B
:1027BC0025F0030508350C2D38BF0C25002D0646D9
:1027CC0001DBA94203D90C233360002070BD00F05B
:1027DC00F5F8234A1468214691B9224C23681BB999
:1027EC00304600F041F820602946304600F03CF8B5
:1027FC00431C26D10C233046336000F0E0F8E4E7AC
:10280C000B685B1B1AD40B2B0FD90B60CC18CD505B
:10281C00304600F0D4F804F10B00231D20F0070023
:10282C00C31A1BD05A42E25070BD8C420BBF636876
:10283C004B681360636018BF0C46E9E70C464968A7
:10284C00CAE7C41C24F00304A04205D0211A304668
:10285C0000F00AF80130CDD02560D9E770BD00BF7B
:10286C00940000209800002038B50023054C054644
:10287C0008462360FFF702F9431C02D1236803B119
:10288C002B6038BD9005002010B50C46B1F90E1028
:10289C0000F096F80028ABBF636DA3891B1823F4D6
:1028AC008053ACBF6365A38110BD2DE9F0411F4679
:1028BC008B890546DB050C46164605D502230022FE
:1028CC00B1F90E1000F068F8A389324623F4805356
:1028DC00A381B4F90E103B462846BDE8F04100F048
:1028EC0017B810B50C46B1F90E1000F055F8431C92
:1028FC00A38915BF606523F4805343F48053A381EF
:10290C0018BFA38110BDB1F90E1000F013B8000070
:10291C0038B50546084611460022054C22601A4679
:10292C00FEF7F2FD431C02D1236803B12B6038BDC6
:10293C009005002038B50023054C05460846236059
:10294C00FFF7B6F8431C02D1236803B12B6038BDE6
:10295C009005002038B50023064C05460846114664
:10296C002360FFF7A8F8431C02D1236803B12B6046
:10297C0038BD00BF9005002038B50023054C054636
:10298C0008462360FFF79CF8431C02D1236803B16F
:10299C002B6038BD9005002038B505460846114619
:1029AC000022054C22601A46FFF78CF8431C02D11A
:1029BC00236803B12B6038BD900500207047704729
:1029CC0038B50546084611460022054C22601A46C9
:1029DC00FFF746F8431C02D1236803B12B6038BDC6
:1029EC0090050020F8B500BFF8BC08BC9E467047A7
:0C29FC00F8B500BFF8BC08BC9E46704750
:102A080002030405060708090A0B0C0D0E0F101027
:102A180048656C6C6F2053544D33324E55434C45CA
:102A28004F204941500D000D0A3D3D3D3D3D3D3D86
:102A38003D3D3D3D3D3D3D3D3D3D3D3D3D3D3D3DBE
:102A48003D3D3D3D3D3D3D3D3D3D3D3D3D3D3D3DAE
:102A58003D3D3D3D3D3D3D3D3D3D3D3D3D3D3D3D9E
:102A68003D3D3D3D3D3D3D3D3D3D3D3D3D3D3D00CB
:102A78000D0A3D202020202020202020202020205A
:102A88002028432920434F5059524947485420325F
:102A98003031362053544D6963726F656C656374C9
:102AA800726F6E6963732020202020202020202050
:102AB800202020202020203D000D0A3D202020201D
:102AC80020202020202020202020202020202020FE
:102AD80020202020202020202020202020202020EE
:102AE80020202020202020202020202020202020DE
:102AF80020202020202020202020202020202020CE
:102B08003D000D0A3D202053544D3332463178782C
:102B180020496E2D4170706C69636174696F6E2015
:102B280050726F6772616D6D696E67204170706C6D
:102B380069636174696F6E20202856657273696FC6
:102B48006E20312E302E3029203D000D0A3D2020E8
:102B5800202020202020202020202020202020206D
:102B6800202020202020202020202020202020205D
:102B7800204279204D4344204170706C6963617430
:102B8800696F6E205465616D202020202020202050
:102B980020203D000D0A0D0A000D0A3D3D3D3D3D3A
:102BA8003D3D3D3D3D3D3D3D3D3D3D3D3D3D204D5A
:102BB80061696E204D656E75203D3D3D3D3D3D3D55
:102BC8003D3D3D3D3D3D3D3D3D3D3D3D3D3D3D3D2D
:102BD8003D3D3D3D3D0D0A0A002020446F776E6C57
:102BE8006F616420696D61676520746F2074686522
:102BF80020696E7465726E616C20466C6173682022
:102C08002D2D2D2D2D2D2D2D2D2D2D2D2D2D2D2DEC
:102C18002D20310D0A0A00202055706C6F61642048
:102C2800696D6167652066726F6D207468652069DB
:102C38006E7465726E616C20466C617368202D2D10
:102C48002D2D2D2D2D2D2D2D2D2D2D2D2D2D2D20B9
:102C5800320D0A0A00202045786563757465207472
:102C68006865206C6F61646564206170706C69636D
:102C78006174696F6E202D2D2D2D2D2D2D2D2D2D4F
:102C88002D2D2D2D2D2D2D2D2D2D2D2D2D20330D93
:102C98000A0A00202044697361626C6520746865C3
:102CA8002077726974652070726F74656374696FD8
:102CB8006E202D2D2D2D2D2D2D2D2D2D2D2D2D2D08
:102CC8002D2D2D2D2D2D2D2D2D2D2D20340D0A0A98
:102CD800002020456E61626C6520746865207772FB
:102CE8006974652070726F74656374696F6E202DE6
:102CF8002D2D2D2D2D2D2D2D2D2D2D2D2D2D2D2DFC
:102D08002D2D2D2D2D2D2D2D2D20340D0A0A003D74
:102D18003D3D3D3D3D3D3D3D3D3D3D3D3D3D3D3DDB
:102D28003D3D3D3D3D3D3D3D3D3D3D3D3D3D3D3DCB
:102D38003D3D3D3D3D3D3D3D3D3D3D3D3D3D3D3DBB
:102D48003D3D3D3D3D3D3D3D3D0D0A0A005374610D
:102D580072742070726F6772616D20657865637533
:102D680074696F6E2E2E2E2E2E2E0D0A0A005772A3
:102D78006974652050726F74656374696F6E20643E
:102D8800697361626C65642E2E2E0D0A0053797387
:102D980074656D2077696C6C206E6F77207265732F
:102DA800746172742E2E2E0D0A004572726F723A7B
:102DB80020466C61736820777269746520756E2D82
:102DC80070726F74656374696F6E206661696C6593
:102DD800642E2E2E0D0A0057726974652050726F8A
:102DE80074656374696F6E20656E61626C65642ECC
:102DF8002E2E0D0A004572726F723A20466C61736E
:102E0800682077726974652070726F74656374697D
:102E18006F6E206661696C65642E2E2E0D0A00495E
:102E28006E76616C6964204E756D62657220212032
:102E38003D3D3E20546865206E756D626572207355
:102E4800686F756C642062652065697468657220B6
:102E5800312C20322C2033206F7220340D00576122
:102E68006974696E6720666F722074686520666988
:102E78006C6520746F2062652073656E74202E2E39
:102E88002E202870726573732027612720746F20A5
:102E980061626F7274290A0D000A0A0D2050726F60
:102EA8006772616D6D696E6720436F6D706C6574D4
:102EB8006564205375636365737366756C6C7921FB
:102EC8000A0D2D2D2D2D2D2D2D2D2D2D2D2D2D2D6D
:102ED8002D2D2D2D2D2D2D2D2D2D2D2D2D2D2D2D1A
:102EE8002D2D0D0A204E616D653A20000A0D2053E4
:102EF800697A653A20002042797465730D0A002DBD
:102F08002D2D2D2D2D2D2D2D2D2D2D2D2D2D2D2DE9
:102F18002D2D0A000A0A0D54686520696D616765E0
:102F28002073697A6520697320686967686572200B
:102F38007468616E2074686520616C6C6F77656475
:102F4800207370616365206D656D6F7279210A0D5C
:102F5800000A0A0D566572696669636174696F6E65
:102F6800206661696C6564210A0D000D0A0A4162D8
:102F78006F7274656420627920757365722E0A0D0C
:102F8800000A0D4661696C656420746F2072656380
:102F980065697665207468652066696C65210A0D27
:102FA800000A0A0D53656C65637420526563656990
:102FB80076652046696C650A0D0055706C6F616412
:102FC8006564466C617368496D6167652E62696EF8
:102FD800000A0D4572726F72204F636375727265D5
:102FE80064207768696C65205472616E736D6974CA
:102FF80074696E672046696C650A0D000A0D46699A
:103008006C652075706C6F616465642073756363AB
:1030180065737366756C6C79200A0D0000000000FA
:103028000000000001020304060708090000000070
:10303800010203041000002000000000000000004E
:103048000000000000000000000000000000000078
:103058000000000000000000000000000000000068
:103068000000000000000000000000000000000058
:103078000000000000000000000000000000000048
:103088000000000000000000000000000000000038
:08309800000000000000000030
:0430A00031010008F2
:0430A4000D01000812
:1030A800010000001000000000A24A0410000020E7
:1030B8000000000060300008803000084030000840
:1030C80000000000000000000000000000000000F8
:1030D80000000000000000000000000000000000E8
:1030E80000000000000000000000000000000000D8
:1030F80000000000000000000000000000000000C8
:1031080000000000000000000000000000000000B7
:040000050800206966
:00000001FF
