:020000040800F2
:1000000000000320A141000821410008234100080D
:100010002541000827410008294100080000000090
:100020000000000000000000000000002B4100085C
:100030002D410008000000002F410008F141000898
:10004000F1410008F1410008F1410008F1410008C8
:10005000F1410008F1410008F1410008F1410008B8
:10006000F1410008F1410008F1410008F1410008A8
:10007000F1410008F1410008F1410008F141000898
:10008000F1410008F1410008F1410008F141000888
:10009000F1410008F1410008F1410008F141000878
:1000A000F1410008F1410008F1410008F141000868
:1000B000F1410008F1410008F1410008F141000858
:1000C000F1410008F1410008F1410008F141000848
:1000D000F1410008F1410008F1410008F141000838
:1000E000F1410008F1410008F1410008F141000828
:1000F000F1410008F1410008F1410008F141000818
:10010000F1410008F1410008F1410008F141000807
:10011000F1410008F141000831410008F1410008B7
:10012000F1410008F1410008F1410008F1410008E7
:10013000F1410008F1410008F1410008F1410008D7
:10014000F1410008F1410008F1410008F1410008C7
:10015000F1410008F1410008F1410008F1410008B7
:10016000F1410008F1410008F1410008F1410008A7
:10017000F1410008F1410008F141000800000000D1
:10018000F1410008F1410008F1410008F141000887
:10019000F1410008F1410008F1410008F141000877
:0C01A0003D410008F14100084941000801
:1001AC0010B5054C237833B9044B13B10448AFF3A5
:1001BC0000800123237010BD4C00002000000000C3
:1001CC004C42000808B5034B1BB103490348AFF37D
:1001DC00008008BD00000000500000204C420008C8
:1001EC0053B94AB9002908BF00281CBF4FF0FF3192
:1001FC004FF0FF3000F07AB9ADF1080C6DE904CE88
:10020C0000F006F8DDF804E0DDE9022304B07047E5
:10021C002DE9F0478C460D460446089E002B51D123
:10022C008A4217466DD9B2FA82FEBEF1000F0BD08E
:10023C00CEF1200C01FA0EF520FA0CFC02FA0EF7A6
:10024C004CEA050C00FA0EF44FEA174A250CBCFBDD
:10025C00FAF81FFA87F90AFB18CC45EA0C4508FB9B
:10026C0009F3AB420AD9ED1908F1FF3280F0238172
:10027C00AB4240F22081A8F102083D44ED1AA4B231
:10028C00B5FBFAF00AFB105544EA054400FB09F9EA
:10029C00A14509D9E41900F1FF3380F00A81A14589
:1002AC0040F2078102383C44A4EB090440EA0840C0
:1002BC000021002E61D024FA0EF400233460736008
:1002CC00BDE8F0878B4207D9002E54D0002186E878
:1002DC0021000846BDE8F087B3FA83F1002940F00D
:1002EC008E80AB4202D3824200F2FA80841A65EB14
:1002FC0003050120AC46002E3FD086E81010BDE867
:10030C00F08712B90127B7FBF2F7B7FA87FEBEF1F7
:10031C00000F34D1EB1B3A0C1FFA87FC0121B3FB05
:10032C00F2F8250C02FB183345EA03450CFB08F3E5
:10033C00AB4207D9ED1908F1FF3002D2AB4200F203
:10034C00D1808046ED1AA3B2B5FBF2F002FB10553A
:10035C0043EA05440CFB00FCA44507D9E41900F161
:10036C00FF3302D2A44500F2B8801846A4EB0C046B
:10037C0040EA08409DE731463046BDE8F087CEF1B3
:10038C00200405FA0EF307FA0EF720FA04F83A0CDB
:10039C0025FA04F448EA0308B4FBF2F14FEA1845D5
:1003AC0002FB11441FFA87FC45EA044501FB0CF3E0
:1003BC00AB4200FA0EF409D9ED1901F1FF3080F0CF
:1003CC008A80AB4240F2878002393D44EB1A1FFA17
:1003DC0088F5B3FBF2F002FB103345EA034500FB52
:1003EC000CF3AB4207D9ED1900F1FF386FD2AB42D9
:1003FC006DD902383D44EB1A40EA01418FE7C1F157
:10040C00200722FA07F88B4005FA01F448EA0303A7
:10041C0020FA07FE4FEA134CFD404EEA040EB5FBE2
:10042C00FCF94FEA1E440CFB19551FFA83F844EAF9
:10043C00054509FB08F4AC4202FA01F200FA01FA94
:10044C0008D9ED1809F1FF3043D2AC4241D9A9F1DA
:10045C0002091D442D1B1FFA8EFEB5FBFCF00CFB94
:10046C0010554EEA054400FB08F8A04507D9E418DE
:10047C0000F1FF3529D2A04527D902381C4440EAA7
:10048C000940A4EB0804A0FB02894C45C6464D4626
:10049C0015D312D056B1BAEB0E0364EB050404FA73
:1004AC0007F7CB401F43CC40376074600021BDE898
:1004BC00F0871846F8E69046E0E6C245EAD2B8EB7B
:1004CC00020E69EB03050138E4E72846D7E74046FE
:1004DC0091E78146BEE7014678E702383C4445E7A0
:1004EC00084608E7A8F102083D442BE7704700BF17
:1004FC00F02070474FF4A0707047292000F032BAFA
:10050C00282000F02FBA08B500F0B4F9CA2000F08A
:10051C0029FAC32000F00AFA082000F007FA50204C
:10052C0000F004FACF2000F01DFA002000F0FEF9D4
:10053C00C12000F0FBF9302000F0F8F9ED2000F0BC
:10054C0011FA642000F0F2F9032000F0EFF9122008
:10055C0000F0ECF9812000F0E9F9E82000F002FA53
:10056C00852000F0E3F9002000F0E0F9782000F09D
:10057C00DDF9CB2000F0F6F9392000F0D7F92C206A
:10058C0000F0D4F9002000F0D1F9342000F0CEF9BD
:10059C00022000F0CBF9F72000F0E4F9202000F065
:1005AC00C5F9EA2000F0DEF9002000F0BFF90020C8
:1005BC0000F0BCF9B12000F0D5F9002000F0B6F93C
:1005CC001B2000F0B3F9B62000F0CCF90A2000F0A3
:1005DC00ADF9A22000F0AAF9C02000F0C3F9102058
:1005EC0000F0A4F9C12000F0BDF9102000F09EF934
:1005FC00C52000F0B7F9452000F098F9152000F05F
:10060C0095F9C72000F0AEF9902000F08FF9362054
:10061C0000F0A8F9C82000F089F9F22000F0A2F946
:10062C00002000F083F9B02000F09CF9C22000F00B
:10063C007DF9B62000F096F90A2000F077F9A72092
:10064C0000F074F9272000F071F9042000F06EF925
:10065C002A2000F087F9002000F068F9002000F053
:10066C0065F9002000F062F9EF2000F05FF92B2013
:10067C0000F078F9002000F059F9002000F056F94C
:10068C00012000F053F93F2000F050F9F62000F063
:10069C0069F9012000F04AF9002000F047F9062022
:1006AC0000F044F92C2000F05DF9C82000F0ACF902
:1006BC00262000F057F9012000F038F9E02000F076
:1006CC0051F90F2000F032F9292000F02FF92420E5
:1006DC0000F02CF90C2000F029F90E2000F026F97E
:1006EC00092000F023F94E2000F020F9782000F0CA
:1006FC001DF93C2000F01AF9092000F017F913201D
:10070C0000F014F9052000F011F9172000F00EF993
:10071C00112000F00BF9002000F008F9E12000F0A6
:10072C0021F9002000F002F9162000F0FFF81B2040
:10073C0000F0FCF8042000F0F9F8112000F0F6F8B5
:10074C00072000F0F3F8312000F0F0F8332000F02F
:10075C00EDF8422000F0EAF8052000F0E7F80C2054
:10076C0000F0E4F80A2000F0E1F8282000F0DEF8B0
:10077C002F2000F0DBF80F2000F0D8F8112000F04B
:10078C00F1F8C82000F040F9292000F0EBF82C20FB
:10079C00BDE8084000F0E6B808B500F06BF803219E
:1007AC00D32000F0FBF880B208BD000010B5214C3E
:1007BC0088B0204602F09EFB002838D11E4B2360E7
:1007CC001823E3610723E3624FF40073A3614FF432
:1007DC0082736360194B0190A06060612061A0621C
:1007EC00E060206260625A6C42F480125A645A6C67
:1007FC0002F480120192019A02901A6B104842F096
:10080C0020021A631B6B03F020030293029B4FF42C
:10081C00607303930223049305930123069303A9A6
:10082C000523079301F02AF8204602F0E1F808B0FE
:10083C0010BD00BF6C000020005001400038024089
:10084C000014024007B5094B02A91B6821F8020DE0
:10085C000122074802F01FF920B1054802F005F902
:10086C00FFF7A4FF03B05DF804FB00BF38000020C5
:10087C006C000020F0B5294B1D7889B0002D4AD1B1
:10088C00274C009501261E70236B264843F0080365
:10089C002363236B049603F0080300930227009B49
:1008AC0005954FF4005303A90393069700F0E6FF58
:1008BC000195236B1B4843F008032363236B0496B9
:1008CC0003F008030193019B05954FF4805303A992
:1008DC000393069700F0D2FF0295236B124843F066
:1008EC0004032363236B049603F004030424029390
:1008FC0003A9029B03940595069700F0BFFF2A46B7
:10090C002146094801F040F932462146064801F0DB
:10091C003BF9FFF74BFF09B0F0BD00BF68000020AA
:10092C0000380240000C02400008024038B50B4C65
:10093C00054601224FF40051094801F025F9002227
:10094C000421204601F020F92846FFF77BFF2046C2
:10095C0001220421BDE8384001F016B9000802401C
:10096C00000C024038B50B4C054600224FF40051E8
:10097C00094801F009F900220421204601F004F98C
:10098C002846FFF75FFF204601220421BDE83840CE
:10099C0001F0FAB800080240000C024037B50546D9
:1009AC000C4600220421144801F0EEF800224FF40A
:1009BC000051124801F0E8F82846FFF743FF104BAE
:1009CC0010481B68224601A902F0FDF920B10D4820
:1009DC0002F04BF8FFF7EAFE01224FF400510748F2
:1009EC00019C01F0D1F801220421034801F0CCF85C
:1009FC00204603B030BD00BF00080240000C02408E
:100A0C00380000206C00002000F032BC2DE9F743C8
:100A1C00154C0B9D98464FF4403363600023A36044
:100A2C000A9BE3608146114B236020460E46174615
:100A3C0000F086FDA0B94946204600F0D5FE78B9F5
:100A4C00CDF800803B4632462946204600F0A4FDF6
:100A5C0030B90A21204603B0BDE8F04300F0B6BD22
:100A6C0003B0BDE8F08300BFC800002000B0024016
:100A7C0008B5024B1B689B6A984708BDBC02002056
:100A8C0008B5024B1B68DB6A984708BDBC02002006
:100A9C0070B58EB000240E4605460194FFF7E8FFB2
:100AAC0003940290FFF7ECFFFF2306934FF4C0630F
:100ABC00089307230993059407948DF834408DF817
:100ACC0035408DF8364004900A96FFF7D1FF0B9015
:100ADC00FFF7D6FF0B4C0C902A4601A9204601F0DB
:100AEC008DFA094B0C2068431A184FF0FF315160F6
:100AFC00064991604FF07F421A50204601F0A8FA47
:100B0C000EB070BD14020020080100203C00002033
:100B1C00014B1860704700BFC4000020034B1A68DB
:100B2C000C235343024AD050704700BFC40000202E
:100B3C0008010020034B044A1B680C2101FB032312
:100B4C0058607047C4000020080100200C4BF7B51A
:100B5C001C680C4A342303FB04230746DD6DFFF7A6
:100B6C0087FF0646FFF78CFF00230093019703468F
:100B7C00324629462046FFF749FF03B0F0BD00BFBF
:100B8C00C400002014020020024B1B689B6803B1B8
:100B9C0018477047BC02002030B58FB0494B4A4D06
:100BAC004A484B4C00220192596C41F080615964C7
:100BBC00596C01F08061019101990292196B41F419
:100BCC0000011963196B01F400010291029903925F
:100BDC00196B41F001011963196B01F001010391CB
:100BEC0003990492196B41F002011963196B01F01E
:100BFC000201049104990592196B41F004011963E7
:100C0C00196B01F00401059105990692196B41F0DD
:100C1C0008011963196B01F00801069106990792F6
:100C2C00196B41F020011963196B01F02001079138
:100C3C0007990892196B41F0400119631B6B0B92D9
:100C4C0003F040030893089B41F6580309930223D1
:100C5C000A930C9309A90E230D9300F00FFE4FF489
:100C6C00706309A92846099300F008FE4FF49863B5
:100C7C0009A91848099300F001FE482309A9164850
:100C8C00099300F0FBFD4FF4806309A91348099305
:100C9C0000F0F4FD4FF40C6309A92046099300F011
:100CAC00EDFD0323099309A9092328460D9300F0B0
:100CBC00E5FD4FF4A05309A92046099300F0DEFD91
:100CCC000FB030BD0038024000040240000002406A
:100CDC000018024000080240000C024000140240C0
:100CEC0038B5224C224B2360092363610123A36195
:100CFC001D23E3610323236240F20D13636240F270
:100D0C004313A36240F217131A48E36240F24713ED
:100D1C00236308230360C02303610423002583613C
:100D2C004FF40033436284F8365084F8345084F81E
:100D3C00355001F069FC6560A560E5602561FFF741
:100D4C002BFF204601F08EF80B4A0C4B13601B68EE
:100D5C00984700F023FA0A4B0A4A1B680C2101FB46
:100D6C000323094A9A60284638BD00BF14020020AC
:100D7C000068014020010020BC020020000000207F
:100D8C00C4000020080100203C000020F8B5084BEE
:100D9C0016461B68074A0C46342101FB0323074601
:100DAC00DD6DFFF765FE00FB047045F82060F8BDB3
:100DBC00C4000020140200202DE9F04F2F4B85B009
:100DCC001B6802912E4901900C2000FB0313A2F129
:100DDC0020049968B1F804A0B1F806B00A680AF1C9
:100DEC000706F6100BFB04F4CAEBC60006FB042442
:100DFC000AF1FF3252FA80F34FF000080393029B82
:100E0C00D84503EB08091FFA89F902D305B0BDE8F0
:100E1C00F08F012E09D0022E0FD0657822782D028A
:100E2C0045EA0245A278154300E025780027BA452B
:100E3C0008D808F101083444E1E72278657845EADE
:100E4C000225F3E7039B0122D91B8A400B492A4256
:100E5C0009684FF00C020AD0019B4A43D819084B81
:100E6C009A58494680B2FFF791FF0137DFE7044BF0
:100E7C0002FB0132019B5268D819F2E7C400002032
:100E8C00080100202DE9F74F9A4604460F461646F6
:100E9C001346A3EB060913F8012B002AF9D1FFF72F
:100EAC00E7FD254B254D1A680C2101FB0252BAF1C6
:100EBC00010F926898469288B0FBF2F021D0BAF1FB
:100ECC00020F25D0B3464FF00C0A9BF800200032DD
:100EDC0018BF01220192FFF7CBFDD8F800300AFBB6
:100EEC000353ABEB06099B689B881FFA89F903FB3C
:100EFC00190080B2984201D3019A72B903B0BDE8CF
:100F0C00F08FA0EB0900504304EB500084B2D9E7FA
:100F1C00A0EB090010FB0240F8E720461BF8012B60
:100F2C003946FFF749FFD8F800300AFB03539B689A
:100F3C009888204484B2C8E7C4000020080100202F
:100F4C00094B0A4A1B6810B40C2404FB03230A4601
:100F5C009B685DF8044BDB8813FB00F081B2032324
:100F6C000020FFF78FBF00BFC40000200801002045
:100F7C002DE9F347234C244D01264FF00008082798
:100F8C00214682464FF6FF722846CDF8048084E84D
:100F9C00C000A660C4F80C8001F06EFC304600F076
:100FAC0067F9022321464FF6FF72284684E8880031
:100FBC004FF00409A660C4F80C8001F05DFC03231B
:100FCC0021464FF6FF72284684E88800C4F8089042
:100FDC00C4F80C8001F050FC4FF40C730193019B8E
:100FEC00E3604FF6FF7221462846C4F80090676014
:100FFC00A66001F041FC5146284601F054FC02B0B9
:10100C00BDE8F087500100206001002070B5064655
:10101C008EB0002800F0AD80574B58480025019544
:10102C009A6B42F001029A639A6B02F001020192F0
:10103C00019A02951A6B42F480021A631A6B02F43D
:10104C0080020292029A03951A6B42F002021A6312
:10105C001A6B02F002020392039A04951A6B42F087
:10106C0004021A631A6B02F004020492049A0595A6
:10107C001A6B42F008021A631A6B02F0080205920E
:10108C00059A06951A6B42F010021A631A6B02F05D
:10109C0010020692069A07951A6B42F020021A6308
:1010AC001A6B02F020020792079A08951A6B42F00D
:1010BC0040021A631B6B0B9503F040030893089BCB
:1010CC0002230EAC0A930C930C230D93602344F86B
:1010DC00143D214600F0D2FB0123214628480993F8
:1010EC0000F0CCFB4CF2037321462648099300F028
:1010FC00C5FB4FF6837321462348099300F0BEFBD2
:10110C004FF63F0321462148099300F0B7FB2146D7
:10111C0048F233131E4C1F48099300F0AFFB802399
:10112C00A3604FF40073E3604FF4806323614FF4CA
:10113C00805363614FF48043A3614FF40033236207
:10114C000323A3622563144B34632046236065603C
:10115C00E5616562E562A66300F086F9204600F061
:10116C0005F938202A460F2100F0A8F8382000F0A5
:10117C00D9F80EB070BD00BF003802400004024028
:10118C0000080240000C0240001002400014024013
:10119C00B0010020001802401064024070B51A4CD7
:1011AC001A4D1B4B236002232B602B616B61AB61CF
:1011BC0010232361402363614FF4C0730721A361A3
:1011CC004FF4006304226960E96001260021236268
:1011DC0020464FF40053E260A362AA606660A160EF
:1011EC00E1616162FFF712FF2946204601F024FB02
:1011FC00084C002814BF30460020207040F26A5082
:10120C00FFF7B6FE207870BD60010020940100202D
:10121C00400100A04400002008B50B4B1A6842F4B2
:10122C0000721A601A6842F480621A601A6842F4FA
:10123C0080721A60032000F02FF8002002F02CFFBF
:10124C0002F0C0FC002008BD003C0240034A044BE5
:10125C0011681B780B441360704700BFC00200205C
:10126C0045000020014B1868704700BFC0020020E9
:10127C0038B50446FFF7F6FF631C1CBF054B1B7803
:10128C00054618BFE418FFF7EDFF401B8442FAD85F
:10129C0038BD00BF45000020074AD36823F4E06343
:1012AC001B041B0C43F0BF63000243F4003300F437
:1012BC00E0600343D360704700ED00E0174B30B59E
:1012CC00DC68C4F30224C4F10703251D042B28BFDA
:1012DC000423062D4FF0010505FA03F303F1FF3348
:1012EC008CBF033C00241940A14005FA04F4013CD6
:1012FC002240002842EA01024FEA0212ADBF00F17F
:10130C00604000F00F00064B00F56140B5BFD2B253
:10131C00D2B21A5480F8002330BD00BF00ED00E0BB
:10132C0014ED00E0002808DB4209012300F01F0047
:10133C0003FA00F0014B43F82200704700E100E093
:10134C000368DAB223F47F7323F003031821103AF5
:10135C00B2FBF1F20449032A88BF0433895C83652C
:10136C00C165806D704700BF1C5D000870B50446F8
:10137C00FFF778FF0546002C71D0002384F8343039
:10138C002268022384F83530136823F001031360BC
:10139C0021680B68D8073CD40B68324D6268A06991
:1013AC001D40A3681343E268134322691343626927
:1013BC001343E26903431343226A1343626A042A08
:1013CC0043EA050301BF266BE56A35432B430B60EB
:1013DC004B69042A23F0070343EA02030BD1A26AE8
:1013EC00E56A13433DB1F8B9012A2DD001D3022A85
:1013FC0001D1EA012BD44B612046FFF7A1FFE26D2E
:10140C003F239340836000200123606584F83530CE
:10141C0070BDFFF727FF401B0528B9D92023636552
:10142C00032084F8350070BDB0F5005F13D1032A9A
:10143C00E1D801A050F822F05B140008FF1300085B
:10144C005B14000855140008B5F1C07FD3D14023BC
:10145C0063650120E5E7022AF9D9032AC8E70120D0
:10146C0070BD00BF3F8010F038B5054620B390F832
:10147C003540E4B2022C1DD003681A6822F0010238
:10148C0000241A6021221C605C609C60DC601C6182
:10149C005A61FFF755FFEA6DEC633F2393402C64D0
:1014AC006C64AC64EC642C6583606C6585F83440CA
:1014BC0085F83540204638BD012038BD70B504682C
:1014CC00049D666C45EA034306F04046334363646F
:1014DC004368E263B3F5403F30D186681EB1012EFC
:1014EC0003D121F07F41A16370BD022E01F47F0373
:1014FC0001F47F45C8B207D1D90CAD0AC90241EA43
:10150C00451141EAD001EEE7032E01F07F420AD1EA
:10151C00DB0CED0A9B0243EA451343EAD003D10FDF
:10152C0043EAC131DFE7190D2D0B090241EA051120
:10153C0041EA1011130F41EA0331D4E7E16070BDA9
:10154C0010B5044630B390F8393003F0FF021BB9E4
:10155C0080F8382002F052FB22686168022384F87C
:10156C003930136823F440330B431360536BA16879
:10157C0023F007030B435363136CE16823F47F538D
:10158C0023F03F030B43136400200123E06384F832
:10159C00393010BD012010BD73B590F83840012CC6
:1015AC0005464FF002040FD080F839400126069C06
:1015BC0080F838600094FFF781FF2A681368334382
:1015CC001360002002B070BD2046FBE773B500230A
:1015DC00019303681B68DB0704460D4617D4226889
:1015EC00D369526A13439E0606D5FFF73BFE0646A7
:1015FC0023685A68D20643D5236812229A600020C9
:10160C00012384F8393084F8380002B070BDFFF73C
:10161C0029FE064623685A689207E0D45A6801925C
:10162C00019A12F0210F17D0019A950642BFE26B76
:10163C0042F00202E263019AD00742BFE26B42F031
:10164C000102E26321229A60042384F839300023DA
:10165C0084F838300120D8E7691CDCD0FFF702FE93
:10166C00801B854201D3002DD4D1E36B43F02003C2
:10167C00E3630320002384F8390084F83830C4E78E
:10168C005A680192019A12F0290F16D0019A160786
:10169C0042BFE26B42F00402E263019A950642BF3C
:1016AC00E26B42F00202E263019AD00742BFE26BA6
:1016BC0042F00102E2632922C5E7691C99D0FFF7C9
:1016CC00D1FD801B8542D0D3002D91D1CDE7704741
:1016DC007047036870B55E681D68F207044614D540
:1016EC00E90512D51A6822F480721A60C26B42F0B6
:1016FC000102C26301229A60042380F8393000236E
:10170C0080F83830436903B19847B20616D5AB045C
:10171C0014D523681A6822F400521A6020229A60A9
:10172C00E36B43F00203E363042384F839300023B2
:10173C0084F8383063690BB120469847300716D5CA
:10174C00290514D523681A6822F400621A6008224D
:10175C009A60E36B43F00403E363042384F83930A9
:10176C00002384F8383063690BB120469847720720
:10177C000BD56B0509D523681A6822F480621A60B0
:10178C0004229A602046FFF7A2FFB00714D5A905E2
:10179C0012D523681A6822F400721A6002229A6029
:1017AC00E36BE363012384F83930002384F8383089
:1017BC0023690BB120469847F20613D5EB0411D5DB
:1017CC0023681A6822F480521A6010229A60E36B24
:1017DC00E363012384F83930002384F83830204641
:1017EC00FFF776FF70BD000090F83830012BF0B594
:1017FC004FF0020336D00E0180F8393083190122E4
:10180C00DD6980F838201A6A5C6A1B4F036845EA68
:10181C000242093D012D0FD804F07F4E4EEA020220
:10182C0069B9596A39400A435A6282699A61426AB3
:10183C0022F07F429A620FE042EA0462A1B1D969B8
:10184C00064439400A43012DDA6198BF24F07F44E5
:10185C00B2691A6198BF1C62012380F839300023E9
:10186C0080F838301846F0BD596A39400A435A623C
:10187C0082699A61F0E700BFF0FFFC002DE9F04FA0
:10188C0085B00B68DFF8C4816E4ADFF8C491019310
:10189C0000234FF0010E019C0EFA03FE0EEA040623
:1018AC00B64540F0B6804C6824F01007022F16D1D4
:1018BC004FEAD30A00EB8A0A03F0070BDAF8205040
:1018CC004FEA8B0B4FF00F0C0CFA0BFC25EA0C0CAF
:1018DC000D6905FA0BF545EA0C05CAF820504FEADC
:1018EC00430A0325D0F800B005FA0AF5ED4304F0DD
:1018FC00030C0BEA050B0CFA0AFC013F4CEA0B0C2F
:10190C00012FC0F800C011D8876807EA050BCF6813
:10191C0007FA0AFC4CEA0B078760476827EA0E0EA9
:10192C00C4F300179F4047EA0E074760C7683D4065
:10193C008F6807FA0AF73D43C560E50069D54FF09B
:10194C00000BCDF80CB0D8F844703F4D47F48047ED
:10195C00C8F84470D8F8447007F480470397039F85
:10196C0023F0030707F1804707F59C3703F0030CBE
:10197C00D7F808A04FEA8C0C4FF00F0E0EFA0CFEA5
:10198C00A8422AEA0E0E4BD005F58065A84249D034
:10199C0005F58065A84247D005F58065A84245D07D
:1019AC0005F58065A84243D0484543D005F5006550
:1019BC00A84241D005F58065A8423FD005F5806569
:1019CC00A8423DD005F58065A84214BF0A2509251B
:1019DC0005FA0CF545EA0E05BD601568F74314F4DD
:1019EC00803F0CBF3D4035431560556814F4003FF3
:1019FC000CBF3D4035435560956814F4801F0CBFF7
:101A0C003D4035439560D568A40254BF3D403543F5
:101A1C00D5600133102B7FF43CAF05B0BDE8F08FDF
:101A2C005D46D5E70125D3E70225D1E70325CFE7AE
:101A3C000425CDE70525CBE70625C9E70725C7E72C
:101A4C000825C5E7003C0140000002400038024078
:101A5C00001402402DE9F04F464DDFF82091DFF8DD
:101A6C0020A1DFF820B10022012303FA02FC0CEACA
:101A7C000104A44567D122F0030606F1804606F561
:101A8C009C3602F0030E3C4BD6F808804FEA8E0EC3
:101A9C000F2707FA0EF7984208EA070858D003F503
:101AAC008063984256D003F58063984254D003F576
:101ABC008063984252D003F58063984250D04845D9
:101ACC0050D0504550D0584550D003F580539842D3
:101ADC004ED003F5806398420CBF09230A2303FA06
:101AEC000EF3984510D1B36823EA0707B7602B684B
:101AFC00E44323402B606B6823406B60AB6823404E
:101B0C00AB60EB681C40EC60560003230468B340E8
:101B1C00DB431C400460D40800EB840402F0070E85
:101B2C00266A4FEA8E0E0F2707FA0EF726EA0707EA
:101B3C00276284681C408460446824EA0C04446076
:101B4C00C4682340C3600132102A8DD1BDE8F08FE8
:101B5C000023C4E70123C2E70223C0E70323BEE747
:101B6C000423BCE70523BAE70623B8E70723B6E747
:101B7C000823B4E7003C014000000240001402407E
:101B8C0000180240001C02400AB181617047090430
:101B9C00FBE7000070B5044608B9012070BD90F851
:101BAC003D3003F0FF021BB980F83C2002F044F8F2
:101BBC002268242384F83D30136823F0010313605A
:101BCC0000F0E4FC6568414B9D424DD8404B984277
:101BDC00E3D922683F495368B0FBF1F123F03F038E
:101BEC000B435360136A23F03F0301311943116215
:101BFC00D169364B21F44F419D4221F0FF0100F198
:101C0C00FF3048D86D00B0FBF5F00130C0F30B038A
:101C1C00042B38BF04230B43D3611168206AE3699A
:101C2C0021F0C00103430B4313609168E068236902
:101C3C0021F40341034321F0FF010B439360D1686E
:101C4C00A069636921F0FF0103430B43D360136860
:101C5C0043F00103136000202023206484F83D30FE
:101C6C00206384F83E0070BD1B4B984295D92268C6
:101C7C00184E5368B0FBF6F623F03F033343536022
:101C8C00136A4FF49671714323F03F034FF47A7645
:101C9C00B1FBF6F1A9E7A36853B905EB4503B0FB1B
:101CAC00F3F0431CC3F30B036BB143F40043B2E7F3
:101CBC0019236B43B0FBF3F0431CC3F30B0313B1B9
:101CCC0043F44043A7E70123A5E700BFA08601002A
:101CDC007F841E0040420F00FF083D0090F83D201D
:101CEC00D2B2202A10B516D1242380F83D300368D7
:101CFC001C6824F001041C605C6A24F010045C6213
:101D0C005C6A21435962196841F00101196080F83D
:101D1C003D20002010BD022010BD30B590F83D4094
:101D2C00E4B2202C16D10268242380F83D301568CB
:101D3C0025F001051560556A4FF6F0732B400B43E7
:101D4C009BB25362136843F00103136080F83D406B
:101D5C00002030BD022030BD2DE9F043D2010468D3
:101D6C004F68E568D1F800E0D1F818908432A318D8
:101D7C000EF10106586800F470405860E068C5F335
:101D8C000B45C0F30B403D44304440EA05405860DD
:101D9C00E068CD68C0F30A000544986800F4704010
:101DAC009860E6688868C6F30A060130304440EA59
:101DBC000540986018690E6920F0070018614FF013
:101DCC00000C1E619D6991F8320091F83180C3F8C6
:101DDC0018C091F8305045EA096545EA082545EAEE
:101DEC0000459D61586920F0FF00586148695861B1
:101DFC00D86920F4E06020F00700D861086ACD694A
:101E0C000543DD61986A486AC3F828C098621EB31E
:101E1C00012E23D0B01E022822D9072E0CBF02207F
:101E2C000120DD6A05F0E025DD628D6AC96AA7EB49
:101E3C000E0745437843033040EA0540D862186BDF
:101E4C0020F4FF6020F0070018631963A35843F0D7
:101E5C000103A350BDE8F0830420E2E70320E0E790
:101E6C000220DEE738B50446002863D090F8A13094
:101E7C0003F0FF021BB980F8A02001F031FF022310
:101E8C0084F8A1302368A0689A6922F070429A61A4
:101E9C00626899690243E0680243206902430A437D
:101EAC009A619A68244960690A409A609A6842EA81
:101EBC000042A06902439A60DA68E0690A40DA607D
:101ECC00DA6842EA0042206A0243DA601A69606A00
:101EDC000A401A611A6942EA0042A06A02431A6176
:101EEC005A69114059615A69E16A42EA0142216B0F
:101EFC000A435A61D96A94F8360094F8355001F0C7
:101F0C007F41D962D96A94F834200A4342EA052207
:101F1C0042EA0042DA625A6B42F006025A639A694C
:101F2C0042F001029A6100200123C4F8A40084F855
:101F3C00A13038BD012038BD00F800F07047704763
:101F4C007047036870B59E6B5D6B7207044614D5C1
:101F5C00690712D55A6B22F004025A630422DA6321
:101F6C00D0F8A43043F00103C0F8A430002380F86B
:101F7C00A12080F8A030FFF7E1FFB20716D5AB0720
:101F8C0014D523685A6B22F002025A630222DA63D8
:101F9C00D4F8A4301343C4F8A430042384F8A1303B
:101FAC00002384F8A0302046FFF7C8FFF00710D5B7
:101FBC00E9070ED523685A6B22F001025A630122FD
:101FCC00DA63002384F8A12084F8A0302046FFF7C0
:101FDC00B6FF320711D52B070FD523685A6B22F0A9
:101FEC0008025A630822DA63012384F8A130002323
:101FFC0084F8A0302046FFF7A3FF70BDF8B590F829
:10200C00A030012B06468E4694464FF002001DD0A0
:10201C0034240D4686F8A10004FB02640FCD012781
:10202C00383486F8A0700FC40FCD0FC40FCD0FC479
:10203C002B682360304662467146FFF78DFE33688D
:10204C0000205F6286F8A17086F8A000F8BD000041
:10205C0090F8A030012B4FF002030CD0074A80F807
:10206C00A130936943F480339361012380F8A1304C
:10207C00002380F8A0301846704700BF006801406C
:10208C0037B500230193184B184C1A6C42F0805250
:10209C001A641B6C03F080530193019B144B0122B7
:1020AC001A60FFF7DFF805466368DA030BD5114BAE
:1020BC000E4C01221A60FFF7D5F8054663689B03A6
:1020CC000AD5002006E0FFF7CDF8401BB0F57A7F6B
:1020DC00EAD9032003B030BDFFF7C4F8401BB0F5BC
:1020EC007A7FEBD9F5E700BF003802400070004062
:1020FC0040000E4244000E422DE9F341044618B94B
:10210C00012002B0BDE8F0810368DD0710D423681C
:10211C00980758D423681A0700F19A8023685B0744
:10212C0000F1B880A269002A40F019810020E8E78C
:10213C00A64B9A6802F00C02042A07D09A6802F0A7
:10214C000C02082A0AD15B68590207D59F4B1B6801
:10215C009A03DCD56368002BD9D1D1E763689B4D1A
:10216C00B3F5803F11D12B6843F480332B60FFF71C
:10217C0079F8964D06462B689B03C8D4FFF772F886
:10218C00801B6428F7D90320BBE7B3F5A02F04D13B
:10219C002B6843F480232B60E5E72A6822F4803215
:1021AC002A602A6822F480222A60002BDFD1FFF7F4
:1021BC0059F806462B689F03A9D5FFF753F8801BE7
:1021CC006428F7D9DFE7814B9A6812F00C0F07D01F
:1021DC009A6802F00C02082A11D15B685E020ED4D8
:1021EC007A4B1A68950702D5E268012A88D11A68D9
:1021FC00216922F0F80242EAC1021A608AE7E26819
:10220C00734BB2B101221A60FFF72CF86F4D0646E2
:10221C002B68980707D52B68226923F0F80343EA4B
:10222C00C2032B6076E7FFF71DF8801B0228EFD95D
:10223C00A9E71A60FFF716F8644D06462B68990754
:10224C007FF568AFFFF70EF8801B0228F6D99AE7E6
:10225C006269604B7AB101221A60FFF703F85B4D9B
:10226C0006466B6F9F073FF559AFFEF7FBFF801BD0
:10227C000228F6D987E71A60FEF7F4FF534D06469D
:10228C006B6F98077FF54AAFFEF7ECFF801B0228B7
:10229C00F6D978E74D4B1A6C12F0805228D1019286
:1022AC001A6C42F080521A641B6C03F08053019339
:1022BC00019B0126484D2B68D9051BD5A368434DBE
:1022CC00012B27D12B6F43F001032B67FEF7CAFFBD
:1022DC003E4D074641F288382B6F9B0739D5002EAF
:1022EC003FF420AF394A136C23F08053136419E781
:1022FC000026DFE72B6843F480732B60FEF7B2FFF8
:10230C0007462B68DA05D9D4FEF7ACFFC01B0228B0
:10231C00F7D938E7052B04D12B6F43F004032B6757
:10232C00D0E72A6F22F001022A672A6F22F00402FA
:10233C002A67002BCAD1FEF795FF41F28838074671
:10234C002B6F9807CBD5FEF78DFFC01B4045F7D9F7
:10235C0019E7FEF787FFC01B4045BDD913E71B4D9E
:10236C00AB6803F00C03082B3FF4CAAE1B4E0023E2
:10237C00022A336034D1FEF775FF07462B689901AA
:10238C001ED4226AE3691343626A43EA8213E26A47
:10239C0043EA0263A26A0D4C5208013A43EA024333
:1023AC006B6001233360FEF75DFF054623689A01DD
:1023BC003FF5BCAEFEF756FF401B0228F6D9E2E60D
:1023CC00FEF750FFC01B0228D8D9DCE600380240CB
:1023DC0000004742800E47420070004060004742B8
:1023EC00FEF740FF04462B689B017FF59FAEFEF77E
:1023FC0039FF001B0228F6D9C5E600BF134908B502
:10240C008B6803F00C03042B03D0082B03D010486B
:10241C0008BD104808BD4A684B68496813F480032E
:10242C0014BF0C480A48C1F3881118BF002302F0EE
:10243C003F02A1FB0001FDF7D3FE044B5B68C3F325
:10244C00014301335B00B0FBF3F008BD00380240E0
:10245C000024F40000127A002DE9F0410D460446E8
:10246C0010B90120BDE8F081444B1A6802F00F024C
:10247C008A4228D321688F072DD4C80740D43F4BFC
:10248C001A6802F00F02954266D3226851076CD489
:10249C00130707D53A4A2169936823F4604343EA4A
:1024AC00C1039360FFF7AAFF354B364A9B68C3F311
:1024BC000313D35CD840344B1860002001F0ECFDC2
:1024CC000020BDE8F081CAB21A701B6803F00F033C
:1024DC009942C6D1CEE72A4B11F0040F1EBF9A6861
:1024EC0042F4E0529A600E0742BF9A6842F460428E
:1024FC009A609A68A06822F0F00202439A60BCE7E6
:10250C0062681F4B012A1DD11B6813F4003FA8D031
:10251C001B4EB36823F003031343B360FEF7A2FE14
:10252C0041F288380746B368626803F00C03B3EBDA
:10253C00820FA4D0FEF796FEC01B4045F3D90320B2
:10254C00BDE8F081911E01291B6802D813F0007FB1
:10255C00DDE713F0020FDAE7EAB21A701B6803F03A
:10256C000F039D427FF47DAF8FE70549E0688B68D0
:10257C0023F4E05303438B608AE700BF003C024026
:10258C00003802402B5D000848000020044B054A2F
:10259C009B68C3F38223D35C034A1068D84070470E
:1025AC00003802403B5D000848000020044B054AFF
:1025BC009B68C3F34233D35C034A1068D84070471E
:1025CC00003802403B5D0008480000200F230360E8
:1025DC000B4B9A6802F0030242609A6802F0F00218
:1025EC0082609A6802F4E052C2609B68DB0803F4D4
:1025FC00E0530361034B1B6803F00F030B60704740
:10260C0000380240003C02400368F7B59A070446C4
:10261C0040F08880236813F00C0F44D0804D814E1D
:10262C0000232B60FEF71EFE074633689B0000F16B
:10263C00BD8021684F0715D56369D6F888202069BD
:10264C001B0602F0E04243EA80131343C6F88830BD
:10265C00D6F88C30226A23F4F853013A43EA022369
:10266C00C6F88C300E0714D56E4AA369D2F88810C0
:10267C0020691B0701F0706143EA80130B43C2F819
:10268C008830D2F88C30616A23F440330B43C2F8A3
:10269C008C3001232B60FEF7E5FD624D06462B685E
:1026AC00980040F18A8023689A0631D50023019363
:1026BC005C4B5D4D1A6C42F080521A641B6C03F03B
:1026CC0080530193019B2B6843F480732B60FEF7BE
:1026DC00C9FD06462B68D90576D5524D2B6F13F4E0
:1026EC00407377D1A36A03F44072B2F5407F4D4A30
:1026FC0040F09180916823F0704021F4F81120F49F
:10270C00407001439160116FC3F30B030B431367CC
:10271C00206810F010001FBF444B94F82C201A6056
:10272C00002041E0424D3F4E00232B60FEF79AFD06
:10273C00074633681B0131D42268D70706D5A36836
:10274C0061681B0743EA8113C6F88430900715D5DE
:10275C00344AE368D2F8841060681B0601F0E0414B
:10276C0043EA80130B43C2F88430D2F88C10E3692F
:10277C0021F01F01013B0B43C2F88C3001232B606D
:10278C00FEF770FD274D06462B6819013FF542AF49
:10279C00FEF768FD801B0228F6D904E0FEF762FD07
:1027AC00C01B0228C5D9032003B0F0BDFEF75AFDAB
:1027BC00C01B02287FF639AFF5E7FEF753FD801BEF
:1027CC0002287FF66CAFEEE7FEF74CFD801B02286B
:1027DC0080D9E8E7A26A02F44072934282D02B6F50
:1027EC00144A0121116023F44073002111602B67FE
:1027FC002B6FDA077FF576AFFEF734FD41F28837A1
:10280C0006462B6F9B073FF56DAFFEF72BFD801B2C
:10281C00B842F6D9C7E7916821F4F81172E700BF06
:10282C00700047420038024000700040E0114742FF
:10283C0068004742400E474238B50D460446C8B1C1
:10284C0090F82C3003F0FF021BB980F82D2001F01A
:10285C00B3FB022384F82C30211D206800F08AFE83
:10286C0062682068294600F0C4FE012384F82C30ED
:10287C00002038BD012038BD38B5044690F82C0036
:10288C00C0B202280D460DD0022384F82C302068EB
:10289C0000F0F7FE2B68022B0CBF0523012384F8F4
:1028AC002C30002038BD10B5044690F82C00C0B276
:1028BC00022809D0022384F82C30206800F006FF8F
:1028CC00012384F82C30002010BDF8B504460E46C8
:1028DC0015461F4621688A6836EA020301D000209B
:1028EC00F8BD6B1CF7D0FEF7BDFCC01B8542F1D8C0
:1028FC0023685A6822F0E0025A606268B2F5827F5F
:10290C000AD1A268B2F5004F02D0B2F5806F03D1A4
:10291C001A6822F040021A60A26AB2F5005F07D171
:10292C001A6822F400521A601A6842F400521A60B3
:10293C00012384F85130002384F850300320F8BD73
:10294C0038B513464268B2F5827F04461FD18268BF
:10295C00B2F5004F02D0B2F5806F07D12568286818
:10296C00B2F5806F20F04000286007D00A46802125
:10297C002046FFF7AAFF20B9002038BD0A460121E6
:10298C00F6E7636D43F020036365032038BD0A4608
:10299C000121EEE773B51346134A144E15684268CD
:1029AC00B5FBF6F64FF47A757543B2F5827F0446A3
:1029BC0001950DD10A468021FFF787FF10B9002041
:1029CC0002B070BD636D43F0200363650320F7E72D
:1029DC00019B002BF3D0019B013B019323689B6867
:1029EC001B06F5D4EBE700BF4800002000366E0153
:1029FC0010B50446002836D00023836290F851307D
:102A0C0003F0FF021BB980F8502001F02FFA216867
:102A1C00A068A269022384F851300B6823F04003AC
:102A2C000B6063680343E0680343206903436069F8
:102A3C000343E0690343206A0343A06A034302F49F
:102A4C00007003430B60120C636A02F004021A4319
:102A5C004A60CB6923F40063CB61002001236065DD
:102A6C0084F8513010BD012010BD10B5044680B162
:102A7C000268022380F85130136823F0400313607E
:102A8C0001F034FA0020606584F8500084F851009D
:102A9C0010BD012010BD2DE9F3411E4690F85030B9
:102AAC00012B04460D46904600F09B80012380F8D4
:102ABC005030FEF7D7FB074694F85100C0B20128FE
:102ACC0040F08D80002D5DD0B8F1000F5AD003235B
:102ADC0084F851300020A3686065A063A4F83680A8
:102AEC00A087E0876064206420682563B3F5004FFD
:102AFC0008BF0368A4F8348004BF43F48043036028
:102B0C0003685B065EBF036843F040030360E36841
:102B1C00B3F5006F63683ED113B1B8F1010F07D163
:102B2C0035F8023BC3602563E38E013B9BB2E38621
:102B3C00E38E9BB2A3B93A4631462046FFF72AFFF3
:102B4C00002849D1A36833B901932368DA6801924C
:102B5C009B680193019B606D003018BF012011E050
:102B6C0022689368980705D5236B33F8021BD16054
:102B7C002363D9E7FEF776FBC01BB042D8D3711C98
:102B8C00D6D00320012384F85130002384F8503030
:102B9C0002B0BDE8F08113B1B8F1010F08D12B7868
:102BAC000373236B01332363E38E013B9BB2E386F8
:102BBC00E38E9BB2002BBED023689A68920703D594
:102BCC00226B12781A73ECE7FEF74CFBC01B8642A3
:102BDC00EED8731CECD0D4E720236365B2E7022057
:102BEC00D0E70220D4E72DE9F7431E4690F8503089
:102BFC000A9F012B04460D46914600F0E28001230A
:102C0C0080F85030FEF72EFB94F851306168DBB23F
:102C1C00012B80460AD0B1F5827F40F0D080A068AD
:102C2C00002840F0CC80042B40F0C980002D00F02F
:102C3C00C480B9F1000F00F0C080002E00F0BD8000
:102C4C0094F85130C4F83890042B1CBF052384F839
:102C5C00513000236365236463642368E687E6864A
:102C6C001A68A687500658BF1A68256358BF42F0E9
:102C7C004002A68658BF1A60E268B2F5006F58D1C0
:102C8C0009B1012E07D135F8022BDA60E38E2563EA
:102C9C00013B9BB2E3860125E38E9BB2ABB9E38F7C
:102CAC009BB293B9424639462046FFF773FE002883
:102CBC0040F08180A368002B32D123680190DA6840
:102CCC0001929B680193019B2AE022689368990703
:102CDC000DD5E38E9BB253B14DB1236B33F8021B70
:102CEC00D1602363E38E013B9BB2E386002593689E
:102CFC00DB070CD5E38F9BB24BB1A36BD26823F8E7
:102D0C00022BA363E38F013B9BB2E3870125FEF704
:102D1C00A9FAA0EB08008742BED87E1CBCD00320C9
:102D2C00012384F85130002384F8503003B0BDE8FF
:102D3C00F08309B1012E08D12A781A73236B013361
:102D4C002363E38E013B9BB2E3860125E38E9BB2AA
:102D5C001BB9E38F9BB2002BA4D022689368980711
:102D6C000ED5E38E9BB25BB155B1236B1B781373FD
:102D7C00236B01332363E38E013B9BB2E386002577
:102D8C0022689368D9070DD5E38F9BB253B1A36B1F
:102D9C00D2681A70A36B0133A363E38F013B9BB220
:102DAC00E3870125FEF75EFAA0EB08008742CDD839
:102DBC007B1CCBD0B3E7202363650120B0E7022056
:102DCC00AEE70220B2E72DE9F3411D464368B3F5A7
:102DDC00827F0446884617460CD1836853B9042376
:102DEC0080F85130134600950A46FFF7FCFE02B0FE
:102DFC00BDE8F08194F85030012B79D0012384F890
:102E0C005030FEF72FFA064694F85100C0B2012854
:102E1C006CD1B8F1000F57D0002F55D0042384F893
:102E2C005130002363652363E787A386E38623641D
:102E3C006364A368A787B3F5004F2368C4F8388090
:102E4C0002BF1A6822F480421A601A6857065EBFE5
:102E5C001A6842F040021A60E368F3B1E38F9BB248
:102E6C00FBB123689A68D20735D5DA68A36B23F8CF
:102E7C00022BA363E38F013B9BB2E387EEE723684E
:102E8C009A68D00718D5A26B1B7B1370A36B013308
:102E9C00A363E38F013B9BB2E387E38F9BB2002BD1
:102EAC00EDD1324629462046FFF74AFDD8B9606D70
:102EBC00003018BF012007E0FEF7D4F9801B8542D3
:102ECC00EBD8691CE9D00320012384F8513000238E
:102EDC0084F850308BE7FEF7C5F9801B8542BDD8CE
:102EEC006B1CBBD0EFE720236365E0E70220EBE728
:102EFC0002207CE790F8510070470368DA6842F0D2
:102F0C000102DA609A6802F00702062A1EBF1A68EC
:102F1C0042F001021A6000207047704770477047FA
:102F2C00704703681A69910710B504460ED5DA6824
:102F3C0092070BD56FF002021A619B6901229B0765
:102F4C00027777D0FFF7EAFF0023237723681A690B
:102F5C00500710D5DA6851070DD56FF004021A61CD
:102F6C009B69022213F4407F2277204668D0FFF73A
:102F7C00D5FF0023237723681A6912070FD5DA6867
:102F8C0010070CD56FF008021A61DB69042299074F
:102F9C00227720465AD0FFF7C1FF002323772368FE
:102FAC001A69D20610D5DA68D0060DD56FF010026A
:102FBC001A61DB69082213F4407F227720464BD03C
:102FCC00FFF7ACFF0023237723681A69D10708D5D4
:102FDC00DA68D20705D56FF001021A61204600F0BD
:102FEC00E7FD23681A69100608D5DA68110605D5BD
:102FFC006FF080021A61204600F073F923681A6999
:10300C00520608D5DA68500605D56FF040021A61F1
:10301C002046FFF785FF23681A69910622D5DA68E6
:10302C0092061FD56FF0200220461A61BDE81040B1
:10303C0000F056B9FFF771FF2046FFF770FF83E7EA
:10304C00FFF76BFF2046FFF76AFF92E7FFF765FF7C
:10305C002046FFF764FFA0E7FFF75FFF2046FFF76E
:10306C005EFFAFE710BD0000304A0368904212D0FB
:10307C00B0F1804F0FD0A2F57C4290420BD002F5FC
:10308C008062904207D002F58062904203D002F534
:10309C007842904219D14A6823F070031343234AB3
:1030AC00904229D0B0F1804F26D0A2F57C429042BC
:1030BC0022D002F5806290421ED002F580629042CE
:1030CC001AD002F57842904216D0194A904213D089
:1030DC0002F5806290420FD002F5806290420BD0D4
:1030EC00A2F59832904207D002F58062904203D04C
:1030FC0002F58062904203D1CA6823F440731343F3
:10310C004A6923F08003134303608B68C3620B6826
:10311C008362064B984203D003F58063984201D139
:10312C000B69036301234361704700BF000001403A
:10313C000040014010B50446A0B190F83D3003F0BA
:10314C00FF021BB980F83C2000F0E6FE022384F855
:10315C003D302068211DFFF787FF012384F83D30A7
:10316C00002010BD012010BD10B584680A4324F462
:10317C007F4442EA03232343836010BD90F83C3024
:10318C00012B70B504464FF0020019D084F83D00B5
:10319C002068012384F83C30836823F47F4323F0B8
:1031AC00770383600B68402B65D015D8102B0CD09F
:1031BC0007D853B10123002084F83D3084F83C003B
:1031CC0070BD202B01D0302BF4D1826843F0070363
:1031DC0022F0700213431AE0602B34D019D8502B14
:1031EC00E8D14A68CE68016A056A25F001050562D6
:1031FC00836921F00A0123F0F00343EA06130A4322
:10320C0083610262836823F0700343F05703836089
:10321C00D0E7702B0CD0B3F5005FCBD1CB684A68EC
:10322C008968FFF7A1FF2268936843F4804308E0A4
:10323C00CB684A688968FFF797FF2268936843F068
:10324C0077039360B6E74D68CE68016A21F01001F0
:10325C0001628269036A22F4704223F0A00343EAFC
:10326C00051342EA063282610362836823F070031D
:10327C0043F06703CBE74A68CE68016A056A25F01C
:10328C0001050562836921F00A0123F0F00343EA8A
:10329C0006130A4383610262836823F0700343F0D0
:1032AC004703B4E790F83C30012B30B54FF00203E4
:1032BC0014D0046880F83D306268A3680D684968D2
:1032CC0022F0700223F080030B432A436260A36058
:1032DC00012380F83D30002380F83C30184630BD87
:1032EC00704770472DE9F0470668C2683369C169B9
:1032FC0023F4405313433361044683680069F26836
:10330C000343606922F41642034322F00C020B4380
:10331C001343F3607369A26923F440731343B1F54B
:10332C00004F73617A4B7CD19E4203D003F58063CE
:10333C009E4244D1FFF73AF9192505FB00F360686A
:10334C004FF064094000B3FBF0F3B3FBF9F34FEA21
:10335C000318FFF72BF9636868435B00B0FBF3F7C6
:10336C00FFF724F9636868435B00B0FBF3F3B3FB2E
:10337C00F9F309FB1373DB003233B3FBF9F35B0096
:10338C0003F4F877FFF712F9626868435200B0FB58
:10339C00F2FAFFF70BF9636868435B00B0FBF3F3D9
:1033AC00B3FBF9F309FB13A3DB003233B3FBF9F3E3
:1033BC0003F0070343443B44B360BDE8F087FFF7D9
:1033CC00E5F8192505FB00F360684FF0640940002F
:1033DC00B3FBF0F3B3FBF9F34FEA0318FFF7D6F89E
:1033EC00636868435B00B0FBF3F7FFF7CFF86368E3
:1033FC0068435B00B0FBF3F3B3FBF9F309FB137306
:10340C00DB003233B3FBF9F35B0003F4F877FFF71F
:10341C00BDF8626868435200B0FBF2FAFFF7B6F8E9
:10342C00B9E79E4202D03B4B9E4240D1FFF7BEF81B
:10343C00676819254FF0640905FB00F3BF00B3FB67
:10344C00F7F3B3FBF9F31F01FFF7B0F863686843B8
:10345C009B00B0FBF3F8FFF7A9F8636868439B0087
:10346C00B0FBF3F3B3FBF9F309FB13831B0132330A
:10347C00B3FBF9F303F0F008FFF798F862686843C0
:10348C009200B0FBF2FAFFF791F8636868439B0077
:10349C00B0FBF3F3B3FBF9F309FB13A31B013233BA
:1034AC00B3FBF9F303F00F0343EA080383E7FFF7D9
:1034BC006DF8676819254FF0640905FB00F3BF0030
:1034CC00B3FBF7F3B3FBF9F31F01FFF75FF8636886
:1034DC0068439B00B0FBF3F8FFF758F86368684348
:1034EC009B00B0FBF3F3B3FBF9F309FB13831B0154
:1034FC003233B3FBF9F303F0F008FFF747F86268D7
:10350C0068439200B0FBF2FAFFF740F8BDE700BF4A
:10351C00001001400014014010B5044640B390F86F
:10352C00393003F0FF021BB980F8382000F00CFD95
:10353C002268242384F83930D36823F40053D360F1
:10354C002046FFF7CFFE23681A6922F490421A61D5
:10355C005A6922F02A025A61DA6842F40052DA609F
:10356C0000202023E06384F8393084F83A3010BD11
:10357C00012010BD0B684A68D1F810C0012B2DE951
:10358C00F0430368D1F80890D1F80C804D698C6930
:10359C00D1F81CE00F6A4E6A14D023F4FF4323F0D9
:1035AC007F031A4342EA090242EA080242EA0C0388
:1035BC002B43234343EA0E033B4333430360002076
:1035CC00BDE8F083416821F4FF4121F07F0123F431
:1035DC00F8430A4343EA0E0342EA09023B4342EA38
:1035EC0008021E4342EA0C032B432343066043604C
:1035FC00E5E7012AF0B5D1F80CC08F680D694E696A
:10360C0091E8084089691BD082680EF1FF3E02F0F8
:10361C007042013B42EA0E121A437B1E42EA03231C
:10362C000CF1FF3C43EA0C33013D43EA0543013EF8
:10363C0043EA0653013943EA016383600020F0BD7D
:10364C008468C2680EF1FF3E02F07042013B42EA10
:10365C000E121A4324F470047B1E42EA03220CF16E
:10366C00FF3C24F470446B1E44EA0C34013E42EAE5
:10367C000343013944EA065643EA01638660C3609A
:10368C00DCE773B500230193154691E80C00134356
:10369C00CA6843EA42238A68013A43EA4213019317
:1036AC00019B03610446FDF7DDFD0646A06910F0A1
:1036BC00200003D06B1CF9D015B9032002B070BDEB
:1036CC00FDF7D0FD801B8542F0D2F6E7436943EA53
:1036DC00410141610020704770B53024A0B02246F2
:1036EC00002108A800F0A4FD1422002103A800F07A
:1036FC009FFD0021224614A800F09AFD0024214BC6
:10370C0001941A6C42F080521A641B6C03F08053C3
:10371C000193019B1C4B02941A6842F440421A60BC
:10372C001B680F9403F440430293029B01230B93F9
:10373C0010230C93B42302250826119308A8032305
:10374C00139308950E9510961295FEF7D5FCFEF77F
:10375C0097FC0F2303934FF4A053069305214FF4CA
:10376C00805303A8079304950594FEF775FED823A0
:10377C0014A8149618931A951D94FEF745FF20B0C3
:10378C0070BD00BF00380240007000402DE9804839
:10379C0099B0FDF7A5FA4FF050410020FDF778F9EC
:1037AC004FF050410120FDF773F90120FDF7B0F9FE
:1037BC00FDF7EAF9B248B34DDFF804A3FDF7BAF907
:1037CC00AF48FDF7C3F9FDF727FDFFF785FF14227E
:1037DC0000210BA8002400F02BFDAB4B01941A6BBD
:1037EC00AA4842F004021A631A6B02F00402019216
:1037FC00019A02941A6B42F020021A631A6B02F0BF
:10380C0020020292029A03941A6B42F080021A630D
:10381C001A6B02F080020392039A04941A6B42F022
:10382C0001021A631A6B02F001020492049A0594C5
:10383C001A6B42F002021A631A6B02F00202059232
:10384C00059A06941A6B42F040021A631A6B02F046
:10385C0040020692069A07941A6B42F010021A6301
:10386C001A6B02F010020792079A08941A6B42F036
:10387C0008021A631B6B03F00803224608931621F7
:10388C00089BFEF781F9224680218148FEF77CF9DE
:10389C0022464FF440517F48FEF776F922464FF40A
:1038AC00C0417D48FEF770F9012716230BA9774814
:1038BC000B930D940E940C97FDF7E0FF48F2070361
:1038CC000BA973480B930C950D94FDF7D7FF802330
:1038DC000BA96F480B930D940E940C97FDF7CEFF2C
:1038EC0020230BA969480B930C950D940425FDF727
:1038FC00C5FF0BA969480B9502260C940D944FF04B
:10390C000C09FDF7BBFF4FF450430BA963480B9315
:10391C004FF400580D940E940C96CDF83C90FDF796
:10392C00ADFF0BA95D48CDF82C804FF4006B0C94C7
:10393C000D94FDF7A3FF0BA95648CDF82CB00C94B1
:10394C000D94FDF79BFF4FF440530BA951480B937B
:10395C000D940E940C97FDF791FF4FF4C0430BA9F7
:10396C004D480B930D940E940C97FDF787FF4C4B21
:10397C00CAF82840CAF83040CAF83440CAF82C605B
:10398C0050468AE85800CAF80C40FDF7D9FD394674
:10399C005046FDF729FF1C2221460BA800F048FCDD
:1039AC004048414BC0F820B080E8880040230BA968
:1039BC004FF0100A4361C0F828804FF4C0734FF0E9
:1039CC0007084FF0030B8460C5608361C4614462D7
:1039DC000D95C0F810A0354D0B96CDF83080CDF874
:1039EC003880CDF83CB010961196FEF725FF304A82
:1039FC00304BAC6085E80C0028464FF480432B61BB
:103A0C00EC606C61AC61EC612C62FEF7C3F8214692
:103A1C002846FEF763F921462846FEF77EF9214633
:103A2C0034220BA800F004FC234D244BAC6085E839
:103A3C00180009236B611D23EB6140F25D136B626F
:103A4C00F323AB6240F26713EB622846F723EC607A
:103A5C002C612B6385F8344085F8354085F8364069
:103A6C00AF61C5F820B0FEF7FDF9FF2110914FF4BE
:103A7C00C061F02212914FF050414FF4A07321E03D
:103A8C00FF0000FF00001210003802400008024046
:103A9C0000000240000C02400018024000040240EA
:103AAC0000B00240D8040020400100A0C402002055
:103ABC00005C0040A08601007003002000680140FB
:103ACC00980400200C92149115920BA922462846BA
:103ADC000B940D940E93119416938DF85C408DF805
:103AEC005D408DF85E400F96CDF84C80FEF786FA5F
:103AFC0027482849284D84604FF4827380E80A00D7
:103B0C004FF4802383611823C3610A23C362C4600A
:103B1C0004614461046244628462FEF769FF5246A8
:103B2C0021460BA800F084FB1C4BAC60284685E8B2
:103B3C001800EC602C616C61AC6109940A94FFF77D
:103B4C00F9FA4FF480530BA928460B93FFF716FB99
:103B5C0009A9284609940A94FFF7A4FB1048114BB5
:103B6C0084604FF4E13580E82800C460046184610E
:103B7C00C461C0F81490FFF7CFFC0B4D0B4C2846DA
:103B8C00FCF7CCFF21460120FDF7DAF9F7E700BF7F
:103B9C001803002000500140580400200000014090
:103BAC001804002000100140404040FF245D000834
:103BBC000268034B9A4201D1FDF748BB704700BF26
:103BCC000010004082B00C4B002100915A6C42F462
:103BDC0080425A645A6C02F480420092009A01911D
:103BEC001A6C42F080521A641B6C03F080530193E0
:103BFC00019B02B0704700BF0038024007B50D4B67
:103C0C0002689A4213D1A3F5F04300220192196B7A
:103C1C0041F4000119631B6B03F4000301935A2058
:103C2C000521019BFDF74AFB5A20FDF77BFB03B0F6
:103C3C005DF804FB00B002402DE9F041044688B069
:103C4C001422002103A800F0F3FA2268204B9A42B8
:103C5C003AD1204C204800250095236B43F00403F7
:103C6C002363236B03F004030093009B0195236BE8
:103C7C0043F001032363236B03F001030193019BC6
:103C8C004FF012084FF400730127042603A9039385
:103C9C00CDF8108005970796FDF7F0FD4FF4807373
:103CAC0003A90E480393CDF8108005970695079647
:103CBC00FDF7E4FD0295236C43F400032364236CAD
:103CCC0003F400030293029B08B0BDE8F08100BF2F
:103CDC00005C004000380240000802400000024036
:103CEC00F0B504468DB01422002107A800F0A0FA0C
:103CFC002268574B9A4240F0A880002403F55043A9
:103D0C0000945A6C534842F080625A645A6C02F028
:103D1C0080620092009A01941A6B42F020021A639E
:103D2C001A6B02F020020192019A02941A6B42F073
:103D3C0001021A631A6B02F001020292029A0394B6
:103D4C001A6B42F002021A631A6B02F0020203921F
:103D5C00039A04941A6B42F040021A631A6B02F035
:103D6C0040020492049A05941A6B42F004021A63FE
:103D7C001A6B02F004020592059A06941A6B42F033
:103D8C0008021A631B6B03F00803069302250E2628
:103D9C00069B08954FF4806307A907930B96FDF7D4
:103DAC006DFD41F6580307A92B4807930927089581
:103DBC0009940A940B96FDF761FD032307A9274884
:103DCC000793089509940A940B97FDF757FD4FF448
:103DDC00706307A921480793089509940A940B96D8
:103DEC00FDF74CFD4FF40C6307A91D48079308958C
:103DFC0009940A940B96FDF741FD4FF4986307A9BB
:103E0C0018480793089509940A940B96FDF736FD0C
:103E1C00482307A914480793089509940A940B960C
:103E2C00FDF72CFD4FF4A05307A90D4807930895F7
:103E3C0009940A940B97FDF721FD58202246052181
:103E4C00FDF73CFA5820FDF76DFA0DB0F0BD00BF40
:103E5C0000680140001402400000024000040240CF
:103E6C000018024000080240000C024070B50446E5
:103E7C0088B01422002103A800F0DAF92268194B4B
:103E8C009A422DD103F56843002401945A6C1648CC
:103E9C0042F480125A645A6C02F480120192019A14
:103EAC0002941A6B42F020021A631B6B03F020037E
:103EBC000293029B4023039302260323052503A9A7
:103ECC00069304960795FDF7D9FC4FF4607303A98C
:103EDC00054803930496059406940795FDF7CEFCCC
:103EEC0008B070BD00500140001402400268074B3E
:103EFC009A4209D1064A0748536C23F48013536441
:103F0C004FF47071FDF7A6BD704700BF0050014023
:103F1C0000380240001402400268094B9A4282B0F9
:103F2C000BD100230193074B5A6C42F001025A64E7
:103F3C005B6C03F001030193019B02B0704700BF5F
:103F4C00000001400038024010B5044688B014222D
:103F5C00002103A800F06CF92268154B9A4225D178
:103F6C0003F59433002101915A6C124842F010026F
:103F7C005A645A6C02F010020192019A02911A6B67
:103F8C0042F001021A631B6B03F001030293029BC4
:103F9C004FF4C0630393022304930123059303237B
:103FAC00069303A907230793FDF768FC08B010BD1F
:103FBC0000100140000002402DE9F04186B01422AF
:103FCC00002101A800F034F92B4B1C68002C50D1B7
:103FDC004FF00108C3F80080284B00949A6B2848D6
:103FEC0042EA08029A639B6B03EA080300930227D8
:103FFC0003260C25009B02974FF63F0301A9019362
:10400C0004960595FDF73AFC01A91E48CDF80480ED
:10401C000297039404960595FDF730FC48F2331390
:10402C0001A9194801930297039404960595FDF78D
:10403C0025FC4FF6837301A914480193029703944E
:10404C0004960595FDF71AFC4CF2037301A9104870
:10405C0001930297039404960595FDF70FFC6023DA
:10406C0001A90C4801930297039404960595FDF75A
:10407C0005FC06B0BDE8F0811002002000380240BB
:10408C0000140240000802400018024000100240D8
:10409C00000C02400004024030B5014689B00022F9
:1040AC003620FDF70BF93620FDF73CF90025154BB2
:1040BC0002951A6C144C42F010021A641B6C03F03B
:1040CC001003029301A903A8029BFEF77FFAFEF7E7
:1040DC005DFA0E4B236040F2E733E36040000C4B7B
:1040EC00B0FBF3F00138606020462561A560FFF756
:1040FC0021F820B92046FEF700FF09B030BD0120A1
:10410C00FBE700BF003802400C0500200010004007
:10411C0040420F007047FEE7FEE7FEE7FEE7704700
:10412C00704770470148FEF7FCBE00BF0C0500202D
:10413C000148FDF706BF00BF700300200148FDF7E2
:10414C00C8BA00BF980400200F49D1F8883043F456
:10415C007003C1F888300D4B1A68002042F0010240
:10416C001A6098601A6822F0847222F480321A6005
:10417C00074A5A601A6822F480221A60D8604FF0FD
:10418C0000638B60704700BF00ED00E00038024018
:10419C0010300024DFF834D0002103E00C4B5B58C6
:1041AC00435004310B480C4B42189A42F6D30B4A3D
:1041BC0002E0002342F8043B094B9A42F9D3FFF783
:1041CC00C3FF00F011F8FFF7E1FA7047000003207D
:1041DC00545D0008000000204C0000204C00002022
:1041EC004C050020FEE7000070B50D4E0D4CA41BD5
:1041FC00A4100025A54209D10B4E0C4C00F020F860
:10420C00A41BA4100025A54205D170BD56F825307D
:10421C0098470135EEE756F8253098470135F2E717
:10422C004C5D00084C5D00084C5D0008505D0008BA
:10423C0002440346934200D1704703F8011BF9E78F
:10424C00F8B500BFF8BC08BC9E467047F8B500BF77
:08425C00F8BC08BC9E46704747
:10426400000000000000000000000000000000004A
:10427400000000000000000000000000000000003A
:10428400000000000000000000000000000000002A
:10429400000000000000000000000000000000001A
:1042A4000000000000000000000000000000038087
:1042B400000380000380000380000380000380006B
:1042C400038000038000038000010000010000005F
:1042D40000000000000380000380000000000000D4
:1042E40000000000000000000000000000000000CA
:1042F4000000000000000000000E70000E70000EB0
:1043040070000420000420000420000420000000A9
:104314000000000000000000000000000000000099
:104324000000000000000000000000000000000089
:104334000000000000000000000000000000066013
:10434400000660000660000660000660003FF8009A
:104354003FF8000660000CC0003FF8003FF8000C76
:10436400C0000CC0000CC0000CC0000CC000000059
:104374000000000000000000000000000000000039
:1043840000000001800001800007B0000FF0001859
:1043940070001870001C00000F800007E00000F09F
:1043A400001830001C30001C70001FE0001BC0000F
:1043B40001800001800001800001800000000000F5
:1043C4000000000000000000000000000000078062
:1043D400000FC0001CE0001860001860001CE00022
:1043E4000FF80007E0001FF0000738000618000669
:1043F400180007380003F00001E00000000000008E
:1044040000000000000000000000000000000000A8
:1044140000000000000000000000000003F000079E
:10442400F0000C60000C00000C0000060000070007
:10443400000F9C001DFC0018F0001870000FFC0019
:1044440007DC000000000000000000000000000085
:104454000000000000000000000000000000000058
:1044640000038000038000038000010000010000BD
:104474000100000100000000000000000000000036
:104484000000000000000000000000000000000028
:104494000000000000000000000000000000000018
:1044A4000000000000000018000038000070000048
:1044B400F00000E00000E00001C00001C00001C005
:1044C4000001C00001C00001C00000E00000E000E5
:1044D40000700000700000380000180000000000A8
:1044E40000000000000000000000000000001800B0
:1044F400001C00000E00000E000007000007000072
:104504000380000380000380000380000380000315
:1045140080000700000700000F00000E00001C00D0
:10452400001800000000000000000000000000006F
:104534000000000000000180000180000180001DD7
:10454400B8001FF80007E00003C00003C0000660C5
:1045540000066000000000000000000000000000F1
:104564000000000000000000000000000000000047
:104574000000000000000000000000000000000037
:104584000000000001800001800001800001800023
:104594000180003FFC003FFC00018000018000011D
:1045A4008000018000018000000000000000000085
:1045B40000000000000000000000000000000000F7
:1045C40000000000000000000000000000000000E7
:1045D40000000000000000000000000000000000D7
:1045E4000000000000000000000000E00000C00027
:1045F40001C00001800001800003000003000000EE
:1046040000000000000000000000000000000000A6
:104614000000000000000000000000000000000096
:104624000000001FF8001FF8000000000000000058
:104634000000000000000000000000000000000076
:104644000000000000000000000000000000000066
:104654000000000000000000000000000000000056
:104664000000000000000000000000000000000046
:104674000000000000000000000003C00003C000B0
:1046840003C0000000000000000000000000000063
:1046940000000000000000000018000018000038AE
:1046A4000000300000700000600000600000C000E6
:1046B40000C0000180000180000300000300000628
:1046C40000000600000E00000C00001C0000180092
:1046D40000180000000000000000000000000000BE
:1046E40000000000000003C00007E0000C30000CD4
:1046F4003000181800181800181800181800181896
:10470400001818001818000C30000C300007E000E6
:1047140003C00000000000000000000000000000D2
:104724000000000000000000000000000000008005
:10473400000780001F80001D8000018000018000B0
:1047440001800001800001800001800001800001DF
:1047540080000180001FF8001FF800000000000026
:104764000000000000000000000000000000000045
:1047740000000000000007C0001FF00038300030C7
:10478400180030180000180000300000600001C05C
:10479400000380000600000C00001800003FF80031
:1047A4003FF80000000000000000000000000000CE
:1047B400000000000000000000000000000003C032
:1047C400000FE0000C7000003000003000006000BA
:1047D40003C00003E000007000001800001800008F
:1047E40018001838001FF0000FC00000000000007F
:1047F40000000000000000000000000000000000B5
:1048040000000000000000E00001E00001E00003FF
:1048140060000660000660000C60000C6000186018
:10482400003060003FF8003FF80000600003F8002B
:1048340003F8000000000000000000000000000079
:1048440000000000000000000000000000001FF055
:10485400001FF0001800001800001800001BC00022
:104864001FF0001C300000180000180000180000A1
:1048740018003030003FF0000FC0000000000000BE
:104884000000000000000000000000000000000024
:1048940000000000000000F80003F8000700000E0C
:1048A40000000C00001800001BC0001FF0001C30AA
:1048B400001818001818001818000C38000FF00021
:1048C40003E0000000000000000000000000000001
:1048D40000000000000000000000000000001FF8BD
:1048E400001FF800181800183800003000003000CD
:1048F40000700000600000600000E00000C00000E4
:10490400C00001C000018000018000000000000020
:104914000000000000000000000000000000000093
:1049240000000000000007E0000FF0001C38001831
:1049340018001818000C300007E00007E0000C30E5
:10494400001818001818001818001C38000FF00080
:1049540007E000000000000000000000000000006C
:10496400000000000000000000000000000007C07C
:10497400000FF0001C300018180018180018180058
:104984000C38000FF80003D80000180000300000B5
:10499400700000E0001FC0001F00000000000000C5
:1049A4000000000000000000000000000000000003
:1049B40000000000000000000000000000000000F3
:1049C400000003C00003C00003C00000000000009A
:1049D4000000000000000000000003C00003C0004D
:1049E40003C0000000000000000000000000000000
:1049F40000000000000000000000000000000000B3
:104A04000000000000000000000000F00000F000C2
:104A140000F00000000000000000000000000000A2
:104A2400E00001C0000180000180000300000200DA
:104A34000000000000000000000000000000000072
:104A4400000000000000000000000000001C000046
:104A54003C0000F00003C0000F00003C0000F00028
:104A6400003C00000F000003C00000F000003C0008
:104A7400001C000000000000000000000000000016
:104A84000000000000000000000000000000000022
:104A9400000000000000000000000000007FFC0097
:104AA4007FFC000000000000007FFC007FFC000091
:104AB40000000000000000000000000000000000F2
:104AC40000000000000000000000000000000000E2
:104AD40000000000000000000000000070000078EA
:104AE40000001E000007800001E000007800001EA6
:104AF4000000780001E0000780001E00007800003C
:104B04007000000000000000000000000000000031
:104B14000000000000000000000000000000000091
:104B24000007C0000FE000187000183000183000B3
:104B340000700000E00003C00003800003000000D8
:104B44000000000000070000070000000000000053
:104B54000000000000000000000000000000000051
:104B640000000000000003E00007F0000E38000C15
:104B7400180018780018F80019D800199800199826
:104B84000019980018F8001878001800000C0000AC
:104B94000E180007F80003E0000000000000000009
:104BA4000000000000000000000000000000000001
:104BB400001F80001FC00001C000036000036000EC
:104BC4000630000630000C30000FF8001FF8001803
:104BD4000C00300C00FC7F00FC7F00000000000093
:104BE40000000000000000000000000000000000C1
:104BF4000000000000000000007FE0007FF00018CB
:104C040038001818001818001838001FF0001FF892
:104C140000181C00180C00180C00180C007FF80079
:104C24007FF0000000000000000000000000000011
:104C34000000000000000000000000000000000070
:104C44000003EC000FFC001C1C00180C00300C00CE
:104C54003000003000003000003000003000001848
:104C64000C001C1C000FF80003F000000000000002
:104C74000000000000000000000000000000000030
:104C84000000000000000000007FC0007FF000185A
:104C94003800181800180C00180C00180C00180C18
:104CA40000180C00180C001818001838007FF000C9
:104CB4007FE0000000000000000000000000000091
:104CC40000000000000000000000000000000000E0
:104CD400007FF8007FF800181800181800199800D1
:104CE4001980001F80001F80001980001998001887
:104CF40018001818007FF8007FF80000000000007A
:104D0400000000000000000000000000000000009F
:104D14000000000000000000003FFC003FFC000C0D
:104D24000C000C0C000CCC000CC0000FC0000FC019
:104D3400000CC0000CC0000C00000C00003FC000C0
:104D44003FC0000000000000000000000000000060
:104D5400000000000000000000000000000000004F
:104D64000003EC000FFC001C1C00180C00300C00AD
:104D740030000030000030FE0030FE00300C0038FF
:104D84000C001C1C000FFC0003F0000000000000DD
:104D9400000000000000000000000000000000000F
:104DA4000000000000000000007E7E007E7E0018EF
:104DB40018001818001818001818001FF8001FF819
:104DC400001818001818001818001818007E7E0023
:104DD4007E7E0000000000000000000000000000D3
:104DE40000000000000000000000000000000000BF
:104DF400001FF8001FF800018000018000018000FE
:104E04000180000180000180000180000180000118
:104E140080000180001FF8001FF80000000000005F
:104E2400000000000000000000000000000000007E
:104E340000000000000000000007FE0007FE000064
:104E4400300000300000300000300000300030300E
:104E5400003030003030003030003060003FE0007F
:104E64000F800000000000000000000000000000AF
:104E7400000000000000000000000000000000002E
:104E8400007F3E007F3E0018300018600018C0000C
:104E94001980001B80001FC0001CE000187000185F
:104EA40030001838007F1F007F1F00000000000042
:104EB40000000000000000000000000000000000EE
:104EC4000000000000000000007F80007F80000CD4
:104ED40000000C00000C00000C00000C00000C0092
:104EE400000C0C000C0C000C0C000C0C007FFC00E3
:104EF4007FFC000000000000000000000000000033
:104F0400000000000000000000000000000000009D
:104F140000F00F00F81F00381C003C3C003C3C0033
:104F2400366C00366C0033CC0033CC00318C00304E
:104F34000C00300C00FE7F00FE7F0000000000002B
:104F4400000000000000000000000000000000005D
:104F540000000000000000000078FE0078FE001C45
:104F640018001E18001F18001B18001B980019D8E1
:104F74000018D80018F8001878001838007F1800B6
:104F84007F18000000000000000000000000000086
:104F9400000000000000000000000000000000000D
:104FA4000003C0000FF0001C3800181800381C0063
:104FB400300C00300C00300C00300C00381C001891
:104FC40018001C38000FF00003C0000000000000AF
:104FD40000000000000000000000000000000000CD
:104FE4000000000000000000003FF0003FF8000C4B
:104FF4001C000C0C000C0C000C0C000C18000FF81E
:10500400000FE0000C00000C00000C00003FC0008A
:105014003FC000000000000000000000000000008D
:10502400000000000000000000000000000000007C
:105034000003C0000FF0001C3800181800381C00D2
:10504400300C00300C00300C00300C00381C001800
:1050540018001C38000FF00007C00007CC000FFC3C
:10506400000C3800000000000000000000000000F8
:105074000000000000000000007FE0007FF0001846
:1050840038001818001818001838001FF0001FC046
:105094000018E0001870001830001838007F1E0057
:1050A4007F0E00000000000000000000000000006F
:1050B40000000000000000000000000000000000EC
:1050C4000007D8000FF8001C380018180018180042
:1050D4001E00000FC00003F000007800181800182C
:1050E40018001C38001FF0001BE000000000000046
:1050F40000000000000000000000000000000000AC
:105104000000000000000000003FFC003FFC0031F4
:105114008C00318C00318C00318C000180000180C6
:10512400000180000180000180000180000FF00078
:105134000FF000000000000000000000000000006C
:10514400000000000000000000000000000000005B
:10515400007E7E007E7E00181800181800181800C3
:105164001818001818001818001818001818001833
:1051740018000C30000FF00003C000000000000015
:10518400000000000000000000000000000000001B
:105194000000000000000000007F7F007F7F0018F7
:1051A4000C000C18000C18000C1800063000063017
:1051B4000003600003600003600001C00001C00040
:1051C400008000000000000000000000000000005B
:1051D40000000000000000000000000000000000CB
:1051E40000FE3F80FE3F803006003006003086001F
:1051F40019CC0019CC001B6C001B6C001E7C000E2B
:1052040038000E38000C18000C18000000000000D4
:10521400000000000000000000000000000000008A
:105224000000000000000000007E7E007E7E00186A
:1052340018000C300006600003C0000180000180EB
:105244000003C0000660000C30001818007E7E00C9
:105254007E7E00000000000000000000000000004E
:10526400000000000000000000000000000000003A
:10527400007C7E007C7E001818000C300006600064
:1052840006600003C000018000018000018000016D
:1052940080000180000FF0000FF00000000000000B
:1052A40000000000000000000000000000000000FA
:1052B4000000000000000000001FF8001FF80018A4
:1052C400180018300018600018C0000180000300A6
:1052D400000618000C18001818003018003FF800D9
:1052E4003FF8000000000000000000000000000083
:1052F400000000000000000000000000000001F0B9
:105304000001F000018000018000018000018000A4
:105314000180000180000180000180000180000103
:10532400800001800001800001800001800001F004
:105334000001F00000000000000000000000000078
:105344001800001800001C00000C00000E000006ED
:10535400000006000003000003000001800001803B
:105364000000C00000C00000600000600000700089
:105374000030000038000018000018000000000091
:1053840000000000000000000000000000000F808A
:10539400000F800001800001800001800001800076
:1053A4000180000180000180000180000180000173
:1053B40080000180000180000180000180000F80D6
:1053C400000F80000000000000000000000000004A
:1053D40000000000800001C00003E0000770000628
:1053E40030000C1800180C0010040000000000002D
:1053F40000000000000000000000000000000000A9
:105404000000000000000000000000000000000098
:105414000000000000000000000000000000000088
:105424000000000000000000000000000000000078
:105434000000000000000000000000000000000068
:105444000000000000000000000000000000000058
:1054540000000000000000000000FFFF00FFFF004C
:1054640000000003000003800000E0000060000072
:105474000000000000000000000000000000000028
:105484000000000000000000000000000000000018
:105494000000000000000000000000000000000008
:1054A40000000000000000000000000000000000F8
:1054B400000000000000000000000FC0001FE0001A
:1054C40000300000300007F0001FF00038300030DA
:1054D40030003070001FFC000FBC00000000000012
:1054E40000000000000000000000000000000000B8
:1054F4000000000000007800007800001800001888
:1055040000001BE0001FF8001C1800180C00180C09
:1055140000180C00180C00180C001C18007FF80070
:105524007BE000000000000000000000000000001C
:105534000000000000000000000000000000000067
:105544000000000000000000000003EC000FFC005D
:105554001C1C00380C00300C0030000030000038F7
:105564000C001C1C000FF80003F0000000000000F9
:105574000000000000000000000000000000000027
:10558400000000000000007800007800001800000F
:10559400180007D8001FF800183800301800301819
:1055A400003018003018003018001838001FFE00B2
:1055B40007DE000000000000000000000000000002
:1055C40000000000000000000000000000000000D7
:1055D4000000000000000000000007E0001FF800C9
:1055E400181800300C003FFC003FFC003000003075
:1055F4000000180C001FFC0007F000000000000071
:105604000000000000000000000000000000000096
:1056140000000000000001FC0003FC00060000067E
:1056240000003FF8003FF8000600000600000600F6
:10563400000600000600000600000600003FF0001F
:105644003FF0000000000000000000000000000027
:105654000000000000000000000000000000000046
:105664000000000000000000000007DE001FFE0034
:105674001838003018003018003018003018003086
:1056840018001838001FF80007D800001800001888
:10569400000038000FF0000FC00000000000000000
:1056A40000000000000078000078000018000018D6
:1056B40000001BE0001FF0001C3800181800181828
:1056C400001818001818001818001818007E7E001A
:1056D4007E7E0000000000000000000000000000CA
:1056E4000000000000000000000000000000018035
:1056F400000180000000000000001F80001F8000E7
:10570400018000018000018000018000018000010F
:1057140080000180003FFC003FFC0000000000000E
:105724000000000000000000000000000000000075
:1057340000000000000000C00000C00000000000E5
:1057440000001FF0001FF0000030000030000030A7
:105754000000300000300000300000300000300055
:105764000030000030000030000070001FE0001F17
:1057740080000000000000000000000000003C0069
:10578400003C00000C00000C00000CF8000CF800B9
:105794000CC0000D80000F80000F00000F80000D72
:1057A400C0000CE0003C7C003C7C000000000000D9
:1057B40000000000000000000000000000000000E5
:1057C4000000000000001F80001F80000180000115
:1057D40080000180000180000180000180000180C0
:1057E400000180000180000180000180003FFC0076
:1057F4003FFC00000000000000000000000000006A
:105804000000000000000000000000000000000094
:1058140000000000000000000000F77800FFFC001A
:1058240039CC00318C00318C00318C00318C00314A
:105834008C00318C00FDEF00FDEF00000000000043
:105844000000000000000000000000000000000054
:105854000000000000000000000000000000000044
:1058640000007BE0007FF0001C38001818001818B6
:10587400001818001818001818001818007E7E0068
:105884007E7E000000000000000000000000000018
:105894000000000000000000000000000000000004
:1058A4000000000000000000000003C0000FF00032
:1058B4001C3800381C00300C00300C00300C003850
:1058C4001C001C38000FF00003C0000000000000A2
:1058D40000000000000000000000000000000000C4
:1058E40000000000000000000000000000000000B4
:1058F40000007BE0007FF8001C1800180C00180C56
:1059040000180C00180C00180C001C18001FF800DC
:105914001BE0001800001800001800007F00007F42
:105924000000000000000000000000000000000073
:105934000000000000000000000007DE001FFE0061
:1059440018380030180030180030180030180030B3
:1059540018001838001FF80007D8000018000018B5
:105964000000180000FE0000FE000000000000001F
:105974000000000000000000000000000000000023
:1059840000003E78003EFC0007CC00070000060043
:10599400000600000600000600000600003FF000BC
:1059A4003FF00000000000000000000000000000C4
:1059B40000000000000000000000000000000000E3
:1059C4000000000000000000000007F8000FF800CD
:1059D4001818001818001F80000FF00000F80018B5
:1059E40018001838001FF0001FE00000000000003D
:1059F40000000000000000000000000000000000A3
:105A04000000000000000C00000C00000C00000C62
:105A140000003FF0003FF0000C00000C00000C0000
:105A2400000C00000C00000C00000C1C0007FC0023
:105A340003F000000000000000000000000000006F
:105A44000000000000000000000000000000000052
:105A54000000000000000000000078780078780062
:105A6400181800181800181800181800181800182A
:105A740018001838000FFE0007DE000000000000C8
:105A84000000000000000000000000000000000012
:105A94000000000000000000000000000000000002
:105AA40000007C3E007C3E001818001818000C30E2
:105AB400000C300006600006600007E00003C00030
:105AC40003C000000000000000000000000000000F
