:020000040800F2
:1000000000000320D5220008792100087B21000888
:100010007D2100087F2100088121000800000000E8
:100020000000000000000000000000008321000824
:1000300085210008000000008721000889210008B0
:100040002523000825230008252300082523000870
:100050002523000825230008252300082523000860
:100060002523000825230008252300082523000850
:100070002523000825230008252300082523000840
:100080002523000825230008252300082523000830
:100090002523000825230008252300082523000820
:1000A0002523000825230008252300082523000810
:1000B0002523000825230008252300082523000800
:1000C00025230008252300082523000825230008F0
:1000D0002523000891210008252300082523000876
:1000E00025230008252300082523000825230008D0
:1000F00025230008252300082523000825230008C0
:1001000025230008252300082523000825230008AF
:10011000252300082523000825230008252300089F
:10012000252300082523000825230008252300088F
:10013000252300082523000825230008252300087F
:10014000252300082523000825230008252300086F
:10015000252300082523000825230008252300085F
:10016000252300082523000825230008252300084F
:10017000252300082523000825230008000000008F
:10018000252300082523000825230008252300082F
:10019000252300082523000825230008252300081F
:0C01A00025230008252300082523000863
:1001B00010B5054C237833B9044B13B10448AFF3A1
:1001C00000800123237010BDDC010020000000002E
:1001D000FC3D000808B5034B1BB103490348AFF3CE
:1001E000008008BD00000000E0010020FC3D000888
:1001F000034613F8012B002AFBD1181A0138704767
:1002000081F0004102E000BF83F0004330B54FEAC7
:1002100041044FEA430594EA050F08BF90EA020F34
:100220001FBF54EA000C55EA020C7FEA645C7FEAC7
:10023000655C00F0E2804FEA5454D4EB5555B8BFEA
:100240006D420CDD2C4480EA020281EA030382EA5B
:10025000000083EA010180EA020281EA0303362DED
:1002600088BF30BD11F0004F4FEA01314FF4801CC0
:100270004CEA113102D0404261EB410113F0004FD2
:100280004FEA03334CEA133302D0524263EB430389
:1002900094EA050F00F0A780A4F10104D5F1200E27
:1002A0000DDB02FA0EFC22FA05F2801841F1000182
:1002B00003FA0EF2801843FA05F359410EE0A5F156
:1002C00020050EF1200E012A03FA0EFC28BF4CF087
:1002D000020C43FA05F3C01851EBE37101F000453D
:1002E00007D54FF0000EDCF1000C7EEB00006EEB4A
:1002F0000101B1F5801F1BD3B1F5001F0CD34908D4
:100300005FEA30004FEA3C0C04F101044FEA44522A
:1003100012F5800F80F09A80BCF1004F08BF5FEAB1
:10032000500C50F1000041EB045141EA050130BD91
:100330005FEA4C0C404141EB010111F4801FA4F134
:100340000104E9D191F0000F04BF01460020B1FA89
:1003500081F308BF2033A3F10B03B3F120020CDAC1
:100360000C3208DD02F1140CC2F10C0201FA0CF09F
:1003700021FA02F10CE002F11402D8BFC2F1200C04
:1003800001FA02F120FA0CFCDCBF41EA0C019040BA
:10039000E41AA2BF01EB0451294330BD6FEA040403
:1003A0001F3C1CDA0C340EDC04F11404C4F12002EE
:1003B00020FA04F001FA02F340EA030021FA04F300
:1003C00045EA030130BDC4F10C04C4F1200220FA57
:1003D00002F001FA04F340EA0300294630BD21FA95
:1003E00004F0294630BD94F0000F83F4801306BF5B
:1003F00081F480110134013D4EE77FEA645C18BF4F
:100400007FEA655C29D094EA050F08BF90EA020FE5
:1004100005D054EA000C04BF1946104630BD91EADD
:10042000030F1EBF0021002030BD5FEA545C05D1E0
:100430004000494128BF41F0004130BD14F580041F
:100440003CBF01F5801130BD01F0004545F0FE4193
:1004500041F470014FF0000030BD7FEA645C1ABFC8
:10046000194610467FEA655C1CBF0B46024650EAFF
:10047000013406BF52EA033591EA030F41F400212B
:1004800030BD00BF90F0000F04BF0021704730B5B1
:100490004FF4806404F132044FF000054FF0000186
:1004A00050E700BF90F0000F04BF0021704730B547
:1004B0004FF4806404F1320410F0004548BF40421C
:1004C0004FF000013EE700BF42004FEAE2014FEA71
:1004D00031014FEA02701FBF12F07F4393F07F4F4C
:1004E00081F06051704792F0000F14BF93F07F4F7E
:1004F000704730B54FF4607401F0004521F00041C1
:1005000020E700BF50EA010208BF704730B54FF046
:1005100000050AE050EA010208BF704730B511F04B
:10052000004502D5404261EB41014FF4806404F183
:1005300032045FEA915C3FF4DCAE4FF003025FEA05
:10054000DC0C18BF03325FEADC0C18BF033202EB8D
:10055000DC02C2F1200300FA03FC20FA02F001FAE7
:1005600003FE40EA0E0021FA02F11444C1E600BF86
:1005700070B54FF0FF0C4CF4E06C1CEA11541DBF39
:100580001CEA135594EA0C0F95EA0C0F00F0DEF804
:100590002C4481EA030621EA4C5123EA4C5350EAE9
:1005A000013518BF52EA033541F4801143F480133A
:1005B00038D0A0FB02CE4FF00005E1FB02E506F0CB
:1005C0000042E0FB03E54FF00006E1FB03569CF020
:1005D000000F18BF4EF0010EA4F1FF04B6F5007F26
:1005E00064F5407404D25FEA4E0E6D4146EB060698
:1005F00042EAC62141EA55514FEAC52040EA5E5021
:100600004FEACE2EB4F1FD0C88BFBCF5E06F1ED8CA
:10061000BEF1004F08BF5FEA500E50F1000041EB01
:10062000045170BD06F0004646EA010140EA0200AE
:1006300081EA0301B4EB5C04C2BFD4EB0C0541EAD0
:10064000045170BD41F480114FF0000E013C00F3E5
:10065000AB8014F1360FDEBF002001F0004170BD09
:10066000C4F10004203C35DA0C341BDC04F1140422
:10067000C4F1200500FA05F320FA04F001FA05F2AE
:1006800040EA020001F0004221F0004110EBD3707B
:1006900021FA04F642EB06015EEA430E08BF20EAA7
:1006A000D37070BDC4F10C04C4F1200500FA04F34A
:1006B00020FA05F001FA04F240EA020001F00041DC
:1006C00010EBD37041F100015EEA430E08BF20EA4F
:1006D000D37070BDC4F1200500FA05F24EEA020E97
:1006E00020FA04F301FA05F243EA020321FA04F0C6
:1006F00001F0004121FA04F220EA020000EBD3707D
:100700005EEA430E08BF20EAD37070BD94F0000F7C
:100710000FD101F00046400041EB010111F4801FB0
:1007200008BF013CF7D041EA060195F0000F18BF61
:10073000704703F00046520043EB030313F4801F9D
:1007400008BF013DF7D043EA0603704794EA0C0F57
:100750000CEA135518BF95EA0C0F0CD050EA41066D
:1007600018BF52EA4306D1D181EA030101F00041EA
:100770004FF0000070BD50EA410606BF1046194612
:1007800052EA430619D094EA0C0F02D150EA01361E
:1007900013D195EA0C0F05D152EA03361CBF10465F
:1007A00019460AD181EA030101F0004141F0FE41FE
:1007B00041F470014FF0000070BD41F0FE4141F482
:1007C000780170BD70B54FF0FF0C4CF4E06C1CEA82
:1007D00011541DBF1CEA135594EA0C0F95EA0C0F37
:1007E00000F0A7F8A4EB050481EA030E52EA0335F2
:1007F0004FEA013100F088804FEA03334FF0805513
:1008000045EA131343EA12634FEA022245EA11153F
:1008100045EA10654FEA00260EF000419D4208BFF0
:10082000964244F1FD0404F5407402D25B084FEA9D
:100830003202B61A65EB03055B084FEA32024FF449
:1008400080104FF4002CB6EB020E75EB030E22BFA6
:10085000B61A754640EA0C005B084FEA3202B6EB66
:10086000020E75EB030E22BFB61A754640EA5C0015
:100870005B084FEA3202B6EB020E75EB030E22BFA5
:10088000B61A754640EA9C005B084FEA3202B6EBA6
:10089000020E75EB030E22BFB61A754640EADC0065
:1008A00055EA060E18D04FEA051545EA16754FEAC7
:1008B00006164FEAC30343EA52734FEAC2025FEAE5
:1008C0001C1CC0D111F4801F0BD141EA00014FF074
:1008D00000004FF0004CB6E711F4801F04BF014345
:1008E0000020B4F1FD0C88BFBCF5E06F3FF6AFAE61
:1008F000B5EB030C04BFB6EB020C5FEA500C50F1F1
:10090000000041EB045170BD0EF0004E4EEA113173
:1009100014EB5C04C2BFD4EB0C0541EA045170BD7A
:1009200041F480114FF0000E013C90E645EA060EBE
:100930008DE60CEA135594EA0C0F08BF95EA0C0FEC
:100940003FF43BAF94EA0C0F0AD150EA01347FF434
:1009500034AF95EA0C0F7FF425AF104619462CE70B
:1009600095EA0C0F06D152EA03353FF4FDAE10466E
:10097000194622E750EA410618BF52EA43067FF4BF
:10098000C5AE50EA41047FF40DAF52EA43057FF44F
:10099000EBAE12E74FF0FF3C06E000BF4FF0010C5A
:1009A00002E000BF4FF0010C4DF804CD4FEA410CBE
:1009B0007FEA6C5C4FEA430C18BF7FEA6C5C1BD08B
:1009C00001B050EA410C0CBF52EA430C91EA030F0C
:1009D00002BF90EA020F0020704710F1000F91EA69
:1009E000030F58BF994208BF90422CBFD8176FEA37
:1009F000E37040F0010070474FEA410C7FEA6C5C05
:100A000002D150EA013C07D14FEA430C7FEA6C5C0B
:100A1000D6D152EA033CD3D05DF8040B704700BF37
:100A20008446104662468C461946634600E000BF85
:100A300001B5FFF7B7FF002848BF10F1000F01BD57
:100A40004DF808EDFFF7F4FF0CBF012000205DF822
:100A500008FB00BF4DF808EDFFF7EAFF34BF0120A7
:100A600000205DF808FB00BF4DF808EDFFF7E0FF40
:100A700094BF012000205DF808FB00BF4DF808ED91
:100A8000FFF7CEFF94BF012000205DF808FB00BFF8
:100A90004DF808EDFFF7C4FF34BF012000205DF8DA
:100AA00008FB00BF4FEA410C7FEA6C5C02D150EAC0
:100AB000013C0AD14FEA430C7FEA6C5C02D152EA56
:100AC000033C02D14FF0000070474FF00100704727
:100AD0004FEA410212F5001215D211D56FF4787366
:100AE000B3EB625212D94FEAC12343F0004343EA09
:100AF000505311F0004F23FA02F018BF40427047E4
:100B00004FF00000704750EA013005D111F000406D
:100B100008BF6FF0004070474FF00000704700BF03
:100B200053B94AB9002908BF00281CBF4FF0FF3154
:100B30004FF0FF3000F07AB9ADF1080C6DE904CE4A
:100B400000F006F8DDF804E0DDE9022304B07047A8
:100B50002DE9F0478C460D460446089E002B51D1E6
:100B60008A4217466DD9B2FA82FEBEF1000F0BD051
:100B7000CEF1200C01FA0EF520FA0CFC02FA0EF769
:100B80004CEA050C00FA0EF44FEA174A250CBCFBA0
:100B9000FAF81FFA87F90AFB18CC45EA0C4508FB5E
:100BA00009F3AB420AD9ED1908F1FF3280F0238135
:100BB000AB4240F22081A8F102083D44ED1AA4B2F4
:100BC000B5FBFAF00AFB105544EA054400FB09F9AD
:100BD000A14509D9E41900F1FF3380F00A81A1454C
:100BE00040F2078102383C44A4EB090440EA084083
:100BF0000021002E61D024FA0EF4002334607360CB
:100C0000BDE8F0878B4207D9002E54D0002186E83A
:100C100021000846BDE8F087B3FA83F1002940F0CF
:100C20008E80AB4202D3824200F2FA80841A65EBD6
:100C300003050120AC46002E3FD086E81010BDE829
:100C4000F08712B90127B7FBF2F7B7FA87FEBEF1BA
:100C5000000F34D1EB1B3A0C1FFA87FC0121B3FBC8
:100C6000F2F8250C02FB183345EA03450CFB08F3A8
:100C7000AB4207D9ED1908F1FF3002D2AB4200F2C6
:100C8000D1808046ED1AA3B2B5FBF2F002FB1055FD
:100C900043EA05440CFB00FCA44507D9E41900F124
:100CA000FF3302D2A44500F2B8801846A4EB0C042E
:100CB00040EA08409DE731463046BDE8F087CEF176
:100CC000200405FA0EF307FA0EF720FA04F83A0C9E
:100CD00025FA04F448EA0308B4FBF2F14FEA184598
:100CE00002FB11441FFA87FC45EA044501FB0CF3A3
:100CF000AB4200FA0EF409D9ED1901F1FF3080F092
:100D00008A80AB4240F2878002393D44EB1A1FFAD9
:100D100088F5B3FBF2F002FB103345EA034500FB14
:100D20000CF3AB4207D9ED1900F1FF386FD2AB429B
:100D30006DD902383D44EB1A40EA01418FE7C1F119
:100D4000200722FA07F88B4005FA01F448EA03036A
:100D500020FA07FE4FEA134CFD404EEA040EB5FBA5
:100D6000FCF94FEA1E440CFB19551FFA83F844EABC
:100D7000054509FB08F4AC4202FA01F200FA01FA57
:100D800008D9ED1809F1FF3043D2AC4241D9A9F19D
:100D900002091D442D1B1FFA8EFEB5FBFCF00CFB57
:100DA00010554EEA054400FB08F8A04507D9E418A1
:100DB00000F1FF3529D2A04527D902381C4440EA6A
:100DC0000940A4EB0804A0FB02894C45C6464D46E9
:100DD00015D312D056B1BAEB0E0364EB050404FA36
:100DE00007F7CB401F43CC40376074600021BDE85B
:100DF000F0871846F8E69046E0E6C245EAD2B8EB3E
:100E0000020E69EB03050138E4E72846D7E74046C0
:100E100091E78146BEE7014678E702383C4445E762
:100E2000084608E7A8F102083D442BE7704700BFD9
:100E300010B504460E4B18784FF47A73B3FBF0F3F9
:100E40000C4A1068B0FBF3F000F096F868B90F2C6C
:100E500001D9012010BD002221464FF0FF3000F0E3
:100E60004BF8054B1C60002010BD012010BD00BFD9
:100E700000000020080000200400002008B50B4BF3
:100E80001A6842F400721A601A6842F480621A60AA
:100E90001A6842F480721A60032000F01BF80020E8
:100EA000FFF7C6FF01F04CF9002008BD003C0240EE
:100EB000034A1168034B1B780B441360704700BF53
:100EC0000402002000000020014B1868704700BF9A
:100ED00004020020074AD36823F4E0631B041B0CC0
:100EE000000200F4E060184340F0BF6040F40030BE
:100EF000D060704700ED00E030B4164BDB68C3F300
:100F00000223C3F10704042C28BF04241D1D062D51
:100F100017D9033B012505FA04F4013C214099400F
:100F200005FA03F3013B1340194300280BDB0901C9
:100F3000C9B200F1604000F5614080F8001330BC98
:100F400070470023E6E700F00F000901C9B2024B29
:100F50001954F4E700ED00E014ED00E0002808DB90
:100F6000420900F01F00012303FA00F0014B43F88F
:100F70002200704700E100E00138B0F1807F0AD222
:100F8000064B5860F021064A82F823100020986032
:100F900007221A6070470120704700BF10E000E090
:100FA00000ED00E090F83530DBB2022B03D0802357
:100FB000436501207047052380F8353002681368C7
:100FC00023F001031360002070470000F0B583B0E8
:100FD00000244BE04FEAD40E0EF1080E50F82E20FC
:100FE00004F00706B6000F27B74022EA07020F6990
:100FF00007FA06F6324340F82E2046E0092600E0C4
:10100000002606FA0EF632430233644E46F82320D9
:10101000634B1A68EB4302EA03064F6817F4803FFC
:1010200001D045EA02065E4A1660526803EA0206EB
:101030004F6817F4003F01D045EA0206584A56604F
:10104000926803EA02064F6817F4801F01D045EA50
:101050000206534A9660D26813404E6816F4001F89
:1010600001D045EA02034E4AD36001340F2C00F24E
:1010700092800123A3400A6803EA0205AB42F4D13F
:101080004A68022AA6D0122AA4D006684FEA440E63
:10109000032202FA0EF2D24316404F6807F003070C
:1010A00007FA0EF73E4306604E68771E012F03D9FC
:1010B000112E01D0122E0FD186681640CF6807FA84
:1010C0000EF73E438660466826EA03034E68C6F381
:1010D0000016A64033434360C3681A408B6803FA86
:1010E0000EF31A43C2604B6813F0805FBDD000233B
:1010F00001932C4B5A6C42F480425A645B6C03F4AB
:1011000080430193019BA3089E1C244A52F8262089
:1011100004F003064FEA860E0F2606FA0EF622EAC0
:101120000602214FB8423FF46BAF204EB04222D0AE
:1011300006F58066B04220D006F58066B0421ED02B
:1011400006F58066B0421CD006F58066B0421AD023
:1011500006F58066B04218D006F58066B04216D01B
:1011600006F58066B04214D006F58066B0423FF4C2
:1011700045AF0A2645E7012643E7022641E7032655
:101180003FE704263DE705263BE7062639E7072625
:1011900037E7082635E703B0F0BD00BF003801404F
:1011A000003C0140003802400000024000040240C0
:1011B00012B909048161704781617047436931EA5E
:1011C000030301D081617047090481617047000009
:1011D000002800F0BB8170B582B00446036813F0AC
:1011E000010F3BD0A74B9B6803F00C03042B2CD0C2
:1011F000A44B9B6803F00C03082B21D06368B3F564
:10120000803F4FD0B3F5A02F52D09E4B1A6822F4E6
:1012100080321A601A6822F480221A606368002BF8
:1012200050D0FFF751FE0546964B1B6813F4003F64
:1012300014D1FFF749FE401B6428F5D903208AE149
:10124000904B5B6813F4800FD8D08E4B1B6813F45F
:10125000003F03D06368002B00F07A81236813F00D
:10126000020F55D0874B9B6813F00C0F3ED0854B77
:101270009B6803F00C03082B33D0E368002B68D085
:101280000122814B1A60FFF71FFE05467D4B1B684C
:1012900013F0020F54D1FFF717FE401B0228F5D9B7
:1012A000032058E1774A136843F480331360B5E7AD
:1012B000744B1A6842F480221A601A6842F4803231
:1012C0001A60ABE7FFF700FE05466E4B1B6813F490
:1012D000003FC3D0FFF7F8FD401B6428F5D9032079
:1012E00039E1684B5B6813F4800FC6D1654B1B680E
:1012F00013F0020F04D0E368012B01D001202AE192
:10130000604A136823F0F803216943EAC1031360BC
:10131000236813F0080F40D0636963B301225B4B6D
:101320001A60FFF7D1FD0546564B5B6F13F0020FB5
:1013300033D1FFF7C9FD401B0228F5D903200AE18C
:10134000504A136823F0F803216943EAC10313608C
:10135000DEE700224C4B1A60FFF7B6FD0546494B0D
:101360001B6813F0020FD3D0FFF7AEFD401B02281D
:10137000F5D90320EFE00022444B1A60FFF7A4FDEB
:101380000546404B5B6F13F0020F06D0FFF79CFD44
:10139000401B0228F5D90320DDE0236813F0040F79
:1013A00079D0384B1B6C13F0805F33D1002301934D
:1013B000344B1A6C42F080521A641B6C03F0805359
:1013C0000193019B0125324B1B6813F4807F23D0CE
:1013D000A368012B34D0052B38D02A4B1A6F22F08A
:1013E00001021A671A6F22F004021A67A368002B21
:1013F00036D0FFF769FD0646224B1B6F13F0020F34
:1014000048D1FFF761FD801B41F288339842F3D940
:101410000320A0E00025D6E71D4A136843F480733B
:101420001360FFF751FD0646194B1B6813F4807FCC
:10143000CED1FFF749FD801B0228F5D903208AE0B1
:10144000104A136F43F001031367CFE70D4B1A6F78
:1014500042F004021A671A6F42F001021A67C5E7E8
:10146000FFF732FD0646074B1B6F13F0020F11D03A
:10147000FFF72AFD801B41F288339842F3D90320FD
:1014800069E000BF0038024000004742800E47423A
:1014900000700040E5B9A369002B5BD0304A926828
:1014A00002F00C02082A58D0022B17D000222D4B34
:1014B0001A60FFF709FD0446294B1B6813F0007FF3
:1014C00042D0FFF701FD001B0228F5D9032042E0BE
:1014D000234A136C23F080531364DCE70022214B72
:1014E0001A60FFF7F1FC05461D4B1B6813F0007FE7
:1014F00006D0FFF7E9FC401B0228F5D903202AE0BB
:10150000E369226A1343626A43EA8213A26A5208B9
:10151000013A43EA0243E26A43EA0263104A536033
:101520000122104B1A60FFF7CFFC04460C4B1B68DE
:1015300013F0007F06D1FFF7C7FC001B0228F5D986
:10154000032008E0002006E0002004E001207047AE
:10155000012000E0002002B070BD0120FBE700BFC9
:101560000038024060004742F8B5314B9B6803F0F9
:101570000C03042B59D0082B01D02E48F8BD2C4B5E
:101580005A6802F03F025B6813F4800F2AD0284BA0
:101590005B68C3F388131E4600275C010025E41A2C
:1015A00065EB0705A90141EA9461A001001B61EB0D
:1015B0000501CB0043EA5073C400A01943EB0701B7
:1015C0004B0243EAD0534402204619460023FFF75A
:1015D000A7FA174B5B68C3F3014301335B00B0FB11
:1015E000F3F0F8BD124B5B68C3F388131E46002767
:1015F0005C010025E41A65EB0705A90141EA946145
:10160000A001001B61EB0501CB0043EA5073C4004D
:10161000A01943EB07018B0243EA90538402204652
:1016200019460023FFF77CFAD3E70348F8BD00BF53
:10163000003802400024F40000127A00002800F074
:101640009D8070B504464F4B1B6803F00F038B421F
:1016500009D2CBB24B4A1370136803F00F039942BF
:1016600001D0012070BD236813F0020F17D013F0D2
:10167000040F04D0444A936843F4E0539360236812
:1016800013F0080F04D0404A936843F4604393601A
:101690003D4A936823F0F003A068034393600D462E
:1016A000236813F0010F32D06368012B21D09A1EFA
:1016B000012A25D9344A126812F0020F60D032494B
:1016C0008A6822F0030213438B60FFF7FDFB064696
:1016D0002D4B9B6803F00C036268B3EB820F16D0AE
:1016E000FFF7F2FB801B41F288339842F0D90320C8
:1016F00070BD254A126812F4003FE0D1012070BD90
:10170000214A126812F0007FD9D1012070BD1D4B13
:101710001B6803F00F039D4209D2EAB2194B1A70FD
:101720001B6803F00F039D4201D0012070BD2368A8
:1017300013F0040F06D0144A936823F4E053E168D1
:101740000B439360236813F0080F07D00E4A936889
:1017500023F46043216943EAC1039360FFF704FF68
:10176000094B9B68C3F30313084AD35CD840084B6A
:1017700018600020FFF75CFB002070BD012070475F
:10178000012070BD003C024000380240183E0008B5
:1017900008000020014B1868704700BF08000020B7
:1017A00008B5FFF7F7FF044B9B68C3F38223034A96
:1017B000D35CD84008BD00BF00380240283E000876
:1017C00008B5FFF7E7FF044B9B68C3F34233034AB6
:1017D000D35CD84008BD00BF00380240283E000856
:1017E0000268D36823F49073D3600268536923F0CE
:1017F00001035361202380F83A30704790F8393064
:10180000DBB2212B01D0022070478368B3F5805FE3
:1018100017D00268036A591C01621B785360C38C9D
:101820009BB2013B9BB2C384DBB90268D36823F04F
:101830008003D3600268D36843F04003D360002084
:101840007047036A02681B88C3F308035360036987
:101850001BB9036A02330362E1E7036A01330362DF
:10186000DDE70020704700002DE9F04704460268DC
:10187000136923F44053C1680B4313618368026901
:10188000134342691343C26913430168CA6822F4CF
:10189000164222F00C021343CB600268536923F412
:1018A000407381690B435361C369B3F5004F62D044
:1018B000D0F80080BB4B984500F01B8103F5806396
:1018C000984500F01681FFF76BFF00EB800000EBFE
:1018D00080006568AD00B0FBF5F5B34FA7FB05359B
:1018E0006D092E01FFF75CFF00EB800000EB80002C
:1018F0006568AD00B0FBF5FAFFF752FF00EB800022
:1019000000EB80006568AD00B0FBF5F5A7FB053581
:101910006D094FF0640909FB15A52D013235A7FBB0
:1019200005356D0905F0F0053544FFF739FF00EB8B
:10193000800000EB80006668B600B0FBF6F6FFF7AB
:101940002FFF00EB800000EB800063689B00B0FB82
:10195000F3F0A7FB0030400909FB10694FEA0919B1
:1019600009F13209A7FB0937C7F343172F44C8F819
:101970000870BDE8F087D0F8008003F1804303F5DC
:10198000104398455CD003F58063984558D0FFF725
:1019900007FF00EB800000EB800065686D00B0FB86
:1019A000F5F5814FA7FB05356D092E01FFF7F8FE10
:1019B00000EB800000EB800065686D00B0FBF5FA7D
:1019C000FFF7EEFE00EB800000EB800065686D0025
:1019D000B0FBF5F5A7FB05356D094FF0640909FB70
:1019E00015A5ED003235A7FB05356D096D0005F431
:1019F000F8753544FFF7D4FE00EB800000EB800063
:101A000066687600B0FBF6F6FFF7CAFE00EB8000D2
:101A100000EB800063685B00B0FBF3F3A7FB0323DC
:101A20005B0909FB13694FEAC90909F13209A7FBF0
:101A30000937C7F342172F44C8F80870BDE8F0878C
:101A4000FFF7BEFE00EB800000EB800065686D00D4
:101A5000B0FBF5F5544FA7FB05356D092E01FFF7D7
:101A6000AFFE00EB800000EB800065686D00B0FB0E
:101A7000F5FAFFF7A5FE00EB800000EB800065683B
:101A80006D00B0FBF5F5A7FB05356D094FF0640956
:101A900009FB15A5ED003235A7FB05356D096D0075
:101AA00005F4F8753544FFF78BFE00EB800000EB82
:101AB000800066687600B0FBF6F6FFF781FE00EB6B
:101AC000800000EB800063685B00B0FBF3F3A7FBD2
:101AD00003235B0909FB13694FEAC90909F13209BC
:101AE000A7FB0937C7F342172F44C8F80870BDE8B1
:101AF000F087FFF765FE00EB800000EB8000656873
:101B0000AD00B0FBF5F5284FA7FB05356D092E019B
:101B1000FFF756FE00EB800000EB80006568AD002B
:101B2000B0FBF5FAFFF74CFE00EB800000EB800005
:101B30006568AD00B0FBF5F5A7FB05356D094FF005
:101B4000640909FB15A52D013235A7FB05356D0983
:101B500005F0F0053544FFF733FE00EB800000EBA5
:101B600080006668B600B0FBF6F6FFF729FE00EBD2
:101B7000800000EB800063689B00B0FBF3F3A7FBE1
:101B800003235B0909FB13694FEA091909F13209BB
:101B9000A7FB0937C7F343172F44C8F80870BDE8FF
:101BA000F08700BF001001401F85EB512DE9F04187
:101BB00005460F4616469846069C2B681B6837EA72
:101BC00003030CBF01230023B3421ED1B4F1FF3F36
:101BD000F3D02CB1FFF778F9A0EB08008442ECD2E7
:101BE0002A68D36823F4D073D3602A68536923F03A
:101BF00001035361202385F8393085F83A300023FA
:101C000085F838300320BDE8F0810020BDE8F08180
:101C100058B310B5044690F839300BB3242384F838
:101C200039302268D36823F40053D3602046FFF78D
:101C30001BFE2268136923F49043136122685369E1
:101C400023F02A0353612268D36843F40053D3601E
:101C50000020E063202384F8393084F83A3010BD46
:101C600080F8383000F0FAFAD8E7012070472DE903
:101C7000F04182B01E4690F83930DBB2202B04D000
:101C80000223184602B0BDE8F08104460D46904696
:101C9000002955D0002A55D090F83830012B01D1B9
:101CA0000223EEE7012380F838300023C3632123A9
:101CB00080F83930FFF708F90746A4F82480A4F823
:101CC000268010E000963B46002280212046FFF748
:101CD0006DFF002838D122682B88C3F308035360B6
:101CE0002369CBB90235E38C9BB2BBB1E38C9BB2C9
:101CF000013B9BB2E384A368B3F5805FE2D000961A
:101D00003B46002280212046FFF750FFF0B92368B0
:101D10002A785A600135E6E70135E4E700963B464C
:101D2000002240212046FFF741FF034608B103236C
:101D3000A7E7202284F83920002284F83820A0E781
:101D400001239EE701239CE703239AE7032398E7F7
:101D500090F83A30DBB2202B01D002207047F9B165
:101D600002B390F83830012B1ED081628285C28583
:101D70000023C363222280F83A2080F838300168BB
:101D8000CA6842F48072CA6001684A6942F001027E
:101D90004A610168CA6842F02002CA60184670476A
:101DA000012070470120704702207047704708B536
:101DB0000168CB6823F04003CB60202380F83930E2
:101DC000FFF7F4FF002008BD08B590F83A30DBB209
:101DD000222B01D0022008BD8368B3F5805F0FD0AD
:101DE00003690BBB836A5A1C8262026852681A70CC
:101DF000C38D9BB2013B9BB2C385F3B1002008BDEC
:101E0000826A036943B903685B68C3F308031380FC
:101E1000836A02338362EBE703685B68DBB213809B
:101E2000836A01338362E3E7826A531C8362036837
:101E30005B6803F07F031370DAE70268D36823F06E
:101E40002003D3600268D36823F48073D3600268F0
:101E5000536923F001035361202380F83A3000F0E6
:101E600045F9002008BD704710B5044602681368A4
:101E7000D168526913F00F0005D113F0200F02D082
:101E800011F0200F53D1002867D012F0010202D1C7
:101E900011F4907F61D013F0010F06D011F4807F10
:101EA00003D0E06B40F00100E06313F0040F04D0B6
:101EB0001AB1E06B40F00200E06313F0020F04D0AF
:101EC0001AB1E06B40F00400E06313F0080F04D097
:101ED0001AB1E26B42F00802E263E26B002A48D0DA
:101EE00013F0200F02D011F0200F24D123685B697A
:101EF00003F04003E26B12F0080F00D13BB3204621
:101F0000FFF76EFC23685A6912F0400F1BD05A6924
:101F100022F040025A61636B8BB11A4A1A65606BFA
:101F2000FFF740F828B3606B036D984710BD20465B
:101F3000FFF74AFF10BD2046FFF746FFD6E72046D1
:101F4000FFF791FF10BD2046FFF78DFF10BD204623
:101F5000FFF789FF0023E36310BD13F0800F02D069
:101F600011F0800F06D113F0400F02D011F0400F96
:101F700004D110BD2046FFF741FC10BD2046FFF7FD
:101F800016FFF6E7891F000808B5806B0023C3859C
:101F9000C384FFF768FF08BD30B589B000240394FF
:101FA00004940594069407940094194B1A6B42F01C
:101FB00080021A631A6B02F080020092009A019468
:101FC0001A6B42F001021A631A6B02F001020192CD
:101FD000019A02941A6B42F040021A631B6B03F0E1
:101FE00040030293029B0B4D22464FF4C04128460A
:101FF000FFF7DEF84FF4C0430393012304930594E5
:10200000069403A92846FEF7E1FF09B030BD00BFE2
:10201000003802400018024008B500221146252071
:10202000FEF76AFF2520FEF799FF08BD30B595B091
:102030003022002108A800F0A1F9002403940494A0
:1020400005940694079401941B4B1A6C42F080523D
:102050001A641B6C03F080530193019B0294174B8D
:102060001A6842F440421A601B6803F4404302932A
:10207000029B012308934FF48033099302250E95A8
:102080004FF480030F9304231093A822119212950A
:10209000139308A8FFF79CF80F2303930495059466
:1020A0004FF4A05306934FF480530793052103A8E0
:1020B000FFF7C4FA15B030BD003802400070004090
:1020C00008B5FEF7DBFEFFF7B1FFFFF765FF00F095
:1020D000ABF8FFF7A1FF012202490348FFF738FEE2
:1020E000FEE700BF080200200C02002038B502689D
:1020F0000E4B9A4200D038BD0D4D0E4C01222946A0
:102100002046FFF725FE0A23012229462046FFF735
:10211000AEFD094C4FF400512046FFF74FF84FF445
:1021200080412046FFF74AF8E5E700BF0010014074
:10213000080200200C020020001802407047000036
:1021400082B0002100910B4B5A6C42F480425A64D9
:102150005A6C02F480420092009A01911A6C42F08B
:1021600080521A641B6C03F080530193019B02B0F0
:10217000704700BF003802407047FEE7FEE7FEE709
:10218000FEE770477047704708B5FEF791FE08BD3F
:1021900008B50248FFF768FE08BD00BF0C0200202A
:1021A00008B503460B4A126842B10A4A1068034454
:1021B0006A46934206D8074A136008BD0649054A95
:1021C0001160F2E700F0B0F80C2303604FF0FF302D
:1021D00008BD00BFF8010020500200200F49D1F8CF
:1021E000883043F47003C1F888300D4B1A6842F010
:1021F00001021A60002098601A6822F0847222F4AA
:1022000080321A60074A5A601A6822F480221A60E3
:10221000D8604FF000638B60704700BF00ED00E0B6
:10222000003802401030002408B50A480A4B036009
:102230004FF4E133436000238360C36003610C22E9
:1022400042618361C361FFF7E3FC00B908BDFFF79A
:1022500075FFFBE70C0200200010014000B589B0BB
:10226000002303930493059306930793026803F1F5
:10227000804303F588339A4202D009B05DF804FB2D
:102280000021019103F594335A6C42F010025A6414
:102290005A6C02F010020192019A02911A6B42F0FC
:1022A00001021A631B6B03F001030293029B4FF4BC
:1022B000C06303930223049301230593032306932E
:1022C0000723079303A90248FEF780FED5E700BF66
:1022D00000000240DFF834D0002103E00C4B5B58D3
:1022E000435004310B480C4B42189A42F6D30B4A28
:1022F00002E0002342F8043B094B9A42F9D3FFF76E
:102300006DFF00F017F8FFF7DBFE704700000320B9
:102310006840000800000020DC010020DC010020F3
:1023200050020020FEE70000014B1868704700BF14
:102330000C00002070B50D4E0D4CA41BA410002500
:10234000A54209D10B4E0C4C01F058FDA41BA41062
:102350000025A54205D170BD56F8253098470135B6
:10236000EEE756F8253098470135F2E7604000085F
:1023700060400008604000086440000802440346D2
:10238000934200D1704703F8011BF9E72DE9FF479D
:1023900055EC104B0D9FDDF830A0002D0E469146F8
:1023A0001946B8BF22462B4627F02007BBBF05F1D0
:1023B00000431D4600232D23B8BF1446462F0B7043
:1023C00004D0452F00D10136022100E0032103ABE8
:1023D000019302AB00933246534645EC104B00F09C
:1023E000AFFB472F804602D119F0010F26D0462FB0
:1023F00008EB060911D198F80030302B0AD10022E1
:10240000002320462946FEF71BFB18B9C6F101063A
:10241000CAF80060DAF80030994400220023204610
:102420002946FEF70DFB38B93022039B994505D9A3
:10243000591C03911A70F8E7CDF80C90039B0E9A83
:10244000A3EB08034046136004B0BDE8F087F7B57E
:1024500003460029B8BF494203F8022BB4BF2D221E
:102460002B220929427020DD0DF1070217460A26AA
:1024700091FBF6F506FB15113031092D02F8011C10
:1024800002F1FF34294609DC3031023A04F8011C1C
:10249000BA421C4604D3201A03B0F0BD2246E7E737
:1024A00012F8011B03F8011BF2E730221C4611440D
:1024B00004F8022B5970EEE72DE9F04F8DB00C4671
:1024C000DDF8588016461F46054601F007F90368F7
:1024D00004931846FDF78CFE00230A93D8F80030C9
:1024E0000590073323F0070303F1080294F818A0BE
:1024F000D4F800B0C8F80020D3E90023C4E91223BF
:10250000D4E9128929F000430793CDF818804FF0E1
:10251000FF32A54BDDE90601FEF7C4FA002840F0C2
:10252000FB814FF0FF32A04BDDE90601FEF79CFA7C
:10253000002840F0F1810022002340464946FEF782
:1025400089FA10B12D2384F84330984B984ABAF198
:10255000470F8CBF9046984603232BF0040223615B
:1025600022604FF00009009733460BAA2146284607
:1025700000F0E2F9013040F093804FF0FF300DB0F1
:10258000BDE8F08F61684B1C4BF480623FD106239D
:102590006360002303930AAB029309AB009349ECF9
:1025A000108B0DF123032260CDF804A0616828464A
:1025B000FFF7ECFE0AF0DF03472B804609D1099BA9
:1025C000D81C02DB6268934257DDAAF1020A5FFA67
:1025D0008AFABAF1650F099934D80139524604F1E3
:1025E00050000991FFF733FF0A9A8318012A8146A8
:1025F000236102DC2268D10701D5013323619DF8F4
:102600002330002BAFD02D2384F84330ABE7BAF151
:10261000670F02D0BAF1470FBBD189B100230393F2
:102620000AAB029309AB009349EC108B2260CDF802
:1026300004A00DF123032846FFF7A8FE8046BEE75D
:102640000123A5E7BAF1660F19D1002963680CDDF3
:10265000216113B92268D20702D501330B442361EB
:10266000099BA3654FF00009C9E713B92268D00799
:1026700001D50233F3E70123F1E74FF0670A099B25
:102680000A9A934205DB22682361D107E8D501331A
:10269000E5E7002BD4BFC3F1020301231344DEE7B7
:1026A00023685A0507D42369424631462846B8476D
:1026B00001302BD161E7BAF1650F40F2E2800022D0
:1026C0000023D4E91201FEF7BBF900283CD0012316
:1026D000384A31462846B84701303FF44EAF0A9B8E
:1026E000099A9A4202DB2368D8070FD5059B049A02
:1026F00031462846B84701303FF43FAF4FF000085D
:1027000004F11A090A9B013B984512DB23689B07D9
:1027100009D54FF0000804F11909E3680B9A9B1AD8
:102720009845C0F2EE80E0680B9B9842B8BF18460F
:1027300025E701234A4631462846B84701303FF491
:102740001CAF08F10108DDE7099B002B34DC0123F5
:10275000184A31462846B84701303FF40EAF099B6E
:1027600023B90A9B13B92368D907CFD5059B049ACF
:1027700031462846B84701303FF4FFAE4FF000091C
:1027800004F11A0A099B5B42994501DB0A9B8BE71E
:102790000123524631462846B84701303FF4EDAE9A
:1027A00009F10109EEE700BFFFFFEF7F303E0008AF
:1027B000343E0008403E00080A9AA36D9A42A8BF22
:1027C0001A46002A914638DC04F11A034FF0000B38
:1027D00029EAE9790693D4F858A0AAEB09039B45A6
:1027E00033DB0A9B099A9A423ADB2368DA0737D42B
:1027F0000A9B0999A3EB0A02A3EB01099145A8BF23
:102800009146B9F1000F33DC4FF0000829EAE9796D
:1028100004F11A0A099A0A9B9B1AA3EB090398452B
:10282000BFF674AF0123524631462846B8470130FF
:102830003FF4A3AE08F10108ECE7134631464246E7
:102840002846B8470130BFD197E60123069A3146A2
:102850002846B84701303FF490AE0BF1010BBAE7C0
:10286000059B049A31462846B8470130C0D184E61A
:102870004B4608EB0A0231462846B8470130C3D11F
:102880007BE60A9A012A01DCDB0737D501234246A1
:1028900031462846B84701303FF46FAE059B049A95
:1028A00031462846B84701303FF467AE0022002386
:1028B000D4E91201FEF7C4F858B14FF0000804F152
:1028C0001A0A0A9B013B98450DDB4B4604F1500266
:1028D000EBE60A9B08F10102013B31462846B84766
:1028E0000130F2D149E60123524631462846B84725
:1028F00001303FF442AE08F10108E2E7012342460D
:10290000EBE701234A4631462846B84701303FF4F9
:1029100034AE08F1010800E742464B4640464946BE
:10292000FEF7C0F800283FF42DAE014B014A0EE639
:10293000383E00083C3E00082DE9F04791461F460E
:102940008A680B69DDF820809342B8BF1346C9F846
:10295000003091F8432006460C4612B10133C9F805
:1029600000302368990642BFD9F800300233C9F815
:102970000030256815F0060507D104F1190AE3684F
:10298000D9F800209B1A9D4229DB94F84330226835
:10299000003318BF012392062ED404F143023946B6
:1029A0003046C047013021D02368E568D9F80020BF
:1029B00003F00603042B08BFAD1AA36822690CBFFD
:1029C00025EAE57500259342C4BF9B1AED184FF028
:1029D00000091A344D451BD10020BDE8F0870123C2
:1029E000524639463046C047013003D14FF0FF30E0
:1029F000BDE8F0870135C2E7E1185A1C302081F8A4
:102A00004300224494F8451082F843100233C4E78F
:102A10000123224639463046C0470130E6D009F14D
:102A20000109D7E72DE9F74F03690C699C428046FD
:102A300000F38280013C01F114074FEA840E00F19B
:102A4000140657F8245056F8240006EB0E030135FF
:102A500007EB0E090193B0FBF5F595B34FF0000AB3
:102A60003846B446D34650F8042B93B205FB03A373
:102A70004FEA134A9BB2ABEB0303120CBCF800B055
:102A800005FB02A213FA8BF34FEA124A1FFA82FBEC
:102A9000DCF80020CBEB124202EB23429BB243EA6C
:102AA000024381454FEA224B4CF8043BDBD256F8F7
:102AB0000E3033B9019B043B9E421A4630D3C8F80E
:102AC0001040404601F035F8002825DB013530463E
:102AD0004FF0000E57F8042BD0F800C093B2AEEBC5
:102AE0000303120C13FA8CF3C2EB1C4202EB2342D9
:102AF0009BB243EA0243B9454FEA224E40F8043BF9
:102B0000E8D256F8242006EB84032AB9043B9E42FF
:102B10001A460BD3C8F81040284603B0BDE8F08F22
:102B20001268043B002ACAD1013CC5E71268043B85
:102B3000002AEFD1013CEAE70020EEE700000000A8
:102B40002DE9F04F57EC106B97B0CDE90067466A5E
:102B5000079104460A920F93209D3EB9102000F081
:102B6000CBFD6062466086600660C660636A196875
:102B700051B15A684A60012393408B60204600F0AF
:102B800002FE636A00221A60019B002BBFBF012373
:102B90002B60019B23F00043B2BF019300232B6005
:102BA000DDF80480A84B33EA08031BD10F9A42F2E8
:102BB0000F731360009B23B9C8F31300002800F0C3
:102BC0007885219B53B9A14B21E0A14B0293083397
:102BD000219A1360029817B0BDE8F08F9B4B0293C7
:102BE0000333F5E7DDE9006700220023304639466C
:102BF000FDF726FF814660B10F9A01231360219BE8
:102C0000002B00F05385934B219A1360013B0293F4
:102C1000E0E714AA15A947EC106B204601F001F873
:102C2000C8F30A558246002D7ED0C7F3130343F044
:102C30007F51304641F44011A5F2FF35CDF8489060
:102C40000022854BFDF7E0FA79A3D3E90023FDF7D5
:102C50008FFC79A3D3E90023FDF7D8FA064628466E
:102C60000F46FDF71FFC76A3D3E90023FDF780FC98
:102C700002460B4630463946FDF7C8FA06460F466F
:102C8000FDF726FF00228346002330463946FDF734
:102C9000E1FE58B15846FDF705FC02460B463046AA
:102CA0003946FDF7CDFE08B90BF1FF3BBBF1160F1E
:102CB00059D86A4901EBCB01DDE90023D1E90001D4
:102CC000FDF7E6FE002850D00BF1FF3B00230E93EA
:102CD000149B5D1B6B1E069345BFC5F10103059355
:102CE000002300234CBF06930593BBF1000F3EDB8E
:102CF000069BCDF82CB05B44069300230893079BFA
:102D0000092B00F2AF80052BC4BF043B0793079B40
:102D1000A3F10203CCBF00260126032B00F2AE80F4
:102D2000DFE803F082842F77159B149D1D4405F284
:102D30003243202B11DD009A05F21240C3F140030B
:102D400022FA00F008FA03F31843FDF79BFB012376
:102D5000A1F1F871013D129372E7C3F12000009BCD
:102D600003FA00F0F1E70123B1E70E90B0E7059B0D
:102D7000A3EB0B030593CBF10003089300230B9304
:102D8000BDE7012309930A9B002B7ADD049303938B
:102D9000656A00226A60042101F114029A4275D921
:102DA0006968204600F0BBFC636A28601B680293D8
:102DB000039B0E2B00F2E580002E00F0E2809DEDDB
:102DC000007BBBF1000F8DED0C7B74DD234A0BF013
:102DD0000F034FEA2B1602EBC303F006D3E9008979
:102DE00059D51F4B51EC170BD3E90823FDF7EAFC2B
:102DF000CDE9000106F00F060325194F002E4CD136
:102E000042464B46DDE90001FDF7DCFCCDE900015F
:102E10006AE0012309930A9B5B4404930133012B6D
:102E20000393B8BF0123B3E70023ABE70023F1E727
:102E300061436F63A787D23FB3C8608B288AC63FC0
:102E4000FB799F501344D33F0000F07F4B3E0008B6
:102E5000423E0008413E00080000F83F783E00086E
:102E6000503E000801260023079309964FF0FF33D8
:102E700004930393002212230A9289E70123099302
:102E8000F4E70123049303931A46F5E76A680132D5
:102E90006A60490080E70225AFE7F10708D54046A0
:102EA0004946D7E90023FDF763FB01358046894693
:102EB00076100837A2E700F09D80CBF100069F4B0B
:102EC0009F4F06F00F0203EBC203D3E90023DDE9B5
:102ED0000C01FDF74DFBCDE9000136110023022561
:102EE000002E7CD1002B91D10E9B002B00F0848012
:102EF000DDE900890022934B40464946FDF7AAFDD3
:102F0000002879D0039B002B76D0049B002B34DD66
:102F100000228D4B40464946FDF72AFBCDE90001D2
:102F2000049E0BF1FF3701352846FDF7BBFADDE9BA
:102F30000023FDF71DFB0022844BFDF767F9804657
:102F4000A1F15079002E5AD10022814BDDE9000118
:102F5000FDF75AF942464B46CDE90001FDF798FDD1
:102F6000002840F09B82424609F10043DDE9000160
:102F7000FDF770FD002840F08F82DDE90C23CDE9DC
:102F80000023159B002BC0F25081BBF10E0F00F304
:102F90004C816A4B03EBCB03D3E900890A9B002BDE
:102FA00080F2DA80039B002B00F3D68040F073821E
:102FB0000022674B40464946FDF7DAFADDE9002377
:102FC000FDF75CFD039E3746002840F04A82029BD5
:102FD000029A5D1C312313700BF1010B45E2F207DD
:102FE00005D5D7E90023FDF7C3FA01350123761093
:102FF000083775E7022577E75F46039E94E7029A54
:103000004E4B32441392099A711E002A48D003EBAA
:10301000C103D3E9002300204E49FDF7D3FB42460C
:103020004B46FDF7F1F8029D80468946DDE9000137
:10303000FDF74EFD0646FDF735FA02460B46DDE983
:103040000001FDF7E1F8303605F8016B42464B46CA
:10305000CDE90001FDF7FEFC002865D1DDE9002384
:1030600000203849FDF7D0F842464B46FDF7F2FC08
:10307000002840F0BA80139B9D423FF47EAF0022AF
:10308000314B40464946FDF773FA00228046894697
:103090002D4BDDE90001FDF76BFACDE90001C5E735
:1030A00003EBC10142464B46D1E90001FDF760FA4E
:1030B000CDE91001029DDDE90001FDF709FD06469D
:1030C000FDF7F0F9303602460B46DDE90001FDF769
:1030D0009BF805F8016B139BAB42804689464FF085
:1030E000000225D11B4BDDE91001FDF78FF80246E8
:1030F0000B4640464946FDF7CBFC002875D1DDE97B
:10310000102300201349FDF77FF802460B46404686
:103110004946FDF79FFC00283FF42FAF15F8013C0E
:10312000302B05F1FF3201D0BB464DE01546F5E7E7
:10313000054BFDF71DFACDE90001BCE7783E00081C
:10314000503E00080000F03F0000244000001C40FA
:10315000000014400000E03FDDE90067029D4246A8
:103160004B4630463946FDF72DFBFDF7B1FC00908C
:10317000FDF798F942464B46FDF7FAF902460B4631
:1031800030463946FDF740F8009E039F303605F87B
:10319000016B029EAE1BB74202460B4638D1FDF7CB
:1031A00035F806460F4602460B4640464946FDF7AF
:1031B00051FCC8B932463B4640464946FDF740FC03
:1031C00010B1009BDB070FD45146204600F0DBFA1C
:1031D00000230F9A2B700BF101031360219B002B2E
:1031E0003FF4F8AC1D60F5E45F4615F8012C392A70
:1031F00005F1FF3306D1029A9A4207D130231370AA
:10320000013713461A7801321A708DE71D46ECE734
:103210000022A44BFDF7ACF90022002306460F461E
:10322000FDF70EFC00289AD0CEE7099A002A00F09C
:10323000CD80079A012A00F3AF80129A002A00F08D
:10324000A78003F23343089E059D059A1A44059210
:10325000069A01211A442046069200F034FB0746E4
:10326000002D0CDD069B002B09DDAB42059AA8BFA3
:103270002B46D21A0592069AED1AD31A0693089B8A
:10328000F3B1099B002B00F0A580002E10DD39461C
:103290003246204600F0AEFB524601460746204625
:1032A00000F01AFB51468046204600F06CFAC246F8
:1032B000089B9A1B04D05146204600F09BFB824697
:1032C0000121204600F0FFFA0B9B002B064640F33D
:1032D00083801A460146204600F08CFB079B012B99
:1032E00006467CDD4FF00008336906EB830318695E
:1032F00000F09BFAC0F12000069B184410F01F005C
:1033000000F09680C0F12003042B40F38780059BDA
:10331000C0F11C0003440593069B05440344069337
:10332000059B002B05DD51461A46204600F0B0FBF8
:103330008246069B002B05DD31461A46204600F0EA
:10334000A7FB06460E9B002B74D03146504600F07A
:10335000F0FB00286EDA002351460A22204600F0D6
:1033600029FA099B0BF1FF3B8246002B00F0A88154
:10337000002339460A22204600F01CFA049B002B49
:10338000074600F3C880079B022B40F3C48059E036
:10339000149BC3F1360356E7039B5E1E089BB342A2
:1033A000BFBF089B0896F21A0B9BB6BF9B189E1BCB
:1033B0000B93039BB8BF0026002BB9BF059B039A54
:1033C000059D039BBCBF9D1A00233EE7089E059DFB
:1033D000099F45E7089A6EE7079B012B19DC009BC4
:1033E000BBB9019BC3F313039BB9019B23F00043BB
:1033F0001B0D1B0583B1059B01330593069B013310
:1034000006934FF001080B9B002B7FF46DAF01205A
:1034100072E74FF00008F6E79846F4E780D0059A87
:103420001C331A440592069A1A441D44134676E743
:103430000346F4E7039B002B36DC079B022B33DDAE
:10344000039B0493049B63B931460522204600F098
:10345000B1F901460646504600F06BFB00283FF7E5
:10346000B6AD0A9B029D6FEA030B0023039331461E
:10347000204600F088F9002F3FF4A6AE039B2BB145
:10348000BB4203D01946204600F07DF9394620465C
:1034900000F079F998E600263746E2E7BB46374662
:1034A00095E500BF00002440099B93BB039B049358
:1034B000029D31465046FFF7B5FA00F1300905F894
:1034C000019B029B049AEB1A9A4200F3DC80029B58
:1034D000012AACBF9B180133984600230393514641
:1034E0000122204600F0D4FA3146824600F021FB4A
:1034F000002800F38D8003D119F0010F40F088807F
:10350000454615F8013C302B05F1FF32AFD1154689
:10351000F7E7039B0493002D05DD39462A46204634
:1035200000F0B6FA0746B8F1000F4CD07968204693
:1035300000F0F5F83A6902320546920007F10C01F5
:103540000C3000F0E1F801222946204600F0A0FAF4
:10355000009BDDF80880039703F0010307460593FD
:1035600031465046FFF75EFA0399054600F13009EF
:10357000504600F0DEFA3A4600903146204600F010
:10358000F2FAC368024603BB01460690504600F0BB
:10359000D0FA069A034611462046069300F0F3F847
:1035A000069BA3B9079A92B9059A82B9B9F1390F66
:1035B00029D0009B002B01DD05F1310908F101053F
:1035C00088F8009053E73846C2E70123E3E7009A02
:1035D000002A04DB25D1079A1ABB059A0ABB002BE7
:1035E000ECDD51460122204600F052FA3146824677
:1035F00000F09FFA002803DCE0D119F0010FDDD0C4
:10360000B9F1390FD8D1392388F8003008F1010811
:10361000454615F8013C392B05F1FF323BD001330B
:1036200040E0002B08F1010505DDB9F1390FEAD0C2
:1036300009F10109C4E7029B049A05F8019CEB1A01
:103640009342A8463FF44BAF514600230A2220463E
:1036500000F0B0F8039B0399BB4282464FF0000391
:103660004FF00A02204604D100F0A4F80390074668
:1036700076E700F09FF8002303900A22394620469F
:1036800000F098F8F3E7514600230A22204600F0A4
:1036900091F882460DE7029B934205D1029A0BF105
:1036A000010B31231370E2E61546B2E7094BFFF731
:1036B000AEBA219B002B7FF488AA074BFFF7A7BA6D
:1036C000049B002B3FF7F4AE079B022B7FF7F0AE75
:1036D000B8E600BF403E0008423E0008044B1B68AD
:1036E000186A044B002808BF1846F030704700BF26
:1036F0000C00002070000020024B0146186800F00A
:10370000EDBA00BF0C00002010B5431E0A449142E0
:1037100000D110BD11F8014B03F8014FF7E770B568
:10372000456A04460E463DB91020FFF7E5FF60628A
:10373000456085600560C560656AEB6883B1636A52
:10374000DB6853F82600B8B9012101FA06F56A1DB5
:103750009200204600F0B4FA60B1466085600EE049
:1037600021220421204600F0ABFA636AE860DB689E
:10377000002BE4D1002070BD026843F8262000230E
:103780000361C36070BD70B5446A06460D463CB91E
:103790001020FFF7B1FF7062446084600460C46071
:1037A0003DB1736A6A68DB6853F82210296043F8F8
:1037B000225070BD2DE9F0410D691F4606460C46AA
:1037C00001F1140E0023DEF8000081B202FB01714A
:1037D0000F0C000C02FB007089B2013301EB0041B9
:1037E0009D424FEA10474EF8041BECDCD7B1A368AA
:1037F0009D4212DB616830460131FFF790FF22697C
:10380000023204F10C01804692000C30FFF77CFF7D
:1038100021463046FFF7B7FF444604EB85030135E8
:103820005F6125612046BDE8F081020C1204034669
:10383000B2B90304102013F07F4F04BF1B020830FD
:1038400013F0704F04BF1B01043013F0404F04BF4E
:103850009B000230002B06DB5B0003D50130704774
:103860000020E8E720207047036813F007020146B4
:103870000BD0DA0723D4980749BF5B089B080120C7
:103880000B605CBF0B600220704798B2A8B91B0C9C
:10389000102013F0FF0F04BF1B0A08301A0704BFE3
:1038A0001B0904309A0704BF9B080230DA0702D4D0
:1038B0005B0806D001300B6070471046E9E7002036
:1038C00070472020704710B50C460121FFF727FFF5
:1038D00001224461026110BD2DE9F74F14460A69C7
:1038E00023699A42B8BF0B468946BCBFA1461C4615
:1038F000D9F81070D4F810A0D9F80830D9F804100D
:1039000007EB0A069E42C8BF0131FFF708FF00F12E
:10391000140505EB86082B460022434516D304F117
:10392000140209F1140102EB8A0301EB87070193EA
:10393000019C944213460CD8002E03DD58F8043D38
:10394000002B54D0066103B0BDE8F08F43F8042B80
:10395000E3E7B3F800A00432BAF1000F20D0AE467E
:1039600089464FF0000C59F8044BBEF800B0A3B2E2
:103970000AFB03B34FEA144BDEF8004063444FEAFE
:10398000144C0AFB0BC404EB13449BB243EA0443FC
:103990004F454FEA144C4EF8043BE4D8CEF800C033
:1039A00032F8029CB9F1000F1FD02B68AE468C464E
:1039B0004FF0000ABCF80040BEF802B009FB04B4A6
:1039C000A2449BB243EA0A434EF8043B5CF8043B32
:1039D000BEF800401B0C09FB034303EB1A43674589
:1039E0004FEA134AE6D8CEF800300435A0E7013E8E
:1039F000A2E700002DE9F843154612F0030206463F
:103A00000F4607D0013A214C002354F82220FFF73B
:103A1000D1FE0746AD1035D0746A3CB91020FFF7CF
:103A20006BFE7062446084600460C460D6F82480D9
:103A3000D8F808404CB940F271213046FFF743FFF7
:103A40000023C8F80800044603604FF00008EB07A5
:103A50000AD5394622463046FFF73EFF39468146B1
:103A60003046FFF790FE4F466D100BD0206838B9F6
:103A7000224621463046FFF72FFF2060C0F8008025
:103A80000446E4E73846BDE8F88300BF403F00083D
:103A90002DE9F0470C464FEA621A236949680AEBA0
:103AA0000309A3680746164609F10105AB4231DB5D
:103AB0003846FFF734FE0022804600F11403114619
:103AC00052452ADB20692AEAEA7A04F1140116F049
:103AD0001F0203EB8A0301EB800E22D0C2F1200CFF
:103AE00000200E689640304343F8040B51F8040B55
:103AF0008E4520FA0CF0F4D8186008B109F10205DF
:103B0000013D3846C8F810502146FFF73CFE4046BC
:103B1000BDE8F08701315B00C8E743F822100132AD
:103B2000CEE7043B51F8042B43F8042F8E45F9D817
:103B3000E6E703690A699B1A30B50CD1920014308C
:103B400014318418114454F8045D51F8042D954241
:103B500003D005D30123184630BDA042F3D3FAE7C2
:103B60004FF0FF33F7E72DE9F0470D4607461146C2
:103B700028461446FFF7DDFF061E08D131463846B9
:103B8000FFF7CDFD012303614661BDE8F087A4BFC7
:103B900023462C4638466168A6BF1D4600260126EE
:103BA000FFF7BDFD2B69C660266905F1140904F114
:103BB000140202EB860709EB830800F114054FF0AD
:103BC000000C52F804AB59F8044B1CFA8AF1A3B26A
:103BD000C91A230CC3EB1A4303EB214389B24FEA02
:103BE000234CC84541EA0343964645F8043BE8D8D0
:103BF000BE4505D355F8043D8BB10661BDE8F0879D
:103C00005EF8041B1CFA81F31A1402EB11429BB2FA
:103C100043EA02434FEA224C45F8043BE8E7013E01
:103C2000E8E72DE9F7430E46012159EC108B1546C4
:103C3000FFF775FDC9F30A540746C9F3130334BBF4
:103C40000193B8F1000F27D002A840F8088DFFF7C4
:103C50000BFE0099F0B1019AC0F1200302FA03F3C0
:103C60000B43C2407B610192019BBB61002B14BFDF
:103C7000022101213961C4B1A4F233440444346007
:103C8000C0F135002860384603B0BDE8F08343F446
:103C90008013D5E77961E7E701A8FFF7E5FD019B10
:103CA0007B61012139612030E5E707EB8103A0F258
:103CB000324030601869FFF7B8FDC0EB4110E1E712
:103CC00038B502FB01F4214600F008F8054618B1AA
:103CD00022460021FEF752FB284638BD70B5CD1CA8
:103CE00025F0030508350C2D38BF0C25002D0646A0
:103CF00001DBA94203D90C233360002070BD00F022
:103D00006DF8234A1468214691B9224C23681BB9E7
:103D1000304600F041F820602946304600F03CF87B
:103D2000431C26D10C233360304600F058F8E4E7FA
:103D30000B685B1B1AD40B2B0FD90B60CD50CC1822
:103D4000304600F04CF804F10B00231D20F0070072
:103D5000C31A1BD05A42E25070BD8C420DBF63683B
:103D60004B686360136018BF0C46E9E70C4649686E
:103D7000CAE7C41C24F00304A04205D0211A30462F
:103D800000F00AF80130CDD02560D9E770BD00BF42
:103D9000FC0100200002002038B5064C0023054637
:103DA00008462360FEF7FCF9431C02D1236803B1E7
:103DB0002B6038BD4C02002082B001B901A942B18C
:103DC0004BB113780B601278101C18BF012002B0A1
:103DD00070471046FBE76FF00100F8E77047704747
:103DE00049B1FF2A85BF8A2303600A704FF0FF3074
:103DF00098BF01207047084670470000F8B500BF23
:103E0000F8BC08BC9E467047F8B500BFF8BC08BCBB
:043E10009E46704713
:103E18000000000000000000010203040607080972
:103E28000000000001020304494E4600696E660066
:103E38004E414E006E616E003000496E66696E69D3
:103E48007479004E614E00000080E03779C3414329
:103E5800176E05B5B5B89346F5F93FE9034F384DE8
:103E6800321D30F94877825A3CBF737FDD4F157594
:103E7800000000000000F03F0000000000002440A7
:103E880000000000000059400000000000408F4082
:103E9800000000000088C34000000000006AF840ED
:103EA8000000000080842E4100000000D012634111
:103EB8000000000084D797410000000065CDCD4187
:103EC800000000205FA00242000000E87648374268
:103ED800000000A2941A6D42000040E59C30A24206
:103EE8000000901EC4BCD64200003426F56B0C437B
:103EF8000080E03779C3414300A0D8855734764322
:103F080000C84E676DC1AB43003D9160E458E14382
:103F1800408CB5781DAF154450EFE2D6E41A4B44F7
:103F280092D54D06CFF08044F64AE1C7022DB5443C
:103F3800B49DD9794378EA440500000019000000CF
:103F48007D0000004300504F534958002E000020C8
:103F58002020202020202020282828282820202031
:103F680020202020202020202020202020202088E1
:103F78001010101010101010101010101010100445
:103F88000404040404040404041010101010101095
:103F98004141414141410101010101010101010189
:103FA800010101010101010101011010101010109F
:103FB8004242424242420202020202020202020259
:103FC8000202020202020202020210101010200075
:103FD80000000000000000000000000000000000D9
:103FE80000000000000000000000000000000000C9
:103FF80000000000000000000000000000000000B9
:1040080000000000000000000000000000000000A8
:104018000000000000000000000000000000000098
:104028000000000000000000000000000000000088
:104038000000000000000000000000000000000078
:104048000000000000000000000000000000000068
:08405800F8CAFF7F010000001F
:04406000D50100087E
:04406400B10100089E
:1040680001000000100000000024F40010000020EF
:104078000000000000000000000000000000000038
:104088000000000000000000000000000000000028
:104098000000000000000000000000000000000018
:1040A8000000000000000000000000000000000008
:1040B80000000000000000000000000000000000F8
:1040C80000000000000000000000000000000000E8
:1040D8004300000000000000000000000000000095
:1040E80000000000000000000000000000000000C8
:1040F8004300000000000000000000000000000075
:1041080000000000000000000000000000000000A7
:104118004300000000000000000000000000000054
:104128000000000000000000000000000000000087
:104138004300000000000000000000000000000034
:104148000000000000000000000000000000000067
:104158004300000000000000000000000000000014
:104168000000000000000000000000000000000047
:1041780043000000000000000000000000000000F4
:104188000000000000000000000000000000000027
:1041980043000000000000000000000000000000D4
:1041A8000000000000000000000000000000000007
:1041B800E13D0008B93D000800000000563F000836
:1041C800543F0008553F0008553F0008553F000878
:1041D800553F0008553F0008553F0008553F000867
:1041E800553F0008553F0008FFFFFFFFFFFFFFFF97
:1041F800FFFFFFFFFFFF0000010041534349490053
:1042080000000000000000000000000000000000A6
:10421800000000000000000000004153434949002D
:104228000000000000000000000000000000000086
:0C4238000000000000000000000000007A
:04000005080022D5F8
:00000001FF
