:020000040800F2
:10000000005000206D1300080D1300080F130008A6
:100010001113000813130008151300080000000056
:10002000000000000000000000000000171300089E
:1000300019130008000000001B1300081D1300081E
:10004000B5130008B5130008B5130008B513000870
:10005000B5130008B5130008B5130008B513000860
:10006000B5130008B5130008B5130008B513000850
:10007000B5130008B5130008B5130008B513000840
:10008000B5130008B5130008B5130008B513000830
:10009000B5130008B5130008B5130008B513000820
:1000A000B5130008B5130008B5130008B513000810
:1000B000B5130008B5130008B5130008B513000800
:1000C000B5130008B5130008B5130008B5130008F0
:1000D000B5130008B5130008B5130008B5130008E0
:1000E000B5130008B5130008B513000800000000A0
:1000F0000000000000000000000000000000000000
:0C01000000000000000000005FF808F1A3
:10010C0010B5054C237833B9044B13B10448AFF345
:10011C0000800123237010BD1C0000200000000093
:10012C001014000808B5034B1BB103490348AFF387
:10013C00008008BD00000000200000201014000802
:10014C0038B50E4B054618784FF47A73B3FBF0F3C1
:10015C000B4A1068B0FBF3F000F092F8044658B963
:10016C000F2D09D8024629464FF0FF3000F054F805
:10017C00044B20461D6038BD012038BD0000002016
:10018C001800002004000020074A08B5136803205B
:10019C0043F01003136000F02DF80020FFF7D0FFA0
:1001AC0001F050F8002008BD00200240034A044B27
:1001BC0011681B780B441360704700BF3800002097
:1001CC0000000020014B1868704700BF3800002069
:1001DC0038B50446FFF7F6FF0546631C1EBF044BFB
:1001EC001B78E418FFF7EEFF401B8442FAD838BDA9
:1001FC0000000020074A0002D36800F4E06023F4FA
:10020C00E0631B041B0C43F0BF6343F40033034354
:10021C00D360704700ED00E0174B30B5DC68C4F3D9
:10022C000224C4F10703251D042B28BF0423062D2B
:10023C004FF0010598BF002405FA03F303F1FF33D7
:10024C0088BF033C1940A14005FA04F4013C22404C
:10025C00002842EA01024FEA0212A9BF00F16040F5
:10026C00064BD2B200F56140BBBF00F00F00D2B21A
:10027C0080F800231A5430BD00ED00E014ED00E0CE
:10028C000138B0F1807F0AD2F021064B064A586043
:10029C0082F823100020072298601A607047012012
:1002AC00704700BF10E000E000ED00E02DE9F74FD3
:1002BC0000242646664BDFF8A8E1DFF8A8C10A68DF
:1002CC0032FA06F502D103B0BDE8F08F4FF0010809
:1002DC0008FA06F802EA080290457FD14D68122D03
:1002EC0000F0AA8000F28380022D00F0A28077D863
:1002FC00002D00F08980012D00F099804FF00F093E
:10030C00FF2A93BF824606F18045083DD0F800B025
:10031C0092BFB500D0F804B0AD0009FA05F82BEA8D
:10032C00080804FA05F588BF00F1040A48EA050537
:10033C00CAF80050D1F804A01AF0805F4ED0454D99
:10034C00444FAD6926F0030845F00105BD61BD6958
:10035C0008F1804805F00105019508F5803806F094
:10036C00030B019D4FEA8B0BD8F8085009FA0BF9D7
:10037C0025EA0909384DA84263D005F58065A842E5
:10038C0061D005F58065A8425FD005F58065A8426F
:10039C000CBF0325042505FA0BF545EA0905C8F839
:1003AC0008501D681AF4803F14BF154395431D6017
:1003BC005D681AF4003F14BF154395435D609D685A
:1003CC001AF4801F14BF154395439D60DD681AF421
:1003DC00001F14BF2A4325EA0202DA6001366EE7D9
:1003EC00032D22D0112D89D1CC68043486E71B4F04
:1003FC00BD4209D012D8DFF870904D4504D009F5F4
:10040C0080394D457FF47AAF8C68C4B1012C0CBF98
:10041C00C0F81080C0F8148008246FE77545F3D03D
:10042C006545F1D0DFF84490EBE7002466E7CC6833
:10043C0064E7CC68083461E7CC680C345EE70424CC
:10044C005CE70025A7E70125A5E70225A3E700BF88
:10045C00000401400010024000080140000021107F
:10046C0000003110000032100000111000002210AA
:10047C000AB1016170470904FBE7C3680B4214BF62
:10048C00416101617047016800224B6913F480637C
:10049C0010D06FF480634B612023026380F83D30F1
:1004AC0080F83E20036C80F83C2043F00403036486
:1004BC0001207047184670472DE9F843044617464B
:1004CC009946C1F307488EB22568B8F1010F0CBFED
:1004DC006B69AB6936EA030314BF0120002008B92D
:1004EC00BDE8F8836B695A0516D52B68202243F4B6
:1004FC0000732B606FF480636B610023236384F8BB
:10050C003D2084F83E30226C42F00402226484F8D0
:10051C003C300120BDE8F8837B1CD5D0FFF752FEA0
:10052C00A0EB0900874201D3002FCDD1002320225C
:10053C00236384F83D2084F83E30226C42F0200284
:10054C00E4E770B504460D46164623685B695B0705
:10055C0001D5002070BD2046FFF795FFA8B96A1C95
:10056C00F3D0FFF72FFE801B854201D3002DECD179
:10057C0000232022236384F83D2084F83E30226C33
:10058C0084F83C3042F020022264012070BD2DE939
:10059C00F843044690461F46089EC1F307498DB2A6
:1005AC002368B9F1010F0CBF5B699B6935EA030342
:1005BC000CBF01230023434502D00020BDE8F88383
:1005CC007B1CEDD0FFF7FEFD801B874201D3002F73
:1005DC00E6D100232022236384F83D2084F83E30AA
:1005EC00226C84F83C3042F0200222640120BDE8E9
:1005FC00F88370B504460D46164623685B691B06E6
:10060C0001D5002070BD2046FFF73DFFA8B96A1C3C
:10061C00F3D0FFF7D7FD801B854201D3002DECD121
:10062C0000232022236384F83D2084F83E30226C82
:10063C0084F83C3042F020022264012070BD00009E
:10064C0070B5044608B9012070BD90F83D3003F038
:10065C00FF021BB980F83C2000F016FE2423226810
:10066C0084F83D30136823F00103136000F0D2FBD3
:10067C006568414B9D424DD8404B9842E3D9404967
:10068C002268B0FBF1F1536823F03F030B43536036
:10069C00136A23F03F03013119431162D169364BC0
:1006AC0021F44F419D4221F0FF0100F1FF3048D869
:1006BC006D00B0FBF5F00130C0F30B03042B38BF19
:1006CC0004230B43D3611168206AE36921F0C00154
:1006DC0003430B4313609168E068236921F40341E1
:1006EC00034321F0FF010B439360D168A069636958
:1006FC0021F0FF0103430B43D3601368002043F048
:10070C00010313602023206484F83D30206384F8B7
:10071C003E0070BD1B4B984295D9194E4FF4967103
:10072C00B0FBF6F622687143536823F03F03334362
:10073C004FF47A765360136AB1FBF6F123F03F0362
:10074C00A9E7A36853B905EB4503B0FBF3F0431CD1
:10075C00C3F30B036BB143F40043B2E719236B43B0
:10076C00B0FBF3F0431CC3F30B0313B143F440434E
:10077C00A7E70123A5E700BFA08601007F841E0028
:10078C0040420F00FF083D002DE9FF4104461F4683
:10079C000D469046FFF716FD94F83D300646202B8B
:1007AC0004D00225284604B0BDE8F081009019233E
:1007BC00012258492046FFF7EAFE0028F1D194F8AF
:1007CC003C30012BEDD0012384F83C3023681A68AF
:1007DC00D2075EBF1A6842F001021A601A6822F44E
:1007EC0000621A60212284F83D20102284F83E20F9
:1007FC00002222646785628DC4F824802285464AD3
:10080C00E262E26A082A04D0012A02D012F5803F83
:10081C0004D11A6842F480721A6002E0226B122A28
:10082C00F7D000960A9B00224FF001112046FFF7EB
:10083C00AEFE08B10125B5E723692268B3F5804FF8
:10084C0013D105F0FE05156133460A9A334920464B
:10085C00FFF732FE05460028ECD1236803905A6955
:10086C0003929B690393039B44E0EB1103F0060393
:10087C0043F0F00313612A4933460A9A2046FFF7E6
:10088C001BFE0028D6D12368EDB21D61DCE7324691
:10089C000A992046FFF7ADFE40B1236C042B01BF33
:1008AC002268136843F400731360C3E7636A20681B
:1008BC001A4612F8011B01616262628D013A92B212
:1008CC006285228D4769511E89B27F0721850AD521
:1008DC0049B15978023301616362638D023A013B7D
:1008EC009BB26385228532460A992046FFF729FE82
:1008FC000028D2D1238D002BC9D121680A6842F47B
:10090C0000720A60202284F83C3084F83D2084F880
:10091C003E3047E7020010000000FFFF020001001C
:10092C00080001002DE9F341054608B901203CE01F
:10093C000368DB0710D42B689F075DD42B6819075D
:10094C0000F194802B685A0700F1BE80E8690028FA
:10095C0040F02C81002028E08F4C636803F00C03DE
:10096C00042B07D0636803F00C03082B09D16368D0
:10097C00DE0306D523689C03DDD56B68002BDAD12A
:10098C00D4E76B68B3F5803F12D1236843F480330E
:10099C002360FFF717FC064623689803CBD4FFF7B8
:1009AC0011FC801B6428F7D9032002B0BDE8F0814C
:1009BC009BB9236823F480332360236823F48023BA
:1009CC002360FFF7FFFB064623689903B3D5FFF7B7
:1009DC00F9FB801B6428F7D9E6E7B3F5A02F236851
:1009EC0003D143F480232360CFE723F480332360C7
:1009FC00236823F48023CBE7674C636813F00C0F58
:100A0C0007D0636803F00C03082B10D16368DA037A
:100A1C000DD423689B0702D52B69012B86D1236843
:100A2C006A6923F0F80343EAC203236086E72A6964
:100A3C005A4B6AB101221A60FFF7C4FB06462368C1
:100A4C009F07ECD4FFF7BEFB801B0228F7D9ABE75E
:100A5C001A60FFF7B7FB0646236898077FF56EAF61
:100A6C00FFF7B0FB801B0228F6D99DE7AA694A4C18
:100A7C004B4BDAB101221A60FFF7A4FB0646636AFE
:100A8C009B070DD54FF4FA52464B1B68B3FBF2F3A0
:100A9C00019300BF019B5A1E0192002BF9D151E723
:100AAC00FFF790FB801B0228E9D97DE71A60FFF75E
:100ABC0089FB0646636A9F077FF544AFFFF782FB0D
:100ACC00801B0228F6D96FE7334CE369D80024D495
:100ADC000127E36943F08053E361E36903F080533A
:100AEC000093009B304E3368D90518D5EB68012B69
:100AFC0026D1236A43F001032362FFF763FB41F223
:100B0C0088368046236A9B073FD5002F3FF41EAFE3
:100B1C00E36923F08053E36118E70027E2E73368C9
:100B2C0043F480733360FFF74DFB80463368DA057E
:100B3C00DCD4FFF747FBA0EB08006428F6D933E7B9
:100B4C00ABB9236A41F2883823F001032362236A8C
:100B5C0023F004032362FFF735FB0646236A98074C
:100B6C00D3D5FFF72FFB801B4045F7D91CE7052B8E
:100B7C00236A03D143F004032362BAE723F0010391
:100B8C002362236A23F00403B6E7FFF71BFBA0EBF9
:100B9C000800B042B6D907E70010024000004242FC
:100BAC008004424218000020007000402A4B5A6812
:100BBC001C4602F00C02082A3DD00023274E0228C6
:100BCC0033602BD1FFF7FEFA0746236899011FD437
:100BDC002B6AB3F5803F05D16268A96822F4003214
:100BEC000A436260696A62680B4322F4741213430D
:100BFC00636001233360FFF7E5FA054623689A0129
:100C0C003FF5A8AEFFF7DEFA401B0228F6D9CBE67B
:100C1C00FFF7D8FAC01B0228D7D9C5E6FFF7D2FADE
:100C2C00054623689B017FF595AEFFF7CBFA401B79
:100C3C000228F6D9B8E601283FF4B7AE58682B6AFB
:100C4C0000F480329A427FF471AE6B6A00F470103B
:100C5C00C01A18BF0120A8E60010024060004242F2
:100C6C0030B5194B87B002AC03F110052246186859
:100C7C005968083303C2AB421446F7D101238DF8EF
:100C8C000430022311498DF805304B6803F00C0237
:100C9C00082A17D1C3F3834206A80244DB0312F8D7
:100CAC00102C0CD54B680A48C3F34043504306AA9A
:100CBC00134413F8143CB0FBF3F007B030BD0548F7
:100CCC005043FAE70248F8E72814000800100240E5
:100CDC0000127A0000093D002DE9F0410D46044652
:100CEC0010B90120BDE8F081454A136803F00703F1
:100CFC008B4229D321688E0731D4CA0744D4404A89
:100D0C00136803F007039D4267D322683D4D12F030
:100D1C00040F6ED1130706D56B68226923F4605358
:100D2C0043EAC2036B60FFF79BFF6B68364AC3F361
:100D3C000313D35CD840354B1860354B1868FFF75C
:100D4C00FFF90020BDE8F081136823F007030B4383
:100D5C001360136803F007039942C2D1CAE7294B09
:100D6C0011F0040F1EBF5A6842F4E0625A60080783
:100D7C0042BF5A6842F460525A605A68A06822F026
:100D8C00F00202435A60B8E762681E4E012A3368CB
:100D9C001BD113F4003FA4D0736841F2883823F0C0
:100DAC00030313437360FFF70DFA07467368626819
:100DBC0003F00C03B3EB820FA1D0FFF703FAC01BB7
:100DCC004045F3D90320BDE8F081022A02D113F08B
:100DDC00007FE0E713F0020FDDE7136823F0070351
:100DEC002B431360136803F007039D427FF479AF24
:100DFC008BE76B68E16823F4E0630B436B6089E776
:100E0C000020024000100240671400081800002067
:100E1C0004000020044B054A5B68C3F30223D35C37
:100E2C00034A1068D840704700100240771400083D
:100E3C0018000020084B094A1B6882B0B3FBF2F380
:100E4C005843074B59685A68521A0192019A9042BA
:100E5C00F9D802B0704700BF1800002040420F00C4
:100E6C00001000E01FB5084B04AA1B784E21184354
:100E7C000A2302F8010D009304480123FFF784FCB8
:100E8C0005B05DF804FB00BF4000002044000020CA
:100E9C0010B50446FFF7E6FF44F00400FFF7E2FF4D
:100EAC001420FFF7C7FF04F0FB00FFF7DBFFBDE8E2
:100EBC0010401420FFF7BEBF38B505460C4620F095
:100ECC000F000843FFF7E4FF44EA0510C0B2BDE889
:100EDC003840FFF7DDBF0021FFF7EEBF08B501205A
:100EEC00FFF7F9FFBDE808404FF4FA60FFF7A2BF27
:100EFC0008B50220FFF7EFFFBDE808404FF4FA6099
:100F0C00FFF798BF30B50D46044685B00D4B0DF17B
:100F1C00100E0FCB0EE90F000B4B1B78AB429CBF96
:100F2C0003F1FF35EDB204AB03EB850555F8100C5E
:100F3C00204460F07F00C0B205B0BDE83040FFF740
:100F4C00CABF00BF381400083E000020044B1878BC
:100F5C0000F0FB00187040F00800FFF7BCBF00BFAA
:100F6C003F000020044B187840F0040240F00C00C5
:100F7C001A70FFF7B0BF00BF3F000020044B187879
:100F8C0040F0020240F00A001A70FFF7A4BF00BF45
:100F9C003F000020044B187840F0010240F009009B
:100FAC001A70FFF798BF00BF3F00002000F0070049
:100FBC00C00038B540F040000C46FFF78CFF651EB2
:100FCC00073415F8010F0121FFF776FFA542F8D180
:100FDC0038BD0000344B70B518700823334C012811
:100FEC00237098BF04230026314D2B70314BDA68E7
:100FFC0022F08072DA60DA6842F08072DA602E4B8E
:10100C001A6822F001021A601A6842F001021A6092
:10101C005E6000BF00BF00BF3220FFF7D9F8207818
:10102C00FFF720FF4FF47A70FFF7D2F83020FFF76C
:10103C002FFF41F29410FFF7FDFE3020FFF728FF41
:10104C0041F29410FFF7F6FE3020FFF721FF41F23A
:10105C009410FFF7EFFE2020FFF71AFF6420FFF734
:10106C00E9FE287840F02000FFF735FF0422134BEF
:10107C001A70FFF777FFFFF731FF0222104B0620A3
:10108C001A70FFF728FF41F29410FFF7D3FE304699
:10109C000C49FFF78BFF0C490120FFF787FFBDE8D8
:1010AC007040FFF725BF00BF3E000020400000202D
:1010BC003C000020F0ED00E0001000E03F000020BC
:1010CC003D00002008000020100000200121FFF747
:1010DC00F3BE10B5441E14F8010F00B910BD012168
:1010EC00FFF7EAFEF7E710B590B02822002106A81A
:1010FC0000F080F90021142201A800F07BF94FF4D4
:10110C0080330122022407930E934FF4E01306A8B8
:10111C0006920A920F930D94FFF704FC0F234FF4E1
:10112C00806201930023214601A802940393049248
:10113C000593FFF7D1FD10B010BD000000B589B0CC
:10114C00FFF722F8FFF7CFFF102200210DEB020072
:10115C0000F050F9344B20219A69344842F02002B7
:10116C009A619A69002402F020020192019A9A690C
:10117C00012542F004029A619A69022602F00402E7
:10118C000292029A9A6942F008029A619B690022C3
:10119C0003F008030393039BFFF76AF9202304A9C8
:1011AC0022480493069405950796FFF77FF8204A8A
:1011BC002048214B846080E80C004FF48043C460CD
:1011CC00036144618461C4610462FFF739FA3046FB
:1011DC00FFF700FFFFF782FEFFF7B8FEFFF7CEFE2A
:1011EC0021462046FFF78EFE1448FFF772FF20467B
:1011FC00FFF76CFFFFF7B6FE29462046FFF782FE8D
:10120C000F48FFF766FF2846FFF760FFFFF7C2FEA7
:10121C0004F1804404F5843420462021FFF72DF995
:10122C003220FEF7D5FFF7E700100240000801401E
:10123C000054004044000020A0860100481400081F
:10124C00591400080E4B82B09A6942F001029A615F
:10125C009A6902F001020092009ADA6942F0805217
:10126C00DA61DB69074A03F080530193019B5368F1
:10127C0023F0E06343F00073536002B0704700BF8B
:10128C00001002400000014010B5044686B0102248
:10129C00002102A800F0AEF82268154B9A4224D126
:1012AC00144C02A9A369144843F00803A361A36971
:1012BC0003F008030093009B4FF440730293122336
:1012CC00039303230593FEF7F1FF0C4A536843F095
:1012DC00E06343F002035360E36943F40013E361FA
:1012EC00E36903F400130193019B06B010BD00BF2A
:1012FC000054004000100240000C0140000001406E
:10130C007047FEE7FEE7FEE7FEE770477047704761
:10131C00FEF74CBF0F4B1A6842F001021A60596875
:10132C000D4A0A405A601A6822F0847222F4803204
:10133C001A601A6822F480221A605A6822F4FE029B
:10134C005A604FF41F029A604FF00062034B9A6090
:10135C00704700BF001002400000FFF800ED00E0F5
:10136C00002103E00B4B5B58435004310A480B4BF4
:10137C0042189A42F6D30A4A02E0002342F8043B90
:10138C00084B9A42F9D3FFF7C5FF00F00FF8FFF7AF
:10139C00D5FE704788140008000000201C000020B7
:1013AC001C00002098000020FEE7000070B500250E
:1013BC000C4E0D4CA41BA410A54209D100F022F830
:1013CC0000250A4E0A4CA41BA410A54205D170BDE1
:1013DC0056F8253098470135EEE756F825309847F2
:1013EC000135F2E78014000880140008801400080E
:1013FC008414000803460244934200D1704703F85A
:10140C00011BF9E7F8B500BFF8BC08BC9E46704755
:0C141C00F8B500BFF8BC08BC9E46704745
:1014280002030405060708090A0B0C0D0E0F10101D
:1014380000000000400000001400000054000000FC
:1014480048656C6C6F2053544D333253747564790E
:1014580000537465702062792073746570210000F0
:10146800000000000000000102030406070809004C
:08147800000000010203040062
:04148000310100082E
:041484000D0100084E
:10148800010000001000000000191B060C1B1300CF
:0C14980018180609080906000024F400DA
:040000050800136D6F
:00000001FF
