:020000040800F2
:1000000000000120ED170008191700081B17000851
:100010001D1700081F170008211700080000000026
:10002000000000000000000000000000231700088E
:1000300025170008000000002717000829170008EE
:10004000351800083518000835180008351800085C
:10005000351800083518000835180008351800084C
:10006000351800083518000835180008351800083C
:1000700035180008351800082D1700083518000835
:10008000351800083518000835180008351800081C
:10009000351800083518000835180008351800080C
:1000A00035180008351800083518000835180008FC
:1000B00035180008351800083518000835180008EC
:1000C00035180008351800083518000835180008DC
:1000D00035180008351800083518000835180008CC
:1000E00035180008351800083518000835180008BC
:1000F00035180008351800083518000835180008AC
:10010000351800083518000835180008351800089B
:10011000351800083518000835180008351800088B
:10012000351800083518000835180008351800087B
:1001300000000000000000000000000000000000BF
:1001400000000000000000000000000000000000AF
:10015000000000000000000000000000000000009F
:10016000000000000000000000000000000000008F
:10017000000000000000000000000000000000007F
:10018000000000000000000000000000000000006F
:10019000000000000000000000000000000000005F
:1001A000000000000000000000000000000000004F
:1001B000000000000000000000000000000000003F
:1001C000000000000000000000000000000000002F
:1001D000000000000000000000000000000000001F
:0401E0005FF8E0F1F3
:1001E40010B5054C237833B9044B13B10448AFF36D
:1001F40000800123237010BD78000020000000005F
:10020400A827000808B5034B1BB103490348AFF303
:10021400008008BD000000007C000020A827000822
:1002240038B50E4B054618784FF47A73B3FBF0F3E8
:100234000B4A1068B0FBF3F000F09EF8044658B97E
:100244000F2D09D8024629464FF0FF3000F054F82C
:10025400044B20461D6038BD012038BD000000203D
:100264001000002004000020074A08B5136803208A
:1002740043F01003136000F02DF80020FFF7D0FFC7
:1002840001F0E0F9002008BD00200240034A044BBD
:1002940011681B780B441360704700BFA40400204E
:1002A40000000020014B1868704700BFA404002020
:1002B40038B50446FFF7F6FF0546631C1EBF044B22
:1002C4001B78E418FFF7EEFF401B8442FAD838BDD0
:1002D40000000020074A0002D36800F4E06023F421
:1002E400E0631B041B0C43F0BF6343F4003303437C
:1002F400D360704700ED00E0174B30B5DC68C4F301
:100304000224C4F10703251D042B28BF0423062D52
:100314004FF0010598BF002405FA03F303F1FF33FE
:1003240088BF033C1940A14005FA04F4013C224073
:10033400002842EA01024FEA0212AFBF00F1604016
:10034400064B00F00F00D2B2A5BFD2B200F5614057
:100354001A5480F8002330BD00ED00E014ED00E0F5
:100364000123420900F01F0003FA00F0014B43F897
:100374002200704700E100E00138B0F1807F0AD22A
:10038400F021064B064A586082F823100020072209
:1003940098601A6070470120704700BF10E000E0C9
:1003A40000ED00E010B5002832D00168194B142488
:1003B400994225D8184AA3F207430A44B2FBF4F23F
:1003C400920002648468C36343680A682343C46870
:1003D40022F47F522343046922F030022343446908
:1003E400234384692343C469234313430B600122D9
:1003F400002380F82120836380F82030184610BD44
:10040400064B0B44B3FBF4F39B000364044BD9E7A2
:10041400012010BD07040240F8FFFDBFF8FBFDBF3B
:1004240000040240F0B590F82040012C35D001249E
:1004340090F8215080F82040A5424FF000064FF07C
:10044400020428D180F82140046886632668076C7A
:1004540026F001062660C66BBD4075606360436884
:100464000568102BC36A0BBFA260A160E160E26063
:100474004BB1236843F00E0323602B68002043F044
:1004840001032B60F0BD236823F004032360236879
:1004940043F00A03F0E780F820600220F0BD00007A
:1004A40070B40425C66B026C346803689540254219
:1004B400196855D04D0753D51A6896065EBF1A6859
:1004C40022F004021A60604A93421FD902F5627254
:1004D400934214D01432934213D01432934212D064
:1004E400143293420CBF4FF480434FF48023574A95
:1004F4005360C36A002B00F0A58070BC1847042326
:10050400F5E74023F3E74FF48063F0E750498B426B
:1005140016D014318B4215D014318B4214D01431BF
:100524008B4214D014318B4214D014318B4214D02A
:10053400934214BF4FF480234FF08063454AD7E7BA
:100544000423FBE74023F9E74FF48063F6E74FF415
:100554008043F3E74FF48023F0E74FF48003EDE7A3
:1005640002259540254257D08D0755D51A68940623
:1005740006D41A6822F00A021A60012280F82120A7
:10058400314A93421ED902F56272934213D0143257
:10059400934212D01432934211D0143293420CBFBE
:1005A4004FF400534FF40033284A5360002380F87B
:1005B4002030836A9EE70223F6E72023F4E74FF412
:1005C4000073F1E722498B4216D014318B4215D0C7
:1005D40014318B4214D014318B4214D014318B4219
:1005E40014D014318B4214D0934214BF4FF400330F
:1005F4004FF00073174AD8E70223FBE72023F9E7FB
:100604004FF40073F6E74FF40053F3E74FF400336D
:10061400F0E74FF40013EDE708259540254211D08B
:1006240009070FD5196821F00E011960012303FA97
:1006340002F27260836380F82130002380F8203056
:10064400036B57E770BC704780000240000402400F
:1006540008000240000002402DE9F74F0022164630
:100664006C4F6D4BDFF8B8E1DFF8B8C14FF001080B
:100674000C6808FA06F808EA0404A04540F08580EE
:100684004D68122D00F0B78000F28D80022D00F02D
:10069400AF8000F28180002D00F09180012D00F0E8
:1006A400A5804FF00F09FF2C93BF824606F18045C9
:1006B400083DD0F800B092BFB500D0F804B0AD004A
:1006C40009FA05F82BEA080802FA05F588BF00F1D3
:1006D400040A48EA0505CAF80050D1F804A01AF043
:1006E400805F52D0BD6926F0030845F00105BD6165
:1006F400BD6908F1804805F00105019508F58038C9
:1007040006F0030B019D4FEA8B0BD8F8085009FA49
:100714000BF925EA0909414DA84271D005F5806518
:10072400A8426FD005F58065A8426DD005F58065B7
:10073400A8426BD005F58065A84269D070450CBF0E
:100744000525062505FA0BF545EA0905C8F80850FC
:100754001D681AF4803F14BF2543A5431D605D68DE
:100764001AF4003F14BF2543A5435D609D681AF445
:10077400801F14BF2543A5439D60DD681AF4001F44
:1007840014BF2C4325EA0404DC600136102E7FF4E8
:100794006DAF03B0BDE8F08F032D25D0112D80D1AE
:1007A400CA6804327DE7654509D012D8DFF878902D
:1007B4004D4504D009F580394D457FF472AF8A6800
:1007C400E2B1012A0CBFC0F81080C0F814800822DE
:1007D40067E7DFF858904D45F1D009F580394D456C
:1007E400EDD0A9F58019E7E700225AE7CA6858E76F
:1007F400CA68083255E7CA680C3252E7042250E747
:1008040000259FE701259DE702259BE7032599E73E
:10081400042597E70010024000040140000801404D
:10082400001C0140000021100000111000003110D4
:100834000AB1016170470904FBE7C3685940C1600C
:100844007047000003682DE9F341DB07054610D427
:100854002B689F075ED42B68190700F195802B68DD
:100864005A0700F1BF80EA69002A40F02D81002078
:1008740014E0904C636803F00C03042B07D0636806
:1008840003F00C03082B0CD16368DE0309D523683D
:100894009C03DDD56B68002BDAD1012002B0BDE8E2
:1008A400F0816B68B3F5803F10D1236843F4803343
:1008B4002360FFF7F7FC064623689803C8D4FFF7C4
:1008C400F1FC801B6428F7D90320E7E79BB9236870
:1008D40023F480332360236823F480232360FFF709
:1008E400E1FC064623689903B2D5FFF7DBFC801BC5
:1008F4006428F7D9E8E7B3F5A02F236803D143F4BC
:1009040080232360D1E723F480332360236823F416
:100914008023CDE7674C636813F00C0F07D063683E
:1009240003F00C03082B10D16368DA030DD4236899
:100934009B0702D52B69012BAFD123686A6923F089
:10094400F80343EAC203236085E72A695A4B6AB174
:1009540001221A60FFF7A6FC064623689F07ECD421
:10096400FFF7A0FC801B0228F7D9ADE71A60FFF758
:1009740099FC0646236898077FF56DAFFFF792FC54
:10098400801B0228F6D99FE7AA694A4C4B4BDAB17F
:1009940001221A60FFF786FC0646636A9B070DD5A1
:1009A4004FF4FA52464B1B68B3FBF2F3019300BFBA
:1009B400019B5A1E0192002BF9D150E7FFF772FCFC
:1009C400801B0228E9D97FE71A60FFF76BFC064613
:1009D400636A9F077FF543AFFFF764FC801B02281F
:1009E400F6D971E7334CE369D80024D40127E369CD
:1009F40043F08053E361E36903F080530093009B69
:100A0400304E3368D90518D5EB68012B26D1236AFB
:100A140043F001032362FFF745FC41F28836804628
:100A2400236A9B073FD5002F3FF41DAFE36923F0F2
:100A34008053E36117E70027E2E7336843F48073E8
:100A44003360FFF72FFC80463368DA05DCD4FFF708
:100A540029FCA0EB08006428F6D935E7ABB9236A72
:100A640041F2883823F001032362236A23F004034C
:100A74002362FFF717FC0646236A9807D3D5FFF7CE
:100A840011FC801B4045F7D91EE7052B236A03D1CF
:100A940043F004032362BAE723F001032362236AC9
:100AA40023F00403B6E7FFF7FDFBA0EB0800B04218
:100AB400B6D909E7001002400000424280044242D5
:100AC4001000002000700040224C636803F00C0307
:100AD400082B3FF4E2AE00231F4E022A33602BD1D1
:100AE400FFF7E0FB0746236899011FD42B6AB3F58F
:100AF400803F05D16268A96822F400320A4362602B
:100B0400696A62680B4322F474121343636001231D
:100B14003360FFF7C7FB054623689A013FF5A7AE8C
:100B2400FFF7C0FB401B0228F6D9CDE6FFF7BAFB5E
:100B3400C01B0228D7D9C7E6FFF7B4FB05462368D4
:100B44009B017FF594AEFFF7ADFB401B0228F6D95D
:100B5400BAE600BF001002406000424230B5194BB3
:100B640087B002AC03F110052246186859680833AF
:100B740003C2AB421446F7D101238DF8043002239B
:100B840011498DF805304B6803F00C02082A17D17F
:100B9400C3F3834206A80244DB0312F8102C0CD5DD
:100BA4004B680A48C3F34043504306AA134413F85E
:100BB400143CB0FBF3F007B030BD05485043FAE7EE
:100BC4000248F8E7C02700080010024000127A002B
:100BD40000093D00544A2DE9F0411368054603F02D
:100BE40007038B420E462AD329688C0734D4CA07DC
:100BF40047D44D4A136803F007039E42C0F0828035
:100C04002A684A4C12F0040F40F08780130706D577
:100C140063682A6923F4605343EAC2036360FFF7FD
:100C24009DFF6368424AC3F30313D35CD840414B2E
:100C340018600020FFF7F4FA0020BDE8F081136883
:100C440023F007030B431360136803F0070399426F
:100C5400CAD00120BDE8F081344B11F0040F1EBF4F
:100C64005A6842F4E0625A60080742BF5A6842F484
:100C740060525A605A68A86822F0F00202435A602F
:100C8400B5E76A68294C012A23681CD113F4003F94
:100C9400DFD0636841F2883823F0030313436360B1
:100CA400FFF700FB6B680746012B14D1636803F060
:100CB4000C03042B9DD0FFF7F5FAC01B4045F5D972
:100CC4000320BDE8F081022A02D113F0007FDFE7A0
:100CD40013F0020FDCE7022B0FD1636803F00C035F
:100CE400082B86D0FFF7DEFAC01B4045F5D9E7E7AD
:100CF400FFF7D8FAC01B4045E2D8636813F00C0F25
:100D0400F6D176E7136823F00703334313601368BF
:100D140003F007039E429CD172E76368E96823F4F9
:100D2400E0630B43636071E700200240001002405F
:100D3400E0270008100000202DE9F0410446884611
:100D440017461D46069E2268936838EA03030CBFC3
:100D5400012300239F4202D10020BDE8F0816B1CD7
:100D6400F2D055BB23685A6822F0E0025A606268E8
:100D7400B2F5827F0AD1A268B2F5004F02D0B2F573
:100D8400806F03D11A6822F040021A60A26AB2F599
:100D9400005F09D11A6822F400521204120C1A607E
:100DA4001A6842F400521A60012384F85130002377
:100DB400032084F85030BDE8F081FFF773FA801BFC
:100DC4008542C0D8CEE713B50B460092802100229D
:100DD4000446FFF7B1FF20B10320636D43F0200305
:100DE400636502B010BD000038B5044690F85000A9
:100DF400012867D0012084F8500094F85100C0B253
:100E0400012808D06568B5F5827F57D1A568002D03
:100E140054D1042852D1002952D0002A50D0002B9A
:100E24004ED094F851000025012804BF052084F811
:100E3400510000206065E386E387A386A38794F8C6
:100E440051302064042B60640CBF1F4B1F4BE06CBB
:100E54002163A2630BBFC362C3621D4B1D4B216898
:100E640083621D4B0C310363E38F45639BB2FFF731
:100E7400D9FA2268A06C5368216B43F001035360D4
:100E8400E38E0C329BB2C562856205634563FFF74E
:100E9400C9FA002023681A6852065EBF1A6842F035
:100EA40040021A605A6842F020025A605A6842F0BE
:100EB40002025A60002384F8503038BD0220F9E75A
:100EC4000120F7E7022038BDB30F0008BF0F000868
:100ED400ED0F00083D100008CB0F00081346826890
:100EE40070B504460D465AB94668B6F5827F07D1F7
:100EF4000422BDE8704080F851200A46FFF774BF11
:100F040094F85010012946D0012194F8510084F836
:100F14005010C0B288423CD1002D36D0002B34D0C2
:100F2400042184F85110002161652164E387616420
:100F3400E186A1862168B2F5004FA38708BF0B683C
:100F4400A56304BF23F480430B60E06C134B2A4673
:100F5400C362134B0C318362124B0363002343635C
:100F6400E38F9BB2FFF75EFA002023681A685206EB
:100F74005EBF1A6842F040021A605A6842F02002CA
:100F84005A605A6842F001025A60002384F85030D3
:100F940070BD0220F9E7022070BD00BFB30F000846
:100FA400ED0F0008CB0F000870477047704708B575
:100FB400406AFFF7FBFF08BD704708B5406AFFF7BA
:100FC400FBFF08BD7047406A08B50268536823F008
:100FD40003035360436D43F010034365012380F81A
:100FE4005130FFF7EFFF08BD08B503461B68406AA0
:100FF4001B689B061DD403685A6822F003025A60DA
:101004004268B2F5827F0AD18268B2F5004F02D0FD
:10101400B2F5806F03D11A6822F040021A600023EF
:10102400C387012380F85130436D13B1FFF7CAFF22
:1010340008BDFFF7B9FF08BD38B50546446AFFF798
:1010440031F92B6802461B689B0619D4642120469B
:10105400FFF7B9FE18B1636D43F02003636522689E
:10106400536823F0030353600023E386E3870123DB
:1010740084F85130636D1BB12046FFF7A3FF38BDE0
:101084002046FFF792FF38BD10B50446002834D03F
:101094000023836290F851300BB900F0F5FA022373
:1010A400216884F851300B68A06823F040030B607A
:1010B4006368A2690343E0680343206903436069EA
:1010C4000343E0690343206A0343A06A034302F431
:1010D400007003430B60120C636A02F004021A43AB
:1010E400E36A4A600B61CB69002023F40063CB619F
:1010F4000123606584F8513010BD012010BD2DE935
:10110400F04F0D68C5F30F2595FAA5F24FF00F09BE
:10111400B2FA82F24FF003084FF0040C40F2011EC1
:1011240035FA02F302D10120BDE8F08F0123934088
:101134002B4263D0072A83BF4FF00114A2F10803A6
:1011440004FA03F30EFA02F388BF43F080631E0E21
:1011540093FAA3FABAFA8AFA93FAA3FBBBFA8BFBC3
:1011640084594FEA8A0A09FA0AFA24EA0A0A4C68F4
:101174004FEA8B0B04FA0BFB4AEA0B048451C46854
:101184004FEA132A9AFAAAFBBBFA8BFB24EA0A0A4F
:101194000C6904FA0BF44AEA0404C4604C6824F0B1
:1011A4000804012C2AD193FAA3FABAFA8AFA93FA18
:1011B400A3F4B4FA84F487594FEA840B4FEA8A0AF9
:1011C4008C6808FA0AFA27EA0A0A04FA0BF44AEACB
:1011D4000404845193FAA3FBBBFA8BFB93FAA3F3A5
:1011E400B3FA83F3CF684FEA8B0B0CFA0BFB9B002B
:1011F40024EA0B0407FA03F31C43845101328FE7FA
:10120400034B044A5B68C3F30313D35CD8407047B1
:1012140000100240E0270008034B044A5B68C3F354
:101224000223D35CD840704700100240F027000826
:10123400034B044A5B68C3F3C223D35CD8407047B2
:1012440000100240F0270008094B5A6802F480326B
:1012540062B15868074AC0F340400130B2FBF0F075
:101264005B68C3F383430233584370470248F7E78C
:101274000010024000127A0000093D00044B5B6834
:1012840003F00C03082B01D1FFF7DEBF01487047C0
:101294000010024000127A0008B50146FFF7EEFF85
:1012A4000860FFF7ADFF4860FFF7B6FF8860486845
:1012B400FFF7BEFFC86008BD30B5C36885B09B04A6
:1012C40004460D4602D5002005B030BD4B68C96800
:1012D400C2680B43296922F4B0520B4322F00C027A
:1012E4001343C3600369AA6823F44053134303619F
:1012F40043696A6923F44073134343616846FFF703
:10130400CBFF174B9C4219D103990029DBD02A68E3
:10131400002AD8D019234B439200B3FBF2F3642282
:10132400B3FBF2F102FB11331B013233B3FBF2F3D3
:1013340003EB01139BB2A3600120C5E7094B9C4258
:1013440001D10299E1E7084B9C42FAD003F580638E
:101354009C42F6D003F580639C42B4D1F1E700BF10
:101364000038014000440040004800400B4610B5DE
:1013740006485C1A944201DB104610BD046824063A
:10138400FCD513F8014B4460F3E700BF0044004070
:1013940010B590B02822002106A800F00EFC002110
:1013A400142201A800F009FC4FF480330122022426
:1013B40007930E934FF4E01306A806920A920F9334
:1013C4000D94FFF73FFA0F234FF48062019300233B
:1013D400214601A80294039304920593FFF7FAFBB4
:1013E40010B010BD224B2DE9F0411B68214E5C6802
:1013F4003188C4F58064A4B21F4B8C42ADF5806D76
:101404001C8031D01D4D2AD2C1F58067BFB23A4647
:101414002944684600F0C6FB224629460DEB070026
:1014240000F0C0FB00233480154FDFF86080154EB8
:101434005C1CE95CA3070CBF4046384600F070FC16
:101444003368986800F0AEFAB4F5806F2346EFD1A4
:101454000D480DF5806DBDE8F04100F0D5BC621A71
:1014640092B229446846DBE70DF5806DBDE8F08152
:10147400000500209604002094040020940000201D
:10148400D827000814000020DE270008D027000811
:1014940080B5644C92B0FEF7E7FEFFF779FF1022A7
:1014A40000210CA800F089FBA369002243F0040387
:1014B400A361A3690C2103F004030293029BA369B3
:1014C400594843F00803A361A369002503F0080306
:1014D4000393039BA3694FF00C0943F02003A3611A
:1014E400A3694FF0020A03F020030493049BFFF75F
:1014F4009FF901230CA94C480D93CDF830900E951B
:10150400CDF83CA0FFF7A8F863692A4643F001032D
:1015140063616369294603F0010301930E20019B73
:10152400FEF7EAFE0E20FEF71BFF4FF480680A2345
:101534003E4E3F4F3046F36237607560C6F8088010
:10154400F560C6F810A07561B561F5613562756224
:10155400B562FFF799FD182229460CA800F02DFB6F
:101564001422294607A800F028FBE36907A943F4DD
:101574000033E361E3692F4803F400330693069BC9
:10158400A36943F00403A361A369A4F5E63403F05B
:1015940004030593059B40F204430793092308932E
:1015A40003230993FFF7ABFD40F6080307930423D5
:1015B40007A920480893FFF7A2FD4FF4E1330CA9D3
:1015C40020460C930D950E950F95CDF840901195EE
:1015D400FFF772FE2369424623F490432361636953
:1015E400154923F02A036361E368304643F400534A
:1015F400E3607B6804F5504443F040037B603B6840
:1016040043F040033B600D4B1B78FB60FFF766FC27
:1016140020460821FFF711F9FFF7E4FEC820FEF782
:1016240047FEF5E70010024000140140A804002022
:101634000038004000080140940000200800002009
:10164400704700000E4B82B09A6942F001029A6121
:101654009A6902F001020092009ADA6942F080521B
:10166400DA61DB69074A03F080530193019B5368F5
:1016740023F0E06343F00073536002B0704700BF8F
:10168400001002400000014030B5054687B010222A
:10169400002102A800F091FA2A681A4B9A422FD12D
:1016A40003F5EC33DA69184842F48042DA61DA6906
:1016B40002A902F480420092009A9A69134C42F003
:1016C40008029A619B6903F008030193019B4FF49C
:1016D40030430293FEF7C0FF80220D4BE26023608B
:1016E4002022002320466360A36023616361A2611A
:1016F400E361FEF757FE08B1FFF7A2FFEC646562F1
:1017040007B030BD00380040000C01400005002047
:10171400440002407047FEE7FEE7FEE7FEE770473D
:1017240070477047FEF7B2BD0148FEF7B9BE00BF6F
:101734000005002070B50E4615460C46A31B9D42BD
:1017440001DC284670BDAFF3008004F8010BF5E717
:1017540008B50A4B0246196809B90949196069466E
:10176400186802448A4206D900F064F80C23036026
:101774004FF0FF3008BD1A6008BD00BF9804002078
:10178400480500204FF0FF3070474FF4005300200D
:101794004B60704701207047002070470F4B1A6858
:1017A40042F001021A6059680D4A0A405A601A68E8
:1017B40022F0847222F480321A601A6822F48022A1
:1017C4001A605A6822F4FE025A604FF41F029A60AB
:1017D4004FF00062034B9A60704700BF0010024054
:1017E4000000FFF800ED00E0002103E00B4B5B5824
:1017F400435004310A480B4B42189A42F6D30A4A22
:1018040002E0002342F8043B084B9A42F9D3FFF765
:10181400C5FF00F0A3F9FFF73BFE704798280008C6
:1018240000000020780000207800002048050020F7
:10183400FEE70000014B1868704700BF1400002049
:101844008A892DE9F041054610070C465AD44B68A5
:10185400002B05DC0B6C002B02DC0020BDE8F081C2
:10186400E66A002EF9D0002312F480522F682B6010
:1018740033D0606DA3895A0705D56368C01A636BBA
:101884000BB1236CC01A00230246E66A216A28467B
:10189400B047431CA38906D129681D294BD82B4A7C
:1018A400CA40D60747D5002262602269D904226063
:1018B40004D5421C01D12B6803B96065616B2F60AC
:1018C4000029CAD004F14403994202D0284600F00A
:1018D4007DF900206063BDE8F081216A0123284678
:1018E400B047411CC6D12B68002BC3D01D2B01D09F
:1018F400162B01D12F60B0E7A38943F04003A381E5
:10190400BDE8F0810F69002FA7D0930718BF00230B
:101914000E6808BF4B69A6EB07080F608B60B8F12F
:10192400000F9ADD43463A46216A2846A66AB04724
:10193400002807DCA38943F04003A3814FF0FF3064
:10194400BDE8F0810744A8EB0008E8E70100402067
:1019540038B50B6905460C46DBB118B183690BB980
:1019640000F072F80C4B9C4209D16C68B4F90C304D
:101974007BB121462846BDE83840FFF761BF074BDD
:101984009C4201D1AC68F1E7054B9C4208BFEC686E
:10199400ECE7002038BD00BF1828000838280008EC
:1019A400F8270008014620B9044B0549186800F0DF
:1019B400B7B8044B1868FFF7CBBF00BF582800081E
:1019C4005519000814000020014900F0A9B800BF0F
:1019D40055190008002310B5044603604360836072
:1019E40081814366C2810361436183611946082290
:1019F4005C3000F0E2F8054B24626362044BA3629E
:101A0400044BE362044B236310BD00BF3D1E00087A
:101A14005F1E0008971E0008BB1E000870B56825ED
:101A24004A1E55430E4605F1740100F01BF90446A5
:101A340040B1002180E842000C30A06005F168024A
:101A440000F0BBF8204670BD836910B5044633BB73
:101A54008364C3640365124B124A1B688262984212
:101A640004BF0123836100F01FF86060204600F08A
:101A74001BF8A060204600F017F80022E060042163
:101A84006068FFF7A7FF01220921A068FFF7A2FF02
:101A940002221221E068FFF79DFF0123A36110BD1C
:101AA40058280008CD190008F8B51C4B07461E68D5
:101AB400B36913B93046FFF7C7FF4836B468736893
:101AC400013B03D5336833B13668F7E7B4F90C50FA
:101AD4006DB16834F4E704213846FFF79FFF3060A6
:101AE4000028F1D10C2304463B602046F8BD4FF694
:101AF400FF73E38101236566A3812560A5606560AA
:101B040025616561A5610822294604F15C0000F0A5
:101B140054F86563A563A564E564E6E758280008FE
:101B24002DE9F84380468946002600F1480414B99B
:101B34003046BDE8F883A5686768013F01D524688D
:101B4400F5E7AB89012B07D9B5F90E30013303D082
:101B540029464046C84706436835EEE770B5002578
:101B64000C4E0D4CA41BA410A54209D100F01AFE82
:101B740000250A4E0A4CA41BA410A54205D170BD31
:101B840056F8253098470135EEE756F82530984742
:101B94000135F2E7902800089028000890280008F2
:101BA4009428000810B5431E0A44914200D110BD88
:101BB40011F8014B03F8014FF7E70346024493423F
:101BC40000D1704703F8011BF9E7000038B505465A
:101BD400002943D051F8043C0C1F002BB8BFE41873
:101BE40000F0C6FA1E4A1368104633B963601460E5
:101BF4002846BDE8384000F0BCBAA3420BD921689E
:101C04006218934201BF1A685B68521822606360CD
:101C14000460EDE713465A680AB1A242FAD919687A
:101C24005818A0420BD12068014458188242196008
:101C3400DED110685268014419605A60D8E702D9AD
:101C44000C232B60D4E7206821188A4201BF116855
:101C540052680918216062605C60C9E738BD00BF42
:101C64009C04002070B5CD1C25F0030508350C2D0F
:101C740038BF0C25002D064601DBA94203D90C23ED
:101C84003360002070BD00F073FA234A14682146C3
:101C940091B9224C23681BB9304600F0BDF820608E
:101CA4002946304600F0B8F8431C26D10C233046B0
:101CB400336000F05EFAE4E70B685B1B1AD40B2B6D
:101CC4000FD90B60CC18CD50304600F052FA04F115
:101CD4000B00231D20F00700C31A1BD05A42E25008
:101CE40070BD8C420BBF63684B681360636018BFA0
:101CF4000C46E9E70C464968CAE7C41C24F003040F
:101D0400A04205D0211A304600F086F80130CDD02B
:101D14002560D9E770BD00BF9C040020A00400200A
:101D24000FB40A4B13B51C6824B1A36913B9204638
:101D3400FFF78AFE05AB049AA1682046019300F0E0
:101D440041FA02B0BDE8104004B07047140000200E
:101D540070B50E46054618B183690BB9FFF774FEDA
:101D6400AB69AC6813B92846FFF76EFE234B9C425F
:101D740017D16C68A3891B071DD52369DBB1013E0C
:101D8400A36816F8011F013BA360E9B9002B2EDA02
:101D940022460A21284600F093F8013011D00A2087
:101DA40070BD174B9C4201D1AC68E3E7154B9C42D4
:101DB40008BFEC68DEE72146284600F0E5F8002875
:101DC400DDD04FF0FF3070BD002B04DAA2699342DE
:101DD40006DB0A2904D023685A1C22601970CFE755
:101DE4002246284600F06CF80130C9D1E9E70A2000
:101DF40023685A1C2260187070BD00BF18280008A0
:101E040038280008F8270008024B01461868FFF735
:101E14009FBF00BF1400002038B50023054C0546C1
:101E240008462360FFF794FC431C02D1236803B1E6
:101E34002B6038BD4405002010B50C46B1F90E10D6
:101E440000F06EFC0028ABBF636DA3891B1823F45C
:101E54008053ACBF6365A38110BD2DE9F0411F46DB
:101E64008B890546DB050C46164605D50223002260
:101E7400B1F90E1000F006F9A389324623F4805319
:101E8400A381B4F90E103B462846BDE8F04100F0AA
:101E940069B810B50C46B1F90E1000F0F3F8431C04
:101EA400A38915BF606523F4805343F48053A38151
:101EB40018BFA38110BDB1F90E1000F0D3B8000013
:101EC400F8B50E461446054618B183690BB9FFF7F9
:101ED400BBFD214B9C422AD16C68A369A360A389F2
:101EE4001A072ED5236963B323692068F6B2C01A92
:101EF40063693746984204DB21462846FFF728FDEC
:101F040028BBA3680130013BA36023685A1C2260EC
:101F14001E706369984204D0A389DB0719D50A2E81
:101F240017D121462846FFF713FD90B10FE00B4B64
:101F34009C4201D1AC68D0E7094B9C4208BFEC68D5
:101F4400CBE72146284600F01FF80028CCD04FF0FC
:101F5400FF373846F8BD00BF1828000838280008A5
:101F6400F827000838B50546084611460022054CF6
:101F740022601A46FFF7FAF9431C02D1236803B121
:101F84002B6038BD44050020324B70B51D680646F1
:101F94000C4625B1AB6913B92846FFF755FD2E4B06
:101FA4009C420FD16C68B4F90C309AB215072CD44A
:101FB400D00611D40922326043F04003A3814FF0CC
:101FC400FF3070BD254B9C4201D1AC68EBE7244B3C
:101FD4009C4208BFEC68E6E7510712D5616B41B13A
:101FE40004F14403994202D03046FFF7EFFD002389
:101FF4006363A38923F02403A3810023636023691B
:102004002360A38943F00803A38123694BB9A389FF
:1020140003F42073B3F5007F03D02146304600F06B
:1020240067F8A28912F001030CD00023A36063694E
:102034005B42A361236953B9B4F90C3013F08000F7
:10204400BAD170BD920758BF6369A360F2E700205C
:10205400F7E700BF140000201828000838280008FB
:10206400F827000838B50023054C054608462360C8
:10207400FFF788FB431C02D1236803B12B6038BDF2
:102084004405002038B50546084611460022054C93
:1020940022601A46FFF780FB431C02D1236803B178
:1020A4002B6038BD4405002070B50E46B1F90E1002
:1020B40090B0002914461D4607DA00232B60B3892B
:1020C4001A0610D44FF480630EE001AA00F03AFB24
:1020D4000028F2DB029A02F47042A2F500535A423D
:1020E4005A412A60EEE740230020236010B070BDFF
:1020F4008B8973B59D0706460C4607D504F1470343
:10210400236023610123636102B070BD01AB6A46A1
:10211400FFF7CAFF009905463046FFF7A3FD48B90B
:10212400B4F90C309A05EFD423F0030343F002030F
:10213400A381E3E70D4BB362A389206043F08003DE
:10214400A381009B20616361019B5BB1B4F90E1014
:10215400304600F009FB28B1A38923F0030343F0C0
:102164000103A381A3891D43A581CDE7CD190008EF
:1021740070477047936810B4013B002B936008DAF2
:102184009469A34202DBCBB20A2B02D110BCFFF745
:1021940097BE1368581C10601970C8B210BC704701
:1021A400F8B506460F461446D518AC4201D10020B6
:1021B40007E03A4614F8011B3046FFF7DBFF431CE7
:1021C400F3D1F8BD2DE9F04F9DB00C4617460393AB
:1021D400064618B183690BB9FFF736FC7C4B9C4269
:1021E40057D17468A38918075DD52369002B5AD089
:1021F4000023099320238DF8293030234FF0010B5D
:102204008DF82A30B846454615F8013B002B55D1C8
:10221400B8EB070A0BD053463A4621463046FFF73F
:10222400BFFF013000F0C480099B5344099398F820
:102234000030002B00F0BC8000234FF0FF320493E9
:102244000793059206938DF853301A930522297843
:10225400604800F099FA05F10108049B002831D187
:10226400D90644BF20228DF853201A0744BF2B22DD
:102274008DF853202A782A2A2CD000210A20079A84
:10228400A84698F800300135303B092B6DD971B35D
:1022940026E0514B9C4201D1B468A3E74F4B9C42CA
:1022A40008BFF4689EE721463046FFF76DFE00281C
:1022B4009ED04FF0FF301DB0BDE8F08F252BA7D086
:1022C400A846A0E7434A4546801A0BFA00F0184393
:1022D4000490BBE7039A111D12680391002A01DBE5
:1022E400079204E0524243F002030792049398F8E1
:1022F40000302E2B10D198F8013008F101012A2B5F
:1023040037D1039B08F102081A1D1B680392002BA6
:10231400B8BF4FF0FF330593314D032298F80010F6
:10232400284600F031FA40B14023401B03FA00F084
:10233400049B08F101080343049398F80010062253
:10234400284808F101078DF8281000F01DFA00282C
:1023540034D0254B03BB039B073323F00703083317
:102364000393099B4B4409934CE700FB0232012180
:1023740086E700230A2518460593884698F8002026
:102384000131303A092A03D9002BC5D00590C3E79F
:1023940005FB00200123F0E703AB00932246134B17
:1023A40004A93046AFF30080B0F1FF3F8146D8D195
:1023B400A3895B063FF57DAF09987CE703AB0093E7
:1023C40022460A4B04A9304600F08AF8ECE700BF25
:1023D400182800085C28000838280008F827000896
:1023E400622800086628000800000000A5210008F3
:1023F4002DE9F04791461F468A680B6906469342C9
:10240400B8BF1346C9F8003091F843200C46DDF8F4
:10241400208012B10133C9F800302368990642BF05
:10242400D9F800300233C9F80030256815F00605E4
:1024340007D104F1190AE368D9F800209B1A9D42D8
:102444002ADB94F843302268003318BF0123920634
:102454002FD404F1430239463046C047013022D01C
:102464002368E56803F00603042B18BF0025D9F898
:1024740000204FF0000908BFAD1AA368226908BF05
:1024840025EAE5759342C4BF9B1AED181A344D45ED
:102494001BD10020BDE8F08701235246394630465F
:1024A400C047013003D14FF0FF30BDE8F08701355C
:1024B400C1E73020E11881F843005A1C94F8451014
:1024C4002244023382F84310C3E7012322463946EB
:1024D4003046C0470130E6D009F10109D7E70000D2
:1024E4002DE9F04317460A7E85B06E2A98460646C3
:1024F4000C460C9B01F1430E00F0BC801AD8632AF1
:102504002ED00AD8002A00F0C880582A00F08A8009
:1025140004F1420584F842202AE0642A01D0692AA1
:10252400F6D121681A6811F0800F23D0111D1960AB
:10253400136827E0732A00F0B48008D86F2A2AD0E1
:10254400702AE5D10A6842F020020A6003E0752A85
:1025540021D0782ADCD178226F4984F8452064E0C0
:102564001A6801F14205111D1960136884F842309C
:102574000123A3E011F0400F02F104011960D7D048
:10258400B2F90030002B03DA2D225B4284F8432099
:1025940062490A2217E02068196810F0800F03D0FE
:1025A400081D18600B6806E010F0400F01F10400EC
:1025B4001860F7D00B886F2A14BF0A2208225749E3
:1025C400002084F843006568002DA560C0F29C805B
:1025D400206820F004002060002B3FD1002D40F043
:1025E40095807546082A0BD12368DA0708D5236934
:1025F40062689A42DEBF302305F8013C05F1FF35DD
:10260400AEEB05032361CDF800803B4603AA2146C7
:102614003046FFF7EDFE013055D14FF0FF3005B0E5
:10262400BDE8F08381F845203C492268186812F01F
:10263400800F00F104051D6001D0036802E0550617
:10264400FBD50388D00744BF42F0200222601BB9A7
:10265400226822F0200222601022B1E77546B3FB03
:10266400F2F002FB1033CB5C05F8013D0346002871
:10267400F5D1B7E708681A6810F0800F496904D0EB
:10268400101D18601368196007E010F0400F02F184
:10269400040018601368F6D019800023754623617E
:1026A400B1E71A68111D196015680021626828468F
:1026B40000F06AF808B1401B60606368236100237E
:1026C40084F843309FE723692A4639463046C04799
:1026D4000130A2D023689B0707D5002504F119090E
:1026E400E368039A9B1A9D4205DBE068039B9842CA
:1026F400B8BF184693E701234A4639463046C047D7
:1027040001308AD00135EBE7002BA7D10B7804F117
:10271400420584F8423065E77E2800086D280008E9
:1027240038B50546084611460022054C22601A4673
:10273400FFF700F8431C02D1236803B12B6038BDB6
:102744004405002038B50023064C054608461146CA
:102754002360FFF71AF8431C02D1236803B12B60EE
:1027640038BD00BF4405002038B50023054C05469C
:1027740008462360FFF70EF8431C02D1236803B117
:102784002B6038BD4405002010B5C9B20244904204
:10279400034601D1002010BD1C7801308C42F6D1D3
:1027A400184610BDF8B500BFF8BC08BC9E4670477B
:0C27B400F8B500BFF8BC08BC9E4670479A
:1027C00002030405060708090A0B0C0D0E0F101072
:1027D00025303258200D0A002530325820000D00D7
:1027E00000000000000000000102030406070809C1
:1027F00000000000010203040000000000000000CF
:1028000000000000000000000000000000000000C8
:1028100000000000000000000000000000000000B8
:1028200000000000000000000000000000000000A8
:102830000000000000000000000000000000000098
:102840000000000000000000000000000000000088
:10285000000000000000000018000020232D302B95
:102860002000686C4C006566674546470030313291
:1028700033343536373839414243444546003031E8
:102880003233343536373839616263646566000047
:042890000902000831
:04289400E501000852
:102898000100000010000000FEED501100000000D3
:1028A80000A24A04180000200000000018280008B0
:1028B80038280008F8270008000000000000000081
:1028C8000000000000000000000000000000000000
:1028D80000000000000000000000000000000000F0
:1028E80000000000000000000000000000000000E0
:1028F80000000000000000000000000000000000D0
:082908000000000000000000C7
:04000005080017EDEB
:00000001FF
