:020000040800F2
:100000000050002035210008511F0008531F000830
:10001000551F0008571F0008591F00080000000066
:100020000000000000000000000000005B1F00084E
:100030005D1F0008000000005F1F0008611F00082E
:100040007D2100087D2100087D2100087D21000818
:100050007D2100087D2100087D2100087D21000808
:100060007D2100087D2100087D2100087D210008F8
:100070007D2100087D2100087D2100087D210008E8
:100080007D2100087D2100087D2100087D210008D8
:100090007D2100087D2100087D2100087D210008C8
:1000A0007D2100087D2100087D2100087D210008B8
:1000B0007D2100087D2100087D2100087D210008A8
:1000C0007D2100087D2100087D2100087D21000898
:1000D0007D2100087D2100087D2100087D21000888
:1000E000651F00087D2100087D2100080000000038
:1000F0000000000000000000000000000000000000
:0C01000000000000000000005FF808F1A3
:10010C0010B5054C237833B9044B13B10448AFF345
:10011C0000800123237010BD880000200000000027
:10012C004C2A000808B5034B1BB103490348AFF335
:10013C00008008BD000000008C0000204C2A000844
:10014C004FF47A700A4B10B519680A4BC1F31501BC
:10015C001A68094B9C68B2FBF0F31B1B074C013B64
:10016C00B2FBF4F2B3FBF2F300FB013010BD00BFA5
:10017C00BC0000202000002010E000E040420F00F6
:10018C0070B50446FFF7DCFF0025094E0444A0427D
:10019C0000D370BD3368C3F3150303B12DB1FFF762
:1001AC00CFFF012500F17A40F1E7FFF7C9FFEEE739
:1001BC00BC00002070B506460024154D69682B68FC
:1001CC0046FA04F231F8141053F8240002F001023C
:1001DC00013400F019FC042CF0D1002280210D48D0
:1001EC0000F012FC0120FFF7CBFF0122802109480F
:1001FC0000F00AFC0120FFF7C3FF06480022802113
:10020C0000F002FCBDE870406420FFF7B9BF00BFEE
:10021C00B00000200010014010B504460A46064804
:10022C004FF4007100F0F0FB2009FFF7C3FF2046EC
:10023C00BDE81040FFF7BEBF000801400021FFF7EA
:10024C00EBBF0000002382B08DF8043040238DF802
:10025C00053014238DF8063054238DF80730094BE4
:10026C00DB7A8B423CBF03F1FF31C9B202AB1944BC
:10027C0011F8043C184460F07F00C0B202B0FFF7E4
:10028C00DDBF00BFB0000020044B587A40F00402E0
:10029C0040F00C005A72FFF7D1BF00BFB000002035
:1002AC0010B5264B264C01292360264B4FF032000B
:1002BC00636094BF00230823E172237200F0A4F85A
:1002CC0000224FF40071204800F09EFB0022802198
:1002DC001E4800F099FB0320FFF76CFF41F29410CD
:1002EC00FFF74EFF0320FFF765FF6420FFF748FF81
:1002FC000320FFF75FFF6420FFF742FF0220FFF7A8
:10030C0059FF6420FFF73CFF207A40F02000FFF7F4
:10031C0095FF002308206372FFF790FF0120FFF781
:10032C008DFF032000F070F802230620A372FFF764
:10033C0085FFBDE81040FFF7A7BF00BF08000020F5
:10034C00B000002000000020000801400010014017
:10035C0010B5441E14F8010F00B910BD0121FFF7B0
:10036C005BFFF7E710B51446FFF76CFF2046BDE8BE
:10037C001040FFF7EDBF000038B50E4B054618785E
:10038C004FF47A73B3FBF0F30B4A1068B0FBF3F045
:10039C0000F042FA044658B90F2D09D802462946F6
:1003AC004FF0FF3000F0F6F9044B20461D6038BDCD
:1003BC00012038BD18000020200000201C00002067
:1003CC00074A08B51368032043F01003136000F0CC
:1003DC00CFF90020FFF7D0FF01F092FD002008BDFF
:1003EC0000200240034A044B11681B780B44136035
:1003FC00704700BFBC00002018000020014B18689B
:10040C00704700BFBC00002038B50446FFF7F6FF6C
:10041C000546631C1EBF044B1B78E418FFF7EEFF68
:10042C00401B8442FAD838BD18000020002373B555
:10043C00019390F82430012B74D001234D6880F87F
:10044C002430062D02684FEA85030C6825D82B440E
:10045C001F25566B053B9D4026EA050504FA03F360
:10046C002B435363092C4FEA44038D682FD907267D
:10047C002344D1681E3B9E4021EA060105FA03F392
:10048C000B43D360A4F11003012B2BD900230022C2
:10049C0080F82420184602B070BD0C2D0BD82B44CC
:1004AC001F25166B233B9D4026EA050504FA03F332
:1004BC002B431363D6E72B441F25D66A413B9D4043
:1004CC0026EA050504FA03F32B43D362CAE7072691
:1004DC00116923449E4021EA060105FA03F30B43FC
:1004EC001361CFE7104B9A4216D193681B02CDD4FF
:1004FC009368102C43F400039360C7D10B4B0C4A48
:10050C001B68B3FBF2F20A2353430193019B002BAC
:10051C00BCD0019B013BF8E7836A43F02003836264
:10052C000123B4E70223B5E700240140200000209A
:10053C0040420F0038B5036804469A68D20701D4CC
:10054C00002038BD9A6822F001029A60FFF756FF2E
:10055C00054623689B68DB07F2D5FFF74FFF401B6E
:10056C000228F6D9A36A012043F01003A362E36AC0
:10057C0043F00103E36238BD70B50446002871D026
:10058C00836A23B9C36280F8243001F0BBF920469A
:10059C00FFF7D0FFA36A13F0100FA36A64D10028F1
:1005AC0062D1E16923F48853626823F0020343F0BB
:1005BC0002030A43A168A362237BB1F5807F42EA60
:1005CC00430238D0012914BF06464FF48076257DAE
:1005DC00012D07D1002B30D1A369013B46EA4335ED
:1005EC0045F400662368B1F5807F5D6825F46945A4
:1005FC0045EA06055D609E681D4D05EA060545EA5F
:10060C0002059D6001D0012920D12169013909051C
:10061C00DD6A25F470052943D9629968154B0B40A6
:10062C009A4215D10023E362A36A23F0030343F03B
:10063C000103A36270BD0E46C9E7A36A43F0200311
:10064C00A362E36A43F00103E362CBE70021DFE737
:10065C00A36A23F0120343F01003A362E36A43F08E
:10066C000103E362012070BD43F01003A362F9E7BC
:10067C00FDF7E1FFFE0E1FFF38B5044600286ED0D3
:10068C0090F820300BB901F0BBF92268136823F005
:10069C0002031360FFF7B2FE054623685A68910700
:1006AC0051D41A6842F001021A60FFF7A7FE054602
:1006BC0023685A68D20754D5227E0020012A1A6872
:1006CC000CBF42F0800222F080021A60627E012A86
:1006DC001A680CBF42F0400222F040021A60A27E5F
:1006EC00012A1A680CBF42F0200222F020021A6084
:1006FC00E27E012A1A680CBF22F0100242F01002AE
:10070C001A60227F012A1A680CBF42F0080222F0FC
:10071C0008021A60627F012A1A680CBF42F00402B8
:10072C0022F004021A60E168A2680A4321690A43B4
:10073C0061690A43616801390A43DA610123606225
:10074C0084F8203038BDFFF759FE401B0A28A4D985
:10075C00636A43F400336362052384F8203001207C
:10076C0038BDFFF74BFE401B0A28A1D9F0E700006B
:10077C00074A0002D36800F4E06023F4E0631B0432
:10078C001B0C43F0BF6343F400330343D360704747
:10079C0000ED00E0174B30B5DC68C4F30224C4F163
:1007AC000703251D042B28BF0423062D4FF001053C
:1007BC0098BF002405FA03F303F1FF3388BF033C11
:1007CC001940A14005FA04F4013C2240002842EAF9
:1007DC0001024FEA0212A9BF00F16040064BD2B2EF
:1007EC0000F56140BBBF00F00F00D2B280F80023CF
:1007FC001A5430BD00ED00E014ED00E0002808DBD9
:10080C000123420900F01F0003FA00F0014B43F8EA
:10081C002200704700E100E00138B0F1807F0AD27D
:10082C00F021064B064A586082F82310002007225C
:10083C0098601A6070470120704700BF10E000E01C
:10084C0000ED00E02DE9F74F00242646664BDFF85B
:10085C00A8E1DFF8A8C10A6832FA06F502D103B0A4
:10086C00BDE8F08F4FF0010808FA06F802EA08021A
:10087C0090457FD14D68122D00F0AA8000F2838044
:10088C00022D00F0A28077D8002D00F08980012D78
:10089C0000F099804FF00F09FF2A93BF824606F1B2
:1008AC008045083DD0F800B092BFB500D0F804B038
:1008BC00AD0009FA05F82BEA080804FA05F588BF1B
:1008CC0000F1040A48EA0505CAF80050D1F804A062
:1008DC001AF0805F4ED0454D444FAD6926F00308A9
:1008EC0045F00105BD61BD6908F1804805F00105C1
:1008FC00019508F5803806F0030B019D4FEA8B0B30
:10090C00D8F8085009FA0BF925EA0909384DA8421C
:10091C0063D005F58065A84261D005F58065A842D5
:10092C005FD005F58065A8420CBF0325042505FAA8
:10093C000BF545EA0905C8F808501D681AF4803F04
:10094C0014BF154395431D605D681AF4003F14BF36
:10095C00154395435D609D681AF4801F14BF1543C1
:10096C0095439D60DD681AF4001F14BF2A4325EAE5
:10097C000202DA6001366EE7032D22D0112D89D1E7
:10098C00CC68043486E71B4FBD4209D012D8DFF87F
:10099C0070904D4504D009F580394D457FF47AAF00
:1009AC008C68C4B1012C0CBFC0F81080C0F8148046
:1009BC0008246FE77545F3D06545F1D0DFF8449016
:1009CC00EBE7002466E7CC6864E7CC68083461E7A1
:1009DC00CC680C345EE704245CE70025A7E701250E
:1009EC00A5E70225A3E700BF000401400010024068
:1009FC0000080140000021100000311000003210EE
:100A0C0000001110000022100AB1016170470904A6
:100A1C00FBE7704708B5044B5969014202D0586195
:100A2C00FFF7F7FF08BD00BF0004014070B5044696
:100A3C0008B9012070BD90F83D3003F0FF021BB9DE
:100A4C0080F83C2001F0CCF82423226884F83D3057
:100A5C00136823F00103136000F00AFB6568414B37
:100A6C009D424DD8404B9842E3D940492268B0FB97
:100A7C00F1F1536823F03F030B435360136A23F0E7
:100A8C003F03013119431162D169364B21F44F41B7
:100A9C009D4221F0FF0100F1FF3048D86D00B0FB02
:100AAC00F5F00130C0F30B03042B38BF04230B43C8
:100ABC00D3611168206AE36921F0C00103430B4341
:100ACC0013609168E068236921F40341034321F02A
:100ADC00FF010B439360D168A069636921F0FF01AA
:100AEC0003430B43D3601368002043F001031360EE
:100AFC002023206484F83D30206384F83E0070BDD0
:100B0C001B4B984295D9194E4FF49671B0FBF6F6E3
:100B1C0022687143536823F03F0333434FF47A76D2
:100B2C005360136AB1FBF6F123F03F03A9E7A36806
:100B3C0053B905EB4503B0FBF3F0431CC3F30B03B4
:100B4C006BB143F40043B2E719236B43B0FBF3F0F2
:100B5C00431CC3F30B0313B143F44043A7E7012336
:100B6C00A5E700BFA08601007F841E0040420F0055
:100B7C00FF083D000122014B1A60704720000E4215
:100B8C002DE9F341054608B901203CE00368DB0779
:100B9C0010D42B689F075DD42B68190700F1948043
:100BAC002B685A0700F1BE80E869002840F02C81C0
:100BBC00002028E08F4C636803F00C03042B07D053
:100BCC00636803F00C03082B09D16368DE0306D5B8
:100BDC0023689C03DDD56B68002BDAD1D4E76B68F6
:100BEC00B3F5803F12D1236843F480332360FFF7C1
:100BFC0005FC064623689803CBD4FFF7FFFB801B4C
:100C0C006428F7D9032002B0BDE8F0819BB92368B2
:100C1C0023F480332360236823F480232360FFF7BD
:100C2C00EDFB064623689903B3D5FFF7E7FB801B62
:100C3C006428F7D9E6E7B3F5A02F236803D143F472
:100C4C0080232360CFE723F480332360236823F4CD
:100C5C008023CBE7674C636813F00C0F07D06368F5
:100C6C0003F00C03082B10D16368DA030DD423684E
:100C7C009B0702D52B69012B86D123686A6923F067
:100C8C00F80343EAC203236086E72A695A4B6AB128
:100C9C0001221A60FFF7B2FB064623689F07ECD4CB
:100CAC00FFF7ACFB801B0228F7D9ABE71A60FFF704
:100CBC00A5FB0646236898077FF56EAFFFF79EFBF2
:100CCC00801B0228F6D99DE7AA694A4C4B4BDAB136
:100CDC0001221A60FFF792FB0646636A9B070DD54B
:100CEC004FF4FA52464B1B68B3FBF2F3019300BF6F
:100CFC00019B5A1E0192002BF9D151E7FFF77EFBA5
:100D0C00801B0228E9D97DE71A60FFF777FB0646BE
:100D1C00636A9F077FF544AFFFF770FB801B0228C7
:100D2C00F6D96FE7334CE369D80024D40127E36983
:100D3C0043F08053E361E36903F080530093009B1D
:100D4C00304E3368D90518D5EB68012B26D1236AB0
:100D5C0043F001032362FFF751FB41F288368046D2
:100D6C00236A9B073FD5002F3FF41EAFE36923F0A6
:100D7C008053E36118E70027E2E7336843F480739C
:100D8C003360FFF73BFB80463368DA05DCD4FFF7B2
:100D9C0035FBA0EB08006428F6D933E7ABB9236A1E
:100DAC0041F2883823F001032362236A23F0040301
:100DBC002362FFF723FB0646236A9807D3D5FFF778
:100DCC001DFB801B4045F7D91CE7052B236A03D17B
:100DDC0043F004032362BAE723F001032362236A7E
:100DEC0023F00403B6E7FFF709FBA0EB0800B042C1
:100DFC00B6D907E70010024000004242800442428C
:100E0C0020000020007000402A4B5A681C4602F05B
:100E1C000C02082A3DD00023274E022833602BD128
:100E2C00FFF7ECFA0746236899011FD42B6AB3F538
:100E3C00803F05D16268A96822F400320A436260DF
:100E4C00696A62680B4322F47412134363600123D2
:100E5C003360FFF7D3FA054623689A013FF5A8AE35
:100E6C00FFF7CCFA401B0228F6D9CBE6FFF7C6FAFF
:100E7C00C01B0228D7D9C5E6FFF7C0FA0546236880
:100E8C009B017FF595AEFFF7B9FA401B0228F6D906
:100E9C00B8E601283FF4B7AE58682B6A00F48032EC
:100EAC009A427FF471AE6B6A00F47010C01A18BFCE
:100EBC000120A8E6001002406000424230B5194BF8
:100ECC0087B002AC03F11005224618685968083344
:100EDC0003C2AB421446F7D101238DF80430022330
:100EEC0011498DF805304B6803F00C02082A17D114
:100EFC00C3F3834206A80244DB0312F8102C0CD572
:100F0C004B680A48C3F34043504306AA134413F8F2
:100F1C00143CB0FBF3F007B030BD05485043FAE782
:100F2C000248F8E7642A00080010024000127A0018
:100F3C0000093D002DE9F0410D46044610B9012091
:100F4C00BDE8F081454A136803F007038B4229D3AF
:100F5C0021688E0731D4CA0744D4404A136803F081
:100F6C0007039D4267D322683D4D12F0040F6ED1EA
:100F7C00130706D56B68226923F4605343EAC20356
:100F8C006B60FFF79BFF6B68364AC3F30313D35CAC
:100F9C00D840354B1860354B1868FFF7EDF9002039
:100FAC00BDE8F081136823F007030B43136013684B
:100FBC0003F007039942C2D1CAE7294B11F0040F81
:100FCC001EBF5A6842F4E0625A60080742BF5A6872
:100FDC0042F460525A605A68A06822F0F002024350
:100FEC005A60B8E762681E4E012A33681BD113F4AD
:100FFC00003FA4D0736841F2883823F003031343F5
:10100C007360FFF7FBF907467368626803F00C0323
:10101C00B3EB820FA1D0FFF7F1F9C01B4045F3D918
:10102C000320BDE8F081022A02D113F0007FE0E733
:10103C0013F0020FDDE7136823F007032B43136053
:10104C00136803F007039D427FF479AF8BE76B685D
:10105C00E16823F4E0630B436B6089E700200240F6
:10106C0000100240AF2A0008200000201C000020C5
:10107C00044B054A5B68C3F30223D35C034A106834
:10108C00D840704700100240BF2A00082000002002
:10109C00044B054A5B68C3F3C223D35C034A106854
:1010AC00D840704700100240BF2A000820000020E2
:1010BC0003682DE9F341D907054620D5354CE36982
:1010CC00DA0032D40127E36943F08053E361E3692A
:1010DC0003F080530193019B2F4E3368DB0526D51B
:1010EC00236A13F4407336D1236A6A6823F440737D
:1010FC00134323621FB1E36923F08053E361286833
:10110C00830706D5234AA968536823F440430B434D
:10111C00536010F010001BD01E4AE9685368002081
:10112C0023F480030B43536012E00027D4E73368A9
:10113C0043F480733360FFF761F980463368D80558
:10114C00CED4FFF75BF9A0EB08006428F6D9032096
:10115C0002B0BDE8F0816A6802F440729342C3D0D9
:10116C0001200E4A236A1060002023F440711060A5
:10117C002162D907B8D5FFF741F941F28838064604
:10118C00236A9A07B0D4FFF739F9801B4045F7D989
:10119C00DDE700BF001002400070004040044242F6
:1011AC0070B50446354B86B002AD03F110062A46E5
:1011BC0018685968083303C2B3421546F7D10123A6
:1011CC008DF8043002239C428DF8053047D0102C4A
:1011DC0017D0012C4FD140F20231294A136A194021
:1011EC00B1F5817F44D003F44073B3F5007F2DD16A
:1011FC0049F64040536A13F0020F08BF002006B0B6
:10120C0070BD1F4B5968186810F08070F7D0C1F38F
:10121C00834206A8024412F8100CCA0341BF5A6854
:10122C0006A9C2F34042521844BF12F8141C154AC6
:10123C005B684CBFB2FBF1F2134A5B0202FB00F09D
:10124C00DDD403234000B0FBF3F0D8E7B3F5407FC7
:10125C0011D113684FF2244013F4003FCDE7FFF790
:10126C0017FF074B5B68C3F3813301335B00EAE77D
:10127C004FF40040C3E70020C1E700BF742A000808
:10128C000010024000127A0000093D00036830B5DE
:10129C009A69D869996995B28CB2A5421DBFD86973
:1012AC0080B240EA014080B208BF40EA024030BD43
:1012BC000368186A5B6A9BB243EA004070470A22D3
:1012CC00030900F00F0002FB0300C0B270470229B3
:1012DC0070B54FF0170300F5FA654FF009061AD8F0
:1012EC004B4300F2CF74B3FBF6F04FF4C873B4FB6E
:1012FC00F3F304322A44104400EB940018446423A2
:10130C00B4FBF3F4001B0723B0FBF3F3C3EBC303F1
:10131C00C01AC0B270BD03FB01F0B0FBF6F0023294
:10132C002A444FF4C87310446422B5FBF3F3B5FBA5
:10133C00F2F200EB95001844801AE4E738B5044645
:10134C00FFF75CF8054623685A68920605D55A687B
:10135C00002042F010025A6038BDFFF74FF8401BD6
:10136C00B0F57A7FEFD9032038BD026838B55368E1
:10137C00044623F010035360FFF740F8054623683A
:10138C005B689B0601D5002038BDFFF737F8401B82
:10139C00B0F57A7FF3D9032038BD38B505460C4635
:1013AC00FFF7CCFF58B92B68220CA4B29A612846DF
:1013BC00DC61FFF7DAFF003018BF012038BD0120D7
:1013CC0038BD38B505460C46FFF7B8FF58B92B6841
:1013DC00220CA4B21A6228465C62FFF7C6FF0030EA
:1013EC0018BF012038BD012038BD70B50446E0B1EE
:1013FC00D9B1037C0226012B46D001234674037419
:10140C0008784E78897892B93C254FF4616375431E
:10141C0003FB0050451829462046FFF7BEFF064641
:10142C00B0B1042363740023237401262CE0FFF76E
:10143C0046FF05463046FFF742FF3C2358434FF426
:10144C00616303FB05050846FFF739FF0544E2E736
:10145C0022682046536823F005035360FFF728FFEA
:10146C00431C0DD085420BD900F5A83101F5C07194
:10147C002046FFF7A6FF18B1042326746374D4E743
:10148C000123637400232374304670BD70B50D4680
:10149C00044658B351B3037C0220012B27D00123FF
:1014AC0060742374C8781ABBE0734B7863738B78C1
:1014BC00A373A27B617BE07BFFF709FF207328708D
:1014CC002046FFF7E3FE1C4B984230D9A3F60F637E
:1014DC00B0FBF3F503FB150520462946FFF75DFF2E
:1014EC00064688B10423637400232374012070BD65
:1014FC00FFF7E5FEE0734878FFF7E1FE607388784C
:10150C00FFF7DDFEA073D4E72046FFF7D1FE431CA6
:10151C000DD085420BD900F5A83101F5C0712046DC
:10152C00FFF74FFF18B1042326746374DEE7012321
:10153C0000206374207470BD8F5F010038B50446C1
:10154C00A8B10268536823F008035360FEF756FFF6
:10155C00054623685B681B0701D5002038BDFEF7E4
:10156C004DFF401BB0F57A7FF3D9032038BD012025
:10157C0038BD000010B5044670B1437C03F0FF0287
:10158C0013B9027400F040FC022320466374FFF789
:10159C00D5FF18B104236374012010BD2046FFF75A
:1015AC00CDFE0028F6D12268A068536823F007030B
:1015BC005360174A18B1116B21F001011163D36A02
:1015CC0023F460730343D3626068431C05D101208C
:1015DC00FFF7E6FD0028DDD001382268936823F080
:1015EC000F0343EA10439360D36880B21B0C1B04B7
:1015FC001843D0602046FFF7B8FE012310B1042237
:10160C006274C9E7E0736373A373637410BD00BFA6
:10161C00006C004010B50446002834D000238362CF
:10162C0090F8513003F0FF021BB980F8502000F005
:10163C002BFC0223226884F851301368A06823F035
:10164C00400313606368A1690343E06803432069A6
:10165C00034360690343E0690343206A0343A06AC0
:10166C00034301F40070090C034301F004011360FF
:10167C005160D369002023F40063D36101236065BA
:10168C0084F8513010BD012010BD000038B505465E
:10169C000368C1681A69192422F440520A431A617A
:1016AC0082680069D9680243686921F4B05121F05D
:1016BC000C0102430A43DA605A69A96922F44072A8
:1016CC000A435A610D4A934214D1FFF7E1FC60437F
:1016DC006C686422A400B0FBF4F0B0FBF2F402FBE3
:1016EC0014031B013233B3FBF2F3296803EB04132D
:1016FC008B6038BDFFF7BCFCE9E700BF0038014048
:10170C00F8B504460E4617461D4621680B6836EAA6
:10171C00030301D10020F8BD6B1CF7D095B92368E9
:10172C000320DA6822F4D072DA605A6922F00102DE
:10173C005A61202384F8393084F83A30002384F835
:10174C003830F8BDFEF75AFEC01B8542DDD2E6E705
:10175C0010B5044640B390F8393003F0FF021BB9C2
:10176C0080F8382000F074FC2423226884F8393087
:10177C00D368204623F40053D360FFF787FF236818
:10178C0000201A6922F490421A615A6922F02A0246
:10179C005A61DA6842F40052DA602023E06384F87C
:1017AC00393084F83A3010BD012010BD2DE9F041DC
:1017BC001F4690F839300446202B0D4690464ED1EA
:1017CC00002949D0002A47D090F83830012B46D058
:1017DC00012380F838300023C363212380F839308B
:1017EC00FEF70CFE0646A4F82480A4F82680E38CB1
:1017FC009BB26BB93B46324640212046FFF780FF37
:10180C00A8B9202384F8380084F83930BDE8F08179
:10181C00E38C3246013B9BB2E384A3688021B3F591
:10182C00805F20463B460ED1FFF76AFF10B10320C4
:10183C00BDE8F0812B882268C3F308035360236949
:10184C0043B90235D3E7FFF75BFF0028EFD12368DC
:10185C002A785A600135CAE70120BDE8F0810220E0
:10186C00BDE8F0811148124B30B50024036001250E
:10187C004FF4602385B00194029403948460047344
:10188C000475C36144600561FEF776FE08B100F093
:10189C0081FA01A90548019402950394FEF7C6FD4F
:1018AC0008B100F077FA05B030BD00BFF0000020A1
:1018BC00002401401FB51148114A00230260012485
:1018CC004FF46022019302930393836003730375B7
:1018DC00C26143600461FEF74FFE08B100F05AFA92
:1018EC0007230193002301A9044802940393FEF7F4
:1018FC009DFD08B100F04EFA04B010BDC0000020F0
:10190C000028014010B504468AB01022002106A818
:10191C0000F05AFC2368264A93422BD1254B032412
:10192C009A6906A942F400729A619A69224802F4F3
:10193C0000720192019A9A6942F004029A619A69C2
:10194C0002F004020292029A9A6942F008029A6129
:10195C009B69079403F008030393039B01230693ED
:10196C00FEF770FF15480694079406A9FEF76AFF68
:10197C000AB010BD124A9342FAD10E4B06A99A69CD
:10198C000D4842F480629A619A6902F48062049272
:10199C00049A9A6942F004029A619B6903F0040369
:1019AC000593059BC023069303230793DEE700BF33
:1019BC00002401400010024000080140000C0140CE
:1019CC000028014008B54FF0100E0B480B4B80E877
:1019DC00084000238360C360036143610376437650
:1019EC008376C37603774377FEF746FE18B1BDE8DE
:1019FC00084000F0CFB908BD200100200064004071
:101A0C0010B5044686B01022002102A800F0DCFBC1
:101A1C002268154B9A4225D103F5D633DA6902A90F
:101A2C0042F00072DA61DA69104802F0007200923A
:101A3C00009A9A6942F004029A619B6903F00403CC
:101A4C000193019B4FF400630293FEF7FBFE4FF4EE
:101A5C008053029302230393032302A903480593A3
:101A6C00FEF7F0FE06B010BD006400400008014017
:101A7C0010222DE9F04389B00DEB0200002100F09B
:101A8C00A3FB424B424D9A69DFF8109142F01002D1
:101A9C009A619A693F4E02F010020092009A9A697C
:101AAC00284642F020029A619A69FF2102F0200236
:101ABC000192019A9A69002442F004029A619A698F
:101ACC004FF0010802F004020292029A9A6902276E
:101ADC0042F008029A619B69002203F00803039309
:101AEC00039BFEF791FF484600224FF44871FEF726
:101AFC008BFF002230464FF48E61FEF785FF4FF4CA
:101B0C0000530493244B04A9284605930694FEF72E
:101B1C0099FEFF2304A928460493CDF8148006945B
:101B2C000797FEF78FFE4FF4487304A948460493B9
:101B3C00CDF8148006940797FEF784FE4FF48E635D
:101B4C0004A930460493CDF8148006940797FEF749
:101B5C0079FE4FF4C05304A93046049305940694BF
:101B6C00FEF770FE4FF4407304A9284604930594C5
:101B7C000694FEF767FE224621462820FEF70AFE51
:101B8C002820FEF73BFE09B0BDE8F08300100240B0
:101B9C0000100140000C0140000011100008014031
:101BAC0008B50C480C4BDFF834E04FF4804280E869
:101BBC000840002302618360C36043618361C36199
:101BCC000362FEF733FF18B1BDE8084000F0E2B83D
:101BDC0008BD00BF4801002000540040A086010051
:101BEC0010B5044686B01022002102A800F0ECFAD1
:101BFC002268154B9A4224D1144C02A9A3691448AB
:101C0C0043F00803A361A36903F008030093009B4E
:101C1C004FF4407302931223039303230593FEF7AF
:101C2C0011FE0C4A536843F0E06343F00203536027
:101C3C00E36943F40013E361E36903F400130193D4
:101C4C00019B06B010BD00BF0054004000100240C4
:101C5C00000C014000000140282210B594B00DEB9F
:101C6C000200002100F0B0FA142210240DEB020047
:101C7C00002100F0A9FA2246002101A800F0A4FAE4
:101C8C0006230A9301230F940D930E9302244FF411
:101C9C0000230AA811941393FEF772FF0F230694E6
:101CAC00002405934FF48063214605A808930794FC
:101CBC000994FFF73FF9032301934FF4807301A8B4
:101CCC0002930394FFF7F4F914B010BDF0B58DB086
:101CDC00FEF776FBFFF7C0FFFFF7CAFE00F080F9B6
:101CEC0000F05AF8FFF7BEFDFFF7E4FDFFF76AFEC0
:101CFC00FFF756FF00F0A6F800F08EF90221102035
:101D0C00FEF7CEFA1E48FFF723FD08AA17461D4B17
:101D1C0003F11005144618685968083303C4AB4224
:101D2C002246F7D1012240211748FEF76DFE002410
:101D3C00134E164D6423102239463046FFF736FDFC
:101D4C002946684600F06CFA00216A460846FEF700
:101D5C0009FB22460134E4B20D4904A800F03CFA18
:101D6C003C2C04AA4FF001014FF0000028BF0024C6
:101D7C00FEF7F8FA4FF47A70FEF746FBDAE700BF8D
:101D8C00480200209F2A0008000C0140842A000809
:101D9C00942A00087047000013B54FF0FF3300245D
:101DAC001748184AADF800408DF80240019480E8BD
:101DBC000C008460FFF7DEFB08B1FFF7EBFF01229C
:101DCC0069460F488DF800408DF801408DF80240AF
:101DDC00FFF70BFB08B1FFF7DDFF0122002301A980
:101DEC0007488DF804208DF805208DF806208DF815
:101DFC000730FFF74BFB08B1FFF7CCFF02B010BD6B
:101E0C009C0100200028004007B50B4B02689A4249
:101E1C000ED1FEF7AFFE094BDA6942F00062DA61CF
:101E2C000122DB6903F000630193019B044B1A60F0
:101E3C0003B05DF804FB00BF002800400010024016
:101E4C003C04424208B54FF4827E0D480D4B4FF4D2
:101E5C00007280E8084000238360C3600361436123
:101E6C00C3610362436283620A238261C362FFF728
:101E7C00D1FB18B1BDE80840FFF78CBF08BD00BF0F
:101E8C00B00100200038004010B5044686B0102286
:101E9C00002102A800F098F92268174B9A4228D129
:101EAC0003F5EC33DA6902A942F48042DA61DA69AB
:101EBC00124802F480420092009A9A6942F0080299
:101ECC009A619B6903F008030193019B4FF4204333
:101EDC0002930223039303230593FEF7B3FC4FF401
:101EEC0080430293002302A9044803930493FEF752
:101EFC00A9FC06B010BD00BF00380040000C01402A
:101F0C000E4B82B09A6942F001029A619A6902F012
:101F1C0001020092009ADA6942F08052DA61DB69C0
:101F2C00074A03F080530193019B536823F0E0634D
:101F3C0043F00073536002B0704700BF00100240C2
:101F4C00000001407047FEE7FEE7FEE7FEE7704742
:101F5C0070477047FEF746BA4FF40050FEF75ABD73
:101F6C0008B50A4B0246196809B90949196069464E
:101F7C00186802448A4206D900F0FCF80C2303606E
:101F8C004FF0FF3008BD1A6008BD00BFA400002050
:101F9C008C0200200F4B1A6842F001021A6059683B
:101FAC000D4A0A405A601A6822F0847222F4803278
:101FBC001A601A6822F480221A605A6822F4FE020F
:101FCC005A604FF41F029A604FF00062034B9A6004
:101FDC00704700BF001002400000FFF800ED00E069
:101FEC0008B54FF4E13E0A480A4B0C2280E8084041
:101FFC00002342618360C36003618361C361FFF7A7
:10200C00A7FB18B1BDE80840FFF7C4BE08BD00BF70
:10201C00480200200044004008B54FF4E13E0A4855
:10202C000A4B0C2280E80840002342618360C360A5
:10203C0003618361C361FFF78BFB18B1BDE80840F6
:10204C00FFF7A8BE08BD00BF0802002000480040F2
:10205C00102210B5044688B00DEB0200002100F0F0
:10206C00B3F823682A4A93421DD12A4B04A9DA6992
:10207C00294842F40032DA61DA6902F40032009243
:10208C00009A9A6942F004029A619B6903F0040376
:10209C000193019B0C230493022305930793FEF7F2
:1020AC00D1FB08B010BD1D4A9342FAD1194B04A9BB
:1020BC00DA691B4842F48022DA61DA6902F4802280
:1020CC000292029A9A6942F010029A619B6903F09B
:1020DC0010030393039B4FF4806304930223059333
:1020EC0003230793FEF7AEFB4FF400630493002326
:1020FC0004A90B4805930693FEF7A4FB094A536801
:10210C0023F0300343F0E06343F010035360C8E75F
:10211C00004400400010024000080140004800400C
:10212C000010014000000140002103E00B4B5B5804
:10213C00435004310A480B4B42189A42F6D30A4AD0
:10214C0002E0002342F8043B084B9A42F9D3FFF714
:10215C0021FF00F015F8FFF7B9FD7047042B0008BC
:10216C000000002088000020880000208C02002045
:10217C00FEE70000014B1868704700BF24000020E8
:10218C0070B500250C4E0D4CA41BA410A54209D112
:10219C0000F056FC00250A4E0A4CA41BA410A542C4
:1021AC0005D170BD56F8253098470135EEE756F845
:1021BC00253098470135F2E7FC2A0008FC2A000874
:1021CC00FC2A0008002B000803460244934200D16D
:1021DC00704703F8011BF9E70EB44FF4027100B518
:1021EC009CB0ADF814106FF00041049107914FF6BC
:1021FC00FF711DAB02900690084853F8042BADF804
:10220C001610006802A9019300F06EF80022029BE0
:10221C001A701CB05DF804EB03B07047240000206A
:10222C00034611F8012B03F8012B002AF9D1704752
:10223C002DE9F0478E6882469E420C4691469846A0
:10224C0035D88A8912F4906F31D002232568096938
:10225C006F1A656905EB450595FBF3F508F101036C
:10226C003B449D4238BF1D46530531D5294600F0ED
:10227C0047FB064650B90C23CAF80030A3894FF02F
:10228C00FF3043F04003A381BDE8F0873A46216953
:10229C0000F0C4FAA38923F4906343F08003A38174
:1022AC0026613E44266046466561ED1BA5604645A9
:1022BC0028BF464649463246206800F0BAFAA36861
:1022CC0000209B1BA36023681E442660BDE8F0879A
:1022DC002A4600F073FB06460028E1D121695046DE
:1022EC0000F0C2FAC7E700002DE9F04F9DB0039350
:1022FC008B8980461C060D4616460FD50B696BB9AB
:10230C00402100F0FDFA2860286128B90C23C8F898
:10231C0000304FF0FF30C4E040236B610023099381
:10232C0020238DF8293030234FF0010B8DF82A3003
:10233C0037463C4614F8013B002B3CD1B7EB060A60
:10234C000BD05346324629464046FFF771FF013009
:10235C0000F0A280099B534409933B78002B00F0BA
:10236C009B8000234FF0FF32049307930592069352
:10237C008DF853301A9305222178504800F040FA1A
:10238C00671C049BD8B9D90644BF20228DF8532072
:10239C001A0744BF2B228DF8532022782A2A16D0F4
:1023AC0000210A20079A27463B780134303B092B41
:1023BC0050D9C9B111E0252BC0D02746B9E73F4A07
:1023CC003C46801A0BFA00F018430490D3E7039AAA
:1023DC00111D12680391002A01DB079204E052429E
:1023EC0043F00203079204933B782E2B0DD17B789C
:1023FC00791C2A2B32D1039B02371A1D1B680392BE
:10240C00002BB8BF4FF0FF3305932D4C03223978C6
:10241C00204600F0F5F938B14023001B03FA00F018
:10242C00049B0137034304933978062225487E1C0C
:10243C008DF8281000F0E4F9002835D0224BFBB9B8
:10244C00039B073323F0070308330393099B4B4487
:10245C0009936DE700FB02320121A4E700230A2453
:10246C00184605930F463A780131303A092A03D9B8
:10247C00002BCAD00590C8E704FB00200123F1E72C
:10248C0003AB00932A46114B04A94046AFF30080DE
:10249C00B0F1FF3F8146D9D1AB895B063FF539AF2F
:1024AC0009981DB0BDE8F08F03AB00932A46074B8B
:1024BC0004A9404600F084F8EAE700BFC72A0008E8
:1024CC00CD2A0008D12A0008000000003D22000897
:1024DC002DE9F04791461F468A680B6906469342E0
:1024EC00B8BF1346C9F8003091F843200C46DDF80C
:1024FC00208012B10133C9F800302368990642BF1D
:10250C00D9F800300233C9F80030256815F00605FB
:10251C0007D104F1190AE368D9F800209B1A9D42EF
:10252C002ADB94F843302268003318BF012392064B
:10253C002FD404F1430239463046C047013022D033
:10254C002368E56803F00603042B18BF0025D9F8AF
:10255C0000204FF0000908BFAD1AA368226908BF1C
:10256C0025EAE5759342C4BF9B1AED181A344D4504
:10257C001BD10020BDE8F087012352463946304676
:10258C00C047013003D14FF0FF30BDE8F087013573
:10259C00C1E73020E11881F843005A1C94F845102B
:1025AC002244023382F84310C3E701232246394602
:1025BC003046C0470130E6D009F10109D7E70000E9
:1025CC002DE9F04317460A7E85B06E2A98460646DA
:1025DC000C460C9B01F1430E00F0BC801AD8632A08
:1025EC002ED00AD8002A00F0C880582A00F08A8021
:1025FC0004F1420584F842202AE0642A01D0692AB9
:10260C00F6D121681A6811F0800F23D0111D1960C2
:10261C00136827E0732A00F0B48008D86F2A2AD0F8
:10262C00702AE5D10A6842F020020A6003E0752A9C
:10263C0021D0782ADCD178226F4984F8452064E0D7
:10264C001A6801F14205111D1960136884F84230B3
:10265C000123A3E011F0400F02F104011960D7D05F
:10266C00B2F90030002B03DA2D225B4284F84320B0
:10267C0062490A2217E02068196810F0800F03D015
:10268C00081D18600B6806E010F0400F01F1040003
:10269C001860F7D00B886F2A14BF0A2208225749FA
:1026AC00002084F843006568002DA560C0F29C8072
:1026BC00206820F004002060002B3FD1002D40F05A
:1026CC0095807546082A0BD12368DA0708D523694B
:1026DC0062689A42DEBF302305F8013C05F1FF35F4
:1026EC00AEEB05032361CDF800803B4603AA2146DF
:1026FC003046FFF7EDFE013055D14FF0FF3005B0FD
:10270C00BDE8F08381F845203C492268186812F036
:10271C00800F00F104051D6001D0036802E055062E
:10272C00FBD50388D00744BF42F0200222601BB9BE
:10273C00226822F0200222601022B1E77546B3FB1A
:10274C00F2F002FB1033CB5C05F8013D0346002888
:10275C00F5D1B7E708681A6810F0800F496904D002
:10276C00101D18601368196007E010F0400F02F19B
:10277C00040018601368F6D0198000237546236195
:10278C00B1E71A68111D19601568002162682846A6
:10279C0000F036F808B1401B6060636823610023C9
:1027AC0084F843309FE723692A4639463046C047B0
:1027BC000130A2D023689B0707D5002504F1190925
:1027CC00E368039A9B1A9D4205DBE068039B9842E1
:1027DC00B8BF184693E701234A4639463046C047EE
:1027EC0001308AD00135EBE7002BA7D10B7804F12F
:1027FC00420584F8423065E7E92A0008D82A000827
:10280C0010B5C9B202449042034601D1002010BD5C
:10281C001C7801308C42F6D1184610BD10B5431E01
:10282C000A44914200D110BD11F8014B03F8014F3D
:10283C00F7E7884210B501EB020303D8421E994218
:10284C000CD110BD9842F9D28118D21AD34200D1C2
:10285C0010BD13F8014D01F8014DF7E711F8014BCC
:10286C0002F8014FEBE7000038B50546002943D0CC
:10287C0051F8043C0C1F002BB8BFE41800F0D4F83E
:10288C001E4A1368104633B9636014602846BDE8CD
:10289C00384000F0CAB8A3420BD9216862189342A1
:1028AC0001BF1A685B685218226063600460EDE730
:1028BC0013465A680AB1A242FAD919685818A042AC
:1028CC000BD120680144581882421960DED110687F
:1028DC005268014419605A60D8E702D90C232B6066
:1028EC00D4E7206821188A4201BF11685268091880
:1028FC00216062605C60C9E738BD00BFA8000020A1
:10290C0070B5CD1C25F0030508350C2D38BF0C25F2
:10291C00002D064601DBA94203D90C2333600020AD
:10292C0070BD00F081F8234A1468214691B9224CFD
:10293C0023681BB9304600F067F820602946304602
:10294C0000F062F8431C26D10C233046336000F0B3
:10295C006CF8E4E70B685B1B1AD40B2B0FD90B60DC
:10296C00CC18CD50304600F060F804F10B00231D5C
:10297C0020F00700C31A1BD05A42E25070BD8C42A3
:10298C000BBF63684B681360636018BF0C46E9E7C4
:10299C000C464968CAE7C41C24F00304A04205D0C5
:1029AC00211A304600F030F80130CDD02560D9E73F
:1029BC0070BD00BFA8000020AC000020F8B5074691
:1029CC0014460E4621B91146BDE8F840FFF798BFF2
:1029DC0022B9FFF749FF25462846F8BD00F026F836
:1029EC0084420FD921463846FFF78AFF0546002856
:1029FC00F2D031462246FFF711FF31463846FFF739
:102A0C0033FFE9E73546E7E738B50023054C0546C3
:102A1C0008462360FFF7A4FA431C02D1236803B1D4
:102A2C002B6038BD880200207047704751F8040CA9
:102A3C000028A0F10400BCBF0B58C0187047000060
:102A4C00F8B500BFF8BC08BC9E467047F8B500BF8F
:082A5C00F8BC08BC9E4670475F
:102A640002030405060708090A0B0C0D0E0F1010CB
:102A740002030405060708090A0B0C0D0E0F1010BB
:102A8400323032302F30342F32365B5341545D00B4
:102A940031343A32353A253032640053544D3332AE
:102AA40020776F726C6421210A0D00000000000081
:102AB40000000001020304060708090000000001E9
:102AC400020304232D302B2000686C4C00656667DC
:102AD4004546470030313233343536373839414290
:102AE4004344454600303132333435363738396162
:082AF4006263646566000000E6
:042AFC00310100089C
:042B00000D010008BB
:102B04002000100000040001000C0140000C0140F2
:102B1400000C01400008014001000000100000000A
:102B24000024F40028000020000000000000000041
:102B34000000000000000000000000000000000091
:102B44000000000000000000000000000000000081
:102B54000000000000000000000000000000000071
:102B64000000000000000000000000000000000061
:102B74000000000000000000000000000000000051
:082B8400000000000000000049
:040000050800213599
:00000001FF
