:020000040800F2
:1000000000000320CD2100086D2100086F210008A9
:10001000712100087321000875210008000000000C
:100020000000000000000000000000007721000830
:1000300079210008000000007B2100087D210008D4
:100040001D2200081D2200081D2200081D22000894
:100050001D2200081D2200081D2200081D22000884
:100060001D2200081D2200081D2200081D22000874
:100070001D2200081D2200081D2200081D22000864
:100080001D2200081D2200081D2200081D22000854
:100090001D2200081D2200081D2200081D22000844
:1000A0001D2200081D2200081D2200081D22000834
:1000B0001D2200081D2200081D2200081D22000824
:1000C0001D2200081D2200081D2200081D22000814
:1000D0001D2200081D2200081D2200081D22000804
:1000E0001D2200081D2200081D2200081D220008F4
:1000F0001D2200081D2200081D2200081D220008E4
:100100001D2200081D2200081D2200081D220008D3
:100110001D2200081D2200081D2200081D220008C3
:100120001D2200081D2200081D2200081D220008B3
:100130001D2200081D2200081D2200081D220008A3
:100140001D2200081D2200081D2200081D22000893
:100150001D2200081D2200081D2200081D22000883
:100160001D2200081D2200081D2200081D22000873
:100170001D2200081D2200081D22000800000000AA
:100180001D2200081D2200081D2200081D22000853
:100190001D2200081D2200081D2200081D22000843
:0C01A0001D2200081D2200081D2200087E
:1001AC0010B5054C237833B9044B13B10448AFF3A5
:1001BC0000800123237010BD1000002000000000FF
:1001CC007822000808B5034B1BB103490348AFF371
:1001DC00008008BD000000001400002078220008F8
:1001EC0053B94AB9002908BF00281CBF4FF0FF3192
:1001FC004FF0FF3000F07AB9ADF1080C6DE904CE88
:10020C0000F006F8DDF804E0DDE9022304B07047E5
:10021C002DE9F0478C460D460446089E002B51D123
:10022C008A4217466DD9B2FA82FEBEF1000F0BD08E
:10023C00CEF1200C01FA0EF520FA0CFC02FA0EF7A6
:10024C004CEA050C00FA0EF44FEA174A250CBCFBDD
:10025C00FAF81FFA87F90AFB18CC45EA0C4508FB9B
:10026C0009F3AB420AD9ED1908F1FF3280F0238172
:10027C00AB4240F22081A8F102083D44ED1AA4B231
:10028C00B5FBFAF00AFB105544EA054400FB09F9EA
:10029C00A14509D9E41900F1FF3380F00A81A14589
:1002AC0040F2078102383C44A4EB090440EA0840C0
:1002BC000021002E61D024FA0EF400233460736008
:1002CC00BDE8F0878B4207D9002E54D0002186E878
:1002DC0021000846BDE8F087B3FA83F1002940F00D
:1002EC008E80AB4202D3824200F2FA80841A65EB14
:1002FC0003050120AC46002E3FD086E81010BDE867
:10030C00F08712B90127B7FBF2F7B7FA87FEBEF1F7
:10031C00000F34D1EB1B3A0C1FFA87FC0121B3FB05
:10032C00F2F8250C02FB183345EA03450CFB08F3E5
:10033C00AB4207D9ED1908F1FF3002D2AB4200F203
:10034C00D1808046ED1AA3B2B5FBF2F002FB10553A
:10035C0043EA05440CFB00FCA44507D9E41900F161
:10036C00FF3302D2A44500F2B8801846A4EB0C046B
:10037C0040EA08409DE731463046BDE8F087CEF1B3
:10038C00200405FA0EF307FA0EF720FA04F83A0CDB
:10039C0025FA04F448EA0308B4FBF2F14FEA1845D5
:1003AC0002FB11441FFA87FC45EA044501FB0CF3E0
:1003BC00AB4200FA0EF409D9ED1901F1FF3080F0CF
:1003CC008A80AB4240F2878002393D44EB1A1FFA17
:1003DC0088F5B3FBF2F002FB103345EA034500FB52
:1003EC000CF3AB4207D9ED1900F1FF386FD2AB42D9
:1003FC006DD902383D44EB1A40EA01418FE7C1F157
:10040C00200722FA07F88B4005FA01F448EA0303A7
:10041C0020FA07FE4FEA134CFD404EEA040EB5FBE2
:10042C00FCF94FEA1E440CFB19551FFA83F844EAF9
:10043C00054509FB08F4AC4202FA01F200FA01FA94
:10044C0008D9ED1809F1FF3043D2AC4241D9A9F1DA
:10045C0002091D442D1B1FFA8EFEB5FBFCF00CFB94
:10046C0010554EEA054400FB08F8A04507D9E418DE
:10047C0000F1FF3529D2A04527D902381C4440EAA7
:10048C000940A4EB0804A0FB02894C45C6464D4626
:10049C0015D312D056B1BAEB0E0364EB050404FA73
:1004AC0007F7CB401F43CC40376074600021BDE898
:1004BC00F0871846F8E69046E0E6C245EAD2B8EB7B
:1004CC00020E69EB03050138E4E72846D7E74046FE
:1004DC0091E78146BEE7014678E702383C4445E7A0
:1004EC00084608E7A8F102083D442BE7704700BF17
:1004FC0038B50E4A0E4B054618784FF47A73B3FB99
:10050C00F0F31068B0FBF3F000F09CF8044658B917
:10051C000F2D09D8024629464FF0FF3000F05EF847
:10052C00044B20461D6038BD012038BD0C00002056
:10053C00000000200400002008B50B4B1A6842F4A0
:10054C0000721A601A6842F480621A601A6842F4E7
:10055C0080721A60032000F02FF80020FFF7C8FF0C
:10056C0001F07EFC002008BD003C0240034A044B15
:10057C0011681B780B441360704700BF40000020CB
:10058C0000000020014B1868704700BF400000209D
:10059C0038B50446FFF7F6FF631C1CBF054B1B78F0
:1005AC00054618BFE418FFF7EDFF401B8442FAD84C
:1005BC0038BD00BF00000020074AD36823F4E06375
:1005CC001B041B0C43F0BF63000243F4003300F424
:1005DC00E0600343D360704700ED00E0174B30B58B
:1005EC00DC68C4F30224C4F10703251D042B28BFC7
:1005FC000423062D4FF0010505FA03F303F1FF3335
:10060C008CBF033C00241940A14005FA04F4013CC2
:10061C002240002842EA01024FEA0212ADBF00F16B
:10062C00604000F00F00064B00F56140B5BFD2B240
:10063C00D2B21A5480F8002330BD00BF00ED00E0A8
:10064C0014ED00E00138B0F1807F0AD2064B074A66
:10065C005860F02182F823100020072298601A605D
:10066C0070470120704700BF10E000E000ED00E093
:10067C002DE9F04F85B00B68DFF8C4816E4ADFF8C6
:10068C00C491019300234FF0010E019C0EFA03FE5E
:10069C000EEA0406B64540F0B6804C6824F010070C
:1006AC00022F16D14FEAD30A00EB8A0A03F0070B8C
:1006BC00DAF820504FEA8B0B4FF00F0C0CFA0BFCB6
:1006CC0025EA0C0C0D6905FA0BF545EA0C05CAF880
:1006DC0020504FEA430A0325D0F800B005FA0AF57A
:1006EC00ED4304F0030C0BEA050B0CFA0AFC013F7A
:1006FC004CEA0B0C012FC0F800C011D8876807EA30
:10070C00050BCF6807FA0AFC4CEA0B0787604768B1
:10071C0027EA0E0EC4F300179F4047EA0E07476006
:10072C00C7683D408F6807FA0AF73D43C560E5008E
:10073C0069D54FF0000BCDF80CB0D8F844703F4D94
:10074C0047F48047C8F84470D8F8447007F48047E1
:10075C000397039F23F0030707F1804707F59C37A6
:10076C0003F0030CD7F808A04FEA8C0C4FF00F0ED7
:10077C000EFA0CFEA8422AEA0E0E4BD005F5806547
:10078C00A84249D005F58065A84247D005F580659B
:10079C00A84245D005F58065A84243D0484543D0D2
:1007AC0005F50065A84241D005F58065A8423FD00B
:1007BC0005F58065A8423DD005F58065A84214BFBB
:1007CC000A25092505FA0CF545EA0E05BD601568E4
:1007DC00F74314F4803F0CBF3D403543156055681A
:1007EC0014F4003F0CBF3D4035435560956814F43C
:1007FC00801F0CBF3D4035439560D568A40254BFA3
:10080C003D403543D5600133102B7FF43CAF05B030
:10081C00BDE8F08F5D46D5E70125D3E70225D1E78A
:10082C000325CFE70425CDE70525CBE70625C9E74A
:10083C000725C7E70825C5E7003C0140000002403A
:10084C0000380240001402400AB18161704709046B
:10085C00FBE72DE9F043D20104684F68E568D1F855
:10086C0000E0D1F818908432A3180EF101065868F4
:10087C0000F470405860E068C5F30B45C0F30B40C2
:10088C003D44304440EA05405860E068CD68C0F310
:10089C000A000544986800F470409860E66888681F
:1008AC00C6F30A060130304440EA054098601869E6
:1008BC000E6920F0070018614FF0000C1E619D6955
:1008CC0091F8320091F83180C3F818C091F830508B
:1008DC0045EA096545EA082545EA00459D615869E0
:1008EC0020F0FF00586148695861D86920F4E06035
:1008FC0020F00700D861086ACD690543DD61986A6C
:10090C00486AC3F828C098621EB3012E23D0B01ECB
:10091C00022822D9072E0CBF02200120DD6A05F027
:10092C00E025DD628D6AC96AA7EB0E074543784363
:10093C00033040EA0540D862186B20F4FF6020F0C9
:10094C00070018631963A35843F00103A350BDE8D3
:10095C00F0830420E2E70320E0E70220DEE700005A
:10096C0038B50446002863D090F8A13003F0FF029C
:10097C001BB980F8A02001F08FFA022384F8A13073
:10098C002368A0689A6922F070429A61626899693A
:10099C000243E0680243206902430A439A619A6861
:1009AC00244960690A409A609A6842EA0042A06948
:1009BC0002439A60DA68E0690A40DA60DA6842EA6F
:1009CC000042206A0243DA601A69606A0A401A61BE
:1009DC001A6942EA0042A06A02431A615A6911403C
:1009EC0059615A69E16A42EA0142216B0A435A6130
:1009FC00D96A94F8360094F8355001F07F41D962E9
:100A0C00D96A94F834200A4342EA052242EA0042A9
:100A1C00DA625A6B42F006025A639A6942F001029A
:100A2C009A6100200123C4F8A40084F8A13038BDD9
:100A3C00012038BD00F800F0F8B590F8A030012B7B
:100A4C0006468E4694464FF002001DD034240D46C7
:100A5C0086F8A10004FB02640FCD0127383486F818
:100A6C00A0700FC40FCD0FC40FCD0FC42B68236023
:100A7C00304662467146FFF7ECFE336800205F6239
:100A8C0086F8A17086F8A000F8BD90F8A030012B74
:100A9C0070B54FF00203044615D080F8A130342312
:100AAC005343C618012580F8A050F16503F13801B5
:100ABC000144FFF7CEFE236800205D6284F8A1504C
:100ACC0084F8A00070BD184670BD000037B5002337
:100ADC000193184B184C1A6C42F080521A641B6C20
:100AEC0003F080530193019B144B01221A60FFF712
:100AFC0049FD05466368DA030BD5114B0E4C0122F8
:100B0C001A60FFF73FFD054663689B030AD500207A
:100B1C0006E0FFF737FD401BB0F57A7FEAD90320DA
:100B2C0003B030BDFFF72EFD401BB0F57A7FEBD93B
:100B3C00F5E700BF003802400070004040000E4254
:100B4C0044000E422DE9F341044618B9012002B0CD
:100B5C00BDE8F0810368DD0710D42368980758D4EA
:100B6C0023681A0700F19A8023685B0700F1B880AC
:100B7C00A269002A40F019810020E8E7A64B9A6888
:100B8C0002F00C02042A07D09A6802F00C02082A20
:100B9C000AD15B68590207D59F4B1B689A03DCD5B9
:100BAC006368002BD9D1D1E763689B4DB3F5803FC7
:100BBC0011D12B6843F480332B60FFF7E3FC964D87
:100BCC0006462B689B03C8D4FFF7DCFC801B64280B
:100BDC00F7D90320BBE7B3F5A02F04D12B6843F45E
:100BEC0080232B60E5E72A6822F480322A602A6889
:100BFC0022F480222A60002BDFD1FFF7C3FC0646CB
:100C0C002B689F03A9D5FFF7BDFC801B6428F7D97F
:100C1C00DFE7814B9A6812F00C0F07D09A6802F04C
:100C2C000C02082A11D15B685E020ED47A4B1A684A
:100C3C00950702D5E268012A88D11A68216922F049
:100C4C00F80242EAC1021A608AE7E268734BB2B159
:100C5C0001221A60FFF796FC6F4D06462B68980729
:100C6C0007D52B68226923F0F80343EAC2032B60F3
:100C7C0076E7FFF787FC801B0228EFD9A9E71A60FB
:100C8C00FFF780FC644D06462B6899077FF568AF2B
:100C9C00FFF778FC801B0228F6D99AE76269604B53
:100CAC007AB101221A60FFF76DFC5B4D06466B6F43
:100CBC009F073FF559AFFFF765FC801B0228F6D95B
:100CCC0087E71A60FFF75EFC534D06466B6F98077B
:100CDC007FF54AAFFFF756FC801B0228F6D978E760
:100CEC004D4B1A6C12F0805228D101921A6C42F0C2
:100CFC0080521A641B6C03F080530193019B0126F4
:100D0C00484D2B68D9051BD5A368434D012B27D122
:100D1C002B6F43F001032B67FFF734FC3E4D074666
:100D2C0041F288382B6F9B0739D5002E3FF420AF4A
:100D3C00394A136C23F08053136419E70026DFE75C
:100D4C002B6843F480732B60FFF71CFC07462B6861
:100D5C00DA05D9D4FFF716FCC01B0228F7D938E7FF
:100D6C00052B04D12B6F43F004032B67D0E72A6FBC
:100D7C0022F001022A672A6F22F004022A67002B54
:100D8C00CAD1FFF7FFFB41F2883807462B6F980753
:100D9C00CBD5FFF7F7FBC01B4045F7D919E7FFF799
:100DAC00F1FBC01B4045BDD913E71B4DAB6803F0ED
:100DBC000C03082B3FF4CAAE1B4E0023022A3360EF
:100DCC0034D1FFF7DFFB07462B6899011ED4226A4A
:100DDC00E3691343626A43EA8213E26A43EA0263F9
:100DEC00A26A0D4C5208013A43EA02436B6001239C
:100DFC003360FFF7C7FB054623689A013FF5BCAE8D
:100E0C00FFF7C0FB401B0228F6D9E2E6FFF7BAFB5E
:100E1C00C01B0228D8D9DCE600380240000047424B
:100E2C00800E47420070004060004742FFF7AAFB6B
:100E3C0004462B689B017FF59FAEFFF7A3FB001BBD
:100E4C000228F6D9C5E600BF134908B58B6803F034
:100E5C000C03042B03D0082B03D0104808BD1048FA
:100E6C0008BD4A684B68496813F4800314BF0C48EA
:100E7C000A48C1F3881118BF002302F03F02A1FBFE
:100E8C000001FFF7ADF9044B5B68C3F30143013379
:100E9C005B00B0FBF3F008BD003802400024F40006
:100EAC0000127A002DE9F0410D46044610B90120DC
:100EBC00BDE8F081444B1A6802F00F028A4228D335
:100ECC0021688F072DD4C80740D43F4B1A6802F015
:100EDC000F02954266D3226851076CD4130707D5CD
:100EEC003A4A2169936823F4604343EAC10393604F
:100EFC00FFF7AAFF354B364A9B68C3F30313D35C49
:100F0C00D840344B18600020FFF7F2FA0020BDE8FF
:100F1C00F081CAB21A701B6803F00F039942C6D154
:100F2C00CEE72A4B11F0040F1EBF9A6842F4E05230
:100F3C009A600E0742BF9A6842F460429A609A68BF
:100F4C00A06822F0F00202439A60BCE762681F4B73
:100F5C00012A1DD11B6813F4003FA8D01B4EB368A7
:100F6C0023F003031343B360FFF70CFB41F2883803
:100F7C000746B368626803F00C03B3EB820FA4D08E
:100F8C00FFF700FBC01B4045F3D90320BDE8F081FF
:100F9C00911E01291B6802D813F0007FDDE713F0C6
:100FAC00020FDAE7EAB21A701B6803F00F039D42D6
:100FBC007FF47DAF8FE70549E0688B6823F4E0533D
:100FCC0003438B608AE700BF003C024000380240BC
:100FDC00902200080C0000200368F7B59A0704461D
:100FEC0040F08880236813F00C0F44D0804D814E64
:100FFC0000232B60FFF7C6FA074633689B0000F10D
:10100C00BD8021684F0715D56369D6F88820206903
:10101C001B0602F0E04243EA80131343C6F8883003
:10102C00D6F88C30226A23F4F853013A43EA0223AF
:10103C00C6F88C300E0714D56E4AA369D2F8881006
:10104C0020691B0701F0706143EA80130B43C2F85F
:10105C008830D2F88C30616A23F440330B43C2F8E9
:10106C008C3001232B60FFF78DFA624D06462B68FE
:10107C00980040F18A8023689A0631D500230193A9
:10108C005C4B5D4D1A6C42F080521A641B6C03F081
:10109C0080530193019B2B6843F480732B60FFF703
:1010AC0071FA06462B68D90576D5524D2B6F13F481
:1010BC00407377D1A36A03F44072B2F5407F4D4A76
:1010CC0040F09180916823F0704021F4F81120F4E5
:1010DC00407001439160116FC3F30B030B43136713
:1010EC00206810F010001FBF444B94F82C201A609D
:1010FC00002041E0424D3F4E00232B60FFF742FAA7
:10110C00074633681B0131D42268D70706D5A3687C
:10111C0061681B0743EA8113C6F88430900715D524
:10112C00344AE368D2F8841060681B0601F0E04191
:10113C0043EA80130B43C2F88430D2F88C10E36975
:10114C0021F01F01013B0B43C2F88C3001232B60B3
:10115C00FFF718FA274D06462B6819013FF542AFE9
:10116C00FFF710FA801B0228F6D904E0FFF70AFA01
:10117C00C01B0228C5D9032003B0F0BDFFF702FA4B
:10118C00C01B02287FF639AFF5E7FFF7FBF9801B90
:10119C0002287FF66CAFEEE7FFF7F4F9801B02280C
:1011AC0080D9E8E7A26A02F44072934282D02B6F96
:1011BC00144A0121116023F44073002111602B6744
:1011CC002B6FDA077FF576AFFFF7DCF941F2883742
:1011DC0006462B6F9B073FF56DAFFFF7D3F9801BCE
:1011EC00B842F6D9C7E7916821F4F81172E700BF4D
:1011FC00700047420038024000700040E011474246
:10120C0068004742400E474238B50D460446C8B107
:10121C0090F82C3003F0FF021BB980F82D2000F061
:10122C002FFF022384F82C30211D206800F0CBF90D
:10123C0062682068294600F005FA012384F82C30F6
:10124C00002038BD012038BD38B5044690F82C007C
:10125C00C0B202280D460DD0022384F82C30206831
:10126C0000F038FA2B68022B0CBF0523012384F8FD
:10127C002C30002038BD10B5044690F82C00C0B2BC
:10128C00022809D0022384F82C30206800F047FA99
:10129C00012384F82C30002010BDF8B504460E460E
:1012AC0015461F4621688A6836EA020301D00020E1
:1012BC00F8BD6B1CF7D0FFF765F9C01B8542F1D860
:1012CC0023685A6822F0E0025A606268B2F5827FA5
:1012DC000AD1A268B2F5004F02D0B2F5806F03D1EB
:1012EC001A6822F040021A60A26AB2F5005F07D1B8
:1012FC001A6822F400521A601A6842F400521A60FA
:10130C00012384F85130002384F850300320F8BDB9
:10131C0073B51346134A144E15684268B5FBF6F6BE
:10132C004FF47A757543B2F5827F044601950DD161
:10133C000A468021FFF7B1FF10B9002002B070BD42
:10134C00636D43F0200363650320F7E7019B002BDB
:10135C00F3D0019B013B019323689B681B06F5D4DA
:10136C00EBE700BF0C00002000366E0110B5044600
:10137C00002836D00023836290F8513003F0FF022E
:10138C001BB980F8502000F045FE2168A068A269C6
:10139C00022384F851300B6823F040030B60636820
:1013AC000343E06803432069034360690343E06936
:1013BC000343206A0343A06A034302F4007003430F
:1013CC000B60120C636A02F004021A434A60CB6988
:1013DC0023F40063CB6100200123606584F8513055
:1013EC0010BD012010BD2DE9F7431E4690F850307A
:1013FC000A9F012B04460D46914600F0E280012322
:10140C0080F85030FFF7BEF894F851306168DBB2C9
:10141C00012B80460AD0B1F5827F40F0D080A068C5
:10142C00002840F0CC80042B40F0C980002D00F047
:10143C00C480B9F1000F00F0C080002E00F0BD8018
:10144C0094F85130C4F83890042B1CBF052384F851
:10145C00513000236365236463642368E687E68662
:10146C001A68A687500658BF1A68256358BF42F001
:10147C004002A68658BF1A60E268B2F5006F58D1D8
:10148C0009B1012E07D135F8022BDA60E38E256302
:10149C00013B9BB2E3860125E38E9BB2ABB9E38F94
:1014AC009BB293B9424639462046FFF731FF0028DC
:1014BC0040F08180A368002B32D123680190DA6858
:1014CC0001929B680193019B2AE02268936899071B
:1014DC000DD5E38E9BB253B14DB1236B33F8021B88
:1014EC00D1602363E38E013B9BB2E38600259368B6
:1014FC00DB070CD5E38F9BB24BB1A36BD26823F8FF
:10150C00022BA363E38F013B9BB2E3870125FFF71B
:10151C0039F8A0EB08008742BED87E1CBCD0032053
:10152C00012384F85130002384F8503003B0BDE817
:10153C00F08309B1012E08D12A781A73236B013379
:10154C002363E38E013B9BB2E3860125E38E9BB2C2
:10155C001BB9E38F9BB2002BA4D022689368980729
:10156C000ED5E38E9BB25BB155B1236B1B78137315
:10157C00236B01332363E38E013B9BB2E38600258F
:10158C0022689368D9070DD5E38F9BB253B1A36B37
:10159C00D2681A70A36B0133A363E38F013B9BB238
:1015AC00E3870125FEF7EEFFA0EB08008742CDD8BC
:1015BC007B1CCBD0B3E7202363650120B0E702206E
:1015CC00AEE70220B2E70B684A68D1F810C0012BD5
:1015DC002DE9F0430368D1F80890D1F80C804D69DF
:1015EC008C69D1F81CE00F6A4E6A14D023F4FF43C7
:1015FC0023F07F031A4342EA090242EA080242EA54
:10160C000C032B43234343EA0E033B433343036056
:10161C000020BDE8F083416821F4FF4121F07F01F7
:10162C0023F4F8430A4343EA0E0342EA09023B431C
:10163C0042EA08021E4342EA0C032B432343066092
:10164C004360E5E7012AF0B5D1F80CC08F680D694D
:10165C004E6991E8084089691BD082680EF1FF3E03
:10166C0002F07042013B42EA0E121A437B1E42EA20
:10167C0003230CF1FF3C43EA0C33013D43EA0543E1
:10168C00013E43EA0653013943EA016383600020BB
:10169C00F0BD8468C2680EF1FF3E02F07042013B5F
:1016AC0042EA0E121A4324F470047B1E42EA03220F
:1016BC000CF1FF3C24F470446B1E44EA0C34013EE4
:1016CC0042EA0343013944EA065643EA0163866061
:1016DC00C360DCE773B500230193154691E80C0059
:1016EC001343CA6843EA42238A68013A43EA421325
:1016FC000193019B03610446FEF744FF0646A06973
:10170C0010F0200003D06B1CF9D015B9032002B0E7
:10171C0070BDFEF737FF801B8542F0D2F6E74369B8
:10172C0043EA4101416100207047000010B586B0CA
:10173C000F4C8DF80F0000224FF400510D48FFF7AD
:10174C0083F8204600220421FFF77EF84FF6FF7342
:10175C0000930DF1170201230DF10F010648FFF75D
:10176C0042FE012204212046FFF76EF806B010BDA0
:10177C0000080240000C02404400002010B586B066
:10178C000F4C8DF80F0001224FF400510D48FFF75C
:10179C005BF8204600220421FFF756F83223009311
:1017AC000DF1170201230DF10F010748FFF71BFE86
:1017BC00012204212046FFF747F806B010BD00BFF8
:1017CC0000080240000C02404400002008B5CA206A
:1017DC00FFF7ACFFC320FFF7D1FF0820FFF7CEFFC8
:1017EC005020FFF7CBFFCF20FFF7A0FF0020FFF723
:1017FC00C5FFC120FFF7C2FF3020FFF7BFFFED2070
:10180C00FFF794FF6420FFF7B9FF0320FFF7B6FF43
:10181C001220FFF7B3FF8120FFF7B0FFE820FFF79E
:10182C0085FF8520FFF7AAFF0020FFF7A7FF782090
:10183C00FFF7A4FFCB20FFF779FF3920FFF79EFFBE
:10184C002C20FFF79BFF0020FFF798FF3420FFF7B9
:10185C0095FF0220FFF792FFF720FFF767FF20208C
:10186C00FFF78CFFEA20FFF761FF0020FFF786FFF0
:10187C000020FFF783FFB120FFF758FF0020FFF790
:10188C007DFF1B20FFF77AFFB620FFF74FFF0A20E2
:10189C00FFF774FFA220FFF771FFC020FFF746FF90
:1018AC001020FFF76BFFC120FFF740FF1020FFF760
:1018BC0065FFC520FFF73AFF4520FFF75FFF1520B6
:1018CC00FFF75CFFC720FFF731FF9020FFF756FFB3
:1018DC003620FFF72BFFC820FFF750FFF220FFF751
:1018EC0025FF0020FFF74AFFB020FFF71FFFC220A3
:1018FC00FFF744FFB620FFF719FF0A20FFF73EFF62
:10190C00A720FFF73BFF2720FFF738FF0420FFF746
:10191C0035FF2A20FFF70AFF0020FFF72FFF0020DA
:10192C00FFF72CFF0020FFF729FFEF20FFF726FF22
:10193C002B20FFF7FBFE0020FFF720FF0020FFF716
:10194C001DFF0120FFF71AFF3F20FFF717FFF620BE
:10195C00FFF7ECFE0120FFF711FF0020FFF70EFF51
:10196C000620FFF70BFF2C20FFF7E0FEC820FEF748
:10197C000FFE2620FFF7DAFE0120FFF7FFFEE02026
:10198C00FFF7D4FE0F20FFF7F9FE2920FFF7F6FE34
:10199C002420FFF7F3FE0C20FFF7F0FE0E20FFF7DC
:1019AC00EDFE0920FFF7EAFE4E20FFF7E7FE782058
:1019BC00FFF7E4FE3C20FFF7E1FE0920FFF7DEFE17
:1019CC001320FFF7DBFE0520FFF7D8FE1720FFF7EB
:1019DC00D5FE1120FFF7D2FE0020FFF7CFFEE1204D
:1019EC00FFF7A4FE0020FFF7C9FE1620FFF7C6FE86
:1019FC001B20FFF7C3FE0420FFF7C0FE1120FFF7EA
:101A0C00BDFE0720FFF7BAFE3120FFF7B7FE3320EB
:101A1C00FFF7B4FE4220FFF7B1FE0520FFF7AEFE44
:101A2C000C20FFF7ABFE0A20FFF7A8FE2820FFF7DB
:101A3C00A5FE2F20FFF7A2FE0F20FFF79FFE11201F
:101A4C00FFF774FEC820FEF7A3FD2920FFF76EFEFA
:101A5C002C20BDE80840FFF769BE000030B53024EB
:101A6C00A1B02246002108A800F0F8FB14220021A6
:101A7C0003A800F0F3FB0021224614A800F0EEFBB3
:101A8C000024234B01941A6C42F080521A641B6C94
:101A9C0003F080530193019B1E4B02941A6842F48D
:101AAC0040421A601B6803F440430293029B0123DB
:101ABC0008934FF4803309934FF48003B42202252A
:101ACC000F9308A804231192109313930E9512955B
:101ADC00FFF738F8FEF7FAFF0F2303934FF4A053E8
:101AEC00069305214FF4805303A80793049505949E
:101AFC00FFF7D8F9082314937F23189305231A931F
:101B0C0014A84FF400331D93FFF766FA21B030BDD3
:101B1C0000380240007000402DE9F347234C244D5F
:101B2C0001264FF000080827214682464FF6FF7227
:101B3C002846CDF8048084E8C000A660C4F80C8068
:101B4C00FFF782FB3046FEF723FD022321464FF6BA
:101B5C00FF72284684E888004FF00409A660C4F898
:101B6C000C80FFF771FB032321464FF6FF722846CA
:101B7C0084E88800C4F80890C4F80C80FFF764FB74
:101B8C004FF40C730193019BE3604FF6FF722146F7
:101B9C002846C4F800906760A660FFF755FB5146D5
:101BAC002846FFF768FB02B0BDE8F0872C00002048
:101BBC00440100202DE9F04196B0FEF7BDFCFFF783
:101BCC004DFF1422002109A800F048FB00249A4B79
:101BDC0001941A6B99489A4D42F020021A631A6BC1
:101BEC0002F020020192019A02941A6B42F08002D8
:101BFC001A631A6B02F080020292029A03941A6B17
:101C0C0042F004021A631A6B02F004020392039A64
:101C1C0004941A6B42F001021A631A6B02F001026F
:101C2C000492049A05941A6B42F002021A631A6B1E
:101C3C0002F002020592059A06941A6B42F04002D9
:101C4C001A631A6B02F040020692069A07941A6BFA
:101C5C0042F010021A631A6B02F010020792079AF4
:101C6C0008941A6B42F008021A631B6B03F008030A
:101C7C00224608930421089BFEF7E6FD22464FF40A
:101C8C0000517048FEF7E0FD01274FF0040809A948
:101C9C006A480B940C94CDF824800A97FEF7E8FC64
:101CAC004FF4005309A9674809930B940C940A97B5
:101CBC00FEF7DEFC2146342209A800F0CFFA624B75
:101CCC00AC6085E8180009236B611D23EB610323CD
:101CDC002B6240F20D136B6240F24313AB6240F285
:101CEC001713EB62284640F24713EC602C612B6310
:101CFC0085F8344085F8354085F83640AF61FEF7FD
:101D0C002FFEFF210E914FF48061F02210910521DE
:101D1C0002264FF4A0730A921191139209A922463C
:101D2C00284609940B940C930D960F9412941493CB
:101D3C008DF854408DF855408DF85640FEF77CFEDA
:101D4C004248434A84604FF4827380E80C004FF49D
:101D5C00007383611823C3610A23C362C4600461E6
:101D6C004461046244628462FFF700FB1C2221463A
:101D7C0009A800F073FA3748374B099680E88800B9
:101D8C0010230361402343614FF4C07383614FF40C
:101D9C00006303624FF480534362072309A90A933B
:101DAC000D9606230E960F962C4E0C938460C461F0
:101DBC008462C0F80C80CDF82C80FFF725FA40F235
:101DCC006A50FFF7A9FEFFF701FD2246316828464D
:101DDC00FEF75BFE34461F254FF4784623689A1EA7
:101DEC0003F5153303F2FE3322F8025F9A42FBD15E
:101DFC004FF47A70FEF7CCFB23689A1E03F515336B
:101E0C0003F2FE3322F8026F9A42FBD14FF47A7040
:101E1C00FEF7BEFB23689A1E03F5153303F2FE335F
:101E2C004FF6E07122F8021F9A42FBD14FF47A7000
:101E3C00FEF7AEFBD2E700BF0038024000080240BC
:101E4C009C000020000C024000680140440000206F
:101E5C000050014044010020400100A00800002077
:101E6C0082B00C4B002100915A6C42F480425A64AF
:101E7C005A6C02F480420092009A01911A6C42F062
:101E8C0080521A641B6C03F080530193019B02B0C7
:101E9C00704700BF00380240F0B504468DB01422E4
:101EAC00002107A800F0DAF92268534B9A4240F05F
:101EBC00A080002403F5504300945A6C4F4842F024
:101ECC0080625A645A6C02F080620092009A01940B
:101EDC001A6B42F020021A631A6B02F02002019274
:101EEC00019A02941A6B42F001021A631A6B02F007
:101EFC0001020292029A03941A6B42F002021A63D4
:101F0C001A6B02F002020392039A04941A6B42F0C9
:101F1C0040021A631A6B02F040020492049A059470
:101F2C001A6B42F004021A631A6B02F00402059257
:101F3C00059A06941A6B42F008021A631B6B03F0A5
:101F4C000803069302250E26069B08954FF4806322
:101F5C0007A907930B96FEF78BFB41F6580307A9CD
:101F6C00274807930927089509940A940B96FEF7BE
:101F7C007FFB032307A923480793089509940A9428
:101F8C000B97FEF775FB4FF4706307A91D48079379
:101F9C00089509940A940B96FEF76AFB4FF40C63B0
:101FAC0007A919480793089509940A940B96FEF70C
:101FBC005FFB4FF4986307A914480793089509949D
:101FCC000A940B96FEF754FB482307A91048079375
:101FDC00089509940A940B96FEF74AFB4FF4A0530C
:101FEC0007A909480793089509940A940B97FEF7DB
:101FFC003FFB0DB0F0BD00BF006801400014024073
:10200C000000024000040240001802400008024098
:10201C00000C024010B5044688B01422002103A81D
:10202C0000F01CF92268144B9A4223D103F5684343
:10203C00002101915A6C114842F480125A645A6C76
:10204C0002F480120192019A02911A6B42F0200262
:10205C001A631B6B03F020030293029B4FF4607313
:10206C000393022304930323069303A905230793E5
:10207C00FEF7FEFA08B010BD0050014000140240FB
:10208C002DE9F04186B01422002101A800F0E6F8F9
:10209C002B4B1C68002C50D14FF00108C3F800806A
:1020AC00284B00949A6B284842EA08029A639B6B6F
:1020BC0003EA08030093022703260C25009B0297D2
:1020CC004FF63F0301A9019304960595FEF7D0FA4C
:1020DC0001A91E48CDF80480029703940496059537
:1020EC00FEF7C6FA48F2331301A919480193029777
:1020FC00039404960595FEF7BBFA4FF6837301A97A
:10210C00144801930297039404960595FEF7B0FAD0
:10211C004CF2037301A9104801930297039404969F
:10212C000595FEF7A5FA602301A90C4801930297C7
:10213C00039404960595FEF79BFA06B0BDE8F08172
:10214C003C0000200038024000140240000802400D
:10215C000018024000100240000C02400004024033
:10216C007047FEE7FEE7FEE7FEE7704770477047F3
:10217C00FEF7FCB90F49D1F8883043F47003C1F86D
:10218C0088300D4B1A68002042F001021A609860EA
:10219C001A6822F0847222F480321A60074A5A605C
:1021AC001A6822F480221A60D8604FF000638B60AA
:1021BC00704700BF00ED00E00038024010300024F2
:1021CC00DFF834D0002103E00C4B5B584350043152
:1021DC000B480C4B42189A42F6D30B4A02E00023F0
:1021EC0042F8043B094B9A42F9D3FFF7C3FF00F0C6
:1021FC0011F8FFF7DFFC704700000320B022000845
:10220C0000000020100000201000002078010020A9
:10221C00FEE7000070B50D4E0D4CA41BA41000255C
:10222C00A54209D10B4E0C4C00F020F8A41BA410B5
:10223C000025A54205D170BD56F8253098470135CB
:10224C00EEE756F8253098470135F2E7A82200084A
:10225C00A8220008A8220008AC2200080244034669
:10226C00934200D1704703F8011BF9E7F8B500BFA2
:10227C00F8BC08BC9E467047F8B500BFF8BC08BC5B
:04228C009E467047B3
:102290000000000000000000010203040607080916
:0822A0007CDFFF7F010000005C
:0422A800D101000858
:0422AC00AD01000878
:1022B0000100000010000000000000D00024F40025
:04000005080021CD01
:00000001FF
