:020000040800F2
:1000000000500020BD0F0008210E0008230E00083C
:10001000250E0008270E0008290E00080000000029
:100020000000000000000000000000002B0E00088F
:100030002D0E0008000000002F0E0008310E0008F1
:10004000051000080510000805100008051000083C
:10005000051000080510000805100008051000082C
:10006000051000080510000805100008051000081C
:10007000051000080510000805100008051000080C
:1000800005100008051000080510000805100008FC
:1000900005100008051000080510000805100008EC
:1000A00005100008051000080510000805100008DC
:1000B00005100008051000080510000805100008CC
:1000C00005100008051000080510000805100008BC
:1000D0000510000805100008350E0008051000087E
:1000E000510E00080510000805100008000000006F
:1000F0000000000000000000000000000000000000
:0C01000000000000000000005FF808F1A3
:10010C0010B5054C237833B9044B13B10448AFF345
:10011C0000800123237010BD70000020000000003F
:10012C003C1F000808B5034B1BB103490348AFF350
:10013C00008008BD00000000740000203C1F000877
:10014C0038B50E4B054618784FF47A73B3FBF0F3C1
:10015C000B4A1068B0FBF3F000F0A0F8044658B955
:10016C000F2D09D8024629464FF0FF3000F054F805
:10017C00044B20461D6038BD012038BD0000002016
:10018C000800002004000020074A08B5136803206B
:10019C0043F01003136000F02DF80020FFF7D0FFA0
:1001AC0000F016FE002008BD00200240034A044B5C
:1001BC0011681B780B441360704700BF9800002037
:1001CC0000000020014B1868704700BF9800002009
:1001DC0038B50446FFF7F6FF0546631C1EBF044BFB
:1001EC001B78E418FFF7EEFF401B8442FAD838BDA9
:1001FC0000000020074A0002D36800F4E06023F4FA
:10020C00E0631B041B0C43F0BF6343F40033034354
:10021C00D360704700ED00E0174B30B5DC68C4F3D9
:10022C000224C4F10703251D042B28BF0423062D2B
:10023C004FF0010598BF002405FA03F303F1FF33D7
:10024C0088BF033C1940A14005FA04F4013C22404C
:10025C00002842EA01024FEA0212A9BF00F16040F5
:10026C00064BD2B200F56140BBBF00F00F00D2B21A
:10027C0080F800231A5430BD00ED00E014ED00E0CE
:10028C00002808DB0123420900F01F0003FA00F0EC
:10029C00014B43F82200704700E100E00138B0F157
:1002AC00807F0AD2F021064B064A586082F8231050
:1002BC000020072298601A6070470120704700BF29
:1002CC0010E000E000ED00E02DE9F74F0024264699
:1002DC00664BDFF8A8E1DFF8A8C10A6832FA06F528
:1002EC0002D103B0BDE8F08F4FF0010808FA06F810
:1002FC0002EA080290457FD14D68122D00F0AA80C9
:10030C0000F28380022D00F0A28077D8002D00F03F
:10031C008980012D00F099804FF00F09FF2A93BFBF
:10032C00824606F18045083DD0F800B092BFB5007A
:10033C00D0F804B0AD0009FA05F82BEA080804FA65
:10034C0005F588BF00F1040A48EA0505CAF8005013
:10035C00D1F804A01AF0805F4ED0454D444FAD69E2
:10036C0026F0030845F00105BD61BD6908F1804820
:10037C0005F00105019508F5803806F0030B019D89
:10038C004FEA8B0BD8F8085009FA0BF925EA090942
:10039C00384DA84263D005F58065A84261D005F5BB
:1003AC008065A8425FD005F58065A8420CBF032587
:1003BC00042505FA0BF545EA0905C8F808501D682F
:1003CC001AF4803F14BF154395431D605D681AF401
:1003DC00003F14BF154395435D609D681AF4801F60
:1003EC0014BF154395439D60DD681AF4001F14BFBC
:1003FC002A4325EA0202DA6001366EE7032D22D089
:10040C00112D89D1CC68043486E71B4FBD4209D02D
:10041C0012D8DFF870904D4504D009F580394D4560
:10042C007FF47AAF8C68C4B1012C0CBFC0F810807B
:10043C00C0F8148008246FE77545F3D06545F1D0FA
:10044C00DFF84490EBE7002466E7CC6864E7CC68FF
:10045C00083461E7CC680C345EE704245CE70025C3
:10046C00A7E70125A5E70225A3E700BF000401408B
:10047C000010024000080140000021100000311063
:10048C000000321000001110000022100AB10161AE
:10049C0070470904FBE7C3680B4214BF416101615B
:1004AC007047704708B5044B5969014202D0586136
:1004BC00FFF7F7FF08BD00BF000401402DE9F34131
:1004CC00054608B901203CE00368DB0710D42B6813
:1004DC009F075DD42B68190700F194802B685A078D
:1004EC0000F1BE80E869002840F02C81002028E053
:1004FC008F4C636803F00C03042B07D0636803F084
:10050C000C03082B09D16368DE0306D523689C0312
:10051C00DDD56B68002BDAD1D4E76B68B3F5803F7F
:10052C0012D1236843F480332360FFF74BFE064659
:10053C0023689803CBD4FFF745FE801B6428F7D9BA
:10054C00032002B0BDE8F0819BB9236823F480330B
:10055C002360236823F480232360FFF733FE0646D1
:10056C0023689903B3D5FFF72DFE801B6428F7D9B8
:10057C00E6E7B3F5A02F236803D143F4802323606F
:10058C00CFE723F480332360236823F48023CBE765
:10059C00674C636813F00C0F07D0636803F00C030F
:1005AC00082B10D16368DA030DD423689B0702D59E
:1005BC002B69012B86D123686A6923F0F80343EA7F
:1005CC00C203236086E72A695A4B6AB101221A607A
:1005DC00FFF7F8FD064623689F07ECD4FFF7F2FD02
:1005EC00801B0228F7D9ABE71A60FFF7EBFD064634
:1005FC00236898077FF56EAFFFF7E4FD801B022898
:10060C00F6D99DE7AA694A4C4B4BDAB101221A6024
:10061C00FFF7D8FD0646636A9B070DD54FF4FA52D7
:10062C00464B1B68B3FBF2F3019300BF019B5A1EB0
:10063C000192002BF9D151E7FFF7C4FD801B022872
:10064C00E9D97DE71A60FFF7BDFD0646636A9F078F
:10065C007FF544AFFFF7B6FD801B0228F6D96FE794
:10066C00334CE369D80024D40127E36943F0805369
:10067C00E361E36903F080530093009B304E3368D1
:10068C00D90518D5EB68012B26D1236A43F0010359
:10069C002362FFF797FD41F288368046236A9B0759
:1006AC003FD5002F3FF41EAFE36923F08053E36185
:1006BC0018E70027E2E7336843F480733360FFF7F1
:1006CC0081FD80463368DA05DCD4FFF77BFDA0EBB7
:1006DC0008006428F6D933E7ABB9236A41F28838AD
:1006EC0023F001032362236A23F004032362FFF740
:1006FC0069FD0646236A9807D3D5FFF763FD801B77
:10070C004045F7D91CE7052B236A03D143F00403BA
:10071C002362BAE723F001032362236A23F0040364
:10072C00B6E7FFF74FFDA0EB0800B042B6D907E7DC
:10073C0000100240000042428004424208000020A7
:10074C00007000402A4B5A681C4602F00C02082A22
:10075C003DD00023274E022833602BD1FFF732FD0A
:10076C000746236899011FD42B6AB3F5803F05D146
:10077C006268A96822F400320A436260696A62689E
:10078C000B4322F474121343636001233360FFF7AD
:10079C0019FD054623689A013FF5A8AEFFF712FD37
:1007AC00401B0228F6D9CBE6FFF70CFDC01B022834
:1007BC00D7D9C5E6FFF706FD054623689B017FF5F3
:1007CC0095AEFFF7FFFC401B0228F6D9B8E60128CE
:1007DC003FF4B7AE58682B6A00F480329A427FF42B
:1007EC0071AE6B6A00F47010C01A18BF0120A8E635
:1007FC00001002406000424230B5194B87B002AC89
:10080C0003F11005224618685968083303C2AB423D
:10081C001446F7D101238DF80430022311498DF8C9
:10082C0005304B6803F00C02082A17D1C3F383423E
:10083C0006A80244DB0312F8102C0CD54B680A48AE
:10084C00C3F34043504306AA134413F8143CB0FBC3
:10085C00F3F007B030BD05485043FAE70248F8E71B
:10086C00541F00080010024000127A0000093D00DD
:10087C002DE9F0410D46044610B90120BDE8F08188
:10088C00454A136803F007038B4229D321688E076E
:10089C0031D4CA0744D4404A136803F007039D427D
:1008AC0067D322683D4D12F0040F6ED1130706D5A5
:1008BC006B68226923F4605343EAC2036B60FFF751
:1008CC009BFF6B68364AC3F30313D35CD840354B9C
:1008DC001860354B1868FFF733FC0020BDE8F08139
:1008EC00136823F007030B431360136803F007032B
:1008FC009942C2D1CAE7294B11F0040F1EBF5A68A6
:10090C0042F4E0625A60080742BF5A6842F46052EF
:10091C005A605A68A06822F0F00202435A60B8E7A5
:10092C0062681E4E012A33681BD113F4003FA4D019
:10093C00736841F2883823F0030313437360FFF7A5
:10094C0041FC07467368626803F00C03B3EB820F3B
:10095C00A1D0FFF737FCC01B4045F3D90320BDE8FD
:10096C00F081022A02D113F0007FE0E713F0020FAE
:10097C00DDE7136823F007032B431360136803F0C0
:10098C0007039D427FF479AF8BE76B68E16823F432
:10099C00E0630B436B6089E70020024000100240CB
:1009AC00911F000808000020040000202DE9F04FE2
:1009BC000C68C4F30F2494FAA4F24FF00F09B2FAA6
:1009CC0082F24FF003084FF0040C40F2011E34FA8F
:1009DC0002F302D11846BDE8F08F01239340234265
:1009EC0063D0072A83BF4FF00115A2F1080305FA63
:1009FC0003F30EFA02F388BF43F080631E0E93FAE2
:100A0C00A3FABAFA8AFA93FAA3FBBBFA8BFB8559C1
:100A1C004FEA8A0A09FA0AFA25EA0A0A4D684FEAE5
:100A2C008B0B05FA0BFB4AEA0B058551C5684FEA9F
:100A3C00132A9AFAAAFBBBFA8BFB25EA0A0A0D6960
:100A4C0005FA0BF54AEA0505C5604D6825F0080561
:100A5C00012D2AD193FAA3FABAFA8AFA93FAA3F5DA
:100A6C00B5FA85F587594FEA850B4FEA8A0A8D68E6
:100A7C0008FA0AFA27EA0A0A05FA0BF54AEA050502
:100A8C00855193FAA3FBBBFA8BFB93FAA3F3B3FA4E
:100A9C0083F3CF684FEA8B0B0CFA0BFB9B0025EA18
:100AAC000B0507FA03F31D43855101328FE7000054
:100ABC00034B044A5B68C3F30313D35CD840704701
:100ACC0000100240911F0008034B044A5B68C3F3FB
:100ADC000223D35CD840704700100240A11F0008CD
:100AEC00034B044A5B68C3F3C223D35CD840704702
:100AFC0000100240A11F0008094B5A6802F4803212
:100B0C0062B15868074AC0F340400130B2FBF0F0C4
:100B1C005B68C3F383430233584370470248F7E7DB
:100B2C000010024000127A0000093D00044B5B6883
:100B3C0003F00C03082B01D1FFF7DEBF014870470F
:100B4C000010024000127A0008B50146FFF7EEFFD4
:100B5C000860FFF7ADFF4860FFF7B6FF8860486894
:100B6C00FFF7BEFFC86008BD30B5C36885B09B04F5
:100B7C0004460D4602D5012005B030BD4B68C9684E
:100B8C00C2680B43296922F4B0520B4322F00C02C9
:100B9C001343C3600369AA6823F4405313430361EE
:100BAC0043696A6923F44073134343616846FFF752
:100BBC00CBFF134B9C4219D103990029DBD02A6837
:100BCC00002AD8D019234B439200B3FBF2F36422D2
:100BDC00B3FBF2F102FB11331B013233B3FBF2F323
:100BEC0003EB01139BB2A3600020C5E7054B9C42AD
:100BFC0001D10299E1E7044B9C42BCD1F9E700BF5B
:100C0C00003801400044004000480040102230B53C
:100C1C0089B00DEB0200002100F01AFA214B224C96
:100C2C009A69204642F010029A619A69202102F0DA
:100C3C0010020092009A9A69002542F020029A61F3
:100C4C009A6902F020020192019A9A6942F0040218
:100C5C009A619A6902F004020292029A9A6942F02D
:100C6C0008029A619B69002203F008030393039B1B
:100C7C00FFF70CFC4FF4005304930C4B04A90C48E5
:100C8C0005930695FFF720FB20230493012305937E
:100C9C00022304A9204606950793FFF715FB09B01C
:100CAC0030BD00BF001002400008014000001110D0
:100CBC00001001400B4610B506485C1A944201DB4B
:100CCC00104610BD04682406FCD513F8014B446093
:100CDC00F3E700BF0044004010B590B0282200217B
:100CEC0006A800F0B5F91422002101A800F0B0F913
:100CFC0001230A93102302240B934FF4601306A8CC
:100D0C000F9306940D94FFF7D9FB0F234FF48062D9
:100D1C0001930023214601A80294039304920593A6
:100D2C00FFF7A6FD10B010BD38B5FFF72DFA002463
:100D3C00FFF7D2FFFFF76AFF00F0E2F84022104BFA
:100D4C002146DB680F4B282083F826435A60224645
:100D5C00FFF762FA2820FFF793FA21460A4A0B4D57
:100D6C00D36843F02003D3604C1C284600F078F97C
:100D7C00E4B24FF4FA70FFF72BFA2146F4E700BF08
:100D8C0000ED00E000E100E000440040661F0008B8
:100D9C0013B50B4C6268D2B20192019A532A02D05D
:100DAC00019B732B03D120210648FFF774FB019B99
:100DBC000548DBB2636000F0C7F902B010BD00BF9C
:100DCC000044004000080140641F00087047000008
:100DDC000E4B82B09A6942F001029A619A6902F054
:100DEC0001020092009ADA6942F08052DA61DB6902
:100DFC00074A03F080530193019B536823F0E0638F
:100E0C0043F00073536002B0704700BF0010024003
:100E1C00000001407047FEE7FEE7FEE7FEE7704783
:100E2C0070477047FFF7C2B9054B1A68920604D594
:100E3C00DB689B0601D5FFF7ABBFFFF7C7BF00BF51
:100E4C00004400404FF40050FFF72CBB70B50E4629
:100E5C0015460C46A31B9D4201DC284670BDAFF322
:100E6C00008004F8010BF5E708B50A4B0246196837
:100E7C0009B9094919606946186802448A4206D9B9
:100E8C0000F0BCF80C2303604FF0FF3008BD1A6073
:100E9C0008BD00BF8C000020A00000204FF0FF30E8
:100EAC0070474FF4005300204B607047012070478F
:100EBC00002070470F4B1A6842F001021A60596803
:100ECC000D4A0A405A601A6822F0847222F4803269
:100EDC001A601A6822F480221A605A6822F4FE0200
:100EEC005A604FF41F029A604FF00062034B9A60F5
:100EFC00704700BF001002400000FFF800ED00E05A
:100F0C001C2230B58FB00DEB0200002100F0A0F8D0
:100F1C001422002102A800F09BF8234B0925DA6962
:100F2C00224C42F40032DA61DA6902A902F400328E
:100F3C000192019A9A69204642F004029A619B69D7
:100F4C00039503F004030093009B40F204430293C7
:100F5C0002230493FFF72AFD40F6080302A920465A
:100F6C0002930395FFF722FD4FF4E1330C22079314
:100F7C000023A4F5444407A92046089309930A9337
:100F8C000C930D930B92FFF7EFFD236923F4904321
:100F9C002361636923F02A036361E36843F400531C
:100FAC00E3600FB030BD00BF0010024000080140EC
:100FBC00002103E00B4B5B58435004310A480B4BA8
:100FCC0042189A42F6D30A4A02E0002342F8043B44
:100FDC00084B9A42F9D3FFF76DFF00F015F8FFF7B5
:100FEC00A3FE70474C200008000000207000002079
:100FFC0070000020A0000020FEE70000014B1868E4
:10100C00704700BF0C00002070B500250C4E0D4C35
:10101C00A41BA410A54209D100F08AFF00250A4E9A
:10102C000A4CA41BA410A54205D170BD56F825305E
:10103C0098470135EEE756F8253098470135F2E729
:10104C0044200008442000084420000848200008E0
:10105C0003460244934200D1704703F8011BF9E7A1
:10106C000FB40A4B13B51C6824B1A36913B92046FD
:10107C0000F024FA05AB049AA1682046019300F015
:10108C00DDFB02B0BDE8104004B070470C0000203E
:10109C0070B50E46054618B183690BB900F00EFA0F
:1010AC00AB69AC6813B9284600F008FA234B9C4294
:1010BC0017D16C68A3891B071DD52369DBB1013ED1
:1010CC00A36816F8011F013BA360E9B9002B2EDAC7
:1010DC0022460A21284600F03FF8013011D00A20A0
:1010EC0070BD174B9C4201D1AC68E3E7154B9C4299
:1010FC0008BFEC68DEE72146284600F07FF80028A0
:10110C00DDD04FF0FF3070BD002B04DAA2699342A2
:10111C0006DB0A2904D023685A1C22601970CFE719
:10112C002246284600F018F80130C9D1E9E70A2018
:10113C0023685A1C2260187070BD00BFD01F0008B5
:10114C00F01F0008B01F0008024B01461868FFF79B
:10115C009FBF00BF0C000020F8B50E461446054694
:10116C0018B183690BB900F0A9F9214B9C422AD123
:10117C006C68A369A360A3891A072ED5236963B38E
:10118C0023692068F6B2C01A63693746984204DBBB
:10119C002146284600F028F928BBA3680130013B02
:1011AC00A36023685A1C22601E706369984204D0A5
:1011BC00A389DB0719D50A2E17D12146284600F042
:1011CC0013F990B10FE00B4B9C4201D1AC68D0E706
:1011DC00094B9C4208BFEC68CBE72146284600F03F
:1011EC000DF80028CCD04FF0FF373846F8BD00BFC3
:1011FC00D01F0008F01F0008B01F0008324B70B55C
:10120C001D6806460C4625B1AB6913B9284600F09B
:10121C0055F92E4B9C420FD16C68B4F90C309AB234
:10122C0015072CD4D00611D40922326043F04003A8
:10123C00A3814FF0FF3070BD254B9C4201D1AC68AF
:10124C00EBE7244B9C4208BFEC68E6E7510712D54C
:10125C00616B41B104F14403994202D0304600F075
:10126C001BFA00236363A38923F02403A3810023C7
:10127C00636023692360A38943F00803A381236976
:10128C004BB9A38903F42073B3F5007F03D0214637
:10129C00304600F0C1F9A28912F001030CD00023F2
:1012AC00A36063695B42A361236953B9B4F90C3041
:1012BC0013F08000BAD170BD920758BF6369A36068
:1012CC00F2E70020F7E700BF0C000020D01F000859
:1012DC00F01F0008B01F00088A892DE9F04105466F
:1012EC0010070C465AD44B68002B05DC0B6C002BFA
:1012FC0002DC0020BDE8F081E66A002EF9D0002364
:10130C0012F480522F682B6033D0606DA3895A077A
:10131C0005D56368C01A636B0BB1236CC01A00232C
:10132C000246E66A216A2846B047431CA38906D1C7
:10133C0029681D294BD82B4ACA40D60747D500220D
:10134C0062602269D904226004D5421C01D12B6849
:10135C0003B96065616B2F600029CAD004F14403A6
:10136C00994202D0284600F097F900206063BDE84E
:10137C00F081216A01232846B047411CC6D12B6855
:10138C00002BC3D01D2B01D0162B01D12F60B0E741
:10139C00A38943F04003A381BDE8F0810F69002FBE
:1013AC00A7D0930718BF00230E6808BF4B69A6EBA4
:1013BC0007080F608B60B8F1000F9ADD43463A4680
:1013CC00216A2846A66AB047002807DCA38943F0A7
:1013DC004003A3814FF0FF30BDE8F0810744A8EB38
:1013EC000008E8E70100402038B50B6905460C46BB
:1013FC00DBB118B183690BB900F060F80C4B9C425F
:10140C0009D16C68B4F90C307BB121462846BDE893
:10141C003840FFF761BF074B9C4201D1AC68F1E744
:10142C00054B9C4208BFEC68ECE7002038BD00BFC0
:10143C00D01F0008F01F0008B01F0008014900F081
:10144C00A9B800BFF5130008002310B504460360CB
:10145C004360836081814366C28103614361836120
:10146C00194608225C30FFF7F3FD054B24626362DA
:10147C00044BA362044BE362044B236310BD00BF17
:10148C00C51D0008E71D00081F1E0008431E0008AC
:10149C0070B568254A1E55430E4605F1740100F0DF
:1014AC0047F9044640B1002180E842000C30A060AE
:1014BC0005F16802FFF7CCFD204670BD836910B5BD
:1014CC00044633BB8364C3640365124B124A1B6826
:1014DC008262984204BF0123836100F01FF86060B0
:1014EC00204600F01BF8A060204600F017F8002200
:1014FC00E06004216068FFF7A7FF01220921A068C2
:10150C00FFF7A2FF02221221E068FFF79DFF0123E3
:10151C00A36110BDAC1F000849140008F8B51C4BA2
:10152C0007461E68B36913B93046FFF7C7FF483644
:10153C00B4687368013B03D5336833B13668F7E799
:10154C00B4F90C506DB16834F4E704213846FFF758
:10155C009FFF30600028F1D10C2304463B602046ED
:10156C00F8BD4FF6FF73E38101236566A381256007
:10157C00A560656025616561A5610822294604F1B5
:10158C005C00FFF765FD6563A563A564E564E6E7AC
:10159C00AC1F00082DE9F84380468946002600F16F
:1015AC00480414B93046BDE8F883A5686768013F64
:1015BC0001D52468F5E7AB89012B07D9B5F90E30B5
:1015CC00013303D029464046C84706436835EEE749
:1015DC0070B50E46B1F90E1090B0002914461D4698
:1015EC0007DA00232B60B3891A0610D44FF48063FA
:1015FC000EE001AA00F046FC0028F2DB029A02F48D
:10160C007042A2F500535A425A412A60EEE7402339
:10161C000020236010B070BD8B8973B59D07064602
:10162C000C4607D504F14703236023610123636152
:10163C0002B070BD01AB6A46FFF7CAFF00990546C0
:10164C00304600F075F848B9B4F90C309A05EFD46F
:10165C0023F0030343F00203A381E3E70D4BB362D2
:10166C00A389206043F08003A381009B2061636108
:10167C00019B5BB1B4F90E10304600F015FC28B19B
:10168C00A38923F0030343F00103A381A3891D4322
:10169C00A581CDE74914000838B50546002943D08B
:1016AC0051F8043C0C1F002BB8BFE41800F02CFCC4
:1016BC001E4A1368104633B9636014602846BDE8AF
:1016CC00384000F022BCA3420BD921686218934227
:1016DC0001BF1A685B685218226063600460EDE712
:1016EC0013465A680AB1A242FAD919685818A0428E
:1016FC000BD120680144581882421960DED1106861
:10170C005268014419605A60D8E702D90C232B6047
:10171C00D4E7206821188A4201BF11685268091861
:10172C00216062605C60C9E738BD00BF900000209A
:10173C0070B5CD1C25F0030508350C2D38BF0C25D4
:10174C00002D064601DBA94203D90C23336000208F
:10175C0070BD00F0D9FB234A1468214691B9224C84
:10176C0023681BB9304600F017FB20602946304631
:10177C0000F012FB431C26D10C233046336000F0E2
:10178C00C4FBE4E70B685B1B1AD40B2B0FD90B6063
:10179C00CC18CD50304600F0B8FB04F10B00231DE3
:1017AC0020F00700C31A1BD05A42E25070BD8C4285
:1017BC000BBF63684B681360636018BF0C46E9E7A6
:1017CC000C464968CAE7C41C24F00304A04205D0A7
:1017DC00211A304600F0E0FA0130CDD02560D9E76F
:1017EC0070BD00BF9000002094000020936810B4DE
:1017FC00013B002B936008DA9469A34202DBCBB265
:10180C000A2B02D110BCFFF7A7BC1368581C106040
:10181C001970C8B210BC7047F8B506460F4614468E
:10182C00D518AC4201D1002007E03A4614F8011B50
:10183C003046FFF7DBFF431CF3D1F8BD2DE9F04F29
:10184C009DB00C4617460393064618B183690BB935
:10185C00FFF734FE7C4B9C4257D17468A389180760
:10186C005DD52369002B5AD00023099320238DF8D2
:10187C00293030234FF0010B8DF82A30B8464546FD
:10188C0015F8013B002B55D1B8EB070A0BD053468A
:10189C003A4621463046FFF7BFFF013000F0C480C6
:1018AC00099B5344099398F80030002B00F0BC803E
:1018BC0000234FF0FF3204930793059206938DF8A3
:1018CC0053301A9305222978604800F00FFB05F17C
:1018DC000108049B002831D1D90644BF20228DF881
:1018EC0053201A0744BF2B228DF853202A782A2A1A
:1018FC002CD000210A20079AA84698F80030013510
:10190C00303B092B6DD971B326E0514B9C4201D170
:10191C00B468A3E74F4B9C4208BFF4689EE721468E
:10192C003046FFF76BFC00289ED04FF0FF301DB007
:10193C00BDE8F08F252BA7D0A846A0E7434A454623
:10194C00801A0BFA00F018430490BBE7039A111DA0
:10195C0012680391002A01DB079204E0524243F023
:10196C0002030792049398F800302E2B10D198F8AC
:10197C00013008F101012A2B37D1039B08F1020831
:10198C001A1D1B680392002BB8BF4FF0FF33059351
:10199C00314D032298F80010284600F0A7FA40B108
:1019AC004023401B03FA00F0049B08F10108034399
:1019BC00049398F800100622284808F101078DF8C6
:1019CC00281000F093FA002834D0254B03BB039B5E
:1019DC00073323F0070308330393099B4B44099304
:1019EC004CE700FB0232012186E700230A2518464A
:1019FC000593884698F800200131303A092A03D91A
:101A0C00002BC5D00590C3E705FB00200123F0E7B0
:101A1C0003AB00932246134B04A93046AFF300806E
:101A2C00B0F1FF3F8146D8D1A3895B063FF57DAF6E
:101A3C0009987CE703AB009322460A4B04A9304675
:101A4C0000F08AF8ECE700BFD01F00081020000857
:101A5C00F01F0008B01F0008162000081A2000080C
:101A6C0000000000251800082DE9F04791461F469C
:101A7C008A680B6906469342B8BF1346C9F8003012
:101A8C0091F843200C46DDF8208012B10133C9F8DF
:101A9C0000302368990642BFD9F800300233C9F8E8
:101AAC000030256815F0060507D104F1190AE36822
:101ABC00D9F800209B1A9D422ADB94F84330226807
:101ACC00003318BF012392062FD404F14302394688
:101ADC003046C047013022D02368E56803F0060386
:101AEC00042B18BF0025D9F800204FF0000908BFBF
:101AFC00AD1AA368226908BF25EAE5759342C4BFF5
:101B0C009B1AED181A344D451BD10020BDE8F08707
:101B1C000123524639463046C047013003D14FF0BD
:101B2C00FF30BDE8F0870135C1E73020E11881F8BE
:101B3C0043005A1C94F845102244023382F8431097
:101B4C00C3E70123224639463046C0470130E6D070
:101B5C0009F10109D7E700002DE9F04317460A7E89
:101B6C0085B06E2A984606460C460C9B01F1430E36
:101B7C0000F0BC801AD8632A2ED00AD8002A00F0B4
:101B8C00C880582A00F08A8004F1420584F842206B
:101B9C002AE0642A01D0692AF6D121681A6811F06A
:101BAC00800F23D0111D1960136827E0732A00F0F1
:101BBC00B48008D86F2A2AD0702AE5D10A6842F07E
:101BCC0020020A6003E0752A21D0782ADCD1782221
:101BDC006F4984F8452064E01A6801F14205111D33
:101BEC001960136884F842300123A3E011F0400F10
:101BFC0002F104011960D7D0B2F90030002B03DADE
:101C0C002D225B4284F8432062490A2217E02068A7
:101C1C00196810F0800F03D0081D18600B6806E0DF
:101C2C0010F0400F01F104001860F7D00B886F2AF8
:101C3C0014BF0A2208225749002084F84300656823
:101C4C00002DA560C0F29C80206820F0040020606C
:101C5C00002B3FD1002D40F095807546082A0BD102
:101C6C002368DA0708D5236962689A42DEBF3023FD
:101C7C0005F8013C05F1FF35AEEB05032361CDF80A
:101C8C0000803B4603AA21463046FFF7EDFE0130AB
:101C9C0055D14FF0FF3005B0BDE8F08381F84520F9
:101CAC003C492268186812F0800F00F104051D6091
:101CBC0001D0036802E05506FBD50388D00744BF6A
:101CCC0042F0200222601BB9226822F0200222601E
:101CDC001022B1E77546B3FBF2F002FB1033CB5C7C
:101CEC0005F8013D03460028F5D1B7E708681A68E6
:101CFC0010F0800F496904D0101D1860136819602A
:101D0C0007E010F0400F02F1040018601368F6D0E1
:101D1C001980002375462361B1E71A68111D1960FB
:101D2C00156800216268284600F0E0F808B1401BF5
:101D3C00606063682361002384F843309FE7236964
:101D4C002A4639463046C0470130A2D023689B074B
:101D5C0007D5002504F11909E368039A9B1A9D42E3
:101D6C0005DBE068039B9842B8BF184693E7012354
:101D7C004A4639463046C04701308AD00135EBE738
:101D8C00002BA7D10B7804F1420584F8423065E7AB
:101D9C00322000082120000838B50023054C0546E8
:101DAC0008462360FFF760F8431C02D1236803B197
:101DBC002B6038BD9C00002010B50C46B1F90E10FC
:101DCC0000F0A4F80028ABBF636DA3891B1823F4A3
:101DDC008053ACBF6365A38110BD2DE9F0411F4654
:101DEC008B890546DB050C46164605D502230022D9
:101DFC00B1F90E1000F068F8A389324623F4805331
:101E0C00A381B4F90E103B462846BDE8F04100F022
:101E1C0017B810B50C46B1F90E1000F055F8431C6C
:101E2C00A38915BF606523F4805343F48053A381C9
:101E3C0018BFA38110BDB1F90E1000F013B800004B
:101E4C0038B50546084611460022054C22601A4654
:101E5C00FEF730FF431C02D1236803B12B6038BD61
:101E6C009C00002038B50023054C0546084623602D
:101E7C00FFF714F8431C02D1236803B12B6038BD63
:101E8C009C00002038B50023064C05460846114638
:101E9C002360FFF706F8431C02D1236803B12B60C3
:101EAC0038BD00BF9C00002038B50023054C05460A
:101EBC0008462360FEF7FAFF431C02D1236803B1E6
:101ECC002B6038BD9C00002038B5054608461146ED
:101EDC000022054C22601A46FEF7EAFF431C02D191
:101EEC00236803B12B6038BD9C00002010B5C9B22B
:101EFC0002449042034601D1002010BD1C780130F1
:101F0C008C42F6D1184610BD7047704738B505465F
:101F1C00084611460022054C22601A46FEF796FF31
:101F2C00431C02D1236803B12B6038BD9C000020F8
:101F3C00F8B500BFF8BC08BC9E467047F8B500BFAA
:081F4C00F8BC08BC9E4670477A
:101F540002030405060708090A0B0C0D0E0F1010E6
:101F64000D0048656C6C6F204E75636C656F204C7A
:101F74004C204472697665204170706C69636174A9
:101F8400696F6E203A20253264200D0A000000009B
:101F94000000000000010203040607080900000015
:101FA40000010203040000001000002000000000F3
:101FB400000000000000000000000000000000001D
:101FC400000000000000000000000000000000000D
:101FD40000000000000000000000000000000000FD
:101FE40000000000000000000000000000000000ED
:101FF40000000000000000000000000000000000DD
:10200400000000000000000000000000232D302B21
:102014002000686C4C0065666745464700303132E5
:10202400333435363738394142434445460030313C
:10203400323334353637383961626364656600009B
:04204400310100085E
:042048000D0100087E
:10204C0001000000100000000024F400100000202B
:10205C0000000000D01F0008F01F0008B01F00088F
:10206C000000000000000000000000000000000064
:10207C000000000000000000000000000000000054
:10208C000000000000000000000000000000000044
:10209C000000000000000000000000000000000034
:1020AC000000000000000000000000000000000024
:0400000508000FBD23
:00000001FF
